{
	"contracts/tokenContract.sol": {
		"KYCToken": {
			"abi": [
				{
					"inputs": [
						{
							"internalType": "string",
							"name": "name_",
							"type": "string"
						},
						{
							"internalType": "string",
							"name": "symbol_",
							"type": "string"
						},
						{
							"internalType": "uint8",
							"name": "decimals_",
							"type": "uint8"
						},
						{
							"internalType": "uint256",
							"name": "cap_",
							"type": "uint256"
						},
						{
							"internalType": "uint256",
							"name": "rate_",
							"type": "uint256"
						},
						{
							"internalType": "address",
							"name": "beneficiary_",
							"type": "address"
						}
					],
					"stateMutability": "nonpayable",
					"type": "constructor"
				},
				{
					"inputs": [],
					"name": "AccessControlBadConfirmation",
					"type": "error"
				},
				{
					"inputs": [
						{
							"internalType": "address",
							"name": "account",
							"type": "address"
						},
						{
							"internalType": "bytes32",
							"name": "neededRole",
							"type": "bytes32"
						}
					],
					"name": "AccessControlUnauthorizedAccount",
					"type": "error"
				},
				{
					"inputs": [
						{
							"internalType": "uint256",
							"name": "increasedSupply",
							"type": "uint256"
						},
						{
							"internalType": "uint256",
							"name": "cap",
							"type": "uint256"
						}
					],
					"name": "ERC20ExceededCap",
					"type": "error"
				},
				{
					"inputs": [
						{
							"internalType": "address",
							"name": "spender",
							"type": "address"
						},
						{
							"internalType": "uint256",
							"name": "allowance",
							"type": "uint256"
						},
						{
							"internalType": "uint256",
							"name": "needed",
							"type": "uint256"
						}
					],
					"name": "ERC20InsufficientAllowance",
					"type": "error"
				},
				{
					"inputs": [
						{
							"internalType": "address",
							"name": "sender",
							"type": "address"
						},
						{
							"internalType": "uint256",
							"name": "balance",
							"type": "uint256"
						},
						{
							"internalType": "uint256",
							"name": "needed",
							"type": "uint256"
						}
					],
					"name": "ERC20InsufficientBalance",
					"type": "error"
				},
				{
					"inputs": [
						{
							"internalType": "address",
							"name": "approver",
							"type": "address"
						}
					],
					"name": "ERC20InvalidApprover",
					"type": "error"
				},
				{
					"inputs": [
						{
							"internalType": "uint256",
							"name": "cap",
							"type": "uint256"
						}
					],
					"name": "ERC20InvalidCap",
					"type": "error"
				},
				{
					"inputs": [
						{
							"internalType": "address",
							"name": "receiver",
							"type": "address"
						}
					],
					"name": "ERC20InvalidReceiver",
					"type": "error"
				},
				{
					"inputs": [
						{
							"internalType": "address",
							"name": "sender",
							"type": "address"
						}
					],
					"name": "ERC20InvalidSender",
					"type": "error"
				},
				{
					"inputs": [
						{
							"internalType": "address",
							"name": "spender",
							"type": "address"
						}
					],
					"name": "ERC20InvalidSpender",
					"type": "error"
				},
				{
					"anonymous": false,
					"inputs": [
						{
							"indexed": true,
							"internalType": "address",
							"name": "owner",
							"type": "address"
						},
						{
							"indexed": true,
							"internalType": "address",
							"name": "spender",
							"type": "address"
						},
						{
							"indexed": false,
							"internalType": "uint256",
							"name": "value",
							"type": "uint256"
						}
					],
					"name": "Approval",
					"type": "event"
				},
				{
					"anonymous": false,
					"inputs": [
						{
							"indexed": true,
							"internalType": "address",
							"name": "userAddress",
							"type": "address"
						}
					],
					"name": "KYCUserAdded",
					"type": "event"
				},
				{
					"anonymous": false,
					"inputs": [
						{
							"indexed": true,
							"internalType": "address",
							"name": "userAddress",
							"type": "address"
						}
					],
					"name": "KYCUserRemoved",
					"type": "event"
				},
				{
					"anonymous": false,
					"inputs": [
						{
							"indexed": true,
							"internalType": "bytes32",
							"name": "role",
							"type": "bytes32"
						},
						{
							"indexed": true,
							"internalType": "bytes32",
							"name": "previousAdminRole",
							"type": "bytes32"
						},
						{
							"indexed": true,
							"internalType": "bytes32",
							"name": "newAdminRole",
							"type": "bytes32"
						}
					],
					"name": "RoleAdminChanged",
					"type": "event"
				},
				{
					"anonymous": false,
					"inputs": [
						{
							"indexed": true,
							"internalType": "bytes32",
							"name": "role",
							"type": "bytes32"
						},
						{
							"indexed": true,
							"internalType": "address",
							"name": "account",
							"type": "address"
						},
						{
							"indexed": true,
							"internalType": "address",
							"name": "sender",
							"type": "address"
						}
					],
					"name": "RoleGranted",
					"type": "event"
				},
				{
					"anonymous": false,
					"inputs": [
						{
							"indexed": true,
							"internalType": "bytes32",
							"name": "role",
							"type": "bytes32"
						},
						{
							"indexed": true,
							"internalType": "address",
							"name": "account",
							"type": "address"
						},
						{
							"indexed": true,
							"internalType": "address",
							"name": "sender",
							"type": "address"
						}
					],
					"name": "RoleRevoked",
					"type": "event"
				},
				{
					"anonymous": false,
					"inputs": [
						{
							"indexed": true,
							"internalType": "address",
							"name": "from",
							"type": "address"
						},
						{
							"indexed": true,
							"internalType": "address",
							"name": "to",
							"type": "address"
						},
						{
							"indexed": false,
							"internalType": "uint256",
							"name": "value",
							"type": "uint256"
						}
					],
					"name": "Transfer",
					"type": "event"
				},
				{
					"inputs": [],
					"name": "DEFAULT_ADMIN_ROLE",
					"outputs": [
						{
							"internalType": "bytes32",
							"name": "",
							"type": "bytes32"
						}
					],
					"stateMutability": "view",
					"type": "function"
				},
				{
					"inputs": [],
					"name": "KYC_ROLE",
					"outputs": [
						{
							"internalType": "bytes32",
							"name": "",
							"type": "bytes32"
						}
					],
					"stateMutability": "view",
					"type": "function"
				},
				{
					"inputs": [],
					"name": "MINTER_ROLE",
					"outputs": [
						{
							"internalType": "bytes32",
							"name": "",
							"type": "bytes32"
						}
					],
					"stateMutability": "view",
					"type": "function"
				},
				{
					"inputs": [
						{
							"internalType": "address",
							"name": "user",
							"type": "address"
						}
					],
					"name": "addKYCUser",
					"outputs": [],
					"stateMutability": "nonpayable",
					"type": "function"
				},
				{
					"inputs": [
						{
							"internalType": "address",
							"name": "newMinter",
							"type": "address"
						}
					],
					"name": "addMinter",
					"outputs": [],
					"stateMutability": "nonpayable",
					"type": "function"
				},
				{
					"inputs": [
						{
							"internalType": "address",
							"name": "owner",
							"type": "address"
						},
						{
							"internalType": "address",
							"name": "spender",
							"type": "address"
						}
					],
					"name": "allowance",
					"outputs": [
						{
							"internalType": "uint256",
							"name": "",
							"type": "uint256"
						}
					],
					"stateMutability": "view",
					"type": "function"
				},
				{
					"inputs": [
						{
							"internalType": "address",
							"name": "spender",
							"type": "address"
						},
						{
							"internalType": "uint256",
							"name": "value",
							"type": "uint256"
						}
					],
					"name": "approve",
					"outputs": [
						{
							"internalType": "bool",
							"name": "",
							"type": "bool"
						}
					],
					"stateMutability": "nonpayable",
					"type": "function"
				},
				{
					"inputs": [
						{
							"internalType": "address",
							"name": "account",
							"type": "address"
						}
					],
					"name": "balanceOf",
					"outputs": [
						{
							"internalType": "uint256",
							"name": "",
							"type": "uint256"
						}
					],
					"stateMutability": "view",
					"type": "function"
				},
				{
					"inputs": [
						{
							"internalType": "address",
							"name": "_tokenOwner",
							"type": "address"
						},
						{
							"internalType": "uint256",
							"name": "_amount",
							"type": "uint256"
						}
					],
					"name": "burnMyBalance",
					"outputs": [
						{
							"internalType": "bool",
							"name": "",
							"type": "bool"
						}
					],
					"stateMutability": "nonpayable",
					"type": "function"
				},
				{
					"inputs": [],
					"name": "cap",
					"outputs": [
						{
							"internalType": "uint256",
							"name": "",
							"type": "uint256"
						}
					],
					"stateMutability": "view",
					"type": "function"
				},
				{
					"inputs": [],
					"name": "decimals",
					"outputs": [
						{
							"internalType": "uint8",
							"name": "",
							"type": "uint8"
						}
					],
					"stateMutability": "view",
					"type": "function"
				},
				{
					"inputs": [],
					"name": "getBeneficiary",
					"outputs": [
						{
							"internalType": "address",
							"name": "",
							"type": "address"
						}
					],
					"stateMutability": "view",
					"type": "function"
				},
				{
					"inputs": [],
					"name": "getDividendPaymentPeriodState",
					"outputs": [
						{
							"internalType": "bool",
							"name": "",
							"type": "bool"
						}
					],
					"stateMutability": "view",
					"type": "function"
				},
				{
					"inputs": [],
					"name": "getKYCList",
					"outputs": [
						{
							"internalType": "address[]",
							"name": "",
							"type": "address[]"
						}
					],
					"stateMutability": "view",
					"type": "function"
				},
				{
					"inputs": [
						{
							"internalType": "address",
							"name": "_stakeHolder",
							"type": "address"
						}
					],
					"name": "getOwnedTokens",
					"outputs": [
						{
							"internalType": "bool",
							"name": "",
							"type": "bool"
						}
					],
					"stateMutability": "view",
					"type": "function"
				},
				{
					"inputs": [
						{
							"internalType": "bytes32",
							"name": "role",
							"type": "bytes32"
						}
					],
					"name": "getRoleAdmin",
					"outputs": [
						{
							"internalType": "bytes32",
							"name": "",
							"type": "bytes32"
						}
					],
					"stateMutability": "view",
					"type": "function"
				},
				{
					"inputs": [
						{
							"internalType": "bytes32",
							"name": "role",
							"type": "bytes32"
						},
						{
							"internalType": "address",
							"name": "account",
							"type": "address"
						}
					],
					"name": "grantRole",
					"outputs": [],
					"stateMutability": "nonpayable",
					"type": "function"
				},
				{
					"inputs": [
						{
							"internalType": "bytes32",
							"name": "role",
							"type": "bytes32"
						},
						{
							"internalType": "address",
							"name": "account",
							"type": "address"
						}
					],
					"name": "hasRole",
					"outputs": [
						{
							"internalType": "bool",
							"name": "",
							"type": "bool"
						}
					],
					"stateMutability": "view",
					"type": "function"
				},
				{
					"inputs": [
						{
							"internalType": "address",
							"name": "_stakeHolder",
							"type": "address"
						}
					],
					"name": "isKYCed",
					"outputs": [
						{
							"internalType": "bool",
							"name": "",
							"type": "bool"
						}
					],
					"stateMutability": "view",
					"type": "function"
				},
				{
					"inputs": [],
					"name": "kycUsersListLength",
					"outputs": [
						{
							"internalType": "uint256",
							"name": "",
							"type": "uint256"
						}
					],
					"stateMutability": "view",
					"type": "function"
				},
				{
					"inputs": [],
					"name": "name",
					"outputs": [
						{
							"internalType": "string",
							"name": "",
							"type": "string"
						}
					],
					"stateMutability": "view",
					"type": "function"
				},
				{
					"inputs": [],
					"name": "owner",
					"outputs": [
						{
							"internalType": "address payable",
							"name": "",
							"type": "address"
						}
					],
					"stateMutability": "view",
					"type": "function"
				},
				{
					"inputs": [],
					"name": "rate",
					"outputs": [
						{
							"internalType": "uint256",
							"name": "",
							"type": "uint256"
						}
					],
					"stateMutability": "view",
					"type": "function"
				},
				{
					"inputs": [
						{
							"internalType": "address",
							"name": "user",
							"type": "address"
						}
					],
					"name": "removeKYCUser",
					"outputs": [],
					"stateMutability": "nonpayable",
					"type": "function"
				},
				{
					"inputs": [
						{
							"internalType": "bytes32",
							"name": "role",
							"type": "bytes32"
						},
						{
							"internalType": "address",
							"name": "callerConfirmation",
							"type": "address"
						}
					],
					"name": "renounceRole",
					"outputs": [],
					"stateMutability": "nonpayable",
					"type": "function"
				},
				{
					"inputs": [
						{
							"internalType": "bytes32",
							"name": "role",
							"type": "bytes32"
						},
						{
							"internalType": "address",
							"name": "account",
							"type": "address"
						}
					],
					"name": "revokeRole",
					"outputs": [],
					"stateMutability": "nonpayable",
					"type": "function"
				},
				{
					"inputs": [
						{
							"internalType": "address",
							"name": "buyer",
							"type": "address"
						},
						{
							"internalType": "uint256",
							"name": "amount",
							"type": "uint256"
						}
					],
					"name": "sendTokens",
					"outputs": [],
					"stateMutability": "nonpayable",
					"type": "function"
				},
				{
					"inputs": [
						{
							"internalType": "bytes4",
							"name": "interfaceId",
							"type": "bytes4"
						}
					],
					"name": "supportsInterface",
					"outputs": [
						{
							"internalType": "bool",
							"name": "",
							"type": "bool"
						}
					],
					"stateMutability": "view",
					"type": "function"
				},
				{
					"inputs": [],
					"name": "symbol",
					"outputs": [
						{
							"internalType": "string",
							"name": "",
							"type": "string"
						}
					],
					"stateMutability": "view",
					"type": "function"
				},
				{
					"inputs": [],
					"name": "totalSupply",
					"outputs": [
						{
							"internalType": "uint256",
							"name": "",
							"type": "uint256"
						}
					],
					"stateMutability": "view",
					"type": "function"
				},
				{
					"inputs": [
						{
							"internalType": "address",
							"name": "recipient",
							"type": "address"
						},
						{
							"internalType": "uint256",
							"name": "amount",
							"type": "uint256"
						}
					],
					"name": "transfer",
					"outputs": [
						{
							"internalType": "bool",
							"name": "",
							"type": "bool"
						}
					],
					"stateMutability": "nonpayable",
					"type": "function"
				},
				{
					"inputs": [
						{
							"internalType": "address",
							"name": "sender",
							"type": "address"
						},
						{
							"internalType": "address",
							"name": "recipient",
							"type": "address"
						},
						{
							"internalType": "uint256",
							"name": "amount",
							"type": "uint256"
						}
					],
					"name": "transferFrom",
					"outputs": [
						{
							"internalType": "bool",
							"name": "",
							"type": "bool"
						}
					],
					"stateMutability": "nonpayable",
					"type": "function"
				},
				{
					"inputs": [
						{
							"internalType": "address",
							"name": "newOwner",
							"type": "address"
						}
					],
					"name": "transferOwnership",
					"outputs": [],
					"stateMutability": "nonpayable",
					"type": "function"
				},
				{
					"inputs": [
						{
							"internalType": "bool",
							"name": "state",
							"type": "bool"
						}
					],
					"name": "updateDividendPeriodStatus",
					"outputs": [],
					"stateMutability": "nonpayable",
					"type": "function"
				},
				{
					"inputs": [
						{
							"internalType": "address",
							"name": "stakeHolder",
							"type": "address"
						}
					],
					"name": "updateOwnsToken",
					"outputs": [],
					"stateMutability": "nonpayable",
					"type": "function"
				},
				{
					"stateMutability": "payable",
					"type": "receive"
				}
			],
			"devdoc": {
				"details": "ERC20 token with KYC functionality, dividend period, and role-based access control",
				"errors": {
					"AccessControlBadConfirmation()": [
						{
							"details": "The caller of a function is not the expected one. NOTE: Don't confuse with {AccessControlUnauthorizedAccount}."
						}
					],
					"AccessControlUnauthorizedAccount(address,bytes32)": [
						{
							"details": "The `account` is missing a role."
						}
					],
					"ERC20ExceededCap(uint256,uint256)": [
						{
							"details": "Total supply cap has been exceeded."
						}
					],
					"ERC20InsufficientAllowance(address,uint256,uint256)": [
						{
							"details": "Indicates a failure with the `spender`’s `allowance`. Used in transfers.",
							"params": {
								"allowance": "Amount of tokens a `spender` is allowed to operate with.",
								"needed": "Minimum amount required to perform a transfer.",
								"spender": "Address that may be allowed to operate on tokens without being their owner."
							}
						}
					],
					"ERC20InsufficientBalance(address,uint256,uint256)": [
						{
							"details": "Indicates an error related to the current `balance` of a `sender`. Used in transfers.",
							"params": {
								"balance": "Current balance for the interacting account.",
								"needed": "Minimum amount required to perform a transfer.",
								"sender": "Address whose tokens are being transferred."
							}
						}
					],
					"ERC20InvalidApprover(address)": [
						{
							"details": "Indicates a failure with the `approver` of a token to be approved. Used in approvals.",
							"params": {
								"approver": "Address initiating an approval operation."
							}
						}
					],
					"ERC20InvalidCap(uint256)": [
						{
							"details": "The supplied cap is not a valid cap."
						}
					],
					"ERC20InvalidReceiver(address)": [
						{
							"details": "Indicates a failure with the token `receiver`. Used in transfers.",
							"params": {
								"receiver": "Address to which tokens are being transferred."
							}
						}
					],
					"ERC20InvalidSender(address)": [
						{
							"details": "Indicates a failure with the token `sender`. Used in transfers.",
							"params": {
								"sender": "Address whose tokens are being transferred."
							}
						}
					],
					"ERC20InvalidSpender(address)": [
						{
							"details": "Indicates a failure with the `spender` to be approved. Used in approvals.",
							"params": {
								"spender": "Address that may be allowed to operate on tokens without being their owner."
							}
						}
					]
				},
				"events": {
					"Approval(address,address,uint256)": {
						"details": "Emitted when the allowance of a `spender` for an `owner` is set by a call to {approve}. `value` is the new allowance."
					},
					"RoleAdminChanged(bytes32,bytes32,bytes32)": {
						"details": "Emitted when `newAdminRole` is set as ``role``'s admin role, replacing `previousAdminRole` `DEFAULT_ADMIN_ROLE` is the starting admin for all roles, despite {RoleAdminChanged} not being emitted to signal this."
					},
					"RoleGranted(bytes32,address,address)": {
						"details": "Emitted when `account` is granted `role`. `sender` is the account that originated the contract call. This account bears the admin role (for the granted role). Expected in cases where the role was granted using the internal {AccessControl-_grantRole}."
					},
					"RoleRevoked(bytes32,address,address)": {
						"details": "Emitted when `account` is revoked `role`. `sender` is the account that originated the contract call:   - if using `revokeRole`, it is the admin role bearer   - if using `renounceRole`, it is the role bearer (i.e. `account`)"
					},
					"Transfer(address,address,uint256)": {
						"details": "Emitted when `value` tokens are moved from one account (`from`) to another (`to`). Note that `value` may be zero."
					}
				},
				"kind": "dev",
				"methods": {
					"allowance(address,address)": {
						"details": "See {IERC20-allowance}."
					},
					"approve(address,uint256)": {
						"details": "See {IERC20-approve}. NOTE: If `value` is the maximum `uint256`, the allowance is not updated on `transferFrom`. This is semantically equivalent to an infinite approval. Requirements: - `spender` cannot be the zero address."
					},
					"balanceOf(address)": {
						"details": "See {IERC20-balanceOf}."
					},
					"cap()": {
						"details": "Returns the cap on the token's total supply."
					},
					"decimals()": {
						"details": "Returns the number of decimals used to get its user representation. For example, if `decimals` equals `2`, a balance of `505` tokens should be displayed to a user as `5.05` (`505 / 10 ** 2`). Tokens usually opt for a value of 18, imitating the relationship between Ether and Wei. This is the default value returned by this function, unless it's overridden. NOTE: This information is only used for _display_ purposes: it in no way affects any of the arithmetic of the contract, including {IERC20-balanceOf} and {IERC20-transfer}."
					},
					"getRoleAdmin(bytes32)": {
						"details": "Returns the admin role that controls `role`. See {grantRole} and {revokeRole}. To change a role's admin, use {_setRoleAdmin}."
					},
					"grantRole(bytes32,address)": {
						"details": "Grants `role` to `account`. If `account` had not been already granted `role`, emits a {RoleGranted} event. Requirements: - the caller must have ``role``'s admin role. May emit a {RoleGranted} event."
					},
					"hasRole(bytes32,address)": {
						"details": "Returns `true` if `account` has been granted `role`."
					},
					"name()": {
						"details": "Returns the name of the token."
					},
					"renounceRole(bytes32,address)": {
						"details": "Revokes `role` from the calling account. Roles are often managed via {grantRole} and {revokeRole}: this function's purpose is to provide a mechanism for accounts to lose their privileges if they are compromised (such as when a trusted device is misplaced). If the calling account had been revoked `role`, emits a {RoleRevoked} event. Requirements: - the caller must be `callerConfirmation`. May emit a {RoleRevoked} event."
					},
					"revokeRole(bytes32,address)": {
						"details": "Revokes `role` from `account`. If `account` had been granted `role`, emits a {RoleRevoked} event. Requirements: - the caller must have ``role``'s admin role. May emit a {RoleRevoked} event."
					},
					"supportsInterface(bytes4)": {
						"details": "See {IERC165-supportsInterface}."
					},
					"symbol()": {
						"details": "Returns the symbol of the token, usually a shorter version of the name."
					},
					"totalSupply()": {
						"details": "See {IERC20-totalSupply}."
					},
					"transfer(address,uint256)": {
						"details": "Override transfer function with KYC and dividend period checks"
					},
					"transferFrom(address,address,uint256)": {
						"details": "Override transferFrom function with KYC and dividend period checks"
					}
				},
				"title": "KYC Token Contract",
				"version": 1
			},
			"evm": {
				"assembly": "    /* \"contracts/tokenContract.sol\":438:7092  contract KYCToken is ERC20Capped, AccessControl, ReentrancyGuard {... */\n  mstore(0x40, 0xa0)\n    /* \"contracts/tokenContract.sol\":1186:1941  constructor(... */\n  callvalue\n  dup1\n  iszero\n  tag_1\n  jumpi\n  0x00\n  dup1\n  revert\ntag_1:\n  pop\n  mload(0x40)\n  sub(codesize, bytecodeSize)\n  dup1\n  bytecodeSize\n  dup4\n  codecopy\n  dup2\n  dup2\n  add\n  0x40\n  mstore\n  dup2\n  add\n  swap1\n  tag_2\n  swap2\n  swap1\n  tag_3\n  jump\t// in\ntag_2:\n    /* \"contracts/tokenContract.sol\":1398:1402  cap_ */\n  dup3\n    /* \"contracts/tokenContract.sol\":1370:1375  name_ */\n  dup7\n    /* \"contracts/tokenContract.sol\":1377:1384  symbol_ */\n  dup7\n    /* \"@openzeppelin/contracts/token/ERC20/ERC20.sol\":1656:1661  name_ */\n  dup2\n    /* \"@openzeppelin/contracts/token/ERC20/ERC20.sol\":1648:1653  _name */\n  0x03\n    /* \"@openzeppelin/contracts/token/ERC20/ERC20.sol\":1648:1661  _name = name_ */\n  swap1\n  dup2\n  tag_9\n  swap2\n  swap1\n  tag_10\n  jump\t// in\ntag_9:\n  pop\n    /* \"@openzeppelin/contracts/token/ERC20/ERC20.sol\":1681:1688  symbol_ */\n  dup1\n    /* \"@openzeppelin/contracts/token/ERC20/ERC20.sol\":1671:1678  _symbol */\n  0x04\n    /* \"@openzeppelin/contracts/token/ERC20/ERC20.sol\":1671:1688  _symbol = symbol_ */\n  swap1\n  dup2\n  tag_11\n  swap2\n  swap1\n  tag_10\n  jump\t// in\ntag_11:\n  pop\n    /* \"@openzeppelin/contracts/token/ERC20/ERC20.sol\":1582:1695  constructor(string memory name_, string memory symbol_) {... */\n  pop\n  pop\n    /* \"@openzeppelin/contracts/token/ERC20/extensions/ERC20Capped.sol\":764:765  0 */\n  0x00\n    /* \"@openzeppelin/contracts/token/ERC20/extensions/ERC20Capped.sol\":756:760  cap_ */\n  dup2\n    /* \"@openzeppelin/contracts/token/ERC20/extensions/ERC20Capped.sol\":756:765  cap_ == 0 */\n  sub\n    /* \"@openzeppelin/contracts/token/ERC20/extensions/ERC20Capped.sol\":752:817  if (cap_ == 0) {... */\n  tag_13\n  jumpi\n    /* \"@openzeppelin/contracts/token/ERC20/extensions/ERC20Capped.sol\":804:805  0 */\n  0x00\n    /* \"@openzeppelin/contracts/token/ERC20/extensions/ERC20Capped.sol\":788:806  ERC20InvalidCap(0) */\n  mload(0x40)\n  0x392e1e2700000000000000000000000000000000000000000000000000000000\n  dup2\n  mstore\n  0x04\n  add\n  tag_14\n  swap2\n  swap1\n  tag_15\n  jump\t// in\ntag_14:\n  mload(0x40)\n  dup1\n  swap2\n  sub\n  swap1\n  revert\n    /* \"@openzeppelin/contracts/token/ERC20/extensions/ERC20Capped.sol\":752:817  if (cap_ == 0) {... */\ntag_13:\n    /* \"@openzeppelin/contracts/token/ERC20/extensions/ERC20Capped.sol\":833:837  cap_ */\n  dup1\n    /* \"@openzeppelin/contracts/token/ERC20/extensions/ERC20Capped.sol\":826:837  _cap = cap_ */\n  0x80\n  dup2\n  dup2\n  mstore\n  pop\n  pop\n    /* \"@openzeppelin/contracts/token/ERC20/extensions/ERC20Capped.sol\":716:844  constructor(uint256 cap_) {... */\n  pop\n    /* \"@openzeppelin/contracts/security/ReentrancyGuard.sol\":1716:1717  1 */\n  0x01\n    /* \"@openzeppelin/contracts/security/ReentrancyGuard.sol\":1821:1828  _status */\n  0x06\n    /* \"@openzeppelin/contracts/security/ReentrancyGuard.sol\":1821:1843  _status = _NOT_ENTERED */\n  dup2\n  swap1\n  sstore\n  pop\n    /* \"contracts/tokenContract.sol\":1446:1447  0 */\n  0x00\n    /* \"contracts/tokenContract.sol\":1422:1448  beneficiary_ != address(0) */\n  0xffffffffffffffffffffffffffffffffffffffff\n  and\n    /* \"contracts/tokenContract.sol\":1422:1434  beneficiary_ */\n  dup2\n    /* \"contracts/tokenContract.sol\":1422:1448  beneficiary_ != address(0) */\n  0xffffffffffffffffffffffffffffffffffffffff\n  and\n  sub\n    /* \"contracts/tokenContract.sol\":1414:1480  require(beneficiary_ != address(0), \"Invalid beneficiary address\") */\n  tag_18\n  jumpi\n  mload(0x40)\n  0x08c379a000000000000000000000000000000000000000000000000000000000\n  dup2\n  mstore\n  0x04\n  add\n  tag_19\n  swap1\n  tag_20\n  jump\t// in\ntag_19:\n  mload(0x40)\n  dup1\n  swap2\n  sub\n  swap1\n  revert\ntag_18:\n    /* \"contracts/tokenContract.sol\":1511:1520  decimals_ */\n  dup4\n    /* \"contracts/tokenContract.sol\":1499:1508  _decimals */\n  0x07\n  0x00\n    /* \"contracts/tokenContract.sol\":1499:1520  _decimals = decimals_ */\n  0x0100\n  exp\n  dup2\n  sload\n  dup2\n  0xff\n  mul\n  not\n  and\n  swap1\n  dup4\n  0xff\n  and\n  mul\n  or\n  swap1\n  sstore\n  pop\n    /* \"contracts/tokenContract.sol\":1538:1543  rate_ */\n  dup2\n    /* \"contracts/tokenContract.sol\":1530:1535  _rate */\n  0x08\n    /* \"contracts/tokenContract.sol\":1530:1543  _rate = rate_ */\n  dup2\n  swap1\n  sstore\n  pop\n    /* \"contracts/tokenContract.sol\":1568:1580  beneficiary_ */\n  dup1\n    /* \"contracts/tokenContract.sol\":1553:1565  _beneficiary */\n  0x0a\n  0x00\n    /* \"contracts/tokenContract.sol\":1553:1580  _beneficiary = beneficiary_ */\n  0x0100\n  exp\n  dup2\n  sload\n  dup2\n  0xffffffffffffffffffffffffffffffffffffffff\n  mul\n  not\n  and\n  swap1\n  dup4\n  0xffffffffffffffffffffffffffffffffffffffff\n  and\n  mul\n  or\n  swap1\n  sstore\n  pop\n    /* \"contracts/tokenContract.sol\":1607:1617  msg.sender */\n  caller\n    /* \"contracts/tokenContract.sol\":1590:1596  _owner */\n  0x09\n  0x00\n    /* \"contracts/tokenContract.sol\":1590:1618  _owner = payable(msg.sender) */\n  0x0100\n  exp\n  dup2\n  sload\n  dup2\n  0xffffffffffffffffffffffffffffffffffffffff\n  mul\n  not\n  and\n  swap1\n  dup4\n  0xffffffffffffffffffffffffffffffffffffffff\n  and\n  mul\n  or\n  swap1\n  sstore\n  pop\n    /* \"contracts/tokenContract.sol\":1660:1702  _grantRole(DEFAULT_ADMIN_ROLE, msg.sender) */\n  tag_21\n    /* \"@openzeppelin/contracts/access/AccessControl.sol\":2232:2236  0x00 */\n  0x00\n    /* \"contracts/tokenContract.sol\":1671:1689  DEFAULT_ADMIN_ROLE */\n  dup1\n  shl\n    /* \"contracts/tokenContract.sol\":1691:1701  msg.sender */\n  caller\n    /* \"contracts/tokenContract.sol\":1660:1670  _grantRole */\n  shl(0x20, tag_22)\n    /* \"contracts/tokenContract.sol\":1660:1702  _grantRole(DEFAULT_ADMIN_ROLE, msg.sender) */\n  0x20\n  shr\n  jump\t// in\ntag_21:\n  pop\n    /* \"contracts/tokenContract.sol\":1712:1747  _grantRole(MINTER_ROLE, msg.sender) */\n  tag_23\n    /* \"contracts/tokenContract.sol\":547:571  keccak256(\"MINTER_ROLE\") */\n  0x9f2df0fed2c77648de5860a4cc508cd0818c85b8b8a1ab4ceeef8d981c8956a6\n    /* \"contracts/tokenContract.sol\":1736:1746  msg.sender */\n  caller\n    /* \"contracts/tokenContract.sol\":1712:1722  _grantRole */\n  shl(0x20, tag_22)\n    /* \"contracts/tokenContract.sol\":1712:1747  _grantRole(MINTER_ROLE, msg.sender) */\n  0x20\n  shr\n  jump\t// in\ntag_23:\n  pop\n    /* \"contracts/tokenContract.sol\":1757:1789  _grantRole(KYC_ROLE, msg.sender) */\n  tag_24\n    /* \"contracts/tokenContract.sol\":612:633  keccak256(\"KYC_ROLE\") */\n  0xdb11624602202c396fa347735a55e345a3aeb3e60f8885e1a71f1bf8d5886db7\n    /* \"contracts/tokenContract.sol\":1778:1788  msg.sender */\n  caller\n    /* \"contracts/tokenContract.sol\":1757:1767  _grantRole */\n  shl(0x20, tag_22)\n    /* \"contracts/tokenContract.sol\":1757:1789  _grantRole(KYC_ROLE, msg.sender) */\n  0x20\n  shr\n  jump\t// in\ntag_24:\n  pop\n    /* \"contracts/tokenContract.sol\":1835:1881  _setRoleAdmin(MINTER_ROLE, DEFAULT_ADMIN_ROLE) */\n  tag_25\n    /* \"contracts/tokenContract.sol\":547:571  keccak256(\"MINTER_ROLE\") */\n  0x9f2df0fed2c77648de5860a4cc508cd0818c85b8b8a1ab4ceeef8d981c8956a6\n    /* \"@openzeppelin/contracts/access/AccessControl.sol\":2232:2236  0x00 */\n  0x00\n    /* \"contracts/tokenContract.sol\":1862:1880  DEFAULT_ADMIN_ROLE */\n  dup1\n  shl\n    /* \"contracts/tokenContract.sol\":1835:1848  _setRoleAdmin */\n  shl(0x20, tag_26)\n    /* \"contracts/tokenContract.sol\":1835:1881  _setRoleAdmin(MINTER_ROLE, DEFAULT_ADMIN_ROLE) */\n  0x20\n  shr\n  jump\t// in\ntag_25:\n    /* \"contracts/tokenContract.sol\":1891:1934  _setRoleAdmin(KYC_ROLE, DEFAULT_ADMIN_ROLE) */\n  tag_27\n    /* \"contracts/tokenContract.sol\":612:633  keccak256(\"KYC_ROLE\") */\n  0xdb11624602202c396fa347735a55e345a3aeb3e60f8885e1a71f1bf8d5886db7\n    /* \"@openzeppelin/contracts/access/AccessControl.sol\":2232:2236  0x00 */\n  0x00\n    /* \"contracts/tokenContract.sol\":1915:1933  DEFAULT_ADMIN_ROLE */\n  dup1\n  shl\n    /* \"contracts/tokenContract.sol\":1891:1904  _setRoleAdmin */\n  shl(0x20, tag_26)\n    /* \"contracts/tokenContract.sol\":1891:1934  _setRoleAdmin(KYC_ROLE, DEFAULT_ADMIN_ROLE) */\n  0x20\n  shr\n  jump\t// in\ntag_27:\n    /* \"contracts/tokenContract.sol\":1186:1941  constructor(... */\n  pop\n  pop\n  pop\n  pop\n  pop\n  pop\n    /* \"contracts/tokenContract.sol\":438:7092  contract KYCToken is ERC20Capped, AccessControl, ReentrancyGuard {... */\n  jump(tag_28)\n    /* \"@openzeppelin/contracts/access/AccessControl.sol\":6179:6495  function _grantRole(bytes32 role, address account) internal virtual returns (bool) {... */\ntag_22:\n    /* \"@openzeppelin/contracts/access/AccessControl.sol\":6256:6260  bool */\n  0x00\n    /* \"@openzeppelin/contracts/access/AccessControl.sol\":6277:6299  hasRole(role, account) */\n  tag_30\n    /* \"@openzeppelin/contracts/access/AccessControl.sol\":6285:6289  role */\n  dup4\n    /* \"@openzeppelin/contracts/access/AccessControl.sol\":6291:6298  account */\n  dup4\n    /* \"@openzeppelin/contracts/access/AccessControl.sol\":6277:6284  hasRole */\n  shl(0x20, tag_31)\n    /* \"@openzeppelin/contracts/access/AccessControl.sol\":6277:6299  hasRole(role, account) */\n  0x20\n  shr\n  jump\t// in\ntag_30:\n    /* \"@openzeppelin/contracts/access/AccessControl.sol\":6272:6489  if (!hasRole(role, account)) {... */\n  tag_32\n  jumpi\n    /* \"@openzeppelin/contracts/access/AccessControl.sol\":6347:6351  true */\n  0x01\n    /* \"@openzeppelin/contracts/access/AccessControl.sol\":6315:6321  _roles */\n  0x05\n    /* \"@openzeppelin/contracts/access/AccessControl.sol\":6315:6327  _roles[role] */\n  0x00\n    /* \"@openzeppelin/contracts/access/AccessControl.sol\":6322:6326  role */\n  dup6\n    /* \"@openzeppelin/contracts/access/AccessControl.sol\":6315:6327  _roles[role] */\n  dup2\n  mstore\n  0x20\n  add\n  swap1\n  dup2\n  mstore\n  0x20\n  add\n  0x00\n  keccak256\n    /* \"@openzeppelin/contracts/access/AccessControl.sol\":6315:6335  _roles[role].hasRole */\n  0x00\n  add\n    /* \"@openzeppelin/contracts/access/AccessControl.sol\":6315:6344  _roles[role].hasRole[account] */\n  0x00\n    /* \"@openzeppelin/contracts/access/AccessControl.sol\":6336:6343  account */\n  dup5\n    /* \"@openzeppelin/contracts/access/AccessControl.sol\":6315:6344  _roles[role].hasRole[account] */\n  0xffffffffffffffffffffffffffffffffffffffff\n  and\n  0xffffffffffffffffffffffffffffffffffffffff\n  and\n  dup2\n  mstore\n  0x20\n  add\n  swap1\n  dup2\n  mstore\n  0x20\n  add\n  0x00\n  keccak256\n  0x00\n    /* \"@openzeppelin/contracts/access/AccessControl.sol\":6315:6351  _roles[role].hasRole[account] = true */\n  0x0100\n  exp\n  dup2\n  sload\n  dup2\n  0xff\n  mul\n  not\n  and\n  swap1\n  dup4\n  iszero\n  iszero\n  mul\n  or\n  swap1\n  sstore\n  pop\n    /* \"@openzeppelin/contracts/access/AccessControl.sol\":6397:6409  _msgSender() */\n  tag_33\n    /* \"@openzeppelin/contracts/access/AccessControl.sol\":6397:6407  _msgSender */\n  shl(0x20, tag_34)\n    /* \"@openzeppelin/contracts/access/AccessControl.sol\":6397:6409  _msgSender() */\n  0x20\n  shr\n  jump\t// in\ntag_33:\n    /* \"@openzeppelin/contracts/access/AccessControl.sol\":6370:6410  RoleGranted(role, account, _msgSender()) */\n  0xffffffffffffffffffffffffffffffffffffffff\n  and\n    /* \"@openzeppelin/contracts/access/AccessControl.sol\":6388:6395  account */\n  dup3\n    /* \"@openzeppelin/contracts/access/AccessControl.sol\":6370:6410  RoleGranted(role, account, _msgSender()) */\n  0xffffffffffffffffffffffffffffffffffffffff\n  and\n    /* \"@openzeppelin/contracts/access/AccessControl.sol\":6382:6386  role */\n  dup5\n    /* \"@openzeppelin/contracts/access/AccessControl.sol\":6370:6410  RoleGranted(role, account, _msgSender()) */\n  0x2f8788117e7eff1d82e926ec794901d17c78024a50270940304540a733656f0d\n  mload(0x40)\n  mload(0x40)\n  dup1\n  swap2\n  sub\n  swap1\n  log4\n    /* \"@openzeppelin/contracts/access/AccessControl.sol\":6431:6435  true */\n  0x01\n    /* \"@openzeppelin/contracts/access/AccessControl.sol\":6424:6435  return true */\n  swap1\n  pop\n  jump(tag_29)\n    /* \"@openzeppelin/contracts/access/AccessControl.sol\":6272:6489  if (!hasRole(role, account)) {... */\ntag_32:\n    /* \"@openzeppelin/contracts/access/AccessControl.sol\":6473:6478  false */\n  0x00\n    /* \"@openzeppelin/contracts/access/AccessControl.sol\":6466:6478  return false */\n  swap1\n  pop\n    /* \"@openzeppelin/contracts/access/AccessControl.sol\":6179:6495  function _grantRole(bytes32 role, address account) internal virtual returns (bool) {... */\ntag_29:\n  swap3\n  swap2\n  pop\n  pop\n  jump\t// out\n    /* \"@openzeppelin/contracts/access/AccessControl.sol\":5698:5945  function _setRoleAdmin(bytes32 role, bytes32 adminRole) internal virtual {... */\ntag_26:\n    /* \"@openzeppelin/contracts/access/AccessControl.sol\":5781:5806  bytes32 previousAdminRole */\n  0x00\n    /* \"@openzeppelin/contracts/access/AccessControl.sol\":5809:5827  getRoleAdmin(role) */\n  tag_37\n    /* \"@openzeppelin/contracts/access/AccessControl.sol\":5822:5826  role */\n  dup4\n    /* \"@openzeppelin/contracts/access/AccessControl.sol\":5809:5821  getRoleAdmin */\n  shl(0x20, tag_38)\n    /* \"@openzeppelin/contracts/access/AccessControl.sol\":5809:5827  getRoleAdmin(role) */\n  0x20\n  shr\n  jump\t// in\ntag_37:\n    /* \"@openzeppelin/contracts/access/AccessControl.sol\":5781:5827  bytes32 previousAdminRole = getRoleAdmin(role) */\n  swap1\n  pop\n    /* \"@openzeppelin/contracts/access/AccessControl.sol\":5862:5871  adminRole */\n  dup2\n    /* \"@openzeppelin/contracts/access/AccessControl.sol\":5837:5843  _roles */\n  0x05\n    /* \"@openzeppelin/contracts/access/AccessControl.sol\":5837:5849  _roles[role] */\n  0x00\n    /* \"@openzeppelin/contracts/access/AccessControl.sol\":5844:5848  role */\n  dup6\n    /* \"@openzeppelin/contracts/access/AccessControl.sol\":5837:5849  _roles[role] */\n  dup2\n  mstore\n  0x20\n  add\n  swap1\n  dup2\n  mstore\n  0x20\n  add\n  0x00\n  keccak256\n    /* \"@openzeppelin/contracts/access/AccessControl.sol\":5837:5859  _roles[role].adminRole */\n  0x01\n  add\n    /* \"@openzeppelin/contracts/access/AccessControl.sol\":5837:5871  _roles[role].adminRole = adminRole */\n  dup2\n  swap1\n  sstore\n  pop\n    /* \"@openzeppelin/contracts/access/AccessControl.sol\":5928:5937  adminRole */\n  dup2\n    /* \"@openzeppelin/contracts/access/AccessControl.sol\":5909:5926  previousAdminRole */\n  dup2\n    /* \"@openzeppelin/contracts/access/AccessControl.sol\":5903:5907  role */\n  dup5\n    /* \"@openzeppelin/contracts/access/AccessControl.sol\":5886:5938  RoleAdminChanged(role, previousAdminRole, adminRole) */\n  0xbd79b86ffe0ab8e8776151514217cd7cacd52c909f66475c3af44e129f0b00ff\n  mload(0x40)\n  mload(0x40)\n  dup1\n  swap2\n  sub\n  swap1\n  log4\n    /* \"@openzeppelin/contracts/access/AccessControl.sol\":5771:5945  {... */\n  pop\n    /* \"@openzeppelin/contracts/access/AccessControl.sol\":5698:5945  function _setRoleAdmin(bytes32 role, bytes32 adminRole) internal virtual {... */\n  pop\n  pop\n  jump\t// out\n    /* \"@openzeppelin/contracts/access/AccessControl.sol\":2854:2990  function hasRole(bytes32 role, address account) public view virtual returns (bool) {... */\ntag_31:\n    /* \"@openzeppelin/contracts/access/AccessControl.sol\":2931:2935  bool */\n  0x00\n    /* \"@openzeppelin/contracts/access/AccessControl.sol\":2954:2960  _roles */\n  0x05\n    /* \"@openzeppelin/contracts/access/AccessControl.sol\":2954:2966  _roles[role] */\n  0x00\n    /* \"@openzeppelin/contracts/access/AccessControl.sol\":2961:2965  role */\n  dup5\n    /* \"@openzeppelin/contracts/access/AccessControl.sol\":2954:2966  _roles[role] */\n  dup2\n  mstore\n  0x20\n  add\n  swap1\n  dup2\n  mstore\n  0x20\n  add\n  0x00\n  keccak256\n    /* \"@openzeppelin/contracts/access/AccessControl.sol\":2954:2974  _roles[role].hasRole */\n  0x00\n  add\n    /* \"@openzeppelin/contracts/access/AccessControl.sol\":2954:2983  _roles[role].hasRole[account] */\n  0x00\n    /* \"@openzeppelin/contracts/access/AccessControl.sol\":2975:2982  account */\n  dup4\n    /* \"@openzeppelin/contracts/access/AccessControl.sol\":2954:2983  _roles[role].hasRole[account] */\n  0xffffffffffffffffffffffffffffffffffffffff\n  and\n  0xffffffffffffffffffffffffffffffffffffffff\n  and\n  dup2\n  mstore\n  0x20\n  add\n  swap1\n  dup2\n  mstore\n  0x20\n  add\n  0x00\n  keccak256\n  0x00\n  swap1\n  sload\n  swap1\n  0x0100\n  exp\n  swap1\n  div\n  0xff\n  and\n    /* \"@openzeppelin/contracts/access/AccessControl.sol\":2947:2983  return _roles[role].hasRole[account] */\n  swap1\n  pop\n    /* \"@openzeppelin/contracts/access/AccessControl.sol\":2854:2990  function hasRole(bytes32 role, address account) public view virtual returns (bool) {... */\n  swap3\n  swap2\n  pop\n  pop\n  jump\t// out\n    /* \"@openzeppelin/contracts/utils/Context.sol\":656:752  function _msgSender() internal view virtual returns (address) {... */\ntag_34:\n    /* \"@openzeppelin/contracts/utils/Context.sol\":709:716  address */\n  0x00\n    /* \"@openzeppelin/contracts/utils/Context.sol\":735:745  msg.sender */\n  caller\n    /* \"@openzeppelin/contracts/utils/Context.sol\":728:745  return msg.sender */\n  swap1\n  pop\n    /* \"@openzeppelin/contracts/utils/Context.sol\":656:752  function _msgSender() internal view virtual returns (address) {... */\n  swap1\n  jump\t// out\n    /* \"@openzeppelin/contracts/access/AccessControl.sol\":3810:3930  function getRoleAdmin(bytes32 role) public view virtual returns (bytes32) {... */\ntag_38:\n    /* \"@openzeppelin/contracts/access/AccessControl.sol\":3875:3882  bytes32 */\n  0x00\n    /* \"@openzeppelin/contracts/access/AccessControl.sol\":3901:3907  _roles */\n  0x05\n    /* \"@openzeppelin/contracts/access/AccessControl.sol\":3901:3913  _roles[role] */\n  0x00\n    /* \"@openzeppelin/contracts/access/AccessControl.sol\":3908:3912  role */\n  dup4\n    /* \"@openzeppelin/contracts/access/AccessControl.sol\":3901:3913  _roles[role] */\n  dup2\n  mstore\n  0x20\n  add\n  swap1\n  dup2\n  mstore\n  0x20\n  add\n  0x00\n  keccak256\n    /* \"@openzeppelin/contracts/access/AccessControl.sol\":3901:3923  _roles[role].adminRole */\n  0x01\n  add\n  sload\n    /* \"@openzeppelin/contracts/access/AccessControl.sol\":3894:3923  return _roles[role].adminRole */\n  swap1\n  pop\n    /* \"@openzeppelin/contracts/access/AccessControl.sol\":3810:3930  function getRoleAdmin(bytes32 role) public view virtual returns (bytes32) {... */\n  swap2\n  swap1\n  pop\n  jump\t// out\n    /* \"#utility.yul\":7:82   */\ntag_42:\n    /* \"#utility.yul\":40:46   */\n  0x00\n    /* \"#utility.yul\":73:75   */\n  0x40\n    /* \"#utility.yul\":67:76   */\n  mload\n    /* \"#utility.yul\":57:76   */\n  swap1\n  pop\n    /* \"#utility.yul\":7:82   */\n  swap1\n  jump\t// out\n    /* \"#utility.yul\":88:205   */\ntag_43:\n    /* \"#utility.yul\":197:198   */\n  0x00\n    /* \"#utility.yul\":194:195   */\n  dup1\n    /* \"#utility.yul\":187:199   */\n  revert\n    /* \"#utility.yul\":211:328   */\ntag_44:\n    /* \"#utility.yul\":320:321   */\n  0x00\n    /* \"#utility.yul\":317:318   */\n  dup1\n    /* \"#utility.yul\":310:322   */\n  revert\n    /* \"#utility.yul\":334:451   */\ntag_45:\n    /* \"#utility.yul\":443:444   */\n  0x00\n    /* \"#utility.yul\":440:441   */\n  dup1\n    /* \"#utility.yul\":433:445   */\n  revert\n    /* \"#utility.yul\":457:574   */\ntag_46:\n    /* \"#utility.yul\":566:567   */\n  0x00\n    /* \"#utility.yul\":563:564   */\n  dup1\n    /* \"#utility.yul\":556:568   */\n  revert\n    /* \"#utility.yul\":580:682   */\ntag_47:\n    /* \"#utility.yul\":621:627   */\n  0x00\n    /* \"#utility.yul\":672:674   */\n  0x1f\n    /* \"#utility.yul\":668:675   */\n  not\n    /* \"#utility.yul\":663:665   */\n  0x1f\n    /* \"#utility.yul\":656:661   */\n  dup4\n    /* \"#utility.yul\":652:666   */\n  add\n    /* \"#utility.yul\":648:676   */\n  and\n    /* \"#utility.yul\":638:676   */\n  swap1\n  pop\n    /* \"#utility.yul\":580:682   */\n  swap2\n  swap1\n  pop\n  jump\t// out\n    /* \"#utility.yul\":688:868   */\ntag_48:\n    /* \"#utility.yul\":736:813   */\n  0x4e487b7100000000000000000000000000000000000000000000000000000000\n    /* \"#utility.yul\":733:734   */\n  0x00\n    /* \"#utility.yul\":726:814   */\n  mstore\n    /* \"#utility.yul\":833:837   */\n  0x41\n    /* \"#utility.yul\":830:831   */\n  0x04\n    /* \"#utility.yul\":823:838   */\n  mstore\n    /* \"#utility.yul\":857:861   */\n  0x24\n    /* \"#utility.yul\":854:855   */\n  0x00\n    /* \"#utility.yul\":847:862   */\n  revert\n    /* \"#utility.yul\":874:1155   */\ntag_49:\n    /* \"#utility.yul\":957:984   */\n  tag_98\n    /* \"#utility.yul\":979:983   */\n  dup3\n    /* \"#utility.yul\":957:984   */\n  tag_47\n  jump\t// in\ntag_98:\n    /* \"#utility.yul\":949:955   */\n  dup2\n    /* \"#utility.yul\":945:985   */\n  add\n    /* \"#utility.yul\":1087:1093   */\n  dup2\n    /* \"#utility.yul\":1075:1085   */\n  dup2\n    /* \"#utility.yul\":1072:1094   */\n  lt\n    /* \"#utility.yul\":1051:1069   */\n  0xffffffffffffffff\n    /* \"#utility.yul\":1039:1049   */\n  dup3\n    /* \"#utility.yul\":1036:1070   */\n  gt\n    /* \"#utility.yul\":1033:1095   */\n  or\n    /* \"#utility.yul\":1030:1118   */\n  iszero\n  tag_99\n  jumpi\n    /* \"#utility.yul\":1098:1116   */\n  tag_100\n  tag_48\n  jump\t// in\ntag_100:\n    /* \"#utility.yul\":1030:1118   */\ntag_99:\n    /* \"#utility.yul\":1138:1148   */\n  dup1\n    /* \"#utility.yul\":1134:1136   */\n  0x40\n    /* \"#utility.yul\":1127:1149   */\n  mstore\n    /* \"#utility.yul\":917:1155   */\n  pop\n    /* \"#utility.yul\":874:1155   */\n  pop\n  pop\n  jump\t// out\n    /* \"#utility.yul\":1161:1290   */\ntag_50:\n    /* \"#utility.yul\":1195:1201   */\n  0x00\n    /* \"#utility.yul\":1222:1242   */\n  tag_102\n  tag_42\n  jump\t// in\ntag_102:\n    /* \"#utility.yul\":1212:1242   */\n  swap1\n  pop\n    /* \"#utility.yul\":1251:1284   */\n  tag_103\n    /* \"#utility.yul\":1279:1283   */\n  dup3\n    /* \"#utility.yul\":1271:1277   */\n  dup3\n    /* \"#utility.yul\":1251:1284   */\n  tag_49\n  jump\t// in\ntag_103:\n    /* \"#utility.yul\":1161:1290   */\n  swap2\n  swap1\n  pop\n  jump\t// out\n    /* \"#utility.yul\":1296:1604   */\ntag_51:\n    /* \"#utility.yul\":1358:1362   */\n  0x00\n    /* \"#utility.yul\":1448:1466   */\n  0xffffffffffffffff\n    /* \"#utility.yul\":1440:1446   */\n  dup3\n    /* \"#utility.yul\":1437:1467   */\n  gt\n    /* \"#utility.yul\":1434:1490   */\n  iszero\n  tag_105\n  jumpi\n    /* \"#utility.yul\":1470:1488   */\n  tag_106\n  tag_48\n  jump\t// in\ntag_106:\n    /* \"#utility.yul\":1434:1490   */\ntag_105:\n    /* \"#utility.yul\":1508:1537   */\n  tag_107\n    /* \"#utility.yul\":1530:1536   */\n  dup3\n    /* \"#utility.yul\":1508:1537   */\n  tag_47\n  jump\t// in\ntag_107:\n    /* \"#utility.yul\":1500:1537   */\n  swap1\n  pop\n    /* \"#utility.yul\":1592:1596   */\n  0x20\n    /* \"#utility.yul\":1586:1590   */\n  dup2\n    /* \"#utility.yul\":1582:1597   */\n  add\n    /* \"#utility.yul\":1574:1597   */\n  swap1\n  pop\n    /* \"#utility.yul\":1296:1604   */\n  swap2\n  swap1\n  pop\n  jump\t// out\n    /* \"#utility.yul\":1610:1749   */\ntag_52:\n    /* \"#utility.yul\":1699:1705   */\n  dup3\n    /* \"#utility.yul\":1694:1697   */\n  dup2\n    /* \"#utility.yul\":1689:1692   */\n  dup4\n    /* \"#utility.yul\":1683:1706   */\n  mcopy\n    /* \"#utility.yul\":1740:1741   */\n  0x00\n    /* \"#utility.yul\":1731:1737   */\n  dup4\n    /* \"#utility.yul\":1726:1729   */\n  dup4\n    /* \"#utility.yul\":1722:1738   */\n  add\n    /* \"#utility.yul\":1715:1742   */\n  mstore\n    /* \"#utility.yul\":1610:1749   */\n  pop\n  pop\n  pop\n  jump\t// out\n    /* \"#utility.yul\":1755:2189   */\ntag_53:\n    /* \"#utility.yul\":1844:1849   */\n  0x00\n    /* \"#utility.yul\":1869:1935   */\n  tag_110\n    /* \"#utility.yul\":1885:1934   */\n  tag_111\n    /* \"#utility.yul\":1927:1933   */\n  dup5\n    /* \"#utility.yul\":1885:1934   */\n  tag_51\n  jump\t// in\ntag_111:\n    /* \"#utility.yul\":1869:1935   */\n  tag_50\n  jump\t// in\ntag_110:\n    /* \"#utility.yul\":1860:1935   */\n  swap1\n  pop\n    /* \"#utility.yul\":1958:1964   */\n  dup3\n    /* \"#utility.yul\":1951:1956   */\n  dup2\n    /* \"#utility.yul\":1944:1965   */\n  mstore\n    /* \"#utility.yul\":1996:2000   */\n  0x20\n    /* \"#utility.yul\":1989:1994   */\n  dup2\n    /* \"#utility.yul\":1985:2001   */\n  add\n    /* \"#utility.yul\":2034:2037   */\n  dup5\n    /* \"#utility.yul\":2025:2031   */\n  dup5\n    /* \"#utility.yul\":2020:2023   */\n  dup5\n    /* \"#utility.yul\":2016:2032   */\n  add\n    /* \"#utility.yul\":2013:2038   */\n  gt\n    /* \"#utility.yul\":2010:2122   */\n  iszero\n  tag_112\n  jumpi\n    /* \"#utility.yul\":2041:2120   */\n  tag_113\n  tag_46\n  jump\t// in\ntag_113:\n    /* \"#utility.yul\":2010:2122   */\ntag_112:\n    /* \"#utility.yul\":2131:2183   */\n  tag_114\n    /* \"#utility.yul\":2176:2182   */\n  dup5\n    /* \"#utility.yul\":2171:2174   */\n  dup3\n    /* \"#utility.yul\":2166:2169   */\n  dup6\n    /* \"#utility.yul\":2131:2183   */\n  tag_52\n  jump\t// in\ntag_114:\n    /* \"#utility.yul\":1850:2189   */\n  pop\n    /* \"#utility.yul\":1755:2189   */\n  swap4\n  swap3\n  pop\n  pop\n  pop\n  jump\t// out\n    /* \"#utility.yul\":2209:2564   */\ntag_54:\n    /* \"#utility.yul\":2276:2281   */\n  0x00\n    /* \"#utility.yul\":2325:2328   */\n  dup3\n    /* \"#utility.yul\":2318:2322   */\n  0x1f\n    /* \"#utility.yul\":2310:2316   */\n  dup4\n    /* \"#utility.yul\":2306:2323   */\n  add\n    /* \"#utility.yul\":2302:2329   */\n  slt\n    /* \"#utility.yul\":2292:2414   */\n  tag_116\n  jumpi\n    /* \"#utility.yul\":2333:2412   */\n  tag_117\n  tag_45\n  jump\t// in\ntag_117:\n    /* \"#utility.yul\":2292:2414   */\ntag_116:\n    /* \"#utility.yul\":2443:2449   */\n  dup2\n    /* \"#utility.yul\":2437:2450   */\n  mload\n    /* \"#utility.yul\":2468:2558   */\n  tag_118\n    /* \"#utility.yul\":2554:2557   */\n  dup5\n    /* \"#utility.yul\":2546:2552   */\n  dup3\n    /* \"#utility.yul\":2539:2543   */\n  0x20\n    /* \"#utility.yul\":2531:2537   */\n  dup7\n    /* \"#utility.yul\":2527:2544   */\n  add\n    /* \"#utility.yul\":2468:2558   */\n  tag_53\n  jump\t// in\ntag_118:\n    /* \"#utility.yul\":2459:2558   */\n  swap2\n  pop\n    /* \"#utility.yul\":2282:2564   */\n  pop\n    /* \"#utility.yul\":2209:2564   */\n  swap3\n  swap2\n  pop\n  pop\n  jump\t// out\n    /* \"#utility.yul\":2570:2656   */\ntag_55:\n    /* \"#utility.yul\":2605:2612   */\n  0x00\n    /* \"#utility.yul\":2645:2649   */\n  0xff\n    /* \"#utility.yul\":2638:2643   */\n  dup3\n    /* \"#utility.yul\":2634:2650   */\n  and\n    /* \"#utility.yul\":2623:2650   */\n  swap1\n  pop\n    /* \"#utility.yul\":2570:2656   */\n  swap2\n  swap1\n  pop\n  jump\t// out\n    /* \"#utility.yul\":2662:2780   */\ntag_56:\n    /* \"#utility.yul\":2733:2755   */\n  tag_121\n    /* \"#utility.yul\":2749:2754   */\n  dup2\n    /* \"#utility.yul\":2733:2755   */\n  tag_55\n  jump\t// in\ntag_121:\n    /* \"#utility.yul\":2726:2731   */\n  dup2\n    /* \"#utility.yul\":2723:2756   */\n  eq\n    /* \"#utility.yul\":2713:2774   */\n  tag_122\n  jumpi\n    /* \"#utility.yul\":2770:2771   */\n  0x00\n    /* \"#utility.yul\":2767:2768   */\n  dup1\n    /* \"#utility.yul\":2760:2772   */\n  revert\n    /* \"#utility.yul\":2713:2774   */\ntag_122:\n    /* \"#utility.yul\":2662:2780   */\n  pop\n  jump\t// out\n    /* \"#utility.yul\":2786:2925   */\ntag_57:\n    /* \"#utility.yul\":2841:2846   */\n  0x00\n    /* \"#utility.yul\":2872:2878   */\n  dup2\n    /* \"#utility.yul\":2866:2879   */\n  mload\n    /* \"#utility.yul\":2857:2879   */\n  swap1\n  pop\n    /* \"#utility.yul\":2888:2919   */\n  tag_124\n    /* \"#utility.yul\":2913:2918   */\n  dup2\n    /* \"#utility.yul\":2888:2919   */\n  tag_56\n  jump\t// in\ntag_124:\n    /* \"#utility.yul\":2786:2925   */\n  swap3\n  swap2\n  pop\n  pop\n  jump\t// out\n    /* \"#utility.yul\":2931:3008   */\ntag_58:\n    /* \"#utility.yul\":2968:2975   */\n  0x00\n    /* \"#utility.yul\":2997:3002   */\n  dup2\n    /* \"#utility.yul\":2986:3002   */\n  swap1\n  pop\n    /* \"#utility.yul\":2931:3008   */\n  swap2\n  swap1\n  pop\n  jump\t// out\n    /* \"#utility.yul\":3014:3136   */\ntag_59:\n    /* \"#utility.yul\":3087:3111   */\n  tag_127\n    /* \"#utility.yul\":3105:3110   */\n  dup2\n    /* \"#utility.yul\":3087:3111   */\n  tag_58\n  jump\t// in\ntag_127:\n    /* \"#utility.yul\":3080:3085   */\n  dup2\n    /* \"#utility.yul\":3077:3112   */\n  eq\n    /* \"#utility.yul\":3067:3130   */\n  tag_128\n  jumpi\n    /* \"#utility.yul\":3126:3127   */\n  0x00\n    /* \"#utility.yul\":3123:3124   */\n  dup1\n    /* \"#utility.yul\":3116:3128   */\n  revert\n    /* \"#utility.yul\":3067:3130   */\ntag_128:\n    /* \"#utility.yul\":3014:3136   */\n  pop\n  jump\t// out\n    /* \"#utility.yul\":3142:3285   */\ntag_60:\n    /* \"#utility.yul\":3199:3204   */\n  0x00\n    /* \"#utility.yul\":3230:3236   */\n  dup2\n    /* \"#utility.yul\":3224:3237   */\n  mload\n    /* \"#utility.yul\":3215:3237   */\n  swap1\n  pop\n    /* \"#utility.yul\":3246:3279   */\n  tag_130\n    /* \"#utility.yul\":3273:3278   */\n  dup2\n    /* \"#utility.yul\":3246:3279   */\n  tag_59\n  jump\t// in\ntag_130:\n    /* \"#utility.yul\":3142:3285   */\n  swap3\n  swap2\n  pop\n  pop\n  jump\t// out\n    /* \"#utility.yul\":3291:3417   */\ntag_61:\n    /* \"#utility.yul\":3328:3335   */\n  0x00\n    /* \"#utility.yul\":3368:3410   */\n  0xffffffffffffffffffffffffffffffffffffffff\n    /* \"#utility.yul\":3361:3366   */\n  dup3\n    /* \"#utility.yul\":3357:3411   */\n  and\n    /* \"#utility.yul\":3346:3411   */\n  swap1\n  pop\n    /* \"#utility.yul\":3291:3417   */\n  swap2\n  swap1\n  pop\n  jump\t// out\n    /* \"#utility.yul\":3423:3519   */\ntag_62:\n    /* \"#utility.yul\":3460:3467   */\n  0x00\n    /* \"#utility.yul\":3489:3513   */\n  tag_133\n    /* \"#utility.yul\":3507:3512   */\n  dup3\n    /* \"#utility.yul\":3489:3513   */\n  tag_61\n  jump\t// in\ntag_133:\n    /* \"#utility.yul\":3478:3513   */\n  swap1\n  pop\n    /* \"#utility.yul\":3423:3519   */\n  swap2\n  swap1\n  pop\n  jump\t// out\n    /* \"#utility.yul\":3525:3647   */\ntag_63:\n    /* \"#utility.yul\":3598:3622   */\n  tag_135\n    /* \"#utility.yul\":3616:3621   */\n  dup2\n    /* \"#utility.yul\":3598:3622   */\n  tag_62\n  jump\t// in\ntag_135:\n    /* \"#utility.yul\":3591:3596   */\n  dup2\n    /* \"#utility.yul\":3588:3623   */\n  eq\n    /* \"#utility.yul\":3578:3641   */\n  tag_136\n  jumpi\n    /* \"#utility.yul\":3637:3638   */\n  0x00\n    /* \"#utility.yul\":3634:3635   */\n  dup1\n    /* \"#utility.yul\":3627:3639   */\n  revert\n    /* \"#utility.yul\":3578:3641   */\ntag_136:\n    /* \"#utility.yul\":3525:3647   */\n  pop\n  jump\t// out\n    /* \"#utility.yul\":3653:3796   */\ntag_64:\n    /* \"#utility.yul\":3710:3715   */\n  0x00\n    /* \"#utility.yul\":3741:3747   */\n  dup2\n    /* \"#utility.yul\":3735:3748   */\n  mload\n    /* \"#utility.yul\":3726:3748   */\n  swap1\n  pop\n    /* \"#utility.yul\":3757:3790   */\n  tag_138\n    /* \"#utility.yul\":3784:3789   */\n  dup2\n    /* \"#utility.yul\":3757:3790   */\n  tag_63\n  jump\t// in\ntag_138:\n    /* \"#utility.yul\":3653:3796   */\n  swap3\n  swap2\n  pop\n  pop\n  jump\t// out\n    /* \"#utility.yul\":3802:5278   */\ntag_3:\n    /* \"#utility.yul\":3935:3941   */\n  0x00\n    /* \"#utility.yul\":3943:3949   */\n  dup1\n    /* \"#utility.yul\":3951:3957   */\n  0x00\n    /* \"#utility.yul\":3959:3965   */\n  dup1\n    /* \"#utility.yul\":3967:3973   */\n  0x00\n    /* \"#utility.yul\":3975:3981   */\n  dup1\n    /* \"#utility.yul\":4024:4027   */\n  0xc0\n    /* \"#utility.yul\":4012:4021   */\n  dup8\n    /* \"#utility.yul\":4003:4010   */\n  dup10\n    /* \"#utility.yul\":3999:4022   */\n  sub\n    /* \"#utility.yul\":3995:4028   */\n  slt\n    /* \"#utility.yul\":3992:4112   */\n  iszero\n  tag_140\n  jumpi\n    /* \"#utility.yul\":4031:4110   */\n  tag_141\n  tag_43\n  jump\t// in\ntag_141:\n    /* \"#utility.yul\":3992:4112   */\ntag_140:\n    /* \"#utility.yul\":4172:4173   */\n  0x00\n    /* \"#utility.yul\":4161:4170   */\n  dup8\n    /* \"#utility.yul\":4157:4174   */\n  add\n    /* \"#utility.yul\":4151:4175   */\n  mload\n    /* \"#utility.yul\":4202:4220   */\n  0xffffffffffffffff\n    /* \"#utility.yul\":4194:4200   */\n  dup2\n    /* \"#utility.yul\":4191:4221   */\n  gt\n    /* \"#utility.yul\":4188:4305   */\n  iszero\n  tag_142\n  jumpi\n    /* \"#utility.yul\":4224:4303   */\n  tag_143\n  tag_44\n  jump\t// in\ntag_143:\n    /* \"#utility.yul\":4188:4305   */\ntag_142:\n    /* \"#utility.yul\":4329:4403   */\n  tag_144\n    /* \"#utility.yul\":4395:4402   */\n  dup10\n    /* \"#utility.yul\":4386:4392   */\n  dup3\n    /* \"#utility.yul\":4375:4384   */\n  dup11\n    /* \"#utility.yul\":4371:4393   */\n  add\n    /* \"#utility.yul\":4329:4403   */\n  tag_54\n  jump\t// in\ntag_144:\n    /* \"#utility.yul\":4319:4403   */\n  swap7\n  pop\n    /* \"#utility.yul\":4122:4413   */\n  pop\n    /* \"#utility.yul\":4473:4475   */\n  0x20\n    /* \"#utility.yul\":4462:4471   */\n  dup8\n    /* \"#utility.yul\":4458:4476   */\n  add\n    /* \"#utility.yul\":4452:4477   */\n  mload\n    /* \"#utility.yul\":4504:4522   */\n  0xffffffffffffffff\n    /* \"#utility.yul\":4496:4502   */\n  dup2\n    /* \"#utility.yul\":4493:4523   */\n  gt\n    /* \"#utility.yul\":4490:4607   */\n  iszero\n  tag_145\n  jumpi\n    /* \"#utility.yul\":4526:4605   */\n  tag_146\n  tag_44\n  jump\t// in\ntag_146:\n    /* \"#utility.yul\":4490:4607   */\ntag_145:\n    /* \"#utility.yul\":4631:4705   */\n  tag_147\n    /* \"#utility.yul\":4697:4704   */\n  dup10\n    /* \"#utility.yul\":4688:4694   */\n  dup3\n    /* \"#utility.yul\":4677:4686   */\n  dup11\n    /* \"#utility.yul\":4673:4695   */\n  add\n    /* \"#utility.yul\":4631:4705   */\n  tag_54\n  jump\t// in\ntag_147:\n    /* \"#utility.yul\":4621:4705   */\n  swap6\n  pop\n    /* \"#utility.yul\":4423:4715   */\n  pop\n    /* \"#utility.yul\":4754:4756   */\n  0x40\n    /* \"#utility.yul\":4780:4842   */\n  tag_148\n    /* \"#utility.yul\":4834:4841   */\n  dup10\n    /* \"#utility.yul\":4825:4831   */\n  dup3\n    /* \"#utility.yul\":4814:4823   */\n  dup11\n    /* \"#utility.yul\":4810:4832   */\n  add\n    /* \"#utility.yul\":4780:4842   */\n  tag_57\n  jump\t// in\ntag_148:\n    /* \"#utility.yul\":4770:4842   */\n  swap5\n  pop\n    /* \"#utility.yul\":4725:4852   */\n  pop\n    /* \"#utility.yul\":4891:4893   */\n  0x60\n    /* \"#utility.yul\":4917:4981   */\n  tag_149\n    /* \"#utility.yul\":4973:4980   */\n  dup10\n    /* \"#utility.yul\":4964:4970   */\n  dup3\n    /* \"#utility.yul\":4953:4962   */\n  dup11\n    /* \"#utility.yul\":4949:4971   */\n  add\n    /* \"#utility.yul\":4917:4981   */\n  tag_60\n  jump\t// in\ntag_149:\n    /* \"#utility.yul\":4907:4981   */\n  swap4\n  pop\n    /* \"#utility.yul\":4862:4991   */\n  pop\n    /* \"#utility.yul\":5030:5033   */\n  0x80\n    /* \"#utility.yul\":5057:5121   */\n  tag_150\n    /* \"#utility.yul\":5113:5120   */\n  dup10\n    /* \"#utility.yul\":5104:5110   */\n  dup3\n    /* \"#utility.yul\":5093:5102   */\n  dup11\n    /* \"#utility.yul\":5089:5111   */\n  add\n    /* \"#utility.yul\":5057:5121   */\n  tag_60\n  jump\t// in\ntag_150:\n    /* \"#utility.yul\":5047:5121   */\n  swap3\n  pop\n    /* \"#utility.yul\":5001:5131   */\n  pop\n    /* \"#utility.yul\":5170:5173   */\n  0xa0\n    /* \"#utility.yul\":5197:5261   */\n  tag_151\n    /* \"#utility.yul\":5253:5260   */\n  dup10\n    /* \"#utility.yul\":5244:5250   */\n  dup3\n    /* \"#utility.yul\":5233:5242   */\n  dup11\n    /* \"#utility.yul\":5229:5251   */\n  add\n    /* \"#utility.yul\":5197:5261   */\n  tag_64\n  jump\t// in\ntag_151:\n    /* \"#utility.yul\":5187:5261   */\n  swap2\n  pop\n    /* \"#utility.yul\":5141:5271   */\n  pop\n    /* \"#utility.yul\":3802:5278   */\n  swap3\n  swap6\n  pop\n  swap3\n  swap6\n  pop\n  swap3\n  swap6\n  jump\t// out\n    /* \"#utility.yul\":5284:5383   */\ntag_65:\n    /* \"#utility.yul\":5336:5342   */\n  0x00\n    /* \"#utility.yul\":5370:5375   */\n  dup2\n    /* \"#utility.yul\":5364:5376   */\n  mload\n    /* \"#utility.yul\":5354:5376   */\n  swap1\n  pop\n    /* \"#utility.yul\":5284:5383   */\n  swap2\n  swap1\n  pop\n  jump\t// out\n    /* \"#utility.yul\":5389:5569   */\ntag_66:\n    /* \"#utility.yul\":5437:5514   */\n  0x4e487b7100000000000000000000000000000000000000000000000000000000\n    /* \"#utility.yul\":5434:5435   */\n  0x00\n    /* \"#utility.yul\":5427:5515   */\n  mstore\n    /* \"#utility.yul\":5534:5538   */\n  0x22\n    /* \"#utility.yul\":5531:5532   */\n  0x04\n    /* \"#utility.yul\":5524:5539   */\n  mstore\n    /* \"#utility.yul\":5558:5562   */\n  0x24\n    /* \"#utility.yul\":5555:5556   */\n  0x00\n    /* \"#utility.yul\":5548:5563   */\n  revert\n    /* \"#utility.yul\":5575:5895   */\ntag_67:\n    /* \"#utility.yul\":5619:5625   */\n  0x00\n    /* \"#utility.yul\":5656:5657   */\n  0x02\n    /* \"#utility.yul\":5650:5654   */\n  dup3\n    /* \"#utility.yul\":5646:5658   */\n  div\n    /* \"#utility.yul\":5636:5658   */\n  swap1\n  pop\n    /* \"#utility.yul\":5703:5704   */\n  0x01\n    /* \"#utility.yul\":5697:5701   */\n  dup3\n    /* \"#utility.yul\":5693:5705   */\n  and\n    /* \"#utility.yul\":5724:5742   */\n  dup1\n    /* \"#utility.yul\":5714:5795   */\n  tag_155\n  jumpi\n    /* \"#utility.yul\":5780:5784   */\n  0x7f\n    /* \"#utility.yul\":5772:5778   */\n  dup3\n    /* \"#utility.yul\":5768:5785   */\n  and\n    /* \"#utility.yul\":5758:5785   */\n  swap2\n  pop\n    /* \"#utility.yul\":5714:5795   */\ntag_155:\n    /* \"#utility.yul\":5842:5844   */\n  0x20\n    /* \"#utility.yul\":5834:5840   */\n  dup3\n    /* \"#utility.yul\":5831:5845   */\n  lt\n    /* \"#utility.yul\":5811:5829   */\n  dup2\n    /* \"#utility.yul\":5808:5846   */\n  sub\n    /* \"#utility.yul\":5805:5889   */\n  tag_156\n  jumpi\n    /* \"#utility.yul\":5861:5879   */\n  tag_157\n  tag_66\n  jump\t// in\ntag_157:\n    /* \"#utility.yul\":5805:5889   */\ntag_156:\n    /* \"#utility.yul\":5626:5895   */\n  pop\n    /* \"#utility.yul\":5575:5895   */\n  swap2\n  swap1\n  pop\n  jump\t// out\n    /* \"#utility.yul\":5901:6042   */\ntag_68:\n    /* \"#utility.yul\":5950:5954   */\n  0x00\n    /* \"#utility.yul\":5973:5976   */\n  dup2\n    /* \"#utility.yul\":5965:5976   */\n  swap1\n  pop\n    /* \"#utility.yul\":5996:5999   */\n  dup2\n    /* \"#utility.yul\":5993:5994   */\n  0x00\n    /* \"#utility.yul\":5986:6000   */\n  mstore\n    /* \"#utility.yul\":6030:6034   */\n  0x20\n    /* \"#utility.yul\":6027:6028   */\n  0x00\n    /* \"#utility.yul\":6017:6035   */\n  keccak256\n    /* \"#utility.yul\":6009:6035   */\n  swap1\n  pop\n    /* \"#utility.yul\":5901:6042   */\n  swap2\n  swap1\n  pop\n  jump\t// out\n    /* \"#utility.yul\":6048:6141   */\ntag_69:\n    /* \"#utility.yul\":6085:6091   */\n  0x00\n    /* \"#utility.yul\":6132:6134   */\n  0x20\n    /* \"#utility.yul\":6127:6129   */\n  0x1f\n    /* \"#utility.yul\":6120:6125   */\n  dup4\n    /* \"#utility.yul\":6116:6130   */\n  add\n    /* \"#utility.yul\":6112:6135   */\n  div\n    /* \"#utility.yul\":6102:6135   */\n  swap1\n  pop\n    /* \"#utility.yul\":6048:6141   */\n  swap2\n  swap1\n  pop\n  jump\t// out\n    /* \"#utility.yul\":6147:6254   */\ntag_70:\n    /* \"#utility.yul\":6191:6199   */\n  0x00\n    /* \"#utility.yul\":6241:6246   */\n  dup3\n    /* \"#utility.yul\":6235:6239   */\n  dup3\n    /* \"#utility.yul\":6231:6247   */\n  shl\n    /* \"#utility.yul\":6210:6247   */\n  swap1\n  pop\n    /* \"#utility.yul\":6147:6254   */\n  swap3\n  swap2\n  pop\n  pop\n  jump\t// out\n    /* \"#utility.yul\":6260:6653   */\ntag_71:\n    /* \"#utility.yul\":6329:6335   */\n  0x00\n    /* \"#utility.yul\":6379:6380   */\n  0x08\n    /* \"#utility.yul\":6367:6377   */\n  dup4\n    /* \"#utility.yul\":6363:6381   */\n  mul\n    /* \"#utility.yul\":6402:6499   */\n  tag_162\n    /* \"#utility.yul\":6432:6498   */\n  0xffffffffffffffffffffffffffffffffffffffffffffffffffffffffffffffff\n    /* \"#utility.yul\":6421:6430   */\n  dup3\n    /* \"#utility.yul\":6402:6499   */\n  tag_70\n  jump\t// in\ntag_162:\n    /* \"#utility.yul\":6520:6559   */\n  tag_163\n    /* \"#utility.yul\":6550:6558   */\n  dup7\n    /* \"#utility.yul\":6539:6548   */\n  dup4\n    /* \"#utility.yul\":6520:6559   */\n  tag_70\n  jump\t// in\ntag_163:\n    /* \"#utility.yul\":6508:6559   */\n  swap6\n  pop\n    /* \"#utility.yul\":6592:6596   */\n  dup1\n    /* \"#utility.yul\":6588:6597   */\n  not\n    /* \"#utility.yul\":6581:6586   */\n  dup5\n    /* \"#utility.yul\":6577:6598   */\n  and\n    /* \"#utility.yul\":6568:6598   */\n  swap4\n  pop\n    /* \"#utility.yul\":6641:6645   */\n  dup1\n    /* \"#utility.yul\":6631:6639   */\n  dup7\n    /* \"#utility.yul\":6627:6646   */\n  and\n    /* \"#utility.yul\":6620:6625   */\n  dup5\n    /* \"#utility.yul\":6617:6647   */\n  or\n    /* \"#utility.yul\":6607:6647   */\n  swap3\n  pop\n    /* \"#utility.yul\":6336:6653   */\n  pop\n  pop\n    /* \"#utility.yul\":6260:6653   */\n  swap4\n  swap3\n  pop\n  pop\n  pop\n  jump\t// out\n    /* \"#utility.yul\":6659:6719   */\ntag_72:\n    /* \"#utility.yul\":6687:6690   */\n  0x00\n    /* \"#utility.yul\":6708:6713   */\n  dup2\n    /* \"#utility.yul\":6701:6713   */\n  swap1\n  pop\n    /* \"#utility.yul\":6659:6719   */\n  swap2\n  swap1\n  pop\n  jump\t// out\n    /* \"#utility.yul\":6725:6867   */\ntag_73:\n    /* \"#utility.yul\":6775:6784   */\n  0x00\n    /* \"#utility.yul\":6808:6861   */\n  tag_166\n    /* \"#utility.yul\":6826:6860   */\n  tag_167\n    /* \"#utility.yul\":6835:6859   */\n  tag_168\n    /* \"#utility.yul\":6853:6858   */\n  dup5\n    /* \"#utility.yul\":6835:6859   */\n  tag_58\n  jump\t// in\ntag_168:\n    /* \"#utility.yul\":6826:6860   */\n  tag_72\n  jump\t// in\ntag_167:\n    /* \"#utility.yul\":6808:6861   */\n  tag_58\n  jump\t// in\ntag_166:\n    /* \"#utility.yul\":6795:6861   */\n  swap1\n  pop\n    /* \"#utility.yul\":6725:6867   */\n  swap2\n  swap1\n  pop\n  jump\t// out\n    /* \"#utility.yul\":6873:6948   */\ntag_74:\n    /* \"#utility.yul\":6916:6919   */\n  0x00\n    /* \"#utility.yul\":6937:6942   */\n  dup2\n    /* \"#utility.yul\":6930:6942   */\n  swap1\n  pop\n    /* \"#utility.yul\":6873:6948   */\n  swap2\n  swap1\n  pop\n  jump\t// out\n    /* \"#utility.yul\":6954:7223   */\ntag_75:\n    /* \"#utility.yul\":7064:7103   */\n  tag_171\n    /* \"#utility.yul\":7095:7102   */\n  dup4\n    /* \"#utility.yul\":7064:7103   */\n  tag_73\n  jump\t// in\ntag_171:\n    /* \"#utility.yul\":7125:7216   */\n  tag_172\n    /* \"#utility.yul\":7174:7215   */\n  tag_173\n    /* \"#utility.yul\":7198:7214   */\n  dup3\n    /* \"#utility.yul\":7174:7215   */\n  tag_74\n  jump\t// in\ntag_173:\n    /* \"#utility.yul\":7166:7172   */\n  dup5\n    /* \"#utility.yul\":7159:7163   */\n  dup5\n    /* \"#utility.yul\":7153:7164   */\n  sload\n    /* \"#utility.yul\":7125:7216   */\n  tag_71\n  jump\t// in\ntag_172:\n    /* \"#utility.yul\":7119:7123   */\n  dup3\n    /* \"#utility.yul\":7112:7217   */\n  sstore\n    /* \"#utility.yul\":7030:7223   */\n  pop\n    /* \"#utility.yul\":6954:7223   */\n  pop\n  pop\n  pop\n  jump\t// out\n    /* \"#utility.yul\":7229:7302   */\ntag_76:\n    /* \"#utility.yul\":7274:7277   */\n  0x00\n    /* \"#utility.yul\":7229:7302   */\n  swap1\n  jump\t// out\n    /* \"#utility.yul\":7308:7497   */\ntag_77:\n    /* \"#utility.yul\":7385:7417   */\n  tag_176\n  tag_76\n  jump\t// in\ntag_176:\n    /* \"#utility.yul\":7426:7491   */\n  tag_177\n    /* \"#utility.yul\":7484:7490   */\n  dup2\n    /* \"#utility.yul\":7476:7482   */\n  dup5\n    /* \"#utility.yul\":7470:7474   */\n  dup5\n    /* \"#utility.yul\":7426:7491   */\n  tag_75\n  jump\t// in\ntag_177:\n    /* \"#utility.yul\":7361:7497   */\n  pop\n    /* \"#utility.yul\":7308:7497   */\n  pop\n  pop\n  jump\t// out\n    /* \"#utility.yul\":7503:7689   */\ntag_78:\n    /* \"#utility.yul\":7563:7683   */\ntag_179:\n    /* \"#utility.yul\":7580:7583   */\n  dup2\n    /* \"#utility.yul\":7573:7578   */\n  dup2\n    /* \"#utility.yul\":7570:7584   */\n  lt\n    /* \"#utility.yul\":7563:7683   */\n  iszero\n  tag_181\n  jumpi\n    /* \"#utility.yul\":7634:7673   */\n  tag_182\n    /* \"#utility.yul\":7671:7672   */\n  0x00\n    /* \"#utility.yul\":7664:7669   */\n  dup3\n    /* \"#utility.yul\":7634:7673   */\n  tag_77\n  jump\t// in\ntag_182:\n    /* \"#utility.yul\":7607:7608   */\n  0x01\n    /* \"#utility.yul\":7600:7605   */\n  dup2\n    /* \"#utility.yul\":7596:7609   */\n  add\n    /* \"#utility.yul\":7587:7609   */\n  swap1\n  pop\n    /* \"#utility.yul\":7563:7683   */\n  jump(tag_179)\ntag_181:\n    /* \"#utility.yul\":7503:7689   */\n  pop\n  pop\n  jump\t// out\n    /* \"#utility.yul\":7695:8238   */\ntag_79:\n    /* \"#utility.yul\":7796:7798   */\n  0x1f\n    /* \"#utility.yul\":7791:7794   */\n  dup3\n    /* \"#utility.yul\":7788:7799   */\n  gt\n    /* \"#utility.yul\":7785:8231   */\n  iszero\n  tag_184\n  jumpi\n    /* \"#utility.yul\":7830:7868   */\n  tag_185\n    /* \"#utility.yul\":7862:7867   */\n  dup2\n    /* \"#utility.yul\":7830:7868   */\n  tag_68\n  jump\t// in\ntag_185:\n    /* \"#utility.yul\":7914:7943   */\n  tag_186\n    /* \"#utility.yul\":7932:7942   */\n  dup5\n    /* \"#utility.yul\":7914:7943   */\n  tag_69\n  jump\t// in\ntag_186:\n    /* \"#utility.yul\":7904:7912   */\n  dup2\n    /* \"#utility.yul\":7900:7944   */\n  add\n    /* \"#utility.yul\":8097:8099   */\n  0x20\n    /* \"#utility.yul\":8085:8095   */\n  dup6\n    /* \"#utility.yul\":8082:8100   */\n  lt\n    /* \"#utility.yul\":8079:8128   */\n  iszero\n  tag_187\n  jumpi\n    /* \"#utility.yul\":8118:8126   */\n  dup2\n    /* \"#utility.yul\":8103:8126   */\n  swap1\n  pop\n    /* \"#utility.yul\":8079:8128   */\ntag_187:\n    /* \"#utility.yul\":8141:8221   */\n  tag_188\n    /* \"#utility.yul\":8197:8219   */\n  tag_189\n    /* \"#utility.yul\":8215:8218   */\n  dup6\n    /* \"#utility.yul\":8197:8219   */\n  tag_69\n  jump\t// in\ntag_189:\n    /* \"#utility.yul\":8187:8195   */\n  dup4\n    /* \"#utility.yul\":8183:8220   */\n  add\n    /* \"#utility.yul\":8170:8181   */\n  dup3\n    /* \"#utility.yul\":8141:8221   */\n  tag_78\n  jump\t// in\ntag_188:\n    /* \"#utility.yul\":7800:8231   */\n  pop\n  pop\n    /* \"#utility.yul\":7785:8231   */\ntag_184:\n    /* \"#utility.yul\":7695:8238   */\n  pop\n  pop\n  pop\n  jump\t// out\n    /* \"#utility.yul\":8244:8361   */\ntag_80:\n    /* \"#utility.yul\":8298:8306   */\n  0x00\n    /* \"#utility.yul\":8348:8353   */\n  dup3\n    /* \"#utility.yul\":8342:8346   */\n  dup3\n    /* \"#utility.yul\":8338:8354   */\n  shr\n    /* \"#utility.yul\":8317:8354   */\n  swap1\n  pop\n    /* \"#utility.yul\":8244:8361   */\n  swap3\n  swap2\n  pop\n  pop\n  jump\t// out\n    /* \"#utility.yul\":8367:8536   */\ntag_81:\n    /* \"#utility.yul\":8411:8417   */\n  0x00\n    /* \"#utility.yul\":8444:8495   */\n  tag_192\n    /* \"#utility.yul\":8492:8493   */\n  0x00\n    /* \"#utility.yul\":8488:8494   */\n  not\n    /* \"#utility.yul\":8480:8485   */\n  dup5\n    /* \"#utility.yul\":8477:8478   */\n  0x08\n    /* \"#utility.yul\":8473:8486   */\n  mul\n    /* \"#utility.yul\":8444:8495   */\n  tag_80\n  jump\t// in\ntag_192:\n    /* \"#utility.yul\":8440:8496   */\n  not\n    /* \"#utility.yul\":8525:8529   */\n  dup1\n    /* \"#utility.yul\":8519:8523   */\n  dup4\n    /* \"#utility.yul\":8515:8530   */\n  and\n    /* \"#utility.yul\":8505:8530   */\n  swap2\n  pop\n    /* \"#utility.yul\":8418:8536   */\n  pop\n    /* \"#utility.yul\":8367:8536   */\n  swap3\n  swap2\n  pop\n  pop\n  jump\t// out\n    /* \"#utility.yul\":8541:8836   */\ntag_82:\n    /* \"#utility.yul\":8617:8621   */\n  0x00\n    /* \"#utility.yul\":8763:8792   */\n  tag_194\n    /* \"#utility.yul\":8788:8791   */\n  dup4\n    /* \"#utility.yul\":8782:8786   */\n  dup4\n    /* \"#utility.yul\":8763:8792   */\n  tag_81\n  jump\t// in\ntag_194:\n    /* \"#utility.yul\":8755:8792   */\n  swap2\n  pop\n    /* \"#utility.yul\":8825:8828   */\n  dup3\n    /* \"#utility.yul\":8822:8823   */\n  0x02\n    /* \"#utility.yul\":8818:8829   */\n  mul\n    /* \"#utility.yul\":8812:8816   */\n  dup3\n    /* \"#utility.yul\":8809:8830   */\n  or\n    /* \"#utility.yul\":8801:8830   */\n  swap1\n  pop\n    /* \"#utility.yul\":8541:8836   */\n  swap3\n  swap2\n  pop\n  pop\n  jump\t// out\n    /* \"#utility.yul\":8841:10236   */\ntag_10:\n    /* \"#utility.yul\":8958:8995   */\n  tag_196\n    /* \"#utility.yul\":8991:8994   */\n  dup3\n    /* \"#utility.yul\":8958:8995   */\n  tag_65\n  jump\t// in\ntag_196:\n    /* \"#utility.yul\":9060:9078   */\n  0xffffffffffffffff\n    /* \"#utility.yul\":9052:9058   */\n  dup2\n    /* \"#utility.yul\":9049:9079   */\n  gt\n    /* \"#utility.yul\":9046:9102   */\n  iszero\n  tag_197\n  jumpi\n    /* \"#utility.yul\":9082:9100   */\n  tag_198\n  tag_48\n  jump\t// in\ntag_198:\n    /* \"#utility.yul\":9046:9102   */\ntag_197:\n    /* \"#utility.yul\":9126:9164   */\n  tag_199\n    /* \"#utility.yul\":9158:9162   */\n  dup3\n    /* \"#utility.yul\":9152:9163   */\n  sload\n    /* \"#utility.yul\":9126:9164   */\n  tag_67\n  jump\t// in\ntag_199:\n    /* \"#utility.yul\":9211:9278   */\n  tag_200\n    /* \"#utility.yul\":9271:9277   */\n  dup3\n    /* \"#utility.yul\":9263:9269   */\n  dup3\n    /* \"#utility.yul\":9257:9261   */\n  dup6\n    /* \"#utility.yul\":9211:9278   */\n  tag_79\n  jump\t// in\ntag_200:\n    /* \"#utility.yul\":9305:9306   */\n  0x00\n    /* \"#utility.yul\":9329:9333   */\n  0x20\n    /* \"#utility.yul\":9316:9333   */\n  swap1\n  pop\n    /* \"#utility.yul\":9361:9363   */\n  0x1f\n    /* \"#utility.yul\":9353:9359   */\n  dup4\n    /* \"#utility.yul\":9350:9364   */\n  gt\n    /* \"#utility.yul\":9378:9379   */\n  0x01\n    /* \"#utility.yul\":9373:9991   */\n  dup2\n  eq\n  tag_202\n  jumpi\n    /* \"#utility.yul\":10035:10036   */\n  0x00\n    /* \"#utility.yul\":10052:10058   */\n  dup5\n    /* \"#utility.yul\":10049:10126   */\n  iszero\n  tag_203\n  jumpi\n    /* \"#utility.yul\":10101:10110   */\n  dup3\n    /* \"#utility.yul\":10096:10099   */\n  dup8\n    /* \"#utility.yul\":10092:10111   */\n  add\n    /* \"#utility.yul\":10086:10112   */\n  mload\n    /* \"#utility.yul\":10077:10112   */\n  swap1\n  pop\n    /* \"#utility.yul\":10049:10126   */\ntag_203:\n    /* \"#utility.yul\":10152:10219   */\n  tag_204\n    /* \"#utility.yul\":10212:10218   */\n  dup6\n    /* \"#utility.yul\":10205:10210   */\n  dup3\n    /* \"#utility.yul\":10152:10219   */\n  tag_82\n  jump\t// in\ntag_204:\n    /* \"#utility.yul\":10146:10150   */\n  dup7\n    /* \"#utility.yul\":10139:10220   */\n  sstore\n    /* \"#utility.yul\":10008:10230   */\n  pop\n    /* \"#utility.yul\":9343:10230   */\n  jump(tag_201)\n    /* \"#utility.yul\":9373:9991   */\ntag_202:\n    /* \"#utility.yul\":9425:9429   */\n  0x1f\n    /* \"#utility.yul\":9421:9430   */\n  not\n    /* \"#utility.yul\":9413:9419   */\n  dup5\n    /* \"#utility.yul\":9409:9431   */\n  and\n    /* \"#utility.yul\":9459:9496   */\n  tag_205\n    /* \"#utility.yul\":9491:9495   */\n  dup7\n    /* \"#utility.yul\":9459:9496   */\n  tag_68\n  jump\t// in\ntag_205:\n    /* \"#utility.yul\":9518:9519   */\n  0x00\n    /* \"#utility.yul\":9532:9740   */\ntag_206:\n    /* \"#utility.yul\":9546:9553   */\n  dup3\n    /* \"#utility.yul\":9543:9544   */\n  dup2\n    /* \"#utility.yul\":9540:9554   */\n  lt\n    /* \"#utility.yul\":9532:9740   */\n  iszero\n  tag_208\n  jumpi\n    /* \"#utility.yul\":9625:9634   */\n  dup5\n    /* \"#utility.yul\":9620:9623   */\n  dup10\n    /* \"#utility.yul\":9616:9635   */\n  add\n    /* \"#utility.yul\":9610:9636   */\n  mload\n    /* \"#utility.yul\":9602:9608   */\n  dup3\n    /* \"#utility.yul\":9595:9637   */\n  sstore\n    /* \"#utility.yul\":9676:9677   */\n  0x01\n    /* \"#utility.yul\":9668:9674   */\n  dup3\n    /* \"#utility.yul\":9664:9678   */\n  add\n    /* \"#utility.yul\":9654:9678   */\n  swap2\n  pop\n    /* \"#utility.yul\":9723:9725   */\n  0x20\n    /* \"#utility.yul\":9712:9721   */\n  dup6\n    /* \"#utility.yul\":9708:9726   */\n  add\n    /* \"#utility.yul\":9695:9726   */\n  swap5\n  pop\n    /* \"#utility.yul\":9569:9573   */\n  0x20\n    /* \"#utility.yul\":9566:9567   */\n  dup2\n    /* \"#utility.yul\":9562:9574   */\n  add\n    /* \"#utility.yul\":9557:9574   */\n  swap1\n  pop\n    /* \"#utility.yul\":9532:9740   */\n  jump(tag_206)\ntag_208:\n    /* \"#utility.yul\":9768:9774   */\n  dup7\n    /* \"#utility.yul\":9759:9766   */\n  dup4\n    /* \"#utility.yul\":9756:9775   */\n  lt\n    /* \"#utility.yul\":9753:9932   */\n  iszero\n  tag_209\n  jumpi\n    /* \"#utility.yul\":9826:9835   */\n  dup5\n    /* \"#utility.yul\":9821:9824   */\n  dup10\n    /* \"#utility.yul\":9817:9836   */\n  add\n    /* \"#utility.yul\":9811:9837   */\n  mload\n    /* \"#utility.yul\":9869:9917   */\n  tag_210\n    /* \"#utility.yul\":9911:9915   */\n  0x1f\n    /* \"#utility.yul\":9903:9909   */\n  dup10\n    /* \"#utility.yul\":9899:9916   */\n  and\n    /* \"#utility.yul\":9888:9897   */\n  dup3\n    /* \"#utility.yul\":9869:9917   */\n  tag_81\n  jump\t// in\ntag_210:\n    /* \"#utility.yul\":9861:9867   */\n  dup4\n    /* \"#utility.yul\":9854:9918   */\n  sstore\n    /* \"#utility.yul\":9776:9932   */\n  pop\n    /* \"#utility.yul\":9753:9932   */\ntag_209:\n    /* \"#utility.yul\":9978:9979   */\n  0x01\n    /* \"#utility.yul\":9974:9975   */\n  0x02\n    /* \"#utility.yul\":9966:9972   */\n  dup9\n    /* \"#utility.yul\":9962:9976   */\n  mul\n    /* \"#utility.yul\":9958:9980   */\n  add\n    /* \"#utility.yul\":9952:9956   */\n  dup9\n    /* \"#utility.yul\":9945:9981   */\n  sstore\n    /* \"#utility.yul\":9380:9991   */\n  pop\n  pop\n  pop\n    /* \"#utility.yul\":9343:10230   */\ntag_201:\n  pop\n    /* \"#utility.yul\":8933:10236   */\n  pop\n  pop\n  pop\n    /* \"#utility.yul\":8841:10236   */\n  pop\n  pop\n  jump\t// out\n    /* \"#utility.yul\":10242:10327   */\ntag_83:\n    /* \"#utility.yul\":10287:10294   */\n  0x00\n    /* \"#utility.yul\":10316:10321   */\n  dup2\n    /* \"#utility.yul\":10305:10321   */\n  swap1\n  pop\n    /* \"#utility.yul\":10242:10327   */\n  swap2\n  swap1\n  pop\n  jump\t// out\n    /* \"#utility.yul\":10333:10491   */\ntag_84:\n    /* \"#utility.yul\":10391:10400   */\n  0x00\n    /* \"#utility.yul\":10424:10485   */\n  tag_213\n    /* \"#utility.yul\":10442:10484   */\n  tag_214\n    /* \"#utility.yul\":10451:10483   */\n  tag_215\n    /* \"#utility.yul\":10477:10482   */\n  dup5\n    /* \"#utility.yul\":10451:10483   */\n  tag_83\n  jump\t// in\ntag_215:\n    /* \"#utility.yul\":10442:10484   */\n  tag_72\n  jump\t// in\ntag_214:\n    /* \"#utility.yul\":10424:10485   */\n  tag_58\n  jump\t// in\ntag_213:\n    /* \"#utility.yul\":10411:10485   */\n  swap1\n  pop\n    /* \"#utility.yul\":10333:10491   */\n  swap2\n  swap1\n  pop\n  jump\t// out\n    /* \"#utility.yul\":10497:10644   */\ntag_85:\n    /* \"#utility.yul\":10592:10637   */\n  tag_217\n    /* \"#utility.yul\":10631:10636   */\n  dup2\n    /* \"#utility.yul\":10592:10637   */\n  tag_84\n  jump\t// in\ntag_217:\n    /* \"#utility.yul\":10587:10590   */\n  dup3\n    /* \"#utility.yul\":10580:10638   */\n  mstore\n    /* \"#utility.yul\":10497:10644   */\n  pop\n  pop\n  jump\t// out\n    /* \"#utility.yul\":10650:10888   */\ntag_15:\n    /* \"#utility.yul\":10751:10755   */\n  0x00\n    /* \"#utility.yul\":10789:10791   */\n  0x20\n    /* \"#utility.yul\":10778:10787   */\n  dup3\n    /* \"#utility.yul\":10774:10792   */\n  add\n    /* \"#utility.yul\":10766:10792   */\n  swap1\n  pop\n    /* \"#utility.yul\":10802:10881   */\n  tag_219\n    /* \"#utility.yul\":10878:10879   */\n  0x00\n    /* \"#utility.yul\":10867:10876   */\n  dup4\n    /* \"#utility.yul\":10863:10880   */\n  add\n    /* \"#utility.yul\":10854:10860   */\n  dup5\n    /* \"#utility.yul\":10802:10881   */\n  tag_85\n  jump\t// in\ntag_219:\n    /* \"#utility.yul\":10650:10888   */\n  swap3\n  swap2\n  pop\n  pop\n  jump\t// out\n    /* \"#utility.yul\":10894:11063   */\ntag_86:\n    /* \"#utility.yul\":10978:10989   */\n  0x00\n    /* \"#utility.yul\":11012:11018   */\n  dup3\n    /* \"#utility.yul\":11007:11010   */\n  dup3\n    /* \"#utility.yul\":11000:11019   */\n  mstore\n    /* \"#utility.yul\":11052:11056   */\n  0x20\n    /* \"#utility.yul\":11047:11050   */\n  dup3\n    /* \"#utility.yul\":11043:11057   */\n  add\n    /* \"#utility.yul\":11028:11057   */\n  swap1\n  pop\n    /* \"#utility.yul\":10894:11063   */\n  swap3\n  swap2\n  pop\n  pop\n  jump\t// out\n    /* \"#utility.yul\":11069:11246   */\ntag_87:\n    /* \"#utility.yul\":11209:11238   */\n  0x496e76616c69642062656e656669636961727920616464726573730000000000\n    /* \"#utility.yul\":11205:11206   */\n  0x00\n    /* \"#utility.yul\":11197:11203   */\n  dup3\n    /* \"#utility.yul\":11193:11207   */\n  add\n    /* \"#utility.yul\":11186:11239   */\n  mstore\n    /* \"#utility.yul\":11069:11246   */\n  pop\n  jump\t// out\n    /* \"#utility.yul\":11252:11618   */\ntag_88:\n    /* \"#utility.yul\":11394:11397   */\n  0x00\n    /* \"#utility.yul\":11415:11482   */\n  tag_223\n    /* \"#utility.yul\":11479:11481   */\n  0x1b\n    /* \"#utility.yul\":11474:11477   */\n  dup4\n    /* \"#utility.yul\":11415:11482   */\n  tag_86\n  jump\t// in\ntag_223:\n    /* \"#utility.yul\":11408:11482   */\n  swap2\n  pop\n    /* \"#utility.yul\":11491:11584   */\n  tag_224\n    /* \"#utility.yul\":11580:11583   */\n  dup3\n    /* \"#utility.yul\":11491:11584   */\n  tag_87\n  jump\t// in\ntag_224:\n    /* \"#utility.yul\":11609:11611   */\n  0x20\n    /* \"#utility.yul\":11604:11607   */\n  dup3\n    /* \"#utility.yul\":11600:11612   */\n  add\n    /* \"#utility.yul\":11593:11612   */\n  swap1\n  pop\n    /* \"#utility.yul\":11252:11618   */\n  swap2\n  swap1\n  pop\n  jump\t// out\n    /* \"#utility.yul\":11624:12043   */\ntag_20:\n    /* \"#utility.yul\":11790:11794   */\n  0x00\n    /* \"#utility.yul\":11828:11830   */\n  0x20\n    /* \"#utility.yul\":11817:11826   */\n  dup3\n    /* \"#utility.yul\":11813:11831   */\n  add\n    /* \"#utility.yul\":11805:11831   */\n  swap1\n  pop\n    /* \"#utility.yul\":11877:11886   */\n  dup2\n    /* \"#utility.yul\":11871:11875   */\n  dup2\n    /* \"#utility.yul\":11867:11887   */\n  sub\n    /* \"#utility.yul\":11863:11864   */\n  0x00\n    /* \"#utility.yul\":11852:11861   */\n  dup4\n    /* \"#utility.yul\":11848:11865   */\n  add\n    /* \"#utility.yul\":11841:11888   */\n  mstore\n    /* \"#utility.yul\":11905:12036   */\n  tag_226\n    /* \"#utility.yul\":12031:12035   */\n  dup2\n    /* \"#utility.yul\":11905:12036   */\n  tag_88\n  jump\t// in\ntag_226:\n    /* \"#utility.yul\":11897:12036   */\n  swap1\n  pop\n    /* \"#utility.yul\":11624:12043   */\n  swap2\n  swap1\n  pop\n  jump\t// out\n    /* \"contracts/tokenContract.sol\":438:7092  contract KYCToken is ERC20Capped, AccessControl, ReentrancyGuard {... */\ntag_28:\n  mload(0x80)\n  codecopy(0x00, dataOffset(sub_0), dataSize(sub_0))\n  0x00\n  assignImmutable(\"0xef0ada6a95823a4880a6367b472055002c2c186b47e43e76ee0a3262e7bbe618\")\n  return(0x00, dataSize(sub_0))\nstop\n\nsub_0: assembly {\n        /* \"contracts/tokenContract.sol\":438:7092  contract KYCToken is ERC20Capped, AccessControl, ReentrancyGuard {... */\n      mstore(0x40, 0x80)\n      jumpi(tag_1, lt(calldatasize, 0x04))\n      shr(0xe0, calldataload(0x00))\n      dup1\n      0x91d14854\n      gt\n      tag_38\n      jumpi\n      dup1\n      0xd5dd4c02\n      gt\n      tag_39\n      jumpi\n      dup1\n      0xed831fa4\n      gt\n      tag_40\n      jumpi\n      dup1\n      0xed831fa4\n      eq\n      tag_33\n      jumpi\n      dup1\n      0xf2f2a8ef\n      eq\n      tag_34\n      jumpi\n      dup1\n      0xf2fde38b\n      eq\n      tag_35\n      jumpi\n      dup1\n      0xf9c8dec3\n      eq\n      tag_36\n      jumpi\n      dup1\n      0xfb4900fc\n      eq\n      tag_37\n      jumpi\n      jump(tag_2)\n    tag_40:\n      dup1\n      0xd5dd4c02\n      eq\n      tag_29\n      jumpi\n      dup1\n      0xd8326a18\n      eq\n      tag_30\n      jumpi\n      dup1\n      0xd9d61655\n      eq\n      tag_31\n      jumpi\n      dup1\n      0xdd62ed3e\n      eq\n      tag_32\n      jumpi\n      jump(tag_2)\n    tag_39:\n      dup1\n      0xa9059cbb\n      gt\n      tag_41\n      jumpi\n      dup1\n      0xa9059cbb\n      eq\n      tag_24\n      jumpi\n      dup1\n      0xa9eb3f99\n      eq\n      tag_25\n      jumpi\n      dup1\n      0xb4c7f1ed\n      eq\n      tag_26\n      jumpi\n      dup1\n      0xd5391393\n      eq\n      tag_27\n      jumpi\n      dup1\n      0xd547741f\n      eq\n      tag_28\n      jumpi\n      jump(tag_2)\n    tag_41:\n      dup1\n      0x91d14854\n      eq\n      tag_20\n      jumpi\n      dup1\n      0x95d89b41\n      eq\n      tag_21\n      jumpi\n      dup1\n      0x983b2d56\n      eq\n      tag_22\n      jumpi\n      dup1\n      0xa217fddf\n      eq\n      tag_23\n      jumpi\n      jump(tag_2)\n    tag_38:\n      dup1\n      0x2c4e722e\n      gt\n      tag_42\n      jumpi\n      dup1\n      0x36568abe\n      gt\n      tag_43\n      jumpi\n      dup1\n      0x36568abe\n      eq\n      tag_15\n      jumpi\n      dup1\n      0x565a2e2c\n      eq\n      tag_16\n      jumpi\n      dup1\n      0x629044d2\n      eq\n      tag_17\n      jumpi\n      dup1\n      0x70a08231\n      eq\n      tag_18\n      jumpi\n      dup1\n      0x8da5cb5b\n      eq\n      tag_19\n      jumpi\n      jump(tag_2)\n    tag_43:\n      dup1\n      0x2c4e722e\n      eq\n      tag_11\n      jumpi\n      dup1\n      0x2f2ff15d\n      eq\n      tag_12\n      jumpi\n      dup1\n      0x313ce567\n      eq\n      tag_13\n      jumpi\n      dup1\n      0x355274ea\n      eq\n      tag_14\n      jumpi\n      jump(tag_2)\n    tag_42:\n      dup1\n      0x18160ddd\n      gt\n      tag_44\n      jumpi\n      dup1\n      0x18160ddd\n      eq\n      tag_7\n      jumpi\n      dup1\n      0x23b872dd\n      eq\n      tag_8\n      jumpi\n      dup1\n      0x248a9ca3\n      eq\n      tag_9\n      jumpi\n      dup1\n      0x263719c1\n      eq\n      tag_10\n      jumpi\n      jump(tag_2)\n    tag_44:\n      dup1\n      0x01ffc9a7\n      eq\n      tag_3\n      jumpi\n      dup1\n      0x05ab421d\n      eq\n      tag_4\n      jumpi\n      dup1\n      0x06fdde03\n      eq\n      tag_5\n      jumpi\n      dup1\n      0x095ea7b3\n      eq\n      tag_6\n      jumpi\n      jump(tag_2)\n    tag_1:\n      jumpi(tag_2, calldatasize)\n      stop\n    tag_2:\n      0x00\n      dup1\n      revert\n        /* \"@openzeppelin/contracts/access/AccessControl.sol\":2565:2767  function supportsInterface(bytes4 interfaceId) public view virtual override returns (bool) {... */\n    tag_3:\n      callvalue\n      dup1\n      iszero\n      tag_47\n      jumpi\n      0x00\n      dup1\n      revert\n    tag_47:\n      pop\n      tag_48\n      0x04\n      dup1\n      calldatasize\n      sub\n      dup2\n      add\n      swap1\n      tag_49\n      swap2\n      swap1\n      tag_50\n      jump\t// in\n    tag_49:\n      tag_51\n      jump\t// in\n    tag_48:\n      mload(0x40)\n      tag_52\n      swap2\n      swap1\n      tag_53\n      jump\t// in\n    tag_52:\n      mload(0x40)\n      dup1\n      swap2\n      sub\n      swap1\n      return\n        /* \"contracts/tokenContract.sol\":2824:3126  function sendTokens(address buyer, uint256 amount) public onlyRole(MINTER_ROLE) nonReentrant {... */\n    tag_4:\n      callvalue\n      dup1\n      iszero\n      tag_54\n      jumpi\n      0x00\n      dup1\n      revert\n    tag_54:\n      pop\n      tag_55\n      0x04\n      dup1\n      calldatasize\n      sub\n      dup2\n      add\n      swap1\n      tag_56\n      swap2\n      swap1\n      tag_57\n      jump\t// in\n    tag_56:\n      tag_58\n      jump\t// in\n    tag_55:\n      stop\n        /* \"@openzeppelin/contracts/token/ERC20/ERC20.sol\":1760:1849  function name() public view virtual returns (string memory) {... */\n    tag_5:\n      callvalue\n      dup1\n      iszero\n      tag_59\n      jumpi\n      0x00\n      dup1\n      revert\n    tag_59:\n      pop\n      tag_60\n      tag_61\n      jump\t// in\n    tag_60:\n      mload(0x40)\n      tag_62\n      swap2\n      swap1\n      tag_63\n      jump\t// in\n    tag_62:\n      mload(0x40)\n      dup1\n      swap2\n      sub\n      swap1\n      return\n        /* \"@openzeppelin/contracts/token/ERC20/ERC20.sol\":3979:4165  function approve(address spender, uint256 value) public virtual returns (bool) {... */\n    tag_6:\n      callvalue\n      dup1\n      iszero\n      tag_64\n      jumpi\n      0x00\n      dup1\n      revert\n    tag_64:\n      pop\n      tag_65\n      0x04\n      dup1\n      calldatasize\n      sub\n      dup2\n      add\n      swap1\n      tag_66\n      swap2\n      swap1\n      tag_57\n      jump\t// in\n    tag_66:\n      tag_67\n      jump\t// in\n    tag_65:\n      mload(0x40)\n      tag_68\n      swap2\n      swap1\n      tag_53\n      jump\t// in\n    tag_68:\n      mload(0x40)\n      dup1\n      swap2\n      sub\n      swap1\n      return\n        /* \"@openzeppelin/contracts/token/ERC20/ERC20.sol\":2830:2927  function totalSupply() public view virtual returns (uint256) {... */\n    tag_7:\n      callvalue\n      dup1\n      iszero\n      tag_69\n      jumpi\n      0x00\n      dup1\n      revert\n    tag_69:\n      pop\n      tag_70\n      tag_71\n      jump\t// in\n    tag_70:\n      mload(0x40)\n      tag_72\n      swap2\n      swap1\n      tag_73\n      jump\t// in\n    tag_72:\n      mload(0x40)\n      dup1\n      swap2\n      sub\n      swap1\n      return\n        /* \"contracts/tokenContract.sol\":3609:3910  function transferFrom(address sender, address recipient, uint256 amount) public override returns (bool) {... */\n    tag_8:\n      callvalue\n      dup1\n      iszero\n      tag_74\n      jumpi\n      0x00\n      dup1\n      revert\n    tag_74:\n      pop\n      tag_75\n      0x04\n      dup1\n      calldatasize\n      sub\n      dup2\n      add\n      swap1\n      tag_76\n      swap2\n      swap1\n      tag_77\n      jump\t// in\n    tag_76:\n      tag_78\n      jump\t// in\n    tag_75:\n      mload(0x40)\n      tag_79\n      swap2\n      swap1\n      tag_53\n      jump\t// in\n    tag_79:\n      mload(0x40)\n      dup1\n      swap2\n      sub\n      swap1\n      return\n        /* \"@openzeppelin/contracts/access/AccessControl.sol\":3810:3930  function getRoleAdmin(bytes32 role) public view virtual returns (bytes32) {... */\n    tag_9:\n      callvalue\n      dup1\n      iszero\n      tag_80\n      jumpi\n      0x00\n      dup1\n      revert\n    tag_80:\n      pop\n      tag_81\n      0x04\n      dup1\n      calldatasize\n      sub\n      dup2\n      add\n      swap1\n      tag_82\n      swap2\n      swap1\n      tag_83\n      jump\t// in\n    tag_82:\n      tag_84\n      jump\t// in\n    tag_81:\n      mload(0x40)\n      tag_85\n      swap2\n      swap1\n      tag_86\n      jump\t// in\n    tag_85:\n      mload(0x40)\n      dup1\n      swap2\n      sub\n      swap1\n      return\n        /* \"contracts/tokenContract.sol\":4589:4966  function burnMyBalance(address _tokenOwner, uint256 _amount) public onlyRole(MINTER_ROLE) returns (bool) {... */\n    tag_10:\n      callvalue\n      dup1\n      iszero\n      tag_87\n      jumpi\n      0x00\n      dup1\n      revert\n    tag_87:\n      pop\n      tag_88\n      0x04\n      dup1\n      calldatasize\n      sub\n      dup2\n      add\n      swap1\n      tag_89\n      swap2\n      swap1\n      tag_57\n      jump\t// in\n    tag_89:\n      tag_90\n      jump\t// in\n    tag_88:\n      mload(0x40)\n      tag_91\n      swap2\n      swap1\n      tag_53\n      jump\t// in\n    tag_91:\n      mload(0x40)\n      dup1\n      swap2\n      sub\n      swap1\n      return\n        /* \"contracts/tokenContract.sol\":2059:2134  function rate() public view returns (uint256) {... */\n    tag_11:\n      callvalue\n      dup1\n      iszero\n      tag_92\n      jumpi\n      0x00\n      dup1\n      revert\n    tag_92:\n      pop\n      tag_93\n      tag_94\n      jump\t// in\n    tag_93:\n      mload(0x40)\n      tag_95\n      swap2\n      swap1\n      tag_73\n      jump\t// in\n    tag_95:\n      mload(0x40)\n      dup1\n      swap2\n      sub\n      swap1\n      return\n        /* \"@openzeppelin/contracts/access/AccessControl.sol\":4226:4362  function grantRole(bytes32 role, address account) public virtual onlyRole(getRoleAdmin(role)) {... */\n    tag_12:\n      callvalue\n      dup1\n      iszero\n      tag_96\n      jumpi\n      0x00\n      dup1\n      revert\n    tag_96:\n      pop\n      tag_97\n      0x04\n      dup1\n      calldatasize\n      sub\n      dup2\n      add\n      swap1\n      tag_98\n      swap2\n      swap1\n      tag_99\n      jump\t// in\n    tag_98:\n      tag_100\n      jump\t// in\n    tag_97:\n      stop\n        /* \"contracts/tokenContract.sol\":1951:2049  function decimals() public view virtual override returns (uint8) {... */\n    tag_13:\n      callvalue\n      dup1\n      iszero\n      tag_101\n      jumpi\n      0x00\n      dup1\n      revert\n    tag_101:\n      pop\n      tag_102\n      tag_103\n      jump\t// in\n    tag_102:\n      mload(0x40)\n      tag_104\n      swap2\n      swap1\n      tag_105\n      jump\t// in\n    tag_104:\n      mload(0x40)\n      dup1\n      swap2\n      sub\n      swap1\n      return\n        /* \"@openzeppelin/contracts/token/ERC20/extensions/ERC20Capped.sol\":923:1004  function cap() public view virtual returns (uint256) {... */\n    tag_14:\n      callvalue\n      dup1\n      iszero\n      tag_106\n      jumpi\n      0x00\n      dup1\n      revert\n    tag_106:\n      pop\n      tag_107\n      tag_108\n      jump\t// in\n    tag_107:\n      mload(0x40)\n      tag_109\n      swap2\n      swap1\n      tag_73\n      jump\t// in\n    tag_109:\n      mload(0x40)\n      dup1\n      swap2\n      sub\n      swap1\n      return\n        /* \"@openzeppelin/contracts/access/AccessControl.sol\":5328:5573  function renounceRole(bytes32 role, address callerConfirmation) public virtual {... */\n    tag_15:\n      callvalue\n      dup1\n      iszero\n      tag_110\n      jumpi\n      0x00\n      dup1\n      revert\n    tag_110:\n      pop\n      tag_111\n      0x04\n      dup1\n      calldatasize\n      sub\n      dup2\n      add\n      swap1\n      tag_112\n      swap2\n      swap1\n      tag_99\n      jump\t// in\n    tag_112:\n      tag_113\n      jump\t// in\n    tag_111:\n      stop\n        /* \"contracts/tokenContract.sol\":2239:2331  function getBeneficiary() public view returns (address) {... */\n    tag_16:\n      callvalue\n      dup1\n      iszero\n      tag_114\n      jumpi\n      0x00\n      dup1\n      revert\n    tag_114:\n      pop\n      tag_115\n      tag_116\n      jump\t// in\n    tag_115:\n      mload(0x40)\n      tag_117\n      swap2\n      swap1\n      tag_118\n      jump\t// in\n    tag_117:\n      mload(0x40)\n      dup1\n      swap2\n      sub\n      swap1\n      return\n        /* \"contracts/tokenContract.sol\":6725:6825  function kycUsersListLength() public view returns (uint256) {... */\n    tag_17:\n      callvalue\n      dup1\n      iszero\n      tag_119\n      jumpi\n      0x00\n      dup1\n      revert\n    tag_119:\n      pop\n      tag_120\n      tag_121\n      jump\t// in\n    tag_120:\n      mload(0x40)\n      tag_122\n      swap2\n      swap1\n      tag_73\n      jump\t// in\n    tag_122:\n      mload(0x40)\n      dup1\n      swap2\n      sub\n      swap1\n      return\n        /* \"@openzeppelin/contracts/token/ERC20/ERC20.sol\":2985:3101  function balanceOf(address account) public view virtual returns (uint256) {... */\n    tag_18:\n      callvalue\n      dup1\n      iszero\n      tag_123\n      jumpi\n      0x00\n      dup1\n      revert\n    tag_123:\n      pop\n      tag_124\n      0x04\n      dup1\n      calldatasize\n      sub\n      dup2\n      add\n      swap1\n      tag_125\n      swap2\n      swap1\n      tag_126\n      jump\t// in\n    tag_125:\n      tag_127\n      jump\t// in\n    tag_124:\n      mload(0x40)\n      tag_128\n      swap2\n      swap1\n      tag_73\n      jump\t// in\n    tag_128:\n      mload(0x40)\n      dup1\n      swap2\n      sub\n      swap1\n      return\n        /* \"contracts/tokenContract.sol\":2144:2229  function owner() public view returns (address payable) {... */\n    tag_19:\n      callvalue\n      dup1\n      iszero\n      tag_129\n      jumpi\n      0x00\n      dup1\n      revert\n    tag_129:\n      pop\n      tag_130\n      tag_131\n      jump\t// in\n    tag_130:\n      mload(0x40)\n      tag_132\n      swap2\n      swap1\n      tag_133\n      jump\t// in\n    tag_132:\n      mload(0x40)\n      dup1\n      swap2\n      sub\n      swap1\n      return\n        /* \"@openzeppelin/contracts/access/AccessControl.sol\":2854:2990  function hasRole(bytes32 role, address account) public view virtual returns (bool) {... */\n    tag_20:\n      callvalue\n      dup1\n      iszero\n      tag_134\n      jumpi\n      0x00\n      dup1\n      revert\n    tag_134:\n      pop\n      tag_135\n      0x04\n      dup1\n      calldatasize\n      sub\n      dup2\n      add\n      swap1\n      tag_136\n      swap2\n      swap1\n      tag_99\n      jump\t// in\n    tag_136:\n      tag_137\n      jump\t// in\n    tag_135:\n      mload(0x40)\n      tag_138\n      swap2\n      swap1\n      tag_53\n      jump\t// in\n    tag_138:\n      mload(0x40)\n      dup1\n      swap2\n      sub\n      swap1\n      return\n        /* \"@openzeppelin/contracts/token/ERC20/ERC20.sol\":1962:2055  function symbol() public view virtual returns (string memory) {... */\n    tag_21:\n      callvalue\n      dup1\n      iszero\n      tag_139\n      jumpi\n      0x00\n      dup1\n      revert\n    tag_139:\n      pop\n      tag_140\n      tag_141\n      jump\t// in\n    tag_140:\n      mload(0x40)\n      tag_142\n      swap2\n      swap1\n      tag_63\n      jump\t// in\n    tag_142:\n      mload(0x40)\n      dup1\n      swap2\n      sub\n      swap1\n      return\n        /* \"contracts/tokenContract.sol\":2695:2814  function addMinter(address newMinter) public onlyOwner nonReentrant {... */\n    tag_22:\n      callvalue\n      dup1\n      iszero\n      tag_143\n      jumpi\n      0x00\n      dup1\n      revert\n    tag_143:\n      pop\n      tag_144\n      0x04\n      dup1\n      calldatasize\n      sub\n      dup2\n      add\n      swap1\n      tag_145\n      swap2\n      swap1\n      tag_126\n      jump\t// in\n    tag_145:\n      tag_146\n      jump\t// in\n    tag_144:\n      stop\n        /* \"@openzeppelin/contracts/access/AccessControl.sol\":2187:2236  bytes32 public constant DEFAULT_ADMIN_ROLE = 0x00 */\n    tag_23:\n      callvalue\n      dup1\n      iszero\n      tag_147\n      jumpi\n      0x00\n      dup1\n      revert\n    tag_147:\n      pop\n      tag_148\n      tag_149\n      jump\t// in\n    tag_148:\n      mload(0x40)\n      tag_150\n      swap2\n      swap1\n      tag_86\n      jump\t// in\n    tag_150:\n      mload(0x40)\n      dup1\n      swap2\n      sub\n      swap1\n      return\n        /* \"contracts/tokenContract.sol\":3227:3504  function transfer(address recipient, uint256 amount) public override returns (bool) {... */\n    tag_24:\n      callvalue\n      dup1\n      iszero\n      tag_151\n      jumpi\n      0x00\n      dup1\n      revert\n    tag_151:\n      pop\n      tag_152\n      0x04\n      dup1\n      calldatasize\n      sub\n      dup2\n      add\n      swap1\n      tag_153\n      swap2\n      swap1\n      tag_57\n      jump\t// in\n    tag_153:\n      tag_154\n      jump\t// in\n    tag_152:\n      mload(0x40)\n      tag_155\n      swap2\n      swap1\n      tag_53\n      jump\t// in\n    tag_155:\n      mload(0x40)\n      dup1\n      swap2\n      sub\n      swap1\n      return\n        /* \"contracts/tokenContract.sol\":6967:7090  function updateOwnsToken(address stakeHolder) public onlyRole(MINTER_ROLE) {... */\n    tag_25:\n      callvalue\n      dup1\n      iszero\n      tag_156\n      jumpi\n      0x00\n      dup1\n      revert\n    tag_156:\n      pop\n      tag_157\n      0x04\n      dup1\n      calldatasize\n      sub\n      dup2\n      add\n      swap1\n      tag_158\n      swap2\n      swap1\n      tag_126\n      jump\t// in\n    tag_158:\n      tag_159\n      jump\t// in\n    tag_157:\n      stop\n        /* \"contracts/tokenContract.sol\":6499:6611  function isKYCed(address _stakeHolder) public view returns (bool) {... */\n    tag_26:\n      callvalue\n      dup1\n      iszero\n      tag_160\n      jumpi\n      0x00\n      dup1\n      revert\n    tag_160:\n      pop\n      tag_161\n      0x04\n      dup1\n      calldatasize\n      sub\n      dup2\n      add\n      swap1\n      tag_162\n      swap2\n      swap1\n      tag_126\n      jump\t// in\n    tag_162:\n      tag_163\n      jump\t// in\n    tag_161:\n      mload(0x40)\n      tag_164\n      swap2\n      swap1\n      tag_53\n      jump\t// in\n    tag_164:\n      mload(0x40)\n      dup1\n      swap2\n      sub\n      swap1\n      return\n        /* \"contracts/tokenContract.sol\":509:571  bytes32 public constant MINTER_ROLE = keccak256(\"MINTER_ROLE\") */\n    tag_27:\n      callvalue\n      dup1\n      iszero\n      tag_165\n      jumpi\n      0x00\n      dup1\n      revert\n    tag_165:\n      pop\n      tag_166\n      tag_167\n      jump\t// in\n    tag_166:\n      mload(0x40)\n      tag_168\n      swap2\n      swap1\n      tag_86\n      jump\t// in\n    tag_168:\n      mload(0x40)\n      dup1\n      swap2\n      sub\n      swap1\n      return\n        /* \"@openzeppelin/contracts/access/AccessControl.sol\":4642:4780  function revokeRole(bytes32 role, address account) public virtual onlyRole(getRoleAdmin(role)) {... */\n    tag_28:\n      callvalue\n      dup1\n      iszero\n      tag_169\n      jumpi\n      0x00\n      dup1\n      revert\n    tag_169:\n      pop\n      tag_170\n      0x04\n      dup1\n      calldatasize\n      sub\n      dup2\n      add\n      swap1\n      tag_171\n      swap2\n      swap1\n      tag_99\n      jump\t// in\n    tag_171:\n      tag_172\n      jump\t// in\n    tag_170:\n      stop\n        /* \"contracts/tokenContract.sol\":4976:5106  function updateDividendPeriodStatus(bool state) public onlyRole(MINTER_ROLE) nonReentrant {... */\n    tag_29:\n      callvalue\n      dup1\n      iszero\n      tag_173\n      jumpi\n      0x00\n      dup1\n      revert\n    tag_173:\n      pop\n      tag_174\n      0x04\n      dup1\n      calldatasize\n      sub\n      dup2\n      add\n      swap1\n      tag_175\n      swap2\n      swap1\n      tag_176\n      jump\t// in\n    tag_175:\n      tag_177\n      jump\t// in\n    tag_174:\n      stop\n        /* \"contracts/tokenContract.sol\":5116:5223  function getDividendPaymentPeriodState() public view returns (bool) {... */\n    tag_30:\n      callvalue\n      dup1\n      iszero\n      tag_178\n      jumpi\n      0x00\n      dup1\n      revert\n    tag_178:\n      pop\n      tag_179\n      tag_180\n      jump\t// in\n    tag_179:\n      mload(0x40)\n      tag_181\n      swap2\n      swap1\n      tag_53\n      jump\t// in\n    tag_181:\n      mload(0x40)\n      dup1\n      swap2\n      sub\n      swap1\n      return\n        /* \"contracts/tokenContract.sol\":6835:6957  function getOwnedTokens(address _stakeHolder) public view returns (bool) {... */\n    tag_31:\n      callvalue\n      dup1\n      iszero\n      tag_182\n      jumpi\n      0x00\n      dup1\n      revert\n    tag_182:\n      pop\n      tag_183\n      0x04\n      dup1\n      calldatasize\n      sub\n      dup2\n      add\n      swap1\n      tag_184\n      swap2\n      swap1\n      tag_126\n      jump\t// in\n    tag_184:\n      tag_185\n      jump\t// in\n    tag_183:\n      mload(0x40)\n      tag_186\n      swap2\n      swap1\n      tag_53\n      jump\t// in\n    tag_186:\n      mload(0x40)\n      dup1\n      swap2\n      sub\n      swap1\n      return\n        /* \"@openzeppelin/contracts/token/ERC20/ERC20.sol\":3532:3672  function allowance(address owner, address spender) public view virtual returns (uint256) {... */\n    tag_32:\n      callvalue\n      dup1\n      iszero\n      tag_187\n      jumpi\n      0x00\n      dup1\n      revert\n    tag_187:\n      pop\n      tag_188\n      0x04\n      dup1\n      calldatasize\n      sub\n      dup2\n      add\n      swap1\n      tag_189\n      swap2\n      swap1\n      tag_190\n      jump\t// in\n    tag_189:\n      tag_191\n      jump\t// in\n    tag_188:\n      mload(0x40)\n      tag_192\n      swap2\n      swap1\n      tag_73\n      jump\t// in\n    tag_192:\n      mload(0x40)\n      dup1\n      swap2\n      sub\n      swap1\n      return\n        /* \"contracts/tokenContract.sol\":5639:6489  function removeKYCUser(address user) public onlyRole(KYC_ROLE) nonReentrant {... */\n    tag_33:\n      callvalue\n      dup1\n      iszero\n      tag_193\n      jumpi\n      0x00\n      dup1\n      revert\n    tag_193:\n      pop\n      tag_194\n      0x04\n      dup1\n      calldatasize\n      sub\n      dup2\n      add\n      swap1\n      tag_195\n      swap2\n      swap1\n      tag_126\n      jump\t// in\n    tag_195:\n      tag_196\n      jump\t// in\n    tag_194:\n      stop\n        /* \"contracts/tokenContract.sol\":6621:6715  function getKYCList() public view returns (address[] memory) {... */\n    tag_34:\n      callvalue\n      dup1\n      iszero\n      tag_197\n      jumpi\n      0x00\n      dup1\n      revert\n    tag_197:\n      pop\n      tag_198\n      tag_199\n      jump\t// in\n    tag_198:\n      mload(0x40)\n      tag_200\n      swap2\n      swap1\n      tag_201\n      jump\t// in\n    tag_200:\n      mload(0x40)\n      dup1\n      swap2\n      sub\n      swap1\n      return\n        /* \"contracts/tokenContract.sol\":2509:2685  function transferOwnership(address newOwner) public onlyOwner {... */\n    tag_35:\n      callvalue\n      dup1\n      iszero\n      tag_202\n      jumpi\n      0x00\n      dup1\n      revert\n    tag_202:\n      pop\n      tag_203\n      0x04\n      dup1\n      calldatasize\n      sub\n      dup2\n      add\n      swap1\n      tag_204\n      swap2\n      swap1\n      tag_126\n      jump\t// in\n    tag_204:\n      tag_205\n      jump\t// in\n    tag_203:\n      stop\n        /* \"contracts/tokenContract.sol\":577:633  bytes32 public constant KYC_ROLE = keccak256(\"KYC_ROLE\") */\n    tag_36:\n      callvalue\n      dup1\n      iszero\n      tag_206\n      jumpi\n      0x00\n      dup1\n      revert\n    tag_206:\n      pop\n      tag_207\n      tag_208\n      jump\t// in\n    tag_207:\n      mload(0x40)\n      tag_209\n      swap2\n      swap1\n      tag_86\n      jump\t// in\n    tag_209:\n      mload(0x40)\n      dup1\n      swap2\n      sub\n      swap1\n      return\n        /* \"contracts/tokenContract.sol\":5233:5629  function addKYCUser(address user) public onlyRole(KYC_ROLE) nonReentrant {... */\n    tag_37:\n      callvalue\n      dup1\n      iszero\n      tag_210\n      jumpi\n      0x00\n      dup1\n      revert\n    tag_210:\n      pop\n      tag_211\n      0x04\n      dup1\n      calldatasize\n      sub\n      dup2\n      add\n      swap1\n      tag_212\n      swap2\n      swap1\n      tag_126\n      jump\t// in\n    tag_212:\n      tag_213\n      jump\t// in\n    tag_211:\n      stop\n        /* \"@openzeppelin/contracts/access/AccessControl.sol\":2565:2767  function supportsInterface(bytes4 interfaceId) public view virtual override returns (bool) {... */\n    tag_51:\n        /* \"@openzeppelin/contracts/access/AccessControl.sol\":2650:2654  bool */\n      0x00\n        /* \"@openzeppelin/contracts/access/AccessControl.sol\":2688:2720  type(IAccessControl).interfaceId */\n      0x7965db0b00000000000000000000000000000000000000000000000000000000\n        /* \"@openzeppelin/contracts/access/AccessControl.sol\":2673:2720  interfaceId == type(IAccessControl).interfaceId */\n      not(0xffffffffffffffffffffffffffffffffffffffffffffffffffffffff)\n      and\n        /* \"@openzeppelin/contracts/access/AccessControl.sol\":2673:2684  interfaceId */\n      dup3\n        /* \"@openzeppelin/contracts/access/AccessControl.sol\":2673:2720  interfaceId == type(IAccessControl).interfaceId */\n      not(0xffffffffffffffffffffffffffffffffffffffffffffffffffffffff)\n      and\n      eq\n        /* \"@openzeppelin/contracts/access/AccessControl.sol\":2673:2760  interfaceId == type(IAccessControl).interfaceId || super.supportsInterface(interfaceId) */\n      dup1\n      tag_215\n      jumpi\n      pop\n        /* \"@openzeppelin/contracts/access/AccessControl.sol\":2724:2760  super.supportsInterface(interfaceId) */\n      tag_216\n        /* \"@openzeppelin/contracts/access/AccessControl.sol\":2748:2759  interfaceId */\n      dup3\n        /* \"@openzeppelin/contracts/access/AccessControl.sol\":2724:2747  super.supportsInterface */\n      tag_217\n        /* \"@openzeppelin/contracts/access/AccessControl.sol\":2724:2760  super.supportsInterface(interfaceId) */\n      jump\t// in\n    tag_216:\n        /* \"@openzeppelin/contracts/access/AccessControl.sol\":2673:2760  interfaceId == type(IAccessControl).interfaceId || super.supportsInterface(interfaceId) */\n    tag_215:\n        /* \"@openzeppelin/contracts/access/AccessControl.sol\":2666:2760  return interfaceId == type(IAccessControl).interfaceId || super.supportsInterface(interfaceId) */\n      swap1\n      pop\n        /* \"@openzeppelin/contracts/access/AccessControl.sol\":2565:2767  function supportsInterface(bytes4 interfaceId) public view virtual override returns (bool) {... */\n      swap2\n      swap1\n      pop\n      jump\t// out\n        /* \"contracts/tokenContract.sol\":2824:3126  function sendTokens(address buyer, uint256 amount) public onlyRole(MINTER_ROLE) nonReentrant {... */\n    tag_58:\n        /* \"contracts/tokenContract.sol\":547:571  keccak256(\"MINTER_ROLE\") */\n      0x9f2df0fed2c77648de5860a4cc508cd0818c85b8b8a1ab4ceeef8d981c8956a6\n        /* \"@openzeppelin/contracts/access/AccessControl.sol\":2464:2480  _checkRole(role) */\n      tag_219\n        /* \"@openzeppelin/contracts/access/AccessControl.sol\":2475:2479  role */\n      dup2\n        /* \"@openzeppelin/contracts/access/AccessControl.sol\":2464:2474  _checkRole */\n      tag_220\n        /* \"@openzeppelin/contracts/access/AccessControl.sol\":2464:2480  _checkRole(role) */\n      jump\t// in\n    tag_219:\n        /* \"@openzeppelin/contracts/security/ReentrancyGuard.sol\":2261:2282  _nonReentrantBefore() */\n      tag_222\n        /* \"@openzeppelin/contracts/security/ReentrancyGuard.sol\":2261:2280  _nonReentrantBefore */\n      tag_223\n        /* \"@openzeppelin/contracts/security/ReentrancyGuard.sol\":2261:2282  _nonReentrantBefore() */\n      jump\t// in\n    tag_222:\n        /* \"contracts/tokenContract.sol\":2952:2953  0 */\n      0x00\n        /* \"contracts/tokenContract.sol\":2935:2954  buyer != address(0) */\n      0xffffffffffffffffffffffffffffffffffffffff\n      and\n        /* \"contracts/tokenContract.sol\":2935:2940  buyer */\n      dup4\n        /* \"contracts/tokenContract.sol\":2935:2954  buyer != address(0) */\n      0xffffffffffffffffffffffffffffffffffffffff\n      and\n      sub\n        /* \"contracts/tokenContract.sol\":2927:2982  require(buyer != address(0), \"buyer is a zero address\") */\n      tag_225\n      jumpi\n      mload(0x40)\n      0x08c379a000000000000000000000000000000000000000000000000000000000\n      dup2\n      mstore\n      0x04\n      add\n      tag_226\n      swap1\n      tag_227\n      jump\t// in\n    tag_226:\n      mload(0x40)\n      dup1\n      swap2\n      sub\n      swap1\n      revert\n    tag_225:\n        /* \"contracts/tokenContract.sol\":3009:3010  0 */\n      0x00\n        /* \"contracts/tokenContract.sol\":3000:3006  amount */\n      dup3\n        /* \"contracts/tokenContract.sol\":3000:3010  amount > 0 */\n      gt\n        /* \"contracts/tokenContract.sol\":2992:3029  require(amount > 0, \"weiAmount is 0\") */\n      tag_228\n      jumpi\n      mload(0x40)\n      0x08c379a000000000000000000000000000000000000000000000000000000000\n      dup2\n      mstore\n      0x04\n      add\n      tag_229\n      swap1\n      tag_230\n      jump\t// in\n    tag_229:\n      mload(0x40)\n      dup1\n      swap2\n      sub\n      swap1\n      revert\n    tag_228:\n        /* \"contracts/tokenContract.sol\":3048:3067  uint256 tokenAmount */\n      0x00\n        /* \"contracts/tokenContract.sol\":3079:3084  _rate */\n      sload(0x08)\n        /* \"contracts/tokenContract.sol\":3070:3076  amount */\n      dup4\n        /* \"contracts/tokenContract.sol\":3070:3084  amount * _rate */\n      tag_231\n      swap2\n      swap1\n      tag_232\n      jump\t// in\n    tag_231:\n        /* \"contracts/tokenContract.sol\":3048:3084  uint256 tokenAmount = amount * _rate */\n      swap1\n      pop\n        /* \"contracts/tokenContract.sol\":3094:3119  _mint(buyer, tokenAmount) */\n      tag_233\n        /* \"contracts/tokenContract.sol\":3100:3105  buyer */\n      dup5\n        /* \"contracts/tokenContract.sol\":3107:3118  tokenAmount */\n      dup3\n        /* \"contracts/tokenContract.sol\":3094:3099  _mint */\n      tag_234\n        /* \"contracts/tokenContract.sol\":3094:3119  _mint(buyer, tokenAmount) */\n      jump\t// in\n    tag_233:\n        /* \"contracts/tokenContract.sol\":2917:3126  {... */\n      pop\n        /* \"@openzeppelin/contracts/security/ReentrancyGuard.sol\":2303:2323  _nonReentrantAfter() */\n      tag_235\n        /* \"@openzeppelin/contracts/security/ReentrancyGuard.sol\":2303:2321  _nonReentrantAfter */\n      tag_236\n        /* \"@openzeppelin/contracts/security/ReentrancyGuard.sol\":2303:2323  _nonReentrantAfter() */\n      jump\t// in\n    tag_235:\n        /* \"contracts/tokenContract.sol\":2824:3126  function sendTokens(address buyer, uint256 amount) public onlyRole(MINTER_ROLE) nonReentrant {... */\n      pop\n      pop\n      pop\n      jump\t// out\n        /* \"@openzeppelin/contracts/token/ERC20/ERC20.sol\":1760:1849  function name() public view virtual returns (string memory) {... */\n    tag_61:\n        /* \"@openzeppelin/contracts/token/ERC20/ERC20.sol\":1805:1818  string memory */\n      0x60\n        /* \"@openzeppelin/contracts/token/ERC20/ERC20.sol\":1837:1842  _name */\n      0x03\n        /* \"@openzeppelin/contracts/token/ERC20/ERC20.sol\":1830:1842  return _name */\n      dup1\n      sload\n      tag_238\n      swap1\n      tag_239\n      jump\t// in\n    tag_238:\n      dup1\n      0x1f\n      add\n      0x20\n      dup1\n      swap2\n      div\n      mul\n      0x20\n      add\n      mload(0x40)\n      swap1\n      dup2\n      add\n      0x40\n      mstore\n      dup1\n      swap3\n      swap2\n      swap1\n      dup2\n      dup2\n      mstore\n      0x20\n      add\n      dup3\n      dup1\n      sload\n      tag_240\n      swap1\n      tag_239\n      jump\t// in\n    tag_240:\n      dup1\n      iszero\n      tag_241\n      jumpi\n      dup1\n      0x1f\n      lt\n      tag_242\n      jumpi\n      0x0100\n      dup1\n      dup4\n      sload\n      div\n      mul\n      dup4\n      mstore\n      swap2\n      0x20\n      add\n      swap2\n      jump(tag_241)\n    tag_242:\n      dup3\n      add\n      swap2\n      swap1\n      0x00\n      mstore\n      keccak256(0x00, 0x20)\n      swap1\n    tag_243:\n      dup2\n      sload\n      dup2\n      mstore\n      swap1\n      0x01\n      add\n      swap1\n      0x20\n      add\n      dup1\n      dup4\n      gt\n      tag_243\n      jumpi\n      dup3\n      swap1\n      sub\n      0x1f\n      and\n      dup3\n      add\n      swap2\n    tag_241:\n      pop\n      pop\n      pop\n      pop\n      pop\n      swap1\n      pop\n        /* \"@openzeppelin/contracts/token/ERC20/ERC20.sol\":1760:1849  function name() public view virtual returns (string memory) {... */\n      swap1\n      jump\t// out\n        /* \"@openzeppelin/contracts/token/ERC20/ERC20.sol\":3979:4165  function approve(address spender, uint256 value) public virtual returns (bool) {... */\n    tag_67:\n        /* \"@openzeppelin/contracts/token/ERC20/ERC20.sol\":4052:4056  bool */\n      0x00\n        /* \"@openzeppelin/contracts/token/ERC20/ERC20.sol\":4068:4081  address owner */\n      dup1\n        /* \"@openzeppelin/contracts/token/ERC20/ERC20.sol\":4084:4096  _msgSender() */\n      tag_245\n        /* \"@openzeppelin/contracts/token/ERC20/ERC20.sol\":4084:4094  _msgSender */\n      tag_246\n        /* \"@openzeppelin/contracts/token/ERC20/ERC20.sol\":4084:4096  _msgSender() */\n      jump\t// in\n    tag_245:\n        /* \"@openzeppelin/contracts/token/ERC20/ERC20.sol\":4068:4096  address owner = _msgSender() */\n      swap1\n      pop\n        /* \"@openzeppelin/contracts/token/ERC20/ERC20.sol\":4106:4137  _approve(owner, spender, value) */\n      tag_247\n        /* \"@openzeppelin/contracts/token/ERC20/ERC20.sol\":4115:4120  owner */\n      dup2\n        /* \"@openzeppelin/contracts/token/ERC20/ERC20.sol\":4122:4129  spender */\n      dup6\n        /* \"@openzeppelin/contracts/token/ERC20/ERC20.sol\":4131:4136  value */\n      dup6\n        /* \"@openzeppelin/contracts/token/ERC20/ERC20.sol\":4106:4114  _approve */\n      tag_248\n        /* \"@openzeppelin/contracts/token/ERC20/ERC20.sol\":4106:4137  _approve(owner, spender, value) */\n      jump\t// in\n    tag_247:\n        /* \"@openzeppelin/contracts/token/ERC20/ERC20.sol\":4154:4158  true */\n      0x01\n        /* \"@openzeppelin/contracts/token/ERC20/ERC20.sol\":4147:4158  return true */\n      swap2\n      pop\n      pop\n        /* \"@openzeppelin/contracts/token/ERC20/ERC20.sol\":3979:4165  function approve(address spender, uint256 value) public virtual returns (bool) {... */\n      swap3\n      swap2\n      pop\n      pop\n      jump\t// out\n        /* \"@openzeppelin/contracts/token/ERC20/ERC20.sol\":2830:2927  function totalSupply() public view virtual returns (uint256) {... */\n    tag_71:\n        /* \"@openzeppelin/contracts/token/ERC20/ERC20.sol\":2882:2889  uint256 */\n      0x00\n        /* \"@openzeppelin/contracts/token/ERC20/ERC20.sol\":2908:2920  _totalSupply */\n      sload(0x02)\n        /* \"@openzeppelin/contracts/token/ERC20/ERC20.sol\":2901:2920  return _totalSupply */\n      swap1\n      pop\n        /* \"@openzeppelin/contracts/token/ERC20/ERC20.sol\":2830:2927  function totalSupply() public view virtual returns (uint256) {... */\n      swap1\n      jump\t// out\n        /* \"contracts/tokenContract.sol\":3609:3910  function transferFrom(address sender, address recipient, uint256 amount) public override returns (bool) {... */\n    tag_78:\n        /* \"contracts/tokenContract.sol\":3707:3711  bool */\n      0x00\n        /* \"contracts/tokenContract.sol\":3723:3759  _validateTransfer(sender, recipient) */\n      tag_251\n        /* \"contracts/tokenContract.sol\":3741:3747  sender */\n      dup5\n        /* \"contracts/tokenContract.sol\":3749:3758  recipient */\n      dup5\n        /* \"contracts/tokenContract.sol\":3723:3740  _validateTransfer */\n      tag_252\n        /* \"contracts/tokenContract.sol\":3723:3759  _validateTransfer(sender, recipient) */\n      jump\t// in\n    tag_251:\n        /* \"contracts/tokenContract.sol\":3769:3781  bool success */\n      0x00\n        /* \"contracts/tokenContract.sol\":3784:3829  super.transferFrom(sender, recipient, amount) */\n      tag_253\n        /* \"contracts/tokenContract.sol\":3803:3809  sender */\n      dup6\n        /* \"contracts/tokenContract.sol\":3811:3820  recipient */\n      dup6\n        /* \"contracts/tokenContract.sol\":3822:3828  amount */\n      dup6\n        /* \"contracts/tokenContract.sol\":3784:3802  super.transferFrom */\n      tag_254\n        /* \"contracts/tokenContract.sol\":3784:3829  super.transferFrom(sender, recipient, amount) */\n      jump\t// in\n    tag_253:\n        /* \"contracts/tokenContract.sol\":3769:3829  bool success = super.transferFrom(sender, recipient, amount) */\n      swap1\n      pop\n        /* \"contracts/tokenContract.sol\":3839:3879  _updateTokenOwnership(sender, recipient) */\n      tag_255\n        /* \"contracts/tokenContract.sol\":3861:3867  sender */\n      dup6\n        /* \"contracts/tokenContract.sol\":3869:3878  recipient */\n      dup6\n        /* \"contracts/tokenContract.sol\":3839:3860  _updateTokenOwnership */\n      tag_256\n        /* \"contracts/tokenContract.sol\":3839:3879  _updateTokenOwnership(sender, recipient) */\n      jump\t// in\n    tag_255:\n        /* \"contracts/tokenContract.sol\":3896:3903  success */\n      dup1\n        /* \"contracts/tokenContract.sol\":3889:3903  return success */\n      swap2\n      pop\n      pop\n        /* \"contracts/tokenContract.sol\":3609:3910  function transferFrom(address sender, address recipient, uint256 amount) public override returns (bool) {... */\n      swap4\n      swap3\n      pop\n      pop\n      pop\n      jump\t// out\n        /* \"@openzeppelin/contracts/access/AccessControl.sol\":3810:3930  function getRoleAdmin(bytes32 role) public view virtual returns (bytes32) {... */\n    tag_84:\n        /* \"@openzeppelin/contracts/access/AccessControl.sol\":3875:3882  bytes32 */\n      0x00\n        /* \"@openzeppelin/contracts/access/AccessControl.sol\":3901:3907  _roles */\n      0x05\n        /* \"@openzeppelin/contracts/access/AccessControl.sol\":3901:3913  _roles[role] */\n      0x00\n        /* \"@openzeppelin/contracts/access/AccessControl.sol\":3908:3912  role */\n      dup4\n        /* \"@openzeppelin/contracts/access/AccessControl.sol\":3901:3913  _roles[role] */\n      dup2\n      mstore\n      0x20\n      add\n      swap1\n      dup2\n      mstore\n      0x20\n      add\n      0x00\n      keccak256\n        /* \"@openzeppelin/contracts/access/AccessControl.sol\":3901:3923  _roles[role].adminRole */\n      0x01\n      add\n      sload\n        /* \"@openzeppelin/contracts/access/AccessControl.sol\":3894:3923  return _roles[role].adminRole */\n      swap1\n      pop\n        /* \"@openzeppelin/contracts/access/AccessControl.sol\":3810:3930  function getRoleAdmin(bytes32 role) public view virtual returns (bytes32) {... */\n      swap2\n      swap1\n      pop\n      jump\t// out\n        /* \"contracts/tokenContract.sol\":4589:4966  function burnMyBalance(address _tokenOwner, uint256 _amount) public onlyRole(MINTER_ROLE) returns (bool) {... */\n    tag_90:\n        /* \"contracts/tokenContract.sol\":4688:4692  bool */\n      0x00\n        /* \"contracts/tokenContract.sol\":547:571  keccak256(\"MINTER_ROLE\") */\n      0x9f2df0fed2c77648de5860a4cc508cd0818c85b8b8a1ab4ceeef8d981c8956a6\n        /* \"@openzeppelin/contracts/access/AccessControl.sol\":2464:2480  _checkRole(role) */\n      tag_259\n        /* \"@openzeppelin/contracts/access/AccessControl.sol\":2475:2479  role */\n      dup2\n        /* \"@openzeppelin/contracts/access/AccessControl.sol\":2464:2474  _checkRole */\n      tag_220\n        /* \"@openzeppelin/contracts/access/AccessControl.sol\":2464:2480  _checkRole(role) */\n      jump\t// in\n    tag_259:\n        /* \"contracts/tokenContract.sol\":4735:4736  0 */\n      0x00\n        /* \"contracts/tokenContract.sol\":4712:4737  _tokenOwner != address(0) */\n      0xffffffffffffffffffffffffffffffffffffffff\n      and\n        /* \"contracts/tokenContract.sol\":4712:4723  _tokenOwner */\n      dup5\n        /* \"contracts/tokenContract.sol\":4712:4737  _tokenOwner != address(0) */\n      0xffffffffffffffffffffffffffffffffffffffff\n      and\n      sub\n        /* \"contracts/tokenContract.sol\":4704:4775  require(_tokenOwner != address(0), \"ERC20: burn from the zero address\") */\n      tag_261\n      jumpi\n      mload(0x40)\n      0x08c379a000000000000000000000000000000000000000000000000000000000\n      dup2\n      mstore\n      0x04\n      add\n      tag_262\n      swap1\n      tag_263\n      jump\t// in\n    tag_262:\n      mload(0x40)\n      dup1\n      swap2\n      sub\n      swap1\n      revert\n    tag_261:\n        /* \"contracts/tokenContract.sol\":4794:4821  _burn(_tokenOwner, _amount) */\n      tag_264\n        /* \"contracts/tokenContract.sol\":4800:4811  _tokenOwner */\n      dup5\n        /* \"contracts/tokenContract.sol\":4813:4820  _amount */\n      dup5\n        /* \"contracts/tokenContract.sol\":4794:4799  _burn */\n      tag_265\n        /* \"contracts/tokenContract.sol\":4794:4821  _burn(_tokenOwner, _amount) */\n      jump\t// in\n    tag_264:\n        /* \"contracts/tokenContract.sol\":4870:4871  0 */\n      0x00\n        /* \"contracts/tokenContract.sol\":4844:4866  balanceOf(_tokenOwner) */\n      tag_266\n        /* \"contracts/tokenContract.sol\":4854:4865  _tokenOwner */\n      dup6\n        /* \"contracts/tokenContract.sol\":4844:4853  balanceOf */\n      tag_127\n        /* \"contracts/tokenContract.sol\":4844:4866  balanceOf(_tokenOwner) */\n      jump\t// in\n    tag_266:\n        /* \"contracts/tokenContract.sol\":4844:4871  balanceOf(_tokenOwner) == 0 */\n      sub\n        /* \"contracts/tokenContract.sol\":4840:4930  if (balanceOf(_tokenOwner) == 0) {... */\n      tag_267\n      jumpi\n        /* \"contracts/tokenContract.sol\":4914:4919  false */\n      0x00\n        /* \"contracts/tokenContract.sol\":4887:4898  _ownsTokens */\n      0x0e\n        /* \"contracts/tokenContract.sol\":4887:4911  _ownsTokens[_tokenOwner] */\n      0x00\n        /* \"contracts/tokenContract.sol\":4899:4910  _tokenOwner */\n      dup7\n        /* \"contracts/tokenContract.sol\":4887:4911  _ownsTokens[_tokenOwner] */\n      0xffffffffffffffffffffffffffffffffffffffff\n      and\n      0xffffffffffffffffffffffffffffffffffffffff\n      and\n      dup2\n      mstore\n      0x20\n      add\n      swap1\n      dup2\n      mstore\n      0x20\n      add\n      0x00\n      keccak256\n      0x00\n        /* \"contracts/tokenContract.sol\":4887:4919  _ownsTokens[_tokenOwner] = false */\n      0x0100\n      exp\n      dup2\n      sload\n      dup2\n      0xff\n      mul\n      not\n      and\n      swap1\n      dup4\n      iszero\n      iszero\n      mul\n      or\n      swap1\n      sstore\n      pop\n        /* \"contracts/tokenContract.sol\":4840:4930  if (balanceOf(_tokenOwner) == 0) {... */\n    tag_267:\n        /* \"contracts/tokenContract.sol\":4955:4959  true */\n      0x01\n        /* \"contracts/tokenContract.sol\":4948:4959  return true */\n      swap2\n      pop\n        /* \"contracts/tokenContract.sol\":4589:4966  function burnMyBalance(address _tokenOwner, uint256 _amount) public onlyRole(MINTER_ROLE) returns (bool) {... */\n      pop\n      swap3\n      swap2\n      pop\n      pop\n      jump\t// out\n        /* \"contracts/tokenContract.sol\":2059:2134  function rate() public view returns (uint256) {... */\n    tag_94:\n        /* \"contracts/tokenContract.sol\":2096:2103  uint256 */\n      0x00\n        /* \"contracts/tokenContract.sol\":2122:2127  _rate */\n      sload(0x08)\n        /* \"contracts/tokenContract.sol\":2115:2127  return _rate */\n      swap1\n      pop\n        /* \"contracts/tokenContract.sol\":2059:2134  function rate() public view returns (uint256) {... */\n      swap1\n      jump\t// out\n        /* \"@openzeppelin/contracts/access/AccessControl.sol\":4226:4362  function grantRole(bytes32 role, address account) public virtual onlyRole(getRoleAdmin(role)) {... */\n    tag_100:\n        /* \"@openzeppelin/contracts/access/AccessControl.sol\":4300:4318  getRoleAdmin(role) */\n      tag_269\n        /* \"@openzeppelin/contracts/access/AccessControl.sol\":4313:4317  role */\n      dup3\n        /* \"@openzeppelin/contracts/access/AccessControl.sol\":4300:4312  getRoleAdmin */\n      tag_84\n        /* \"@openzeppelin/contracts/access/AccessControl.sol\":4300:4318  getRoleAdmin(role) */\n      jump\t// in\n    tag_269:\n        /* \"@openzeppelin/contracts/access/AccessControl.sol\":2464:2480  _checkRole(role) */\n      tag_271\n        /* \"@openzeppelin/contracts/access/AccessControl.sol\":2475:2479  role */\n      dup2\n        /* \"@openzeppelin/contracts/access/AccessControl.sol\":2464:2474  _checkRole */\n      tag_220\n        /* \"@openzeppelin/contracts/access/AccessControl.sol\":2464:2480  _checkRole(role) */\n      jump\t// in\n    tag_271:\n        /* \"@openzeppelin/contracts/access/AccessControl.sol\":4330:4355  _grantRole(role, account) */\n      tag_273\n        /* \"@openzeppelin/contracts/access/AccessControl.sol\":4341:4345  role */\n      dup4\n        /* \"@openzeppelin/contracts/access/AccessControl.sol\":4347:4354  account */\n      dup4\n        /* \"@openzeppelin/contracts/access/AccessControl.sol\":4330:4340  _grantRole */\n      tag_274\n        /* \"@openzeppelin/contracts/access/AccessControl.sol\":4330:4355  _grantRole(role, account) */\n      jump\t// in\n    tag_273:\n      pop\n        /* \"@openzeppelin/contracts/access/AccessControl.sol\":4226:4362  function grantRole(bytes32 role, address account) public virtual onlyRole(getRoleAdmin(role)) {... */\n      pop\n      pop\n      pop\n      jump\t// out\n        /* \"contracts/tokenContract.sol\":1951:2049  function decimals() public view virtual override returns (uint8) {... */\n    tag_103:\n        /* \"contracts/tokenContract.sol\":2009:2014  uint8 */\n      0x00\n        /* \"contracts/tokenContract.sol\":2033:2042  _decimals */\n      0x07\n      0x00\n      swap1\n      sload\n      swap1\n      0x0100\n      exp\n      swap1\n      div\n      0xff\n      and\n        /* \"contracts/tokenContract.sol\":2026:2042  return _decimals */\n      swap1\n      pop\n        /* \"contracts/tokenContract.sol\":1951:2049  function decimals() public view virtual override returns (uint8) {... */\n      swap1\n      jump\t// out\n        /* \"@openzeppelin/contracts/token/ERC20/extensions/ERC20Capped.sol\":923:1004  function cap() public view virtual returns (uint256) {... */\n    tag_108:\n        /* \"@openzeppelin/contracts/token/ERC20/extensions/ERC20Capped.sol\":967:974  uint256 */\n      0x00\n        /* \"@openzeppelin/contracts/token/ERC20/extensions/ERC20Capped.sol\":993:997  _cap */\n      immutable(\"0xef0ada6a95823a4880a6367b472055002c2c186b47e43e76ee0a3262e7bbe618\")\n        /* \"@openzeppelin/contracts/token/ERC20/extensions/ERC20Capped.sol\":986:997  return _cap */\n      swap1\n      pop\n        /* \"@openzeppelin/contracts/token/ERC20/extensions/ERC20Capped.sol\":923:1004  function cap() public view virtual returns (uint256) {... */\n      swap1\n      jump\t// out\n        /* \"@openzeppelin/contracts/access/AccessControl.sol\":5328:5573  function renounceRole(bytes32 role, address callerConfirmation) public virtual {... */\n    tag_113:\n        /* \"@openzeppelin/contracts/access/AccessControl.sol\":5443:5455  _msgSender() */\n      tag_278\n        /* \"@openzeppelin/contracts/access/AccessControl.sol\":5443:5453  _msgSender */\n      tag_246\n        /* \"@openzeppelin/contracts/access/AccessControl.sol\":5443:5455  _msgSender() */\n      jump\t// in\n    tag_278:\n        /* \"@openzeppelin/contracts/access/AccessControl.sol\":5421:5455  callerConfirmation != _msgSender() */\n      0xffffffffffffffffffffffffffffffffffffffff\n      and\n        /* \"@openzeppelin/contracts/access/AccessControl.sol\":5421:5439  callerConfirmation */\n      dup2\n        /* \"@openzeppelin/contracts/access/AccessControl.sol\":5421:5455  callerConfirmation != _msgSender() */\n      0xffffffffffffffffffffffffffffffffffffffff\n      and\n      eq\n        /* \"@openzeppelin/contracts/access/AccessControl.sol\":5417:5519  if (callerConfirmation != _msgSender()) {... */\n      tag_279\n      jumpi\n        /* \"@openzeppelin/contracts/access/AccessControl.sol\":5478:5508  AccessControlBadConfirmation() */\n      mload(0x40)\n      0x6697b23200000000000000000000000000000000000000000000000000000000\n      dup2\n      mstore\n      0x04\n      add\n      mload(0x40)\n      dup1\n      swap2\n      sub\n      swap1\n      revert\n        /* \"@openzeppelin/contracts/access/AccessControl.sol\":5417:5519  if (callerConfirmation != _msgSender()) {... */\n    tag_279:\n        /* \"@openzeppelin/contracts/access/AccessControl.sol\":5529:5566  _revokeRole(role, callerConfirmation) */\n      tag_280\n        /* \"@openzeppelin/contracts/access/AccessControl.sol\":5541:5545  role */\n      dup3\n        /* \"@openzeppelin/contracts/access/AccessControl.sol\":5547:5565  callerConfirmation */\n      dup3\n        /* \"@openzeppelin/contracts/access/AccessControl.sol\":5529:5540  _revokeRole */\n      tag_281\n        /* \"@openzeppelin/contracts/access/AccessControl.sol\":5529:5566  _revokeRole(role, callerConfirmation) */\n      jump\t// in\n    tag_280:\n      pop\n        /* \"@openzeppelin/contracts/access/AccessControl.sol\":5328:5573  function renounceRole(bytes32 role, address callerConfirmation) public virtual {... */\n      pop\n      pop\n      jump\t// out\n        /* \"contracts/tokenContract.sol\":2239:2331  function getBeneficiary() public view returns (address) {... */\n    tag_116:\n        /* \"contracts/tokenContract.sol\":2286:2293  address */\n      0x00\n        /* \"contracts/tokenContract.sol\":2312:2324  _beneficiary */\n      0x0a\n      0x00\n      swap1\n      sload\n      swap1\n      0x0100\n      exp\n      swap1\n      div\n      0xffffffffffffffffffffffffffffffffffffffff\n      and\n        /* \"contracts/tokenContract.sol\":2305:2324  return _beneficiary */\n      swap1\n      pop\n        /* \"contracts/tokenContract.sol\":2239:2331  function getBeneficiary() public view returns (address) {... */\n      swap1\n      jump\t// out\n        /* \"contracts/tokenContract.sol\":6725:6825  function kycUsersListLength() public view returns (uint256) {... */\n    tag_121:\n        /* \"contracts/tokenContract.sol\":6776:6783  uint256 */\n      0x00\n        /* \"contracts/tokenContract.sol\":6802:6811  _kycUsers */\n      0x0b\n        /* \"contracts/tokenContract.sol\":6802:6818  _kycUsers.length */\n      dup1\n      sload\n      swap1\n      pop\n        /* \"contracts/tokenContract.sol\":6795:6818  return _kycUsers.length */\n      swap1\n      pop\n        /* \"contracts/tokenContract.sol\":6725:6825  function kycUsersListLength() public view returns (uint256) {... */\n      swap1\n      jump\t// out\n        /* \"@openzeppelin/contracts/token/ERC20/ERC20.sol\":2985:3101  function balanceOf(address account) public view virtual returns (uint256) {... */\n    tag_127:\n        /* \"@openzeppelin/contracts/token/ERC20/ERC20.sol\":3050:3057  uint256 */\n      0x00\n        /* \"@openzeppelin/contracts/token/ERC20/ERC20.sol\":3076:3085  _balances */\n      dup1\n        /* \"@openzeppelin/contracts/token/ERC20/ERC20.sol\":3076:3094  _balances[account] */\n      0x00\n        /* \"@openzeppelin/contracts/token/ERC20/ERC20.sol\":3086:3093  account */\n      dup4\n        /* \"@openzeppelin/contracts/token/ERC20/ERC20.sol\":3076:3094  _balances[account] */\n      0xffffffffffffffffffffffffffffffffffffffff\n      and\n      0xffffffffffffffffffffffffffffffffffffffff\n      and\n      dup2\n      mstore\n      0x20\n      add\n      swap1\n      dup2\n      mstore\n      0x20\n      add\n      0x00\n      keccak256\n      sload\n        /* \"@openzeppelin/contracts/token/ERC20/ERC20.sol\":3069:3094  return _balances[account] */\n      swap1\n      pop\n        /* \"@openzeppelin/contracts/token/ERC20/ERC20.sol\":2985:3101  function balanceOf(address account) public view virtual returns (uint256) {... */\n      swap2\n      swap1\n      pop\n      jump\t// out\n        /* \"contracts/tokenContract.sol\":2144:2229  function owner() public view returns (address payable) {... */\n    tag_131:\n        /* \"contracts/tokenContract.sol\":2182:2197  address payable */\n      0x00\n        /* \"contracts/tokenContract.sol\":2216:2222  _owner */\n      0x09\n      0x00\n      swap1\n      sload\n      swap1\n      0x0100\n      exp\n      swap1\n      div\n      0xffffffffffffffffffffffffffffffffffffffff\n      and\n        /* \"contracts/tokenContract.sol\":2209:2222  return _owner */\n      swap1\n      pop\n        /* \"contracts/tokenContract.sol\":2144:2229  function owner() public view returns (address payable) {... */\n      swap1\n      jump\t// out\n        /* \"@openzeppelin/contracts/access/AccessControl.sol\":2854:2990  function hasRole(bytes32 role, address account) public view virtual returns (bool) {... */\n    tag_137:\n        /* \"@openzeppelin/contracts/access/AccessControl.sol\":2931:2935  bool */\n      0x00\n        /* \"@openzeppelin/contracts/access/AccessControl.sol\":2954:2960  _roles */\n      0x05\n        /* \"@openzeppelin/contracts/access/AccessControl.sol\":2954:2966  _roles[role] */\n      0x00\n        /* \"@openzeppelin/contracts/access/AccessControl.sol\":2961:2965  role */\n      dup5\n        /* \"@openzeppelin/contracts/access/AccessControl.sol\":2954:2966  _roles[role] */\n      dup2\n      mstore\n      0x20\n      add\n      swap1\n      dup2\n      mstore\n      0x20\n      add\n      0x00\n      keccak256\n        /* \"@openzeppelin/contracts/access/AccessControl.sol\":2954:2974  _roles[role].hasRole */\n      0x00\n      add\n        /* \"@openzeppelin/contracts/access/AccessControl.sol\":2954:2983  _roles[role].hasRole[account] */\n      0x00\n        /* \"@openzeppelin/contracts/access/AccessControl.sol\":2975:2982  account */\n      dup4\n        /* \"@openzeppelin/contracts/access/AccessControl.sol\":2954:2983  _roles[role].hasRole[account] */\n      0xffffffffffffffffffffffffffffffffffffffff\n      and\n      0xffffffffffffffffffffffffffffffffffffffff\n      and\n      dup2\n      mstore\n      0x20\n      add\n      swap1\n      dup2\n      mstore\n      0x20\n      add\n      0x00\n      keccak256\n      0x00\n      swap1\n      sload\n      swap1\n      0x0100\n      exp\n      swap1\n      div\n      0xff\n      and\n        /* \"@openzeppelin/contracts/access/AccessControl.sol\":2947:2983  return _roles[role].hasRole[account] */\n      swap1\n      pop\n        /* \"@openzeppelin/contracts/access/AccessControl.sol\":2854:2990  function hasRole(bytes32 role, address account) public view virtual returns (bool) {... */\n      swap3\n      swap2\n      pop\n      pop\n      jump\t// out\n        /* \"@openzeppelin/contracts/token/ERC20/ERC20.sol\":1962:2055  function symbol() public view virtual returns (string memory) {... */\n    tag_141:\n        /* \"@openzeppelin/contracts/token/ERC20/ERC20.sol\":2009:2022  string memory */\n      0x60\n        /* \"@openzeppelin/contracts/token/ERC20/ERC20.sol\":2041:2048  _symbol */\n      0x04\n        /* \"@openzeppelin/contracts/token/ERC20/ERC20.sol\":2034:2048  return _symbol */\n      dup1\n      sload\n      tag_288\n      swap1\n      tag_239\n      jump\t// in\n    tag_288:\n      dup1\n      0x1f\n      add\n      0x20\n      dup1\n      swap2\n      div\n      mul\n      0x20\n      add\n      mload(0x40)\n      swap1\n      dup2\n      add\n      0x40\n      mstore\n      dup1\n      swap3\n      swap2\n      swap1\n      dup2\n      dup2\n      mstore\n      0x20\n      add\n      dup3\n      dup1\n      sload\n      tag_289\n      swap1\n      tag_239\n      jump\t// in\n    tag_289:\n      dup1\n      iszero\n      tag_290\n      jumpi\n      dup1\n      0x1f\n      lt\n      tag_291\n      jumpi\n      0x0100\n      dup1\n      dup4\n      sload\n      div\n      mul\n      dup4\n      mstore\n      swap2\n      0x20\n      add\n      swap2\n      jump(tag_290)\n    tag_291:\n      dup3\n      add\n      swap2\n      swap1\n      0x00\n      mstore\n      keccak256(0x00, 0x20)\n      swap1\n    tag_292:\n      dup2\n      sload\n      dup2\n      mstore\n      swap1\n      0x01\n      add\n      swap1\n      0x20\n      add\n      dup1\n      dup4\n      gt\n      tag_292\n      jumpi\n      dup3\n      swap1\n      sub\n      0x1f\n      and\n      dup3\n      add\n      swap2\n    tag_290:\n      pop\n      pop\n      pop\n      pop\n      pop\n      swap1\n      pop\n        /* \"@openzeppelin/contracts/token/ERC20/ERC20.sol\":1962:2055  function symbol() public view virtual returns (string memory) {... */\n      swap1\n      jump\t// out\n        /* \"contracts/tokenContract.sol\":2695:2814  function addMinter(address newMinter) public onlyOwner nonReentrant {... */\n    tag_146:\n        /* \"contracts/tokenContract.sol\":2433:2439  _owner */\n      0x09\n      0x00\n      swap1\n      sload\n      swap1\n      0x0100\n      exp\n      swap1\n      div\n      0xffffffffffffffffffffffffffffffffffffffff\n      and\n        /* \"contracts/tokenContract.sol\":2419:2439  msg.sender == _owner */\n      0xffffffffffffffffffffffffffffffffffffffff\n      and\n        /* \"contracts/tokenContract.sol\":2419:2429  msg.sender */\n      caller\n        /* \"contracts/tokenContract.sol\":2419:2439  msg.sender == _owner */\n      0xffffffffffffffffffffffffffffffffffffffff\n      and\n      eq\n        /* \"contracts/tokenContract.sol\":2411:2481  require(msg.sender == _owner, \"Only the Owner can call this function\") */\n      tag_294\n      jumpi\n      mload(0x40)\n      0x08c379a000000000000000000000000000000000000000000000000000000000\n      dup2\n      mstore\n      0x04\n      add\n      tag_295\n      swap1\n      tag_296\n      jump\t// in\n    tag_295:\n      mload(0x40)\n      dup1\n      swap2\n      sub\n      swap1\n      revert\n    tag_294:\n        /* \"@openzeppelin/contracts/security/ReentrancyGuard.sol\":2261:2282  _nonReentrantBefore() */\n      tag_298\n        /* \"@openzeppelin/contracts/security/ReentrancyGuard.sol\":2261:2280  _nonReentrantBefore */\n      tag_223\n        /* \"@openzeppelin/contracts/security/ReentrancyGuard.sol\":2261:2282  _nonReentrantBefore() */\n      jump\t// in\n    tag_298:\n        /* \"contracts/tokenContract.sol\":2773:2807  _grantRole(MINTER_ROLE, newMinter) */\n      tag_300\n        /* \"contracts/tokenContract.sol\":547:571  keccak256(\"MINTER_ROLE\") */\n      0x9f2df0fed2c77648de5860a4cc508cd0818c85b8b8a1ab4ceeef8d981c8956a6\n        /* \"contracts/tokenContract.sol\":2797:2806  newMinter */\n      dup3\n        /* \"contracts/tokenContract.sol\":2773:2783  _grantRole */\n      tag_274\n        /* \"contracts/tokenContract.sol\":2773:2807  _grantRole(MINTER_ROLE, newMinter) */\n      jump\t// in\n    tag_300:\n      pop\n        /* \"@openzeppelin/contracts/security/ReentrancyGuard.sol\":2303:2323  _nonReentrantAfter() */\n      tag_301\n        /* \"@openzeppelin/contracts/security/ReentrancyGuard.sol\":2303:2321  _nonReentrantAfter */\n      tag_236\n        /* \"@openzeppelin/contracts/security/ReentrancyGuard.sol\":2303:2323  _nonReentrantAfter() */\n      jump\t// in\n    tag_301:\n        /* \"contracts/tokenContract.sol\":2695:2814  function addMinter(address newMinter) public onlyOwner nonReentrant {... */\n      pop\n      jump\t// out\n        /* \"@openzeppelin/contracts/access/AccessControl.sol\":2187:2236  bytes32 public constant DEFAULT_ADMIN_ROLE = 0x00 */\n    tag_149:\n        /* \"@openzeppelin/contracts/access/AccessControl.sol\":2232:2236  0x00 */\n      0x00\n        /* \"@openzeppelin/contracts/access/AccessControl.sol\":2187:2236  bytes32 public constant DEFAULT_ADMIN_ROLE = 0x00 */\n      dup1\n      shl\n      dup2\n      jump\t// out\n        /* \"contracts/tokenContract.sol\":3227:3504  function transfer(address recipient, uint256 amount) public override returns (bool) {... */\n    tag_154:\n        /* \"contracts/tokenContract.sol\":3305:3309  bool */\n      0x00\n        /* \"contracts/tokenContract.sol\":3321:3361  _validateTransfer(msg.sender, recipient) */\n      tag_303\n        /* \"contracts/tokenContract.sol\":3339:3349  msg.sender */\n      caller\n        /* \"contracts/tokenContract.sol\":3351:3360  recipient */\n      dup5\n        /* \"contracts/tokenContract.sol\":3321:3338  _validateTransfer */\n      tag_252\n        /* \"contracts/tokenContract.sol\":3321:3361  _validateTransfer(msg.sender, recipient) */\n      jump\t// in\n    tag_303:\n        /* \"contracts/tokenContract.sol\":3371:3383  bool success */\n      0x00\n        /* \"contracts/tokenContract.sol\":3386:3419  super.transfer(recipient, amount) */\n      tag_304\n        /* \"contracts/tokenContract.sol\":3401:3410  recipient */\n      dup5\n        /* \"contracts/tokenContract.sol\":3412:3418  amount */\n      dup5\n        /* \"contracts/tokenContract.sol\":3386:3400  super.transfer */\n      tag_305\n        /* \"contracts/tokenContract.sol\":3386:3419  super.transfer(recipient, amount) */\n      jump\t// in\n    tag_304:\n        /* \"contracts/tokenContract.sol\":3371:3419  bool success = super.transfer(recipient, amount) */\n      swap1\n      pop\n        /* \"contracts/tokenContract.sol\":3429:3473  _updateTokenOwnership(msg.sender, recipient) */\n      tag_306\n        /* \"contracts/tokenContract.sol\":3451:3461  msg.sender */\n      caller\n        /* \"contracts/tokenContract.sol\":3463:3472  recipient */\n      dup6\n        /* \"contracts/tokenContract.sol\":3429:3450  _updateTokenOwnership */\n      tag_256\n        /* \"contracts/tokenContract.sol\":3429:3473  _updateTokenOwnership(msg.sender, recipient) */\n      jump\t// in\n    tag_306:\n        /* \"contracts/tokenContract.sol\":3490:3497  success */\n      dup1\n        /* \"contracts/tokenContract.sol\":3483:3497  return success */\n      swap2\n      pop\n      pop\n        /* \"contracts/tokenContract.sol\":3227:3504  function transfer(address recipient, uint256 amount) public override returns (bool) {... */\n      swap3\n      swap2\n      pop\n      pop\n      jump\t// out\n        /* \"contracts/tokenContract.sol\":6967:7090  function updateOwnsToken(address stakeHolder) public onlyRole(MINTER_ROLE) {... */\n    tag_159:\n        /* \"contracts/tokenContract.sol\":547:571  keccak256(\"MINTER_ROLE\") */\n      0x9f2df0fed2c77648de5860a4cc508cd0818c85b8b8a1ab4ceeef8d981c8956a6\n        /* \"@openzeppelin/contracts/access/AccessControl.sol\":2464:2480  _checkRole(role) */\n      tag_308\n        /* \"@openzeppelin/contracts/access/AccessControl.sol\":2475:2479  role */\n      dup2\n        /* \"@openzeppelin/contracts/access/AccessControl.sol\":2464:2474  _checkRole */\n      tag_220\n        /* \"@openzeppelin/contracts/access/AccessControl.sol\":2464:2480  _checkRole(role) */\n      jump\t// in\n    tag_308:\n        /* \"contracts/tokenContract.sol\":7079:7083  true */\n      0x01\n        /* \"contracts/tokenContract.sol\":7052:7063  _ownsTokens */\n      0x0e\n        /* \"contracts/tokenContract.sol\":7052:7076  _ownsTokens[stakeHolder] */\n      0x00\n        /* \"contracts/tokenContract.sol\":7064:7075  stakeHolder */\n      dup5\n        /* \"contracts/tokenContract.sol\":7052:7076  _ownsTokens[stakeHolder] */\n      0xffffffffffffffffffffffffffffffffffffffff\n      and\n      0xffffffffffffffffffffffffffffffffffffffff\n      and\n      dup2\n      mstore\n      0x20\n      add\n      swap1\n      dup2\n      mstore\n      0x20\n      add\n      0x00\n      keccak256\n      0x00\n        /* \"contracts/tokenContract.sol\":7052:7083  _ownsTokens[stakeHolder] = true */\n      0x0100\n      exp\n      dup2\n      sload\n      dup2\n      0xff\n      mul\n      not\n      and\n      swap1\n      dup4\n      iszero\n      iszero\n      mul\n      or\n      swap1\n      sstore\n      pop\n        /* \"contracts/tokenContract.sol\":6967:7090  function updateOwnsToken(address stakeHolder) public onlyRole(MINTER_ROLE) {... */\n      pop\n      pop\n      jump\t// out\n        /* \"contracts/tokenContract.sol\":6499:6611  function isKYCed(address _stakeHolder) public view returns (bool) {... */\n    tag_163:\n        /* \"contracts/tokenContract.sol\":6559:6563  bool */\n      0x00\n        /* \"contracts/tokenContract.sol\":6582:6590  _isKYCed */\n      0x0c\n        /* \"contracts/tokenContract.sol\":6582:6604  _isKYCed[_stakeHolder] */\n      0x00\n        /* \"contracts/tokenContract.sol\":6591:6603  _stakeHolder */\n      dup4\n        /* \"contracts/tokenContract.sol\":6582:6604  _isKYCed[_stakeHolder] */\n      0xffffffffffffffffffffffffffffffffffffffff\n      and\n      0xffffffffffffffffffffffffffffffffffffffff\n      and\n      dup2\n      mstore\n      0x20\n      add\n      swap1\n      dup2\n      mstore\n      0x20\n      add\n      0x00\n      keccak256\n      0x00\n      swap1\n      sload\n      swap1\n      0x0100\n      exp\n      swap1\n      div\n      0xff\n      and\n        /* \"contracts/tokenContract.sol\":6575:6604  return _isKYCed[_stakeHolder] */\n      swap1\n      pop\n        /* \"contracts/tokenContract.sol\":6499:6611  function isKYCed(address _stakeHolder) public view returns (bool) {... */\n      swap2\n      swap1\n      pop\n      jump\t// out\n        /* \"contracts/tokenContract.sol\":509:571  bytes32 public constant MINTER_ROLE = keccak256(\"MINTER_ROLE\") */\n    tag_167:\n        /* \"contracts/tokenContract.sol\":547:571  keccak256(\"MINTER_ROLE\") */\n      0x9f2df0fed2c77648de5860a4cc508cd0818c85b8b8a1ab4ceeef8d981c8956a6\n        /* \"contracts/tokenContract.sol\":509:571  bytes32 public constant MINTER_ROLE = keccak256(\"MINTER_ROLE\") */\n      dup2\n      jump\t// out\n        /* \"@openzeppelin/contracts/access/AccessControl.sol\":4642:4780  function revokeRole(bytes32 role, address account) public virtual onlyRole(getRoleAdmin(role)) {... */\n    tag_172:\n        /* \"@openzeppelin/contracts/access/AccessControl.sol\":4717:4735  getRoleAdmin(role) */\n      tag_311\n        /* \"@openzeppelin/contracts/access/AccessControl.sol\":4730:4734  role */\n      dup3\n        /* \"@openzeppelin/contracts/access/AccessControl.sol\":4717:4729  getRoleAdmin */\n      tag_84\n        /* \"@openzeppelin/contracts/access/AccessControl.sol\":4717:4735  getRoleAdmin(role) */\n      jump\t// in\n    tag_311:\n        /* \"@openzeppelin/contracts/access/AccessControl.sol\":2464:2480  _checkRole(role) */\n      tag_313\n        /* \"@openzeppelin/contracts/access/AccessControl.sol\":2475:2479  role */\n      dup2\n        /* \"@openzeppelin/contracts/access/AccessControl.sol\":2464:2474  _checkRole */\n      tag_220\n        /* \"@openzeppelin/contracts/access/AccessControl.sol\":2464:2480  _checkRole(role) */\n      jump\t// in\n    tag_313:\n        /* \"@openzeppelin/contracts/access/AccessControl.sol\":4747:4773  _revokeRole(role, account) */\n      tag_315\n        /* \"@openzeppelin/contracts/access/AccessControl.sol\":4759:4763  role */\n      dup4\n        /* \"@openzeppelin/contracts/access/AccessControl.sol\":4765:4772  account */\n      dup4\n        /* \"@openzeppelin/contracts/access/AccessControl.sol\":4747:4758  _revokeRole */\n      tag_281\n        /* \"@openzeppelin/contracts/access/AccessControl.sol\":4747:4773  _revokeRole(role, account) */\n      jump\t// in\n    tag_315:\n      pop\n        /* \"@openzeppelin/contracts/access/AccessControl.sol\":4642:4780  function revokeRole(bytes32 role, address account) public virtual onlyRole(getRoleAdmin(role)) {... */\n      pop\n      pop\n      pop\n      jump\t// out\n        /* \"contracts/tokenContract.sol\":4976:5106  function updateDividendPeriodStatus(bool state) public onlyRole(MINTER_ROLE) nonReentrant {... */\n    tag_177:\n        /* \"contracts/tokenContract.sol\":547:571  keccak256(\"MINTER_ROLE\") */\n      0x9f2df0fed2c77648de5860a4cc508cd0818c85b8b8a1ab4ceeef8d981c8956a6\n        /* \"@openzeppelin/contracts/access/AccessControl.sol\":2464:2480  _checkRole(role) */\n      tag_317\n        /* \"@openzeppelin/contracts/access/AccessControl.sol\":2475:2479  role */\n      dup2\n        /* \"@openzeppelin/contracts/access/AccessControl.sol\":2464:2474  _checkRole */\n      tag_220\n        /* \"@openzeppelin/contracts/access/AccessControl.sol\":2464:2480  _checkRole(role) */\n      jump\t// in\n    tag_317:\n        /* \"@openzeppelin/contracts/security/ReentrancyGuard.sol\":2261:2282  _nonReentrantBefore() */\n      tag_319\n        /* \"@openzeppelin/contracts/security/ReentrancyGuard.sol\":2261:2280  _nonReentrantBefore */\n      tag_223\n        /* \"@openzeppelin/contracts/security/ReentrancyGuard.sol\":2261:2282  _nonReentrantBefore() */\n      jump\t// in\n    tag_319:\n        /* \"contracts/tokenContract.sol\":5094:5099  state */\n      dup2\n        /* \"contracts/tokenContract.sol\":5076:5091  _dividendPeriod */\n      0x0a\n      0x14\n        /* \"contracts/tokenContract.sol\":5076:5099  _dividendPeriod = state */\n      0x0100\n      exp\n      dup2\n      sload\n      dup2\n      0xff\n      mul\n      not\n      and\n      swap1\n      dup4\n      iszero\n      iszero\n      mul\n      or\n      swap1\n      sstore\n      pop\n        /* \"@openzeppelin/contracts/security/ReentrancyGuard.sol\":2303:2323  _nonReentrantAfter() */\n      tag_321\n        /* \"@openzeppelin/contracts/security/ReentrancyGuard.sol\":2303:2321  _nonReentrantAfter */\n      tag_236\n        /* \"@openzeppelin/contracts/security/ReentrancyGuard.sol\":2303:2323  _nonReentrantAfter() */\n      jump\t// in\n    tag_321:\n        /* \"contracts/tokenContract.sol\":4976:5106  function updateDividendPeriodStatus(bool state) public onlyRole(MINTER_ROLE) nonReentrant {... */\n      pop\n      pop\n      jump\t// out\n        /* \"contracts/tokenContract.sol\":5116:5223  function getDividendPaymentPeriodState() public view returns (bool) {... */\n    tag_180:\n        /* \"contracts/tokenContract.sol\":5178:5182  bool */\n      0x00\n        /* \"contracts/tokenContract.sol\":5201:5216  _dividendPeriod */\n      0x0a\n      0x14\n      swap1\n      sload\n      swap1\n      0x0100\n      exp\n      swap1\n      div\n      0xff\n      and\n        /* \"contracts/tokenContract.sol\":5194:5216  return _dividendPeriod */\n      swap1\n      pop\n        /* \"contracts/tokenContract.sol\":5116:5223  function getDividendPaymentPeriodState() public view returns (bool) {... */\n      swap1\n      jump\t// out\n        /* \"contracts/tokenContract.sol\":6835:6957  function getOwnedTokens(address _stakeHolder) public view returns (bool) {... */\n    tag_185:\n        /* \"contracts/tokenContract.sol\":6902:6906  bool */\n      0x00\n        /* \"contracts/tokenContract.sol\":6925:6936  _ownsTokens */\n      0x0e\n        /* \"contracts/tokenContract.sol\":6925:6950  _ownsTokens[_stakeHolder] */\n      0x00\n        /* \"contracts/tokenContract.sol\":6937:6949  _stakeHolder */\n      dup4\n        /* \"contracts/tokenContract.sol\":6925:6950  _ownsTokens[_stakeHolder] */\n      0xffffffffffffffffffffffffffffffffffffffff\n      and\n      0xffffffffffffffffffffffffffffffffffffffff\n      and\n      dup2\n      mstore\n      0x20\n      add\n      swap1\n      dup2\n      mstore\n      0x20\n      add\n      0x00\n      keccak256\n      0x00\n      swap1\n      sload\n      swap1\n      0x0100\n      exp\n      swap1\n      div\n      0xff\n      and\n        /* \"contracts/tokenContract.sol\":6918:6950  return _ownsTokens[_stakeHolder] */\n      swap1\n      pop\n        /* \"contracts/tokenContract.sol\":6835:6957  function getOwnedTokens(address _stakeHolder) public view returns (bool) {... */\n      swap2\n      swap1\n      pop\n      jump\t// out\n        /* \"@openzeppelin/contracts/token/ERC20/ERC20.sol\":3532:3672  function allowance(address owner, address spender) public view virtual returns (uint256) {... */\n    tag_191:\n        /* \"@openzeppelin/contracts/token/ERC20/ERC20.sol\":3612:3619  uint256 */\n      0x00\n        /* \"@openzeppelin/contracts/token/ERC20/ERC20.sol\":3638:3649  _allowances */\n      0x01\n        /* \"@openzeppelin/contracts/token/ERC20/ERC20.sol\":3638:3656  _allowances[owner] */\n      0x00\n        /* \"@openzeppelin/contracts/token/ERC20/ERC20.sol\":3650:3655  owner */\n      dup5\n        /* \"@openzeppelin/contracts/token/ERC20/ERC20.sol\":3638:3656  _allowances[owner] */\n      0xffffffffffffffffffffffffffffffffffffffff\n      and\n      0xffffffffffffffffffffffffffffffffffffffff\n      and\n      dup2\n      mstore\n      0x20\n      add\n      swap1\n      dup2\n      mstore\n      0x20\n      add\n      0x00\n      keccak256\n        /* \"@openzeppelin/contracts/token/ERC20/ERC20.sol\":3638:3665  _allowances[owner][spender] */\n      0x00\n        /* \"@openzeppelin/contracts/token/ERC20/ERC20.sol\":3657:3664  spender */\n      dup4\n        /* \"@openzeppelin/contracts/token/ERC20/ERC20.sol\":3638:3665  _allowances[owner][spender] */\n      0xffffffffffffffffffffffffffffffffffffffff\n      and\n      0xffffffffffffffffffffffffffffffffffffffff\n      and\n      dup2\n      mstore\n      0x20\n      add\n      swap1\n      dup2\n      mstore\n      0x20\n      add\n      0x00\n      keccak256\n      sload\n        /* \"@openzeppelin/contracts/token/ERC20/ERC20.sol\":3631:3665  return _allowances[owner][spender] */\n      swap1\n      pop\n        /* \"@openzeppelin/contracts/token/ERC20/ERC20.sol\":3532:3672  function allowance(address owner, address spender) public view virtual returns (uint256) {... */\n      swap3\n      swap2\n      pop\n      pop\n      jump\t// out\n        /* \"contracts/tokenContract.sol\":5639:6489  function removeKYCUser(address user) public onlyRole(KYC_ROLE) nonReentrant {... */\n    tag_196:\n        /* \"contracts/tokenContract.sol\":612:633  keccak256(\"KYC_ROLE\") */\n      0xdb11624602202c396fa347735a55e345a3aeb3e60f8885e1a71f1bf8d5886db7\n        /* \"@openzeppelin/contracts/access/AccessControl.sol\":2464:2480  _checkRole(role) */\n      tag_326\n        /* \"@openzeppelin/contracts/access/AccessControl.sol\":2475:2479  role */\n      dup2\n        /* \"@openzeppelin/contracts/access/AccessControl.sol\":2464:2474  _checkRole */\n      tag_220\n        /* \"@openzeppelin/contracts/access/AccessControl.sol\":2464:2480  _checkRole(role) */\n      jump\t// in\n    tag_326:\n        /* \"@openzeppelin/contracts/security/ReentrancyGuard.sol\":2261:2282  _nonReentrantBefore() */\n      tag_328\n        /* \"@openzeppelin/contracts/security/ReentrancyGuard.sol\":2261:2280  _nonReentrantBefore */\n      tag_223\n        /* \"@openzeppelin/contracts/security/ReentrancyGuard.sol\":2261:2282  _nonReentrantBefore() */\n      jump\t// in\n    tag_328:\n        /* \"contracts/tokenContract.sol\":5733:5741  _isKYCed */\n      0x0c\n        /* \"contracts/tokenContract.sol\":5733:5747  _isKYCed[user] */\n      0x00\n        /* \"contracts/tokenContract.sol\":5742:5746  user */\n      dup4\n        /* \"contracts/tokenContract.sol\":5733:5747  _isKYCed[user] */\n      0xffffffffffffffffffffffffffffffffffffffff\n      and\n      0xffffffffffffffffffffffffffffffffffffffff\n      and\n      dup2\n      mstore\n      0x20\n      add\n      swap1\n      dup2\n      mstore\n      0x20\n      add\n      0x00\n      keccak256\n      0x00\n      swap1\n      sload\n      swap1\n      0x0100\n      exp\n      swap1\n      div\n      0xff\n      and\n        /* \"contracts/tokenContract.sol\":5725:5769  require(_isKYCed[user], \"User is not KYCed\") */\n      tag_330\n      jumpi\n      mload(0x40)\n      0x08c379a000000000000000000000000000000000000000000000000000000000\n      dup2\n      mstore\n      0x04\n      add\n      tag_331\n      swap1\n      tag_332\n      jump\t// in\n    tag_331:\n      mload(0x40)\n      dup1\n      swap2\n      sub\n      swap1\n      revert\n    tag_330:\n        /* \"contracts/tokenContract.sol\":5788:5799  _ownsTokens */\n      0x0e\n        /* \"contracts/tokenContract.sol\":5788:5805  _ownsTokens[user] */\n      0x00\n        /* \"contracts/tokenContract.sol\":5800:5804  user */\n      dup4\n        /* \"contracts/tokenContract.sol\":5788:5805  _ownsTokens[user] */\n      0xffffffffffffffffffffffffffffffffffffffff\n      and\n      0xffffffffffffffffffffffffffffffffffffffff\n      and\n      dup2\n      mstore\n      0x20\n      add\n      swap1\n      dup2\n      mstore\n      0x20\n      add\n      0x00\n      keccak256\n      0x00\n      swap1\n      sload\n      swap1\n      0x0100\n      exp\n      swap1\n      div\n      0xff\n      and\n        /* \"contracts/tokenContract.sol\":5787:5805  !_ownsTokens[user] */\n      iszero\n        /* \"contracts/tokenContract.sol\":5779:5855  require(!_ownsTokens[user], \"User owns tokens, cannot remove from KYC list\") */\n      tag_333\n      jumpi\n      mload(0x40)\n      0x08c379a000000000000000000000000000000000000000000000000000000000\n      dup2\n      mstore\n      0x04\n      add\n      tag_334\n      swap1\n      tag_335\n      jump\t// in\n    tag_334:\n      mload(0x40)\n      dup1\n      swap2\n      sub\n      swap1\n      revert\n    tag_333:\n        /* \"contracts/tokenContract.sol\":5874:5884  bool found */\n      0x00\n        /* \"contracts/tokenContract.sol\":5930:5939  _kycUsers */\n      0x0b\n        /* \"contracts/tokenContract.sol\":5930:5946  _kycUsers.length */\n      dup1\n      sload\n      swap1\n      pop\n        /* \"contracts/tokenContract.sol\":5906:5921  _kycUserIndices */\n      0x0d\n        /* \"contracts/tokenContract.sol\":5906:5927  _kycUserIndices[user] */\n      0x00\n        /* \"contracts/tokenContract.sol\":5922:5926  user */\n      dup6\n        /* \"contracts/tokenContract.sol\":5906:5927  _kycUserIndices[user] */\n      0xffffffffffffffffffffffffffffffffffffffff\n      and\n      0xffffffffffffffffffffffffffffffffffffffff\n      and\n      dup2\n      mstore\n      0x20\n      add\n      swap1\n      dup2\n      mstore\n      0x20\n      add\n      0x00\n      keccak256\n      sload\n        /* \"contracts/tokenContract.sol\":5906:5946  _kycUserIndices[user] < _kycUsers.length */\n      lt\n        /* \"contracts/tokenContract.sol\":5902:6021  if (_kycUserIndices[user] < _kycUsers.length) {... */\n      iszero\n      tag_336\n      jumpi\n        /* \"contracts/tokenContract.sol\":6006:6010  user */\n      dup3\n        /* \"contracts/tokenContract.sol\":5970:6010  _kycUsers[_kycUserIndices[user]] == user */\n      0xffffffffffffffffffffffffffffffffffffffff\n      and\n        /* \"contracts/tokenContract.sol\":5970:5979  _kycUsers */\n      0x0b\n        /* \"contracts/tokenContract.sol\":5980:5995  _kycUserIndices */\n      0x0d\n        /* \"contracts/tokenContract.sol\":5980:6001  _kycUserIndices[user] */\n      0x00\n        /* \"contracts/tokenContract.sol\":5996:6000  user */\n      dup7\n        /* \"contracts/tokenContract.sol\":5980:6001  _kycUserIndices[user] */\n      0xffffffffffffffffffffffffffffffffffffffff\n      and\n      0xffffffffffffffffffffffffffffffffffffffff\n      and\n      dup2\n      mstore\n      0x20\n      add\n      swap1\n      dup2\n      mstore\n      0x20\n      add\n      0x00\n      keccak256\n      sload\n        /* \"contracts/tokenContract.sol\":5970:6002  _kycUsers[_kycUserIndices[user]] */\n      dup2\n      sload\n      dup2\n      lt\n      tag_337\n      jumpi\n      tag_338\n      tag_339\n      jump\t// in\n    tag_338:\n    tag_337:\n      swap1\n      0x00\n      mstore\n      keccak256(0x00, 0x20)\n      add\n      0x00\n      swap1\n      sload\n      swap1\n      0x0100\n      exp\n      swap1\n      div\n      0xffffffffffffffffffffffffffffffffffffffff\n      and\n        /* \"contracts/tokenContract.sol\":5970:6010  _kycUsers[_kycUserIndices[user]] == user */\n      0xffffffffffffffffffffffffffffffffffffffff\n      and\n      eq\n        /* \"contracts/tokenContract.sol\":5962:6010  found = _kycUsers[_kycUserIndices[user]] == user */\n      swap1\n      pop\n        /* \"contracts/tokenContract.sol\":5902:6021  if (_kycUserIndices[user] < _kycUsers.length) {... */\n    tag_336:\n        /* \"contracts/tokenContract.sol\":6038:6043  found */\n      dup1\n        /* \"contracts/tokenContract.sol\":6030:6074  require(found, \"User not found in KYC list\") */\n      tag_341\n      jumpi\n      mload(0x40)\n      0x08c379a000000000000000000000000000000000000000000000000000000000\n      dup2\n      mstore\n      0x04\n      add\n      tag_342\n      swap1\n      tag_343\n      jump\t// in\n    tag_342:\n      mload(0x40)\n      dup1\n      swap2\n      sub\n      swap1\n      revert\n    tag_341:\n        /* \"contracts/tokenContract.sol\":6093:6110  uint256 lastIndex */\n      0x00\n        /* \"contracts/tokenContract.sol\":6132:6133  1 */\n      0x01\n        /* \"contracts/tokenContract.sol\":6113:6122  _kycUsers */\n      0x0b\n        /* \"contracts/tokenContract.sol\":6113:6129  _kycUsers.length */\n      dup1\n      sload\n      swap1\n      pop\n        /* \"contracts/tokenContract.sol\":6113:6133  _kycUsers.length - 1 */\n      tag_344\n      swap2\n      swap1\n      tag_345\n      jump\t// in\n    tag_344:\n        /* \"contracts/tokenContract.sol\":6093:6133  uint256 lastIndex = _kycUsers.length - 1 */\n      swap1\n      pop\n        /* \"contracts/tokenContract.sol\":6172:6181  lastIndex */\n      dup1\n        /* \"contracts/tokenContract.sol\":6147:6162  _kycUserIndices */\n      0x0d\n        /* \"contracts/tokenContract.sol\":6147:6168  _kycUserIndices[user] */\n      0x00\n        /* \"contracts/tokenContract.sol\":6163:6167  user */\n      dup7\n        /* \"contracts/tokenContract.sol\":6147:6168  _kycUserIndices[user] */\n      0xffffffffffffffffffffffffffffffffffffffff\n      and\n      0xffffffffffffffffffffffffffffffffffffffff\n      and\n      dup2\n      mstore\n      0x20\n      add\n      swap1\n      dup2\n      mstore\n      0x20\n      add\n      0x00\n      keccak256\n      sload\n        /* \"contracts/tokenContract.sol\":6147:6181  _kycUserIndices[user] != lastIndex */\n      eq\n        /* \"contracts/tokenContract.sol\":6143:6338  if (_kycUserIndices[user] != lastIndex) {... */\n      tag_346\n      jumpi\n        /* \"contracts/tokenContract.sol\":6232:6241  _kycUsers */\n      0x0b\n        /* \"contracts/tokenContract.sol\":6242:6251  lastIndex */\n      dup2\n        /* \"contracts/tokenContract.sol\":6232:6252  _kycUsers[lastIndex] */\n      dup2\n      sload\n      dup2\n      lt\n      tag_347\n      jumpi\n      tag_348\n      tag_339\n      jump\t// in\n    tag_348:\n    tag_347:\n      swap1\n      0x00\n      mstore\n      keccak256(0x00, 0x20)\n      add\n      0x00\n      swap1\n      sload\n      swap1\n      0x0100\n      exp\n      swap1\n      div\n      0xffffffffffffffffffffffffffffffffffffffff\n      and\n        /* \"contracts/tokenContract.sol\":6197:6206  _kycUsers */\n      0x0b\n        /* \"contracts/tokenContract.sol\":6207:6222  _kycUserIndices */\n      0x0d\n        /* \"contracts/tokenContract.sol\":6207:6228  _kycUserIndices[user] */\n      0x00\n        /* \"contracts/tokenContract.sol\":6223:6227  user */\n      dup8\n        /* \"contracts/tokenContract.sol\":6207:6228  _kycUserIndices[user] */\n      0xffffffffffffffffffffffffffffffffffffffff\n      and\n      0xffffffffffffffffffffffffffffffffffffffff\n      and\n      dup2\n      mstore\n      0x20\n      add\n      swap1\n      dup2\n      mstore\n      0x20\n      add\n      0x00\n      keccak256\n      sload\n        /* \"contracts/tokenContract.sol\":6197:6229  _kycUsers[_kycUserIndices[user]] */\n      dup2\n      sload\n      dup2\n      lt\n      tag_350\n      jumpi\n      tag_351\n      tag_339\n      jump\t// in\n    tag_351:\n    tag_350:\n      swap1\n      0x00\n      mstore\n      keccak256(0x00, 0x20)\n      add\n      0x00\n        /* \"contracts/tokenContract.sol\":6197:6252  _kycUsers[_kycUserIndices[user]] = _kycUsers[lastIndex] */\n      0x0100\n      exp\n      dup2\n      sload\n      dup2\n      0xffffffffffffffffffffffffffffffffffffffff\n      mul\n      not\n      and\n      swap1\n      dup4\n      0xffffffffffffffffffffffffffffffffffffffff\n      and\n      mul\n      or\n      swap1\n      sstore\n      pop\n        /* \"contracts/tokenContract.sol\":6306:6321  _kycUserIndices */\n      0x0d\n        /* \"contracts/tokenContract.sol\":6306:6327  _kycUserIndices[user] */\n      0x00\n        /* \"contracts/tokenContract.sol\":6322:6326  user */\n      dup6\n        /* \"contracts/tokenContract.sol\":6306:6327  _kycUserIndices[user] */\n      0xffffffffffffffffffffffffffffffffffffffff\n      and\n      0xffffffffffffffffffffffffffffffffffffffff\n      and\n      dup2\n      mstore\n      0x20\n      add\n      swap1\n      dup2\n      mstore\n      0x20\n      add\n      0x00\n      keccak256\n      sload\n        /* \"contracts/tokenContract.sol\":6266:6281  _kycUserIndices */\n      0x0d\n        /* \"contracts/tokenContract.sol\":6266:6303  _kycUserIndices[_kycUsers[lastIndex]] */\n      0x00\n        /* \"contracts/tokenContract.sol\":6282:6291  _kycUsers */\n      0x0b\n        /* \"contracts/tokenContract.sol\":6292:6301  lastIndex */\n      dup5\n        /* \"contracts/tokenContract.sol\":6282:6302  _kycUsers[lastIndex] */\n      dup2\n      sload\n      dup2\n      lt\n      tag_353\n      jumpi\n      tag_354\n      tag_339\n      jump\t// in\n    tag_354:\n    tag_353:\n      swap1\n      0x00\n      mstore\n      keccak256(0x00, 0x20)\n      add\n      0x00\n      swap1\n      sload\n      swap1\n      0x0100\n      exp\n      swap1\n      div\n      0xffffffffffffffffffffffffffffffffffffffff\n      and\n        /* \"contracts/tokenContract.sol\":6266:6303  _kycUserIndices[_kycUsers[lastIndex]] */\n      0xffffffffffffffffffffffffffffffffffffffff\n      and\n      0xffffffffffffffffffffffffffffffffffffffff\n      and\n      dup2\n      mstore\n      0x20\n      add\n      swap1\n      dup2\n      mstore\n      0x20\n      add\n      0x00\n      keccak256\n        /* \"contracts/tokenContract.sol\":6266:6327  _kycUserIndices[_kycUsers[lastIndex]] = _kycUserIndices[user] */\n      dup2\n      swap1\n      sstore\n      pop\n        /* \"contracts/tokenContract.sol\":6143:6338  if (_kycUserIndices[user] != lastIndex) {... */\n    tag_346:\n        /* \"contracts/tokenContract.sol\":6347:6356  _kycUsers */\n      0x0b\n        /* \"contracts/tokenContract.sol\":6347:6362  _kycUsers.pop() */\n      dup1\n      sload\n      dup1\n      tag_356\n      jumpi\n      tag_357\n      tag_358\n      jump\t// in\n    tag_357:\n    tag_356:\n      0x01\n      swap1\n      sub\n      dup2\n      dup2\n      swap1\n      0x00\n      mstore\n      keccak256(0x00, 0x20)\n      add\n      exp(0x0100, 0x00)\n      dup2\n      sload\n      swap1\n      0xffffffffffffffffffffffffffffffffffffffff\n      mul\n      not\n      and\n      swap1\n      sstore\n      swap1\n      sstore\n        /* \"contracts/tokenContract.sol\":6398:6403  false */\n      0x00\n        /* \"contracts/tokenContract.sol\":6381:6389  _isKYCed */\n      0x0c\n        /* \"contracts/tokenContract.sol\":6381:6395  _isKYCed[user] */\n      0x00\n        /* \"contracts/tokenContract.sol\":6390:6394  user */\n      dup7\n        /* \"contracts/tokenContract.sol\":6381:6395  _isKYCed[user] */\n      0xffffffffffffffffffffffffffffffffffffffff\n      and\n      0xffffffffffffffffffffffffffffffffffffffff\n      and\n      dup2\n      mstore\n      0x20\n      add\n      swap1\n      dup2\n      mstore\n      0x20\n      add\n      0x00\n      keccak256\n      0x00\n        /* \"contracts/tokenContract.sol\":6381:6403  _isKYCed[user] = false */\n      0x0100\n      exp\n      dup2\n      sload\n      dup2\n      0xff\n      mul\n      not\n      and\n      swap1\n      dup4\n      iszero\n      iszero\n      mul\n      or\n      swap1\n      sstore\n      pop\n        /* \"contracts/tokenContract.sol\":6437:6438  0 */\n      0x00\n        /* \"contracts/tokenContract.sol\":6413:6428  _kycUserIndices */\n      0x0d\n        /* \"contracts/tokenContract.sol\":6413:6434  _kycUserIndices[user] */\n      0x00\n        /* \"contracts/tokenContract.sol\":6429:6433  user */\n      dup7\n        /* \"contracts/tokenContract.sol\":6413:6434  _kycUserIndices[user] */\n      0xffffffffffffffffffffffffffffffffffffffff\n      and\n      0xffffffffffffffffffffffffffffffffffffffff\n      and\n      dup2\n      mstore\n      0x20\n      add\n      swap1\n      dup2\n      mstore\n      0x20\n      add\n      0x00\n      keccak256\n        /* \"contracts/tokenContract.sol\":6413:6438  _kycUserIndices[user] = 0 */\n      dup2\n      swap1\n      sstore\n      pop\n        /* \"contracts/tokenContract.sol\":6477:6481  user */\n      dup4\n        /* \"contracts/tokenContract.sol\":6462:6482  KYCUserRemoved(user) */\n      0xffffffffffffffffffffffffffffffffffffffff\n      and\n      0x8ce60ec723c7fcc3c3f6b1ffaa7b814b03df348c312bb6e41929417162565664\n      mload(0x40)\n      mload(0x40)\n      dup1\n      swap2\n      sub\n      swap1\n      log2\n        /* \"contracts/tokenContract.sol\":5715:6489  {... */\n      pop\n      pop\n        /* \"@openzeppelin/contracts/security/ReentrancyGuard.sol\":2303:2323  _nonReentrantAfter() */\n      tag_360\n        /* \"@openzeppelin/contracts/security/ReentrancyGuard.sol\":2303:2321  _nonReentrantAfter */\n      tag_236\n        /* \"@openzeppelin/contracts/security/ReentrancyGuard.sol\":2303:2323  _nonReentrantAfter() */\n      jump\t// in\n    tag_360:\n        /* \"contracts/tokenContract.sol\":5639:6489  function removeKYCUser(address user) public onlyRole(KYC_ROLE) nonReentrant {... */\n      pop\n      pop\n      jump\t// out\n        /* \"contracts/tokenContract.sol\":6621:6715  function getKYCList() public view returns (address[] memory) {... */\n    tag_199:\n        /* \"contracts/tokenContract.sol\":6664:6680  address[] memory */\n      0x60\n        /* \"contracts/tokenContract.sol\":6699:6708  _kycUsers */\n      0x0b\n        /* \"contracts/tokenContract.sol\":6692:6708  return _kycUsers */\n      dup1\n      sload\n      dup1\n      0x20\n      mul\n      0x20\n      add\n      mload(0x40)\n      swap1\n      dup2\n      add\n      0x40\n      mstore\n      dup1\n      swap3\n      swap2\n      swap1\n      dup2\n      dup2\n      mstore\n      0x20\n      add\n      dup3\n      dup1\n      sload\n      dup1\n      iszero\n      tag_362\n      jumpi\n      0x20\n      mul\n      dup3\n      add\n      swap2\n      swap1\n      0x00\n      mstore\n      keccak256(0x00, 0x20)\n      swap1\n    tag_363:\n      dup2\n      0x00\n      swap1\n      sload\n      swap1\n      0x0100\n      exp\n      swap1\n      div\n      0xffffffffffffffffffffffffffffffffffffffff\n      and\n      0xffffffffffffffffffffffffffffffffffffffff\n      and\n      dup2\n      mstore\n      0x20\n      add\n      swap1\n      0x01\n      add\n      swap1\n      dup1\n      dup4\n      gt\n      tag_363\n      jumpi\n    tag_362:\n      pop\n      pop\n      pop\n      pop\n      pop\n      swap1\n      pop\n        /* \"contracts/tokenContract.sol\":6621:6715  function getKYCList() public view returns (address[] memory) {... */\n      swap1\n      jump\t// out\n        /* \"contracts/tokenContract.sol\":2509:2685  function transferOwnership(address newOwner) public onlyOwner {... */\n    tag_205:\n        /* \"contracts/tokenContract.sol\":2433:2439  _owner */\n      0x09\n      0x00\n      swap1\n      sload\n      swap1\n      0x0100\n      exp\n      swap1\n      div\n      0xffffffffffffffffffffffffffffffffffffffff\n      and\n        /* \"contracts/tokenContract.sol\":2419:2439  msg.sender == _owner */\n      0xffffffffffffffffffffffffffffffffffffffff\n      and\n        /* \"contracts/tokenContract.sol\":2419:2429  msg.sender */\n      caller\n        /* \"contracts/tokenContract.sol\":2419:2439  msg.sender == _owner */\n      0xffffffffffffffffffffffffffffffffffffffff\n      and\n      eq\n        /* \"contracts/tokenContract.sol\":2411:2481  require(msg.sender == _owner, \"Only the Owner can call this function\") */\n      tag_365\n      jumpi\n      mload(0x40)\n      0x08c379a000000000000000000000000000000000000000000000000000000000\n      dup2\n      mstore\n      0x04\n      add\n      tag_366\n      swap1\n      tag_296\n      jump\t// in\n    tag_366:\n      mload(0x40)\n      dup1\n      swap2\n      sub\n      swap1\n      revert\n    tag_365:\n        /* \"contracts/tokenContract.sol\":2609:2610  0 */\n      0x00\n        /* \"contracts/tokenContract.sol\":2589:2611  newOwner != address(0) */\n      0xffffffffffffffffffffffffffffffffffffffff\n      and\n        /* \"contracts/tokenContract.sol\":2589:2597  newOwner */\n      dup2\n        /* \"contracts/tokenContract.sol\":2589:2611  newOwner != address(0) */\n      0xffffffffffffffffffffffffffffffffffffffff\n      and\n      sub\n        /* \"contracts/tokenContract.sol\":2581:2642  require(newOwner != address(0), \"Invalid new owner address.\") */\n      tag_368\n      jumpi\n      mload(0x40)\n      0x08c379a000000000000000000000000000000000000000000000000000000000\n      dup2\n      mstore\n      0x04\n      add\n      tag_369\n      swap1\n      tag_370\n      jump\t// in\n    tag_369:\n      mload(0x40)\n      dup1\n      swap2\n      sub\n      swap1\n      revert\n    tag_368:\n        /* \"contracts/tokenContract.sol\":2669:2677  newOwner */\n      dup1\n        /* \"contracts/tokenContract.sol\":2652:2658  _owner */\n      0x09\n      0x00\n        /* \"contracts/tokenContract.sol\":2652:2678  _owner = payable(newOwner) */\n      0x0100\n      exp\n      dup2\n      sload\n      dup2\n      0xffffffffffffffffffffffffffffffffffffffff\n      mul\n      not\n      and\n      swap1\n      dup4\n      0xffffffffffffffffffffffffffffffffffffffff\n      and\n      mul\n      or\n      swap1\n      sstore\n      pop\n        /* \"contracts/tokenContract.sol\":2509:2685  function transferOwnership(address newOwner) public onlyOwner {... */\n      pop\n      jump\t// out\n        /* \"contracts/tokenContract.sol\":577:633  bytes32 public constant KYC_ROLE = keccak256(\"KYC_ROLE\") */\n    tag_208:\n        /* \"contracts/tokenContract.sol\":612:633  keccak256(\"KYC_ROLE\") */\n      0xdb11624602202c396fa347735a55e345a3aeb3e60f8885e1a71f1bf8d5886db7\n        /* \"contracts/tokenContract.sol\":577:633  bytes32 public constant KYC_ROLE = keccak256(\"KYC_ROLE\") */\n      dup2\n      jump\t// out\n        /* \"contracts/tokenContract.sol\":5233:5629  function addKYCUser(address user) public onlyRole(KYC_ROLE) nonReentrant {... */\n    tag_213:\n        /* \"contracts/tokenContract.sol\":612:633  keccak256(\"KYC_ROLE\") */\n      0xdb11624602202c396fa347735a55e345a3aeb3e60f8885e1a71f1bf8d5886db7\n        /* \"@openzeppelin/contracts/access/AccessControl.sol\":2464:2480  _checkRole(role) */\n      tag_372\n        /* \"@openzeppelin/contracts/access/AccessControl.sol\":2475:2479  role */\n      dup2\n        /* \"@openzeppelin/contracts/access/AccessControl.sol\":2464:2474  _checkRole */\n      tag_220\n        /* \"@openzeppelin/contracts/access/AccessControl.sol\":2464:2480  _checkRole(role) */\n      jump\t// in\n    tag_372:\n        /* \"@openzeppelin/contracts/security/ReentrancyGuard.sol\":2261:2282  _nonReentrantBefore() */\n      tag_374\n        /* \"@openzeppelin/contracts/security/ReentrancyGuard.sol\":2261:2280  _nonReentrantBefore */\n      tag_223\n        /* \"@openzeppelin/contracts/security/ReentrancyGuard.sol\":2261:2282  _nonReentrantBefore() */\n      jump\t// in\n    tag_374:\n        /* \"contracts/tokenContract.sol\":5340:5341  0 */\n      0x00\n        /* \"contracts/tokenContract.sol\":5324:5342  user != address(0) */\n      0xffffffffffffffffffffffffffffffffffffffff\n      and\n        /* \"contracts/tokenContract.sol\":5324:5328  user */\n      dup3\n        /* \"contracts/tokenContract.sol\":5324:5342  user != address(0) */\n      0xffffffffffffffffffffffffffffffffffffffff\n      and\n      sub\n        /* \"contracts/tokenContract.sol\":5316:5362  require(user != address(0), \"Invalid address\") */\n      tag_376\n      jumpi\n      mload(0x40)\n      0x08c379a000000000000000000000000000000000000000000000000000000000\n      dup2\n      mstore\n      0x04\n      add\n      tag_377\n      swap1\n      tag_378\n      jump\t// in\n    tag_377:\n      mload(0x40)\n      dup1\n      swap2\n      sub\n      swap1\n      revert\n    tag_376:\n        /* \"contracts/tokenContract.sol\":5381:5389  _isKYCed */\n      0x0c\n        /* \"contracts/tokenContract.sol\":5381:5395  _isKYCed[user] */\n      0x00\n        /* \"contracts/tokenContract.sol\":5390:5394  user */\n      dup4\n        /* \"contracts/tokenContract.sol\":5381:5395  _isKYCed[user] */\n      0xffffffffffffffffffffffffffffffffffffffff\n      and\n      0xffffffffffffffffffffffffffffffffffffffff\n      and\n      dup2\n      mstore\n      0x20\n      add\n      swap1\n      dup2\n      mstore\n      0x20\n      add\n      0x00\n      keccak256\n      0x00\n      swap1\n      sload\n      swap1\n      0x0100\n      exp\n      swap1\n      div\n      0xff\n      and\n        /* \"contracts/tokenContract.sol\":5380:5395  !_isKYCed[user] */\n      iszero\n        /* \"contracts/tokenContract.sol\":5372:5421  require(!_isKYCed[user], \"User is already KYCed\") */\n      tag_379\n      jumpi\n      mload(0x40)\n      0x08c379a000000000000000000000000000000000000000000000000000000000\n      dup2\n      mstore\n      0x04\n      add\n      tag_380\n      swap1\n      tag_381\n      jump\t// in\n    tag_380:\n      mload(0x40)\n      dup1\n      swap2\n      sub\n      swap1\n      revert\n    tag_379:\n        /* \"contracts/tokenContract.sol\":5457:5461  true */\n      0x01\n        /* \"contracts/tokenContract.sol\":5440:5448  _isKYCed */\n      0x0c\n        /* \"contracts/tokenContract.sol\":5440:5454  _isKYCed[user] */\n      0x00\n        /* \"contracts/tokenContract.sol\":5449:5453  user */\n      dup5\n        /* \"contracts/tokenContract.sol\":5440:5454  _isKYCed[user] */\n      0xffffffffffffffffffffffffffffffffffffffff\n      and\n      0xffffffffffffffffffffffffffffffffffffffff\n      and\n      dup2\n      mstore\n      0x20\n      add\n      swap1\n      dup2\n      mstore\n      0x20\n      add\n      0x00\n      keccak256\n      0x00\n        /* \"contracts/tokenContract.sol\":5440:5461  _isKYCed[user] = true */\n      0x0100\n      exp\n      dup2\n      sload\n      dup2\n      0xff\n      mul\n      not\n      and\n      swap1\n      dup4\n      iszero\n      iszero\n      mul\n      or\n      swap1\n      sstore\n      pop\n        /* \"contracts/tokenContract.sol\":5471:5480  _kycUsers */\n      0x0b\n        /* \"contracts/tokenContract.sol\":5486:5490  user */\n      dup3\n        /* \"contracts/tokenContract.sol\":5471:5491  _kycUsers.push(user) */\n      swap1\n      dup1\n      0x01\n      dup2\n      sload\n      add\n      dup1\n      dup3\n      sstore\n      dup1\n      swap2\n      pop\n      pop\n      0x01\n      swap1\n      sub\n      swap1\n      0x00\n      mstore\n      keccak256(0x00, 0x20)\n      add\n      0x00\n      swap1\n      swap2\n      swap1\n      swap2\n      swap1\n      swap2\n      0x0100\n      exp\n      dup2\n      sload\n      dup2\n      0xffffffffffffffffffffffffffffffffffffffff\n      mul\n      not\n      and\n      swap1\n      dup4\n      0xffffffffffffffffffffffffffffffffffffffff\n      and\n      mul\n      or\n      swap1\n      sstore\n      pop\n        /* \"contracts/tokenContract.sol\":5544:5545  1 */\n      0x01\n        /* \"contracts/tokenContract.sol\":5525:5534  _kycUsers */\n      0x0b\n        /* \"contracts/tokenContract.sol\":5525:5541  _kycUsers.length */\n      dup1\n      sload\n      swap1\n      pop\n        /* \"contracts/tokenContract.sol\":5525:5545  _kycUsers.length - 1 */\n      tag_383\n      swap2\n      swap1\n      tag_345\n      jump\t// in\n    tag_383:\n        /* \"contracts/tokenContract.sol\":5501:5516  _kycUserIndices */\n      0x0d\n        /* \"contracts/tokenContract.sol\":5501:5522  _kycUserIndices[user] */\n      0x00\n        /* \"contracts/tokenContract.sol\":5517:5521  user */\n      dup5\n        /* \"contracts/tokenContract.sol\":5501:5522  _kycUserIndices[user] */\n      0xffffffffffffffffffffffffffffffffffffffff\n      and\n      0xffffffffffffffffffffffffffffffffffffffff\n      and\n      dup2\n      mstore\n      0x20\n      add\n      swap1\n      dup2\n      mstore\n      0x20\n      add\n      0x00\n      keccak256\n        /* \"contracts/tokenContract.sol\":5501:5545  _kycUserIndices[user] = _kycUsers.length - 1 */\n      dup2\n      swap1\n      sstore\n      pop\n        /* \"contracts/tokenContract.sol\":5575:5580  false */\n      0x00\n        /* \"contracts/tokenContract.sol\":5555:5566  _ownsTokens */\n      0x0e\n        /* \"contracts/tokenContract.sol\":5555:5572  _ownsTokens[user] */\n      0x00\n        /* \"contracts/tokenContract.sol\":5567:5571  user */\n      dup5\n        /* \"contracts/tokenContract.sol\":5555:5572  _ownsTokens[user] */\n      0xffffffffffffffffffffffffffffffffffffffff\n      and\n      0xffffffffffffffffffffffffffffffffffffffff\n      and\n      dup2\n      mstore\n      0x20\n      add\n      swap1\n      dup2\n      mstore\n      0x20\n      add\n      0x00\n      keccak256\n      0x00\n        /* \"contracts/tokenContract.sol\":5555:5580  _ownsTokens[user] = false */\n      0x0100\n      exp\n      dup2\n      sload\n      dup2\n      0xff\n      mul\n      not\n      and\n      swap1\n      dup4\n      iszero\n      iszero\n      mul\n      or\n      swap1\n      sstore\n      pop\n        /* \"contracts/tokenContract.sol\":5617:5621  user */\n      dup2\n        /* \"contracts/tokenContract.sol\":5604:5622  KYCUserAdded(user) */\n      0xffffffffffffffffffffffffffffffffffffffff\n      and\n      0xe82acf77c2686315e6aeaa43ccec710936b819cb5d01a31fadb2bf2a928c9342\n      mload(0x40)\n      mload(0x40)\n      dup1\n      swap2\n      sub\n      swap1\n      log2\n        /* \"@openzeppelin/contracts/security/ReentrancyGuard.sol\":2303:2323  _nonReentrantAfter() */\n      tag_384\n        /* \"@openzeppelin/contracts/security/ReentrancyGuard.sol\":2303:2321  _nonReentrantAfter */\n      tag_236\n        /* \"@openzeppelin/contracts/security/ReentrancyGuard.sol\":2303:2323  _nonReentrantAfter() */\n      jump\t// in\n    tag_384:\n        /* \"contracts/tokenContract.sol\":5233:5629  function addKYCUser(address user) public onlyRole(KYC_ROLE) nonReentrant {... */\n      pop\n      pop\n      jump\t// out\n        /* \"@openzeppelin/contracts/utils/introspection/ERC165.sol\":763:909  function supportsInterface(bytes4 interfaceId) public view virtual returns (bool) {... */\n    tag_217:\n        /* \"@openzeppelin/contracts/utils/introspection/ERC165.sol\":839:843  bool */\n      0x00\n        /* \"@openzeppelin/contracts/utils/introspection/ERC165.sol\":877:902  type(IERC165).interfaceId */\n      0x01ffc9a700000000000000000000000000000000000000000000000000000000\n        /* \"@openzeppelin/contracts/utils/introspection/ERC165.sol\":862:902  interfaceId == type(IERC165).interfaceId */\n      not(0xffffffffffffffffffffffffffffffffffffffffffffffffffffffff)\n      and\n        /* \"@openzeppelin/contracts/utils/introspection/ERC165.sol\":862:873  interfaceId */\n      dup3\n        /* \"@openzeppelin/contracts/utils/introspection/ERC165.sol\":862:902  interfaceId == type(IERC165).interfaceId */\n      not(0xffffffffffffffffffffffffffffffffffffffffffffffffffffffff)\n      and\n      eq\n        /* \"@openzeppelin/contracts/utils/introspection/ERC165.sol\":855:902  return interfaceId == type(IERC165).interfaceId */\n      swap1\n      pop\n        /* \"@openzeppelin/contracts/utils/introspection/ERC165.sol\":763:909  function supportsInterface(bytes4 interfaceId) public view virtual returns (bool) {... */\n      swap2\n      swap1\n      pop\n      jump\t// out\n        /* \"@openzeppelin/contracts/access/AccessControl.sol\":3199:3302  function _checkRole(bytes32 role) internal view virtual {... */\n    tag_220:\n        /* \"@openzeppelin/contracts/access/AccessControl.sol\":3265:3295  _checkRole(role, _msgSender()) */\n      tag_387\n        /* \"@openzeppelin/contracts/access/AccessControl.sol\":3276:3280  role */\n      dup2\n        /* \"@openzeppelin/contracts/access/AccessControl.sol\":3282:3294  _msgSender() */\n      tag_388\n        /* \"@openzeppelin/contracts/access/AccessControl.sol\":3282:3292  _msgSender */\n      tag_246\n        /* \"@openzeppelin/contracts/access/AccessControl.sol\":3282:3294  _msgSender() */\n      jump\t// in\n    tag_388:\n        /* \"@openzeppelin/contracts/access/AccessControl.sol\":3265:3275  _checkRole */\n      tag_389\n        /* \"@openzeppelin/contracts/access/AccessControl.sol\":3265:3295  _checkRole(role, _msgSender()) */\n      jump\t// in\n    tag_387:\n        /* \"@openzeppelin/contracts/access/AccessControl.sol\":3199:3302  function _checkRole(bytes32 role) internal view virtual {... */\n      pop\n      jump\t// out\n        /* \"@openzeppelin/contracts/security/ReentrancyGuard.sol\":2336:2623  function _nonReentrantBefore() private {... */\n    tag_223:\n        /* \"@openzeppelin/contracts/security/ReentrancyGuard.sol\":1759:1760  2 */\n      0x02\n        /* \"@openzeppelin/contracts/security/ReentrancyGuard.sol\":2468:2475  _status */\n      sload(0x06)\n        /* \"@openzeppelin/contracts/security/ReentrancyGuard.sol\":2468:2487  _status != _ENTERED */\n      sub\n        /* \"@openzeppelin/contracts/security/ReentrancyGuard.sol\":2460:2523  require(_status != _ENTERED, \"ReentrancyGuard: reentrant call\") */\n      tag_391\n      jumpi\n      mload(0x40)\n      0x08c379a000000000000000000000000000000000000000000000000000000000\n      dup2\n      mstore\n      0x04\n      add\n      tag_392\n      swap1\n      tag_393\n      jump\t// in\n    tag_392:\n      mload(0x40)\n      dup1\n      swap2\n      sub\n      swap1\n      revert\n    tag_391:\n        /* \"@openzeppelin/contracts/security/ReentrancyGuard.sol\":1759:1760  2 */\n      0x02\n        /* \"@openzeppelin/contracts/security/ReentrancyGuard.sol\":2598:2605  _status */\n      0x06\n        /* \"@openzeppelin/contracts/security/ReentrancyGuard.sol\":2598:2616  _status = _ENTERED */\n      dup2\n      swap1\n      sstore\n      pop\n        /* \"@openzeppelin/contracts/security/ReentrancyGuard.sol\":2336:2623  function _nonReentrantBefore() private {... */\n      jump\t// out\n        /* \"@openzeppelin/contracts/token/ERC20/ERC20.sol\":7439:7647  function _mint(address account, uint256 value) internal {... */\n    tag_234:\n        /* \"@openzeppelin/contracts/token/ERC20/ERC20.sol\":7528:7529  0 */\n      0x00\n        /* \"@openzeppelin/contracts/token/ERC20/ERC20.sol\":7509:7530  account == address(0) */\n      0xffffffffffffffffffffffffffffffffffffffff\n      and\n        /* \"@openzeppelin/contracts/token/ERC20/ERC20.sol\":7509:7516  account */\n      dup3\n        /* \"@openzeppelin/contracts/token/ERC20/ERC20.sol\":7509:7530  account == address(0) */\n      0xffffffffffffffffffffffffffffffffffffffff\n      and\n      sub\n        /* \"@openzeppelin/contracts/token/ERC20/ERC20.sol\":7505:7596  if (account == address(0)) {... */\n      tag_395\n      jumpi\n        /* \"@openzeppelin/contracts/token/ERC20/ERC20.sol\":7582:7583  0 */\n      0x00\n        /* \"@openzeppelin/contracts/token/ERC20/ERC20.sol\":7553:7585  ERC20InvalidReceiver(address(0)) */\n      mload(0x40)\n      0xec442f0500000000000000000000000000000000000000000000000000000000\n      dup2\n      mstore\n      0x04\n      add\n      tag_396\n      swap2\n      swap1\n      tag_118\n      jump\t// in\n    tag_396:\n      mload(0x40)\n      dup1\n      swap2\n      sub\n      swap1\n      revert\n        /* \"@openzeppelin/contracts/token/ERC20/ERC20.sol\":7505:7596  if (account == address(0)) {... */\n    tag_395:\n        /* \"@openzeppelin/contracts/token/ERC20/ERC20.sol\":7605:7640  _update(address(0), account, value) */\n      tag_397\n        /* \"@openzeppelin/contracts/token/ERC20/ERC20.sol\":7621:7622  0 */\n      0x00\n        /* \"@openzeppelin/contracts/token/ERC20/ERC20.sol\":7625:7632  account */\n      dup4\n        /* \"@openzeppelin/contracts/token/ERC20/ERC20.sol\":7634:7639  value */\n      dup4\n        /* \"@openzeppelin/contracts/token/ERC20/ERC20.sol\":7605:7612  _update */\n      tag_398\n        /* \"@openzeppelin/contracts/token/ERC20/ERC20.sol\":7605:7640  _update(address(0), account, value) */\n      jump\t// in\n    tag_397:\n        /* \"@openzeppelin/contracts/token/ERC20/ERC20.sol\":7439:7647  function _mint(address account, uint256 value) internal {... */\n      pop\n      pop\n      jump\t// out\n        /* \"@openzeppelin/contracts/security/ReentrancyGuard.sol\":2629:2838  function _nonReentrantAfter() private {... */\n    tag_236:\n        /* \"@openzeppelin/contracts/security/ReentrancyGuard.sol\":1716:1717  1 */\n      0x01\n        /* \"@openzeppelin/contracts/security/ReentrancyGuard.sol\":2809:2816  _status */\n      0x06\n        /* \"@openzeppelin/contracts/security/ReentrancyGuard.sol\":2809:2831  _status = _NOT_ENTERED */\n      dup2\n      swap1\n      sstore\n      pop\n        /* \"@openzeppelin/contracts/security/ReentrancyGuard.sol\":2629:2838  function _nonReentrantAfter() private {... */\n      jump\t// out\n        /* \"@openzeppelin/contracts/utils/Context.sol\":656:752  function _msgSender() internal view virtual returns (address) {... */\n    tag_246:\n        /* \"@openzeppelin/contracts/utils/Context.sol\":709:716  address */\n      0x00\n        /* \"@openzeppelin/contracts/utils/Context.sol\":735:745  msg.sender */\n      caller\n        /* \"@openzeppelin/contracts/utils/Context.sol\":728:745  return msg.sender */\n      swap1\n      pop\n        /* \"@openzeppelin/contracts/utils/Context.sol\":656:752  function _msgSender() internal view virtual returns (address) {... */\n      swap1\n      jump\t// out\n        /* \"@openzeppelin/contracts/token/ERC20/ERC20.sol\":8707:8835  function _approve(address owner, address spender, uint256 value) internal {... */\n    tag_248:\n        /* \"@openzeppelin/contracts/token/ERC20/ERC20.sol\":8791:8828  _approve(owner, spender, value, true) */\n      tag_402\n        /* \"@openzeppelin/contracts/token/ERC20/ERC20.sol\":8800:8805  owner */\n      dup4\n        /* \"@openzeppelin/contracts/token/ERC20/ERC20.sol\":8807:8814  spender */\n      dup4\n        /* \"@openzeppelin/contracts/token/ERC20/ERC20.sol\":8816:8821  value */\n      dup4\n        /* \"@openzeppelin/contracts/token/ERC20/ERC20.sol\":8823:8827  true */\n      0x01\n        /* \"@openzeppelin/contracts/token/ERC20/ERC20.sol\":8791:8799  _approve */\n      tag_403\n        /* \"@openzeppelin/contracts/token/ERC20/ERC20.sol\":8791:8828  _approve(owner, spender, value, true) */\n      jump\t// in\n    tag_402:\n        /* \"@openzeppelin/contracts/token/ERC20/ERC20.sol\":8707:8835  function _approve(address owner, address spender, uint256 value) internal {... */\n      pop\n      pop\n      pop\n      jump\t// out\n        /* \"contracts/tokenContract.sol\":3998:4317  function _validateTransfer(address sender, address recipient) private view {... */\n    tag_252:\n        /* \"contracts/tokenContract.sol\":4092:4107  _dividendPeriod */\n      0x0a\n      0x14\n      swap1\n      sload\n      swap1\n      0x0100\n      exp\n      swap1\n      div\n      0xff\n      and\n        /* \"contracts/tokenContract.sol\":4091:4107  !_dividendPeriod */\n      iszero\n        /* \"contracts/tokenContract.sol\":4083:4188  require(!_dividendPeriod, \"Dividend Period is ongoing, all transfers will resume after dividend period.\") */\n      tag_405\n      jumpi\n      mload(0x40)\n      0x08c379a000000000000000000000000000000000000000000000000000000000\n      dup2\n      mstore\n      0x04\n      add\n      tag_406\n      swap1\n      tag_407\n      jump\t// in\n    tag_406:\n      mload(0x40)\n      dup1\n      swap2\n      sub\n      swap1\n      revert\n    tag_405:\n        /* \"contracts/tokenContract.sol\":4206:4214  _isKYCed */\n      0x0c\n        /* \"contracts/tokenContract.sol\":4206:4222  _isKYCed[sender] */\n      0x00\n        /* \"contracts/tokenContract.sol\":4215:4221  sender */\n      dup4\n        /* \"contracts/tokenContract.sol\":4206:4222  _isKYCed[sender] */\n      0xffffffffffffffffffffffffffffffffffffffff\n      and\n      0xffffffffffffffffffffffffffffffffffffffff\n      and\n      dup2\n      mstore\n      0x20\n      add\n      swap1\n      dup2\n      mstore\n      0x20\n      add\n      0x00\n      keccak256\n      0x00\n      swap1\n      sload\n      swap1\n      0x0100\n      exp\n      swap1\n      div\n      0xff\n      and\n        /* \"contracts/tokenContract.sol\":4198:4246  require(_isKYCed[sender], \"Sender is not KYCed\") */\n      tag_408\n      jumpi\n      mload(0x40)\n      0x08c379a000000000000000000000000000000000000000000000000000000000\n      dup2\n      mstore\n      0x04\n      add\n      tag_409\n      swap1\n      tag_410\n      jump\t// in\n    tag_409:\n      mload(0x40)\n      dup1\n      swap2\n      sub\n      swap1\n      revert\n    tag_408:\n        /* \"contracts/tokenContract.sol\":4264:4272  _isKYCed */\n      0x0c\n        /* \"contracts/tokenContract.sol\":4264:4283  _isKYCed[recipient] */\n      0x00\n        /* \"contracts/tokenContract.sol\":4273:4282  recipient */\n      dup3\n        /* \"contracts/tokenContract.sol\":4264:4283  _isKYCed[recipient] */\n      0xffffffffffffffffffffffffffffffffffffffff\n      and\n      0xffffffffffffffffffffffffffffffffffffffff\n      and\n      dup2\n      mstore\n      0x20\n      add\n      swap1\n      dup2\n      mstore\n      0x20\n      add\n      0x00\n      keccak256\n      0x00\n      swap1\n      sload\n      swap1\n      0x0100\n      exp\n      swap1\n      div\n      0xff\n      and\n        /* \"contracts/tokenContract.sol\":4256:4310  require(_isKYCed[recipient], \"Recipient is not KYCed\") */\n      tag_411\n      jumpi\n      mload(0x40)\n      0x08c379a000000000000000000000000000000000000000000000000000000000\n      dup2\n      mstore\n      0x04\n      add\n      tag_412\n      swap1\n      tag_413\n      jump\t// in\n    tag_412:\n      mload(0x40)\n      dup1\n      swap2\n      sub\n      swap1\n      revert\n    tag_411:\n        /* \"contracts/tokenContract.sol\":3998:4317  function _validateTransfer(address sender, address recipient) private view {... */\n      pop\n      pop\n      jump\t// out\n        /* \"@openzeppelin/contracts/token/ERC20/ERC20.sol\":4757:5001  function transferFrom(address from, address to, uint256 value) public virtual returns (bool) {... */\n    tag_254:\n        /* \"@openzeppelin/contracts/token/ERC20/ERC20.sol\":4844:4848  bool */\n      0x00\n        /* \"@openzeppelin/contracts/token/ERC20/ERC20.sol\":4860:4875  address spender */\n      dup1\n        /* \"@openzeppelin/contracts/token/ERC20/ERC20.sol\":4878:4890  _msgSender() */\n      tag_415\n        /* \"@openzeppelin/contracts/token/ERC20/ERC20.sol\":4878:4888  _msgSender */\n      tag_246\n        /* \"@openzeppelin/contracts/token/ERC20/ERC20.sol\":4878:4890  _msgSender() */\n      jump\t// in\n    tag_415:\n        /* \"@openzeppelin/contracts/token/ERC20/ERC20.sol\":4860:4890  address spender = _msgSender() */\n      swap1\n      pop\n        /* \"@openzeppelin/contracts/token/ERC20/ERC20.sol\":4900:4937  _spendAllowance(from, spender, value) */\n      tag_416\n        /* \"@openzeppelin/contracts/token/ERC20/ERC20.sol\":4916:4920  from */\n      dup6\n        /* \"@openzeppelin/contracts/token/ERC20/ERC20.sol\":4922:4929  spender */\n      dup3\n        /* \"@openzeppelin/contracts/token/ERC20/ERC20.sol\":4931:4936  value */\n      dup6\n        /* \"@openzeppelin/contracts/token/ERC20/ERC20.sol\":4900:4915  _spendAllowance */\n      tag_417\n        /* \"@openzeppelin/contracts/token/ERC20/ERC20.sol\":4900:4937  _spendAllowance(from, spender, value) */\n      jump\t// in\n    tag_416:\n        /* \"@openzeppelin/contracts/token/ERC20/ERC20.sol\":4947:4973  _transfer(from, to, value) */\n      tag_418\n        /* \"@openzeppelin/contracts/token/ERC20/ERC20.sol\":4957:4961  from */\n      dup6\n        /* \"@openzeppelin/contracts/token/ERC20/ERC20.sol\":4963:4965  to */\n      dup6\n        /* \"@openzeppelin/contracts/token/ERC20/ERC20.sol\":4967:4972  value */\n      dup6\n        /* \"@openzeppelin/contracts/token/ERC20/ERC20.sol\":4947:4956  _transfer */\n      tag_419\n        /* \"@openzeppelin/contracts/token/ERC20/ERC20.sol\":4947:4973  _transfer(from, to, value) */\n      jump\t// in\n    tag_418:\n        /* \"@openzeppelin/contracts/token/ERC20/ERC20.sol\":4990:4994  true */\n      0x01\n        /* \"@openzeppelin/contracts/token/ERC20/ERC20.sol\":4983:4994  return true */\n      swap2\n      pop\n      pop\n        /* \"@openzeppelin/contracts/token/ERC20/ERC20.sol\":4757:5001  function transferFrom(address from, address to, uint256 value) public virtual returns (bool) {... */\n      swap4\n      swap3\n      pop\n      pop\n      pop\n      jump\t// out\n        /* \"contracts/tokenContract.sol\":4406:4579  function _updateTokenOwnership(address sender, address recipient) private {... */\n    tag_256:\n        /* \"contracts/tokenContract.sol\":4515:4519  true */\n      0x01\n        /* \"contracts/tokenContract.sol\":4490:4501  _ownsTokens */\n      0x0e\n        /* \"contracts/tokenContract.sol\":4490:4512  _ownsTokens[recipient] */\n      0x00\n        /* \"contracts/tokenContract.sol\":4502:4511  recipient */\n      dup4\n        /* \"contracts/tokenContract.sol\":4490:4512  _ownsTokens[recipient] */\n      0xffffffffffffffffffffffffffffffffffffffff\n      and\n      0xffffffffffffffffffffffffffffffffffffffff\n      and\n      dup2\n      mstore\n      0x20\n      add\n      swap1\n      dup2\n      mstore\n      0x20\n      add\n      0x00\n      keccak256\n      0x00\n        /* \"contracts/tokenContract.sol\":4490:4519  _ownsTokens[recipient] = true */\n      0x0100\n      exp\n      dup2\n      sload\n      dup2\n      0xff\n      mul\n      not\n      and\n      swap1\n      dup4\n      iszero\n      iszero\n      mul\n      or\n      swap1\n      sstore\n      pop\n        /* \"contracts/tokenContract.sol\":4571:4572  0 */\n      0x00\n        /* \"contracts/tokenContract.sol\":4551:4568  balanceOf(sender) */\n      tag_421\n        /* \"contracts/tokenContract.sol\":4561:4567  sender */\n      dup4\n        /* \"contracts/tokenContract.sol\":4551:4560  balanceOf */\n      tag_127\n        /* \"contracts/tokenContract.sol\":4551:4568  balanceOf(sender) */\n      jump\t// in\n    tag_421:\n        /* \"contracts/tokenContract.sol\":4551:4572  balanceOf(sender) > 0 */\n      gt\n        /* \"contracts/tokenContract.sol\":4529:4540  _ownsTokens */\n      0x0e\n        /* \"contracts/tokenContract.sol\":4529:4548  _ownsTokens[sender] */\n      0x00\n        /* \"contracts/tokenContract.sol\":4541:4547  sender */\n      dup5\n        /* \"contracts/tokenContract.sol\":4529:4548  _ownsTokens[sender] */\n      0xffffffffffffffffffffffffffffffffffffffff\n      and\n      0xffffffffffffffffffffffffffffffffffffffff\n      and\n      dup2\n      mstore\n      0x20\n      add\n      swap1\n      dup2\n      mstore\n      0x20\n      add\n      0x00\n      keccak256\n      0x00\n        /* \"contracts/tokenContract.sol\":4529:4572  _ownsTokens[sender] = balanceOf(sender) > 0 */\n      0x0100\n      exp\n      dup2\n      sload\n      dup2\n      0xff\n      mul\n      not\n      and\n      swap1\n      dup4\n      iszero\n      iszero\n      mul\n      or\n      swap1\n      sstore\n      pop\n        /* \"contracts/tokenContract.sol\":4406:4579  function _updateTokenOwnership(address sender, address recipient) private {... */\n      pop\n      pop\n      jump\t// out\n        /* \"@openzeppelin/contracts/token/ERC20/ERC20.sol\":7965:8171  function _burn(address account, uint256 value) internal {... */\n    tag_265:\n        /* \"@openzeppelin/contracts/token/ERC20/ERC20.sol\":8054:8055  0 */\n      0x00\n        /* \"@openzeppelin/contracts/token/ERC20/ERC20.sol\":8035:8056  account == address(0) */\n      0xffffffffffffffffffffffffffffffffffffffff\n      and\n        /* \"@openzeppelin/contracts/token/ERC20/ERC20.sol\":8035:8042  account */\n      dup3\n        /* \"@openzeppelin/contracts/token/ERC20/ERC20.sol\":8035:8056  account == address(0) */\n      0xffffffffffffffffffffffffffffffffffffffff\n      and\n      sub\n        /* \"@openzeppelin/contracts/token/ERC20/ERC20.sol\":8031:8120  if (account == address(0)) {... */\n      tag_423\n      jumpi\n        /* \"@openzeppelin/contracts/token/ERC20/ERC20.sol\":8106:8107  0 */\n      0x00\n        /* \"@openzeppelin/contracts/token/ERC20/ERC20.sol\":8079:8109  ERC20InvalidSender(address(0)) */\n      mload(0x40)\n      0x96c6fd1e00000000000000000000000000000000000000000000000000000000\n      dup2\n      mstore\n      0x04\n      add\n      tag_424\n      swap2\n      swap1\n      tag_118\n      jump\t// in\n    tag_424:\n      mload(0x40)\n      dup1\n      swap2\n      sub\n      swap1\n      revert\n        /* \"@openzeppelin/contracts/token/ERC20/ERC20.sol\":8031:8120  if (account == address(0)) {... */\n    tag_423:\n        /* \"@openzeppelin/contracts/token/ERC20/ERC20.sol\":8129:8164  _update(account, address(0), value) */\n      tag_425\n        /* \"@openzeppelin/contracts/token/ERC20/ERC20.sol\":8137:8144  account */\n      dup3\n        /* \"@openzeppelin/contracts/token/ERC20/ERC20.sol\":8154:8155  0 */\n      0x00\n        /* \"@openzeppelin/contracts/token/ERC20/ERC20.sol\":8158:8163  value */\n      dup4\n        /* \"@openzeppelin/contracts/token/ERC20/ERC20.sol\":8129:8136  _update */\n      tag_398\n        /* \"@openzeppelin/contracts/token/ERC20/ERC20.sol\":8129:8164  _update(account, address(0), value) */\n      jump\t// in\n    tag_425:\n        /* \"@openzeppelin/contracts/token/ERC20/ERC20.sol\":7965:8171  function _burn(address account, uint256 value) internal {... */\n      pop\n      pop\n      jump\t// out\n        /* \"@openzeppelin/contracts/access/AccessControl.sol\":6179:6495  function _grantRole(bytes32 role, address account) internal virtual returns (bool) {... */\n    tag_274:\n        /* \"@openzeppelin/contracts/access/AccessControl.sol\":6256:6260  bool */\n      0x00\n        /* \"@openzeppelin/contracts/access/AccessControl.sol\":6277:6299  hasRole(role, account) */\n      tag_427\n        /* \"@openzeppelin/contracts/access/AccessControl.sol\":6285:6289  role */\n      dup4\n        /* \"@openzeppelin/contracts/access/AccessControl.sol\":6291:6298  account */\n      dup4\n        /* \"@openzeppelin/contracts/access/AccessControl.sol\":6277:6284  hasRole */\n      tag_137\n        /* \"@openzeppelin/contracts/access/AccessControl.sol\":6277:6299  hasRole(role, account) */\n      jump\t// in\n    tag_427:\n        /* \"@openzeppelin/contracts/access/AccessControl.sol\":6272:6489  if (!hasRole(role, account)) {... */\n      tag_428\n      jumpi\n        /* \"@openzeppelin/contracts/access/AccessControl.sol\":6347:6351  true */\n      0x01\n        /* \"@openzeppelin/contracts/access/AccessControl.sol\":6315:6321  _roles */\n      0x05\n        /* \"@openzeppelin/contracts/access/AccessControl.sol\":6315:6327  _roles[role] */\n      0x00\n        /* \"@openzeppelin/contracts/access/AccessControl.sol\":6322:6326  role */\n      dup6\n        /* \"@openzeppelin/contracts/access/AccessControl.sol\":6315:6327  _roles[role] */\n      dup2\n      mstore\n      0x20\n      add\n      swap1\n      dup2\n      mstore\n      0x20\n      add\n      0x00\n      keccak256\n        /* \"@openzeppelin/contracts/access/AccessControl.sol\":6315:6335  _roles[role].hasRole */\n      0x00\n      add\n        /* \"@openzeppelin/contracts/access/AccessControl.sol\":6315:6344  _roles[role].hasRole[account] */\n      0x00\n        /* \"@openzeppelin/contracts/access/AccessControl.sol\":6336:6343  account */\n      dup5\n        /* \"@openzeppelin/contracts/access/AccessControl.sol\":6315:6344  _roles[role].hasRole[account] */\n      0xffffffffffffffffffffffffffffffffffffffff\n      and\n      0xffffffffffffffffffffffffffffffffffffffff\n      and\n      dup2\n      mstore\n      0x20\n      add\n      swap1\n      dup2\n      mstore\n      0x20\n      add\n      0x00\n      keccak256\n      0x00\n        /* \"@openzeppelin/contracts/access/AccessControl.sol\":6315:6351  _roles[role].hasRole[account] = true */\n      0x0100\n      exp\n      dup2\n      sload\n      dup2\n      0xff\n      mul\n      not\n      and\n      swap1\n      dup4\n      iszero\n      iszero\n      mul\n      or\n      swap1\n      sstore\n      pop\n        /* \"@openzeppelin/contracts/access/AccessControl.sol\":6397:6409  _msgSender() */\n      tag_429\n        /* \"@openzeppelin/contracts/access/AccessControl.sol\":6397:6407  _msgSender */\n      tag_246\n        /* \"@openzeppelin/contracts/access/AccessControl.sol\":6397:6409  _msgSender() */\n      jump\t// in\n    tag_429:\n        /* \"@openzeppelin/contracts/access/AccessControl.sol\":6370:6410  RoleGranted(role, account, _msgSender()) */\n      0xffffffffffffffffffffffffffffffffffffffff\n      and\n        /* \"@openzeppelin/contracts/access/AccessControl.sol\":6388:6395  account */\n      dup3\n        /* \"@openzeppelin/contracts/access/AccessControl.sol\":6370:6410  RoleGranted(role, account, _msgSender()) */\n      0xffffffffffffffffffffffffffffffffffffffff\n      and\n        /* \"@openzeppelin/contracts/access/AccessControl.sol\":6382:6386  role */\n      dup5\n        /* \"@openzeppelin/contracts/access/AccessControl.sol\":6370:6410  RoleGranted(role, account, _msgSender()) */\n      0x2f8788117e7eff1d82e926ec794901d17c78024a50270940304540a733656f0d\n      mload(0x40)\n      mload(0x40)\n      dup1\n      swap2\n      sub\n      swap1\n      log4\n        /* \"@openzeppelin/contracts/access/AccessControl.sol\":6431:6435  true */\n      0x01\n        /* \"@openzeppelin/contracts/access/AccessControl.sol\":6424:6435  return true */\n      swap1\n      pop\n      jump(tag_426)\n        /* \"@openzeppelin/contracts/access/AccessControl.sol\":6272:6489  if (!hasRole(role, account)) {... */\n    tag_428:\n        /* \"@openzeppelin/contracts/access/AccessControl.sol\":6473:6478  false */\n      0x00\n        /* \"@openzeppelin/contracts/access/AccessControl.sol\":6466:6478  return false */\n      swap1\n      pop\n        /* \"@openzeppelin/contracts/access/AccessControl.sol\":6179:6495  function _grantRole(bytes32 role, address account) internal virtual returns (bool) {... */\n    tag_426:\n      swap3\n      swap2\n      pop\n      pop\n      jump\t// out\n        /* \"@openzeppelin/contracts/access/AccessControl.sol\":6732:7049  function _revokeRole(bytes32 role, address account) internal virtual returns (bool) {... */\n    tag_281:\n        /* \"@openzeppelin/contracts/access/AccessControl.sol\":6810:6814  bool */\n      0x00\n        /* \"@openzeppelin/contracts/access/AccessControl.sol\":6830:6852  hasRole(role, account) */\n      tag_432\n        /* \"@openzeppelin/contracts/access/AccessControl.sol\":6838:6842  role */\n      dup4\n        /* \"@openzeppelin/contracts/access/AccessControl.sol\":6844:6851  account */\n      dup4\n        /* \"@openzeppelin/contracts/access/AccessControl.sol\":6830:6837  hasRole */\n      tag_137\n        /* \"@openzeppelin/contracts/access/AccessControl.sol\":6830:6852  hasRole(role, account) */\n      jump\t// in\n    tag_432:\n        /* \"@openzeppelin/contracts/access/AccessControl.sol\":6826:7043  if (hasRole(role, account)) {... */\n      iszero\n      tag_433\n      jumpi\n        /* \"@openzeppelin/contracts/access/AccessControl.sol\":6900:6905  false */\n      0x00\n        /* \"@openzeppelin/contracts/access/AccessControl.sol\":6868:6874  _roles */\n      0x05\n        /* \"@openzeppelin/contracts/access/AccessControl.sol\":6868:6880  _roles[role] */\n      0x00\n        /* \"@openzeppelin/contracts/access/AccessControl.sol\":6875:6879  role */\n      dup6\n        /* \"@openzeppelin/contracts/access/AccessControl.sol\":6868:6880  _roles[role] */\n      dup2\n      mstore\n      0x20\n      add\n      swap1\n      dup2\n      mstore\n      0x20\n      add\n      0x00\n      keccak256\n        /* \"@openzeppelin/contracts/access/AccessControl.sol\":6868:6888  _roles[role].hasRole */\n      0x00\n      add\n        /* \"@openzeppelin/contracts/access/AccessControl.sol\":6868:6897  _roles[role].hasRole[account] */\n      0x00\n        /* \"@openzeppelin/contracts/access/AccessControl.sol\":6889:6896  account */\n      dup5\n        /* \"@openzeppelin/contracts/access/AccessControl.sol\":6868:6897  _roles[role].hasRole[account] */\n      0xffffffffffffffffffffffffffffffffffffffff\n      and\n      0xffffffffffffffffffffffffffffffffffffffff\n      and\n      dup2\n      mstore\n      0x20\n      add\n      swap1\n      dup2\n      mstore\n      0x20\n      add\n      0x00\n      keccak256\n      0x00\n        /* \"@openzeppelin/contracts/access/AccessControl.sol\":6868:6905  _roles[role].hasRole[account] = false */\n      0x0100\n      exp\n      dup2\n      sload\n      dup2\n      0xff\n      mul\n      not\n      and\n      swap1\n      dup4\n      iszero\n      iszero\n      mul\n      or\n      swap1\n      sstore\n      pop\n        /* \"@openzeppelin/contracts/access/AccessControl.sol\":6951:6963  _msgSender() */\n      tag_434\n        /* \"@openzeppelin/contracts/access/AccessControl.sol\":6951:6961  _msgSender */\n      tag_246\n        /* \"@openzeppelin/contracts/access/AccessControl.sol\":6951:6963  _msgSender() */\n      jump\t// in\n    tag_434:\n        /* \"@openzeppelin/contracts/access/AccessControl.sol\":6924:6964  RoleRevoked(role, account, _msgSender()) */\n      0xffffffffffffffffffffffffffffffffffffffff\n      and\n        /* \"@openzeppelin/contracts/access/AccessControl.sol\":6942:6949  account */\n      dup3\n        /* \"@openzeppelin/contracts/access/AccessControl.sol\":6924:6964  RoleRevoked(role, account, _msgSender()) */\n      0xffffffffffffffffffffffffffffffffffffffff\n      and\n        /* \"@openzeppelin/contracts/access/AccessControl.sol\":6936:6940  role */\n      dup5\n        /* \"@openzeppelin/contracts/access/AccessControl.sol\":6924:6964  RoleRevoked(role, account, _msgSender()) */\n      0xf6391f5c32d9c69d2a47ea670b442974b53935d1edc7fd64eb21e047a839171b\n      mload(0x40)\n      mload(0x40)\n      dup1\n      swap2\n      sub\n      swap1\n      log4\n        /* \"@openzeppelin/contracts/access/AccessControl.sol\":6985:6989  true */\n      0x01\n        /* \"@openzeppelin/contracts/access/AccessControl.sol\":6978:6989  return true */\n      swap1\n      pop\n      jump(tag_431)\n        /* \"@openzeppelin/contracts/access/AccessControl.sol\":6826:7043  if (hasRole(role, account)) {... */\n    tag_433:\n        /* \"@openzeppelin/contracts/access/AccessControl.sol\":7027:7032  false */\n      0x00\n        /* \"@openzeppelin/contracts/access/AccessControl.sol\":7020:7032  return false */\n      swap1\n      pop\n        /* \"@openzeppelin/contracts/access/AccessControl.sol\":6732:7049  function _revokeRole(bytes32 role, address account) internal virtual returns (bool) {... */\n    tag_431:\n      swap3\n      swap2\n      pop\n      pop\n      jump\t// out\n        /* \"@openzeppelin/contracts/token/ERC20/ERC20.sol\":3296:3474  function transfer(address to, uint256 value) public virtual returns (bool) {... */\n    tag_305:\n        /* \"@openzeppelin/contracts/token/ERC20/ERC20.sol\":3365:3369  bool */\n      0x00\n        /* \"@openzeppelin/contracts/token/ERC20/ERC20.sol\":3381:3394  address owner */\n      dup1\n        /* \"@openzeppelin/contracts/token/ERC20/ERC20.sol\":3397:3409  _msgSender() */\n      tag_437\n        /* \"@openzeppelin/contracts/token/ERC20/ERC20.sol\":3397:3407  _msgSender */\n      tag_246\n        /* \"@openzeppelin/contracts/token/ERC20/ERC20.sol\":3397:3409  _msgSender() */\n      jump\t// in\n    tag_437:\n        /* \"@openzeppelin/contracts/token/ERC20/ERC20.sol\":3381:3409  address owner = _msgSender() */\n      swap1\n      pop\n        /* \"@openzeppelin/contracts/token/ERC20/ERC20.sol\":3419:3446  _transfer(owner, to, value) */\n      tag_438\n        /* \"@openzeppelin/contracts/token/ERC20/ERC20.sol\":3429:3434  owner */\n      dup2\n        /* \"@openzeppelin/contracts/token/ERC20/ERC20.sol\":3436:3438  to */\n      dup6\n        /* \"@openzeppelin/contracts/token/ERC20/ERC20.sol\":3440:3445  value */\n      dup6\n        /* \"@openzeppelin/contracts/token/ERC20/ERC20.sol\":3419:3428  _transfer */\n      tag_419\n        /* \"@openzeppelin/contracts/token/ERC20/ERC20.sol\":3419:3446  _transfer(owner, to, value) */\n      jump\t// in\n    tag_438:\n        /* \"@openzeppelin/contracts/token/ERC20/ERC20.sol\":3463:3467  true */\n      0x01\n        /* \"@openzeppelin/contracts/token/ERC20/ERC20.sol\":3456:3467  return true */\n      swap2\n      pop\n      pop\n        /* \"@openzeppelin/contracts/token/ERC20/ERC20.sol\":3296:3474  function transfer(address to, uint256 value) public virtual returns (bool) {... */\n      swap3\n      swap2\n      pop\n      pop\n      jump\t// out\n        /* \"@openzeppelin/contracts/access/AccessControl.sol\":3432:3629  function _checkRole(bytes32 role, address account) internal view virtual {... */\n    tag_389:\n        /* \"@openzeppelin/contracts/access/AccessControl.sol\":3520:3542  hasRole(role, account) */\n      tag_440\n        /* \"@openzeppelin/contracts/access/AccessControl.sol\":3528:3532  role */\n      dup3\n        /* \"@openzeppelin/contracts/access/AccessControl.sol\":3534:3541  account */\n      dup3\n        /* \"@openzeppelin/contracts/access/AccessControl.sol\":3520:3527  hasRole */\n      tag_137\n        /* \"@openzeppelin/contracts/access/AccessControl.sol\":3520:3542  hasRole(role, account) */\n      jump\t// in\n    tag_440:\n        /* \"@openzeppelin/contracts/access/AccessControl.sol\":3515:3623  if (!hasRole(role, account)) {... */\n      tag_441\n      jumpi\n        /* \"@openzeppelin/contracts/access/AccessControl.sol\":3598:3605  account */\n      dup1\n        /* \"@openzeppelin/contracts/access/AccessControl.sol\":3607:3611  role */\n      dup3\n        /* \"@openzeppelin/contracts/access/AccessControl.sol\":3565:3612  AccessControlUnauthorizedAccount(account, role) */\n      mload(0x40)\n      0xe2517d3f00000000000000000000000000000000000000000000000000000000\n      dup2\n      mstore\n      0x04\n      add\n      tag_442\n      swap3\n      swap2\n      swap1\n      tag_443\n      jump\t// in\n    tag_442:\n      mload(0x40)\n      dup1\n      swap2\n      sub\n      swap1\n      revert\n        /* \"@openzeppelin/contracts/access/AccessControl.sol\":3515:3623  if (!hasRole(role, account)) {... */\n    tag_441:\n        /* \"@openzeppelin/contracts/access/AccessControl.sol\":3432:3629  function _checkRole(bytes32 role, address account) internal view virtual {... */\n      pop\n      pop\n      jump\t// out\n        /* \"@openzeppelin/contracts/token/ERC20/extensions/ERC20Capped.sol\":1059:1430  function _update(address from, address to, uint256 value) internal virtual override {... */\n    tag_398:\n        /* \"@openzeppelin/contracts/token/ERC20/extensions/ERC20Capped.sol\":1153:1183  super._update(from, to, value) */\n      tag_445\n        /* \"@openzeppelin/contracts/token/ERC20/extensions/ERC20Capped.sol\":1167:1171  from */\n      dup4\n        /* \"@openzeppelin/contracts/token/ERC20/extensions/ERC20Capped.sol\":1173:1175  to */\n      dup4\n        /* \"@openzeppelin/contracts/token/ERC20/extensions/ERC20Capped.sol\":1177:1182  value */\n      dup4\n        /* \"@openzeppelin/contracts/token/ERC20/extensions/ERC20Capped.sol\":1153:1166  super._update */\n      tag_446\n        /* \"@openzeppelin/contracts/token/ERC20/extensions/ERC20Capped.sol\":1153:1183  super._update(from, to, value) */\n      jump\t// in\n    tag_445:\n        /* \"@openzeppelin/contracts/token/ERC20/extensions/ERC20Capped.sol\":1214:1215  0 */\n      0x00\n        /* \"@openzeppelin/contracts/token/ERC20/extensions/ERC20Capped.sol\":1198:1216  from == address(0) */\n      0xffffffffffffffffffffffffffffffffffffffff\n      and\n        /* \"@openzeppelin/contracts/token/ERC20/extensions/ERC20Capped.sol\":1198:1202  from */\n      dup4\n        /* \"@openzeppelin/contracts/token/ERC20/extensions/ERC20Capped.sol\":1198:1216  from == address(0) */\n      0xffffffffffffffffffffffffffffffffffffffff\n      and\n      sub\n        /* \"@openzeppelin/contracts/token/ERC20/extensions/ERC20Capped.sol\":1194:1424  if (from == address(0)) {... */\n      tag_447\n      jumpi\n        /* \"@openzeppelin/contracts/token/ERC20/extensions/ERC20Capped.sol\":1232:1249  uint256 maxSupply */\n      0x00\n        /* \"@openzeppelin/contracts/token/ERC20/extensions/ERC20Capped.sol\":1252:1257  cap() */\n      tag_448\n        /* \"@openzeppelin/contracts/token/ERC20/extensions/ERC20Capped.sol\":1252:1255  cap */\n      tag_108\n        /* \"@openzeppelin/contracts/token/ERC20/extensions/ERC20Capped.sol\":1252:1257  cap() */\n      jump\t// in\n    tag_448:\n        /* \"@openzeppelin/contracts/token/ERC20/extensions/ERC20Capped.sol\":1232:1257  uint256 maxSupply = cap() */\n      swap1\n      pop\n        /* \"@openzeppelin/contracts/token/ERC20/extensions/ERC20Capped.sol\":1271:1285  uint256 supply */\n      0x00\n        /* \"@openzeppelin/contracts/token/ERC20/extensions/ERC20Capped.sol\":1288:1301  totalSupply() */\n      tag_449\n        /* \"@openzeppelin/contracts/token/ERC20/extensions/ERC20Capped.sol\":1288:1299  totalSupply */\n      tag_71\n        /* \"@openzeppelin/contracts/token/ERC20/extensions/ERC20Capped.sol\":1288:1301  totalSupply() */\n      jump\t// in\n    tag_449:\n        /* \"@openzeppelin/contracts/token/ERC20/extensions/ERC20Capped.sol\":1271:1301  uint256 supply = totalSupply() */\n      swap1\n      pop\n        /* \"@openzeppelin/contracts/token/ERC20/extensions/ERC20Capped.sol\":1328:1337  maxSupply */\n      dup2\n        /* \"@openzeppelin/contracts/token/ERC20/extensions/ERC20Capped.sol\":1319:1325  supply */\n      dup2\n        /* \"@openzeppelin/contracts/token/ERC20/extensions/ERC20Capped.sol\":1319:1337  supply > maxSupply */\n      gt\n        /* \"@openzeppelin/contracts/token/ERC20/extensions/ERC20Capped.sol\":1315:1414  if (supply > maxSupply) {... */\n      iszero\n      tag_450\n      jumpi\n        /* \"@openzeppelin/contracts/token/ERC20/extensions/ERC20Capped.sol\":1381:1387  supply */\n      dup1\n        /* \"@openzeppelin/contracts/token/ERC20/extensions/ERC20Capped.sol\":1389:1398  maxSupply */\n      dup3\n        /* \"@openzeppelin/contracts/token/ERC20/extensions/ERC20Capped.sol\":1364:1399  ERC20ExceededCap(supply, maxSupply) */\n      mload(0x40)\n      0x9e79f85400000000000000000000000000000000000000000000000000000000\n      dup2\n      mstore\n      0x04\n      add\n      tag_451\n      swap3\n      swap2\n      swap1\n      tag_452\n      jump\t// in\n    tag_451:\n      mload(0x40)\n      dup1\n      swap2\n      sub\n      swap1\n      revert\n        /* \"@openzeppelin/contracts/token/ERC20/extensions/ERC20Capped.sol\":1315:1414  if (supply > maxSupply) {... */\n    tag_450:\n        /* \"@openzeppelin/contracts/token/ERC20/extensions/ERC20Capped.sol\":1218:1424  {... */\n      pop\n      pop\n        /* \"@openzeppelin/contracts/token/ERC20/extensions/ERC20Capped.sol\":1194:1424  if (from == address(0)) {... */\n    tag_447:\n        /* \"@openzeppelin/contracts/token/ERC20/extensions/ERC20Capped.sol\":1059:1430  function _update(address from, address to, uint256 value) internal virtual override {... */\n      pop\n      pop\n      pop\n      jump\t// out\n        /* \"@openzeppelin/contracts/token/ERC20/ERC20.sol\":9682:10114  function _approve(address owner, address spender, uint256 value, bool emitEvent) internal virtual {... */\n    tag_403:\n        /* \"@openzeppelin/contracts/token/ERC20/ERC20.sol\":9811:9812  0 */\n      0x00\n        /* \"@openzeppelin/contracts/token/ERC20/ERC20.sol\":9794:9813  owner == address(0) */\n      0xffffffffffffffffffffffffffffffffffffffff\n      and\n        /* \"@openzeppelin/contracts/token/ERC20/ERC20.sol\":9794:9799  owner */\n      dup5\n        /* \"@openzeppelin/contracts/token/ERC20/ERC20.sol\":9794:9813  owner == address(0) */\n      0xffffffffffffffffffffffffffffffffffffffff\n      and\n      sub\n        /* \"@openzeppelin/contracts/token/ERC20/ERC20.sol\":9790:9879  if (owner == address(0)) {... */\n      tag_454\n      jumpi\n        /* \"@openzeppelin/contracts/token/ERC20/ERC20.sol\":9865:9866  0 */\n      0x00\n        /* \"@openzeppelin/contracts/token/ERC20/ERC20.sol\":9836:9868  ERC20InvalidApprover(address(0)) */\n      mload(0x40)\n      0xe602df0500000000000000000000000000000000000000000000000000000000\n      dup2\n      mstore\n      0x04\n      add\n      tag_455\n      swap2\n      swap1\n      tag_118\n      jump\t// in\n    tag_455:\n      mload(0x40)\n      dup1\n      swap2\n      sub\n      swap1\n      revert\n        /* \"@openzeppelin/contracts/token/ERC20/ERC20.sol\":9790:9879  if (owner == address(0)) {... */\n    tag_454:\n        /* \"@openzeppelin/contracts/token/ERC20/ERC20.sol\":9911:9912  0 */\n      0x00\n        /* \"@openzeppelin/contracts/token/ERC20/ERC20.sol\":9892:9913  spender == address(0) */\n      0xffffffffffffffffffffffffffffffffffffffff\n      and\n        /* \"@openzeppelin/contracts/token/ERC20/ERC20.sol\":9892:9899  spender */\n      dup4\n        /* \"@openzeppelin/contracts/token/ERC20/ERC20.sol\":9892:9913  spender == address(0) */\n      0xffffffffffffffffffffffffffffffffffffffff\n      and\n      sub\n        /* \"@openzeppelin/contracts/token/ERC20/ERC20.sol\":9888:9978  if (spender == address(0)) {... */\n      tag_456\n      jumpi\n        /* \"@openzeppelin/contracts/token/ERC20/ERC20.sol\":9964:9965  0 */\n      0x00\n        /* \"@openzeppelin/contracts/token/ERC20/ERC20.sol\":9936:9967  ERC20InvalidSpender(address(0)) */\n      mload(0x40)\n      0x94280d6200000000000000000000000000000000000000000000000000000000\n      dup2\n      mstore\n      0x04\n      add\n      tag_457\n      swap2\n      swap1\n      tag_118\n      jump\t// in\n    tag_457:\n      mload(0x40)\n      dup1\n      swap2\n      sub\n      swap1\n      revert\n        /* \"@openzeppelin/contracts/token/ERC20/ERC20.sol\":9888:9978  if (spender == address(0)) {... */\n    tag_456:\n        /* \"@openzeppelin/contracts/token/ERC20/ERC20.sol\":10017:10022  value */\n      dup2\n        /* \"@openzeppelin/contracts/token/ERC20/ERC20.sol\":9987:9998  _allowances */\n      0x01\n        /* \"@openzeppelin/contracts/token/ERC20/ERC20.sol\":9987:10005  _allowances[owner] */\n      0x00\n        /* \"@openzeppelin/contracts/token/ERC20/ERC20.sol\":9999:10004  owner */\n      dup7\n        /* \"@openzeppelin/contracts/token/ERC20/ERC20.sol\":9987:10005  _allowances[owner] */\n      0xffffffffffffffffffffffffffffffffffffffff\n      and\n      0xffffffffffffffffffffffffffffffffffffffff\n      and\n      dup2\n      mstore\n      0x20\n      add\n      swap1\n      dup2\n      mstore\n      0x20\n      add\n      0x00\n      keccak256\n        /* \"@openzeppelin/contracts/token/ERC20/ERC20.sol\":9987:10014  _allowances[owner][spender] */\n      0x00\n        /* \"@openzeppelin/contracts/token/ERC20/ERC20.sol\":10006:10013  spender */\n      dup6\n        /* \"@openzeppelin/contracts/token/ERC20/ERC20.sol\":9987:10014  _allowances[owner][spender] */\n      0xffffffffffffffffffffffffffffffffffffffff\n      and\n      0xffffffffffffffffffffffffffffffffffffffff\n      and\n      dup2\n      mstore\n      0x20\n      add\n      swap1\n      dup2\n      mstore\n      0x20\n      add\n      0x00\n      keccak256\n        /* \"@openzeppelin/contracts/token/ERC20/ERC20.sol\":9987:10022  _allowances[owner][spender] = value */\n      dup2\n      swap1\n      sstore\n      pop\n        /* \"@openzeppelin/contracts/token/ERC20/ERC20.sol\":10036:10045  emitEvent */\n      dup1\n        /* \"@openzeppelin/contracts/token/ERC20/ERC20.sol\":10032:10108  if (emitEvent) {... */\n      iszero\n      tag_458\n      jumpi\n        /* \"@openzeppelin/contracts/token/ERC20/ERC20.sol\":10082:10089  spender */\n      dup3\n        /* \"@openzeppelin/contracts/token/ERC20/ERC20.sol\":10066:10097  Approval(owner, spender, value) */\n      0xffffffffffffffffffffffffffffffffffffffff\n      and\n        /* \"@openzeppelin/contracts/token/ERC20/ERC20.sol\":10075:10080  owner */\n      dup5\n        /* \"@openzeppelin/contracts/token/ERC20/ERC20.sol\":10066:10097  Approval(owner, spender, value) */\n      0xffffffffffffffffffffffffffffffffffffffff\n      and\n      0x8c5be1e5ebec7d5bd14f71427d1e84f3dd0314c0f7b2291e5b200ac8c7c3b925\n        /* \"@openzeppelin/contracts/token/ERC20/ERC20.sol\":10091:10096  value */\n      dup5\n        /* \"@openzeppelin/contracts/token/ERC20/ERC20.sol\":10066:10097  Approval(owner, spender, value) */\n      mload(0x40)\n      tag_459\n      swap2\n      swap1\n      tag_73\n      jump\t// in\n    tag_459:\n      mload(0x40)\n      dup1\n      swap2\n      sub\n      swap1\n      log3\n        /* \"@openzeppelin/contracts/token/ERC20/ERC20.sol\":10032:10108  if (emitEvent) {... */\n    tag_458:\n        /* \"@openzeppelin/contracts/token/ERC20/ERC20.sol\":9682:10114  function _approve(address owner, address spender, uint256 value, bool emitEvent) internal virtual {... */\n      pop\n      pop\n      pop\n      pop\n      jump\t// out\n        /* \"@openzeppelin/contracts/token/ERC20/ERC20.sol\":10396:10872  function _spendAllowance(address owner, address spender, uint256 value) internal virtual {... */\n    tag_417:\n        /* \"@openzeppelin/contracts/token/ERC20/ERC20.sol\":10495:10519  uint256 currentAllowance */\n      0x00\n        /* \"@openzeppelin/contracts/token/ERC20/ERC20.sol\":10522:10547  allowance(owner, spender) */\n      tag_461\n        /* \"@openzeppelin/contracts/token/ERC20/ERC20.sol\":10532:10537  owner */\n      dup5\n        /* \"@openzeppelin/contracts/token/ERC20/ERC20.sol\":10539:10546  spender */\n      dup5\n        /* \"@openzeppelin/contracts/token/ERC20/ERC20.sol\":10522:10531  allowance */\n      tag_191\n        /* \"@openzeppelin/contracts/token/ERC20/ERC20.sol\":10522:10547  allowance(owner, spender) */\n      jump\t// in\n    tag_461:\n        /* \"@openzeppelin/contracts/token/ERC20/ERC20.sol\":10495:10547  uint256 currentAllowance = allowance(owner, spender) */\n      swap1\n      pop\n        /* \"@openzeppelin/contracts/token/ERC20/ERC20.sol\":10580:10597  type(uint256).max */\n      0xffffffffffffffffffffffffffffffffffffffffffffffffffffffffffffffff\n        /* \"@openzeppelin/contracts/token/ERC20/ERC20.sol\":10561:10577  currentAllowance */\n      dup2\n        /* \"@openzeppelin/contracts/token/ERC20/ERC20.sol\":10561:10597  currentAllowance < type(uint256).max */\n      lt\n        /* \"@openzeppelin/contracts/token/ERC20/ERC20.sol\":10557:10866  if (currentAllowance < type(uint256).max) {... */\n      iszero\n      tag_462\n      jumpi\n        /* \"@openzeppelin/contracts/token/ERC20/ERC20.sol\":10636:10641  value */\n      dup2\n        /* \"@openzeppelin/contracts/token/ERC20/ERC20.sol\":10617:10633  currentAllowance */\n      dup2\n        /* \"@openzeppelin/contracts/token/ERC20/ERC20.sol\":10617:10641  currentAllowance < value */\n      lt\n        /* \"@openzeppelin/contracts/token/ERC20/ERC20.sol\":10613:10743  if (currentAllowance < value) {... */\n      iszero\n      tag_463\n      jumpi\n        /* \"@openzeppelin/contracts/token/ERC20/ERC20.sol\":10695:10702  spender */\n      dup3\n        /* \"@openzeppelin/contracts/token/ERC20/ERC20.sol\":10704:10720  currentAllowance */\n      dup2\n        /* \"@openzeppelin/contracts/token/ERC20/ERC20.sol\":10722:10727  value */\n      dup4\n        /* \"@openzeppelin/contracts/token/ERC20/ERC20.sol\":10668:10728  ERC20InsufficientAllowance(spender, currentAllowance, value) */\n      mload(0x40)\n      0xfb8f41b200000000000000000000000000000000000000000000000000000000\n      dup2\n      mstore\n      0x04\n      add\n      tag_464\n      swap4\n      swap3\n      swap2\n      swap1\n      tag_465\n      jump\t// in\n    tag_464:\n      mload(0x40)\n      dup1\n      swap2\n      sub\n      swap1\n      revert\n        /* \"@openzeppelin/contracts/token/ERC20/ERC20.sol\":10613:10743  if (currentAllowance < value) {... */\n    tag_463:\n        /* \"@openzeppelin/contracts/token/ERC20/ERC20.sol\":10784:10841  _approve(owner, spender, currentAllowance - value, false) */\n      tag_466\n        /* \"@openzeppelin/contracts/token/ERC20/ERC20.sol\":10793:10798  owner */\n      dup5\n        /* \"@openzeppelin/contracts/token/ERC20/ERC20.sol\":10800:10807  spender */\n      dup5\n        /* \"@openzeppelin/contracts/token/ERC20/ERC20.sol\":10828:10833  value */\n      dup5\n        /* \"@openzeppelin/contracts/token/ERC20/ERC20.sol\":10809:10825  currentAllowance */\n      dup5\n        /* \"@openzeppelin/contracts/token/ERC20/ERC20.sol\":10809:10833  currentAllowance - value */\n      sub\n        /* \"@openzeppelin/contracts/token/ERC20/ERC20.sol\":10835:10840  false */\n      0x00\n        /* \"@openzeppelin/contracts/token/ERC20/ERC20.sol\":10784:10792  _approve */\n      tag_403\n        /* \"@openzeppelin/contracts/token/ERC20/ERC20.sol\":10784:10841  _approve(owner, spender, currentAllowance - value, false) */\n      jump\t// in\n    tag_466:\n        /* \"@openzeppelin/contracts/token/ERC20/ERC20.sol\":10557:10866  if (currentAllowance < type(uint256).max) {... */\n    tag_462:\n        /* \"@openzeppelin/contracts/token/ERC20/ERC20.sol\":10485:10872  {... */\n      pop\n        /* \"@openzeppelin/contracts/token/ERC20/ERC20.sol\":10396:10872  function _spendAllowance(address owner, address spender, uint256 value) internal virtual {... */\n      pop\n      pop\n      pop\n      jump\t// out\n        /* \"@openzeppelin/contracts/token/ERC20/ERC20.sol\":5374:5674  function _transfer(address from, address to, uint256 value) internal {... */\n    tag_419:\n        /* \"@openzeppelin/contracts/token/ERC20/ERC20.sol\":5473:5474  0 */\n      0x00\n        /* \"@openzeppelin/contracts/token/ERC20/ERC20.sol\":5457:5475  from == address(0) */\n      0xffffffffffffffffffffffffffffffffffffffff\n      and\n        /* \"@openzeppelin/contracts/token/ERC20/ERC20.sol\":5457:5461  from */\n      dup4\n        /* \"@openzeppelin/contracts/token/ERC20/ERC20.sol\":5457:5475  from == address(0) */\n      0xffffffffffffffffffffffffffffffffffffffff\n      and\n      sub\n        /* \"@openzeppelin/contracts/token/ERC20/ERC20.sol\":5453:5539  if (from == address(0)) {... */\n      tag_468\n      jumpi\n        /* \"@openzeppelin/contracts/token/ERC20/ERC20.sol\":5525:5526  0 */\n      0x00\n        /* \"@openzeppelin/contracts/token/ERC20/ERC20.sol\":5498:5528  ERC20InvalidSender(address(0)) */\n      mload(0x40)\n      0x96c6fd1e00000000000000000000000000000000000000000000000000000000\n      dup2\n      mstore\n      0x04\n      add\n      tag_469\n      swap2\n      swap1\n      tag_118\n      jump\t// in\n    tag_469:\n      mload(0x40)\n      dup1\n      swap2\n      sub\n      swap1\n      revert\n        /* \"@openzeppelin/contracts/token/ERC20/ERC20.sol\":5453:5539  if (from == address(0)) {... */\n    tag_468:\n        /* \"@openzeppelin/contracts/token/ERC20/ERC20.sol\":5566:5567  0 */\n      0x00\n        /* \"@openzeppelin/contracts/token/ERC20/ERC20.sol\":5552:5568  to == address(0) */\n      0xffffffffffffffffffffffffffffffffffffffff\n      and\n        /* \"@openzeppelin/contracts/token/ERC20/ERC20.sol\":5552:5554  to */\n      dup3\n        /* \"@openzeppelin/contracts/token/ERC20/ERC20.sol\":5552:5568  to == address(0) */\n      0xffffffffffffffffffffffffffffffffffffffff\n      and\n      sub\n        /* \"@openzeppelin/contracts/token/ERC20/ERC20.sol\":5548:5634  if (to == address(0)) {... */\n      tag_470\n      jumpi\n        /* \"@openzeppelin/contracts/token/ERC20/ERC20.sol\":5620:5621  0 */\n      0x00\n        /* \"@openzeppelin/contracts/token/ERC20/ERC20.sol\":5591:5623  ERC20InvalidReceiver(address(0)) */\n      mload(0x40)\n      0xec442f0500000000000000000000000000000000000000000000000000000000\n      dup2\n      mstore\n      0x04\n      add\n      tag_471\n      swap2\n      swap1\n      tag_118\n      jump\t// in\n    tag_471:\n      mload(0x40)\n      dup1\n      swap2\n      sub\n      swap1\n      revert\n        /* \"@openzeppelin/contracts/token/ERC20/ERC20.sol\":5548:5634  if (to == address(0)) {... */\n    tag_470:\n        /* \"@openzeppelin/contracts/token/ERC20/ERC20.sol\":5643:5667  _update(from, to, value) */\n      tag_472\n        /* \"@openzeppelin/contracts/token/ERC20/ERC20.sol\":5651:5655  from */\n      dup4\n        /* \"@openzeppelin/contracts/token/ERC20/ERC20.sol\":5657:5659  to */\n      dup4\n        /* \"@openzeppelin/contracts/token/ERC20/ERC20.sol\":5661:5666  value */\n      dup4\n        /* \"@openzeppelin/contracts/token/ERC20/ERC20.sol\":5643:5650  _update */\n      tag_398\n        /* \"@openzeppelin/contracts/token/ERC20/ERC20.sol\":5643:5667  _update(from, to, value) */\n      jump\t// in\n    tag_472:\n        /* \"@openzeppelin/contracts/token/ERC20/ERC20.sol\":5374:5674  function _transfer(address from, address to, uint256 value) internal {... */\n      pop\n      pop\n      pop\n      jump\t// out\n        /* \"@openzeppelin/contracts/token/ERC20/ERC20.sol\":5989:7096  function _update(address from, address to, uint256 value) internal virtual {... */\n    tag_446:\n        /* \"@openzeppelin/contracts/token/ERC20/ERC20.sol\":6094:6095  0 */\n      0x00\n        /* \"@openzeppelin/contracts/token/ERC20/ERC20.sol\":6078:6096  from == address(0) */\n      0xffffffffffffffffffffffffffffffffffffffff\n      and\n        /* \"@openzeppelin/contracts/token/ERC20/ERC20.sol\":6078:6082  from */\n      dup4\n        /* \"@openzeppelin/contracts/token/ERC20/ERC20.sol\":6078:6096  from == address(0) */\n      0xffffffffffffffffffffffffffffffffffffffff\n      and\n      sub\n        /* \"@openzeppelin/contracts/token/ERC20/ERC20.sol\":6074:6614  if (from == address(0)) {... */\n      tag_474\n      jumpi\n        /* \"@openzeppelin/contracts/token/ERC20/ERC20.sol\":6230:6235  value */\n      dup1\n        /* \"@openzeppelin/contracts/token/ERC20/ERC20.sol\":6214:6226  _totalSupply */\n      0x02\n      0x00\n        /* \"@openzeppelin/contracts/token/ERC20/ERC20.sol\":6214:6235  _totalSupply += value */\n      dup3\n      dup3\n      sload\n      tag_475\n      swap2\n      swap1\n      tag_476\n      jump\t// in\n    tag_475:\n      swap3\n      pop\n      pop\n      dup2\n      swap1\n      sstore\n      pop\n        /* \"@openzeppelin/contracts/token/ERC20/ERC20.sol\":6074:6614  if (from == address(0)) {... */\n      jump(tag_477)\n    tag_474:\n        /* \"@openzeppelin/contracts/token/ERC20/ERC20.sol\":6266:6285  uint256 fromBalance */\n      0x00\n        /* \"@openzeppelin/contracts/token/ERC20/ERC20.sol\":6288:6297  _balances */\n      dup1\n        /* \"@openzeppelin/contracts/token/ERC20/ERC20.sol\":6288:6303  _balances[from] */\n      0x00\n        /* \"@openzeppelin/contracts/token/ERC20/ERC20.sol\":6298:6302  from */\n      dup6\n        /* \"@openzeppelin/contracts/token/ERC20/ERC20.sol\":6288:6303  _balances[from] */\n      0xffffffffffffffffffffffffffffffffffffffff\n      and\n      0xffffffffffffffffffffffffffffffffffffffff\n      and\n      dup2\n      mstore\n      0x20\n      add\n      swap1\n      dup2\n      mstore\n      0x20\n      add\n      0x00\n      keccak256\n      sload\n        /* \"@openzeppelin/contracts/token/ERC20/ERC20.sol\":6266:6303  uint256 fromBalance = _balances[from] */\n      swap1\n      pop\n        /* \"@openzeppelin/contracts/token/ERC20/ERC20.sol\":6335:6340  value */\n      dup2\n        /* \"@openzeppelin/contracts/token/ERC20/ERC20.sol\":6321:6332  fromBalance */\n      dup2\n        /* \"@openzeppelin/contracts/token/ERC20/ERC20.sol\":6321:6340  fromBalance < value */\n      lt\n        /* \"@openzeppelin/contracts/token/ERC20/ERC20.sol\":6317:6432  if (fromBalance < value) {... */\n      iszero\n      tag_478\n      jumpi\n        /* \"@openzeppelin/contracts/token/ERC20/ERC20.sol\":6392:6396  from */\n      dup4\n        /* \"@openzeppelin/contracts/token/ERC20/ERC20.sol\":6398:6409  fromBalance */\n      dup2\n        /* \"@openzeppelin/contracts/token/ERC20/ERC20.sol\":6411:6416  value */\n      dup4\n        /* \"@openzeppelin/contracts/token/ERC20/ERC20.sol\":6367:6417  ERC20InsufficientBalance(from, fromBalance, value) */\n      mload(0x40)\n      0xe450d38c00000000000000000000000000000000000000000000000000000000\n      dup2\n      mstore\n      0x04\n      add\n      tag_479\n      swap4\n      swap3\n      swap2\n      swap1\n      tag_465\n      jump\t// in\n    tag_479:\n      mload(0x40)\n      dup1\n      swap2\n      sub\n      swap1\n      revert\n        /* \"@openzeppelin/contracts/token/ERC20/ERC20.sol\":6317:6432  if (fromBalance < value) {... */\n    tag_478:\n        /* \"@openzeppelin/contracts/token/ERC20/ERC20.sol\":6584:6589  value */\n      dup2\n        /* \"@openzeppelin/contracts/token/ERC20/ERC20.sol\":6570:6581  fromBalance */\n      dup2\n        /* \"@openzeppelin/contracts/token/ERC20/ERC20.sol\":6570:6589  fromBalance - value */\n      sub\n        /* \"@openzeppelin/contracts/token/ERC20/ERC20.sol\":6552:6561  _balances */\n      0x00\n        /* \"@openzeppelin/contracts/token/ERC20/ERC20.sol\":6552:6567  _balances[from] */\n      dup1\n        /* \"@openzeppelin/contracts/token/ERC20/ERC20.sol\":6562:6566  from */\n      dup7\n        /* \"@openzeppelin/contracts/token/ERC20/ERC20.sol\":6552:6567  _balances[from] */\n      0xffffffffffffffffffffffffffffffffffffffff\n      and\n      0xffffffffffffffffffffffffffffffffffffffff\n      and\n      dup2\n      mstore\n      0x20\n      add\n      swap1\n      dup2\n      mstore\n      0x20\n      add\n      0x00\n      keccak256\n        /* \"@openzeppelin/contracts/token/ERC20/ERC20.sol\":6552:6589  _balances[from] = fromBalance - value */\n      dup2\n      swap1\n      sstore\n      pop\n        /* \"@openzeppelin/contracts/token/ERC20/ERC20.sol\":6252:6614  {... */\n      pop\n        /* \"@openzeppelin/contracts/token/ERC20/ERC20.sol\":6074:6614  if (from == address(0)) {... */\n    tag_477:\n        /* \"@openzeppelin/contracts/token/ERC20/ERC20.sol\":6642:6643  0 */\n      0x00\n        /* \"@openzeppelin/contracts/token/ERC20/ERC20.sol\":6628:6644  to == address(0) */\n      0xffffffffffffffffffffffffffffffffffffffff\n      and\n        /* \"@openzeppelin/contracts/token/ERC20/ERC20.sol\":6628:6630  to */\n      dup3\n        /* \"@openzeppelin/contracts/token/ERC20/ERC20.sol\":6628:6644  to == address(0) */\n      0xffffffffffffffffffffffffffffffffffffffff\n      and\n      sub\n        /* \"@openzeppelin/contracts/token/ERC20/ERC20.sol\":6624:7049  if (to == address(0)) {... */\n      tag_480\n      jumpi\n        /* \"@openzeppelin/contracts/token/ERC20/ERC20.sol\":6807:6812  value */\n      dup1\n        /* \"@openzeppelin/contracts/token/ERC20/ERC20.sol\":6791:6803  _totalSupply */\n      0x02\n      0x00\n        /* \"@openzeppelin/contracts/token/ERC20/ERC20.sol\":6791:6812  _totalSupply -= value */\n      dup3\n      dup3\n      sload\n      sub\n      swap3\n      pop\n      pop\n      dup2\n      swap1\n      sstore\n      pop\n        /* \"@openzeppelin/contracts/token/ERC20/ERC20.sol\":6624:7049  if (to == address(0)) {... */\n      jump(tag_481)\n    tag_480:\n        /* \"@openzeppelin/contracts/token/ERC20/ERC20.sol\":7019:7024  value */\n      dup1\n        /* \"@openzeppelin/contracts/token/ERC20/ERC20.sol\":7002:7011  _balances */\n      0x00\n        /* \"@openzeppelin/contracts/token/ERC20/ERC20.sol\":7002:7015  _balances[to] */\n      dup1\n        /* \"@openzeppelin/contracts/token/ERC20/ERC20.sol\":7012:7014  to */\n      dup5\n        /* \"@openzeppelin/contracts/token/ERC20/ERC20.sol\":7002:7015  _balances[to] */\n      0xffffffffffffffffffffffffffffffffffffffff\n      and\n      0xffffffffffffffffffffffffffffffffffffffff\n      and\n      dup2\n      mstore\n      0x20\n      add\n      swap1\n      dup2\n      mstore\n      0x20\n      add\n      0x00\n      keccak256\n      0x00\n        /* \"@openzeppelin/contracts/token/ERC20/ERC20.sol\":7002:7024  _balances[to] += value */\n      dup3\n      dup3\n      sload\n      add\n      swap3\n      pop\n      pop\n      dup2\n      swap1\n      sstore\n      pop\n        /* \"@openzeppelin/contracts/token/ERC20/ERC20.sol\":6624:7049  if (to == address(0)) {... */\n    tag_481:\n        /* \"@openzeppelin/contracts/token/ERC20/ERC20.sol\":7079:7081  to */\n      dup2\n        /* \"@openzeppelin/contracts/token/ERC20/ERC20.sol\":7064:7089  Transfer(from, to, value) */\n      0xffffffffffffffffffffffffffffffffffffffff\n      and\n        /* \"@openzeppelin/contracts/token/ERC20/ERC20.sol\":7073:7077  from */\n      dup4\n        /* \"@openzeppelin/contracts/token/ERC20/ERC20.sol\":7064:7089  Transfer(from, to, value) */\n      0xffffffffffffffffffffffffffffffffffffffff\n      and\n      0xddf252ad1be2c89b69c2b068fc378daa952ba7f163c4a11628f55a4df523b3ef\n        /* \"@openzeppelin/contracts/token/ERC20/ERC20.sol\":7083:7088  value */\n      dup4\n        /* \"@openzeppelin/contracts/token/ERC20/ERC20.sol\":7064:7089  Transfer(from, to, value) */\n      mload(0x40)\n      tag_482\n      swap2\n      swap1\n      tag_73\n      jump\t// in\n    tag_482:\n      mload(0x40)\n      dup1\n      swap2\n      sub\n      swap1\n      log3\n        /* \"@openzeppelin/contracts/token/ERC20/ERC20.sol\":5989:7096  function _update(address from, address to, uint256 value) internal virtual {... */\n      pop\n      pop\n      pop\n      jump\t// out\n        /* \"#utility.yul\":88:205   */\n    tag_484:\n        /* \"#utility.yul\":197:198   */\n      0x00\n        /* \"#utility.yul\":194:195   */\n      dup1\n        /* \"#utility.yul\":187:199   */\n      revert\n        /* \"#utility.yul\":334:483   */\n    tag_486:\n        /* \"#utility.yul\":370:377   */\n      0x00\n        /* \"#utility.yul\":410:476   */\n      0xffffffff00000000000000000000000000000000000000000000000000000000\n        /* \"#utility.yul\":403:408   */\n      dup3\n        /* \"#utility.yul\":399:477   */\n      and\n        /* \"#utility.yul\":388:477   */\n      swap1\n      pop\n        /* \"#utility.yul\":334:483   */\n      swap2\n      swap1\n      pop\n      jump\t// out\n        /* \"#utility.yul\":489:609   */\n    tag_487:\n        /* \"#utility.yul\":561:584   */\n      tag_558\n        /* \"#utility.yul\":578:583   */\n      dup2\n        /* \"#utility.yul\":561:584   */\n      tag_486\n      jump\t// in\n    tag_558:\n        /* \"#utility.yul\":554:559   */\n      dup2\n        /* \"#utility.yul\":551:585   */\n      eq\n        /* \"#utility.yul\":541:603   */\n      tag_559\n      jumpi\n        /* \"#utility.yul\":599:600   */\n      0x00\n        /* \"#utility.yul\":596:597   */\n      dup1\n        /* \"#utility.yul\":589:601   */\n      revert\n        /* \"#utility.yul\":541:603   */\n    tag_559:\n        /* \"#utility.yul\":489:609   */\n      pop\n      jump\t// out\n        /* \"#utility.yul\":615:752   */\n    tag_488:\n        /* \"#utility.yul\":660:665   */\n      0x00\n        /* \"#utility.yul\":698:704   */\n      dup2\n        /* \"#utility.yul\":685:705   */\n      calldataload\n        /* \"#utility.yul\":676:705   */\n      swap1\n      pop\n        /* \"#utility.yul\":714:746   */\n      tag_561\n        /* \"#utility.yul\":740:745   */\n      dup2\n        /* \"#utility.yul\":714:746   */\n      tag_487\n      jump\t// in\n    tag_561:\n        /* \"#utility.yul\":615:752   */\n      swap3\n      swap2\n      pop\n      pop\n      jump\t// out\n        /* \"#utility.yul\":758:1085   */\n    tag_50:\n        /* \"#utility.yul\":816:822   */\n      0x00\n        /* \"#utility.yul\":865:867   */\n      0x20\n        /* \"#utility.yul\":853:862   */\n      dup3\n        /* \"#utility.yul\":844:851   */\n      dup5\n        /* \"#utility.yul\":840:863   */\n      sub\n        /* \"#utility.yul\":836:868   */\n      slt\n        /* \"#utility.yul\":833:952   */\n      iszero\n      tag_563\n      jumpi\n        /* \"#utility.yul\":871:950   */\n      tag_564\n      tag_484\n      jump\t// in\n    tag_564:\n        /* \"#utility.yul\":833:952   */\n    tag_563:\n        /* \"#utility.yul\":991:992   */\n      0x00\n        /* \"#utility.yul\":1016:1068   */\n      tag_565\n        /* \"#utility.yul\":1060:1067   */\n      dup5\n        /* \"#utility.yul\":1051:1057   */\n      dup3\n        /* \"#utility.yul\":1040:1049   */\n      dup6\n        /* \"#utility.yul\":1036:1058   */\n      add\n        /* \"#utility.yul\":1016:1068   */\n      tag_488\n      jump\t// in\n    tag_565:\n        /* \"#utility.yul\":1006:1068   */\n      swap2\n      pop\n        /* \"#utility.yul\":962:1078   */\n      pop\n        /* \"#utility.yul\":758:1085   */\n      swap3\n      swap2\n      pop\n      pop\n      jump\t// out\n        /* \"#utility.yul\":1091:1181   */\n    tag_489:\n        /* \"#utility.yul\":1125:1132   */\n      0x00\n        /* \"#utility.yul\":1168:1173   */\n      dup2\n        /* \"#utility.yul\":1161:1174   */\n      iszero\n        /* \"#utility.yul\":1154:1175   */\n      iszero\n        /* \"#utility.yul\":1143:1175   */\n      swap1\n      pop\n        /* \"#utility.yul\":1091:1181   */\n      swap2\n      swap1\n      pop\n      jump\t// out\n        /* \"#utility.yul\":1187:1296   */\n    tag_490:\n        /* \"#utility.yul\":1268:1289   */\n      tag_568\n        /* \"#utility.yul\":1283:1288   */\n      dup2\n        /* \"#utility.yul\":1268:1289   */\n      tag_489\n      jump\t// in\n    tag_568:\n        /* \"#utility.yul\":1263:1266   */\n      dup3\n        /* \"#utility.yul\":1256:1290   */\n      mstore\n        /* \"#utility.yul\":1187:1296   */\n      pop\n      pop\n      jump\t// out\n        /* \"#utility.yul\":1302:1512   */\n    tag_53:\n        /* \"#utility.yul\":1389:1393   */\n      0x00\n        /* \"#utility.yul\":1427:1429   */\n      0x20\n        /* \"#utility.yul\":1416:1425   */\n      dup3\n        /* \"#utility.yul\":1412:1430   */\n      add\n        /* \"#utility.yul\":1404:1430   */\n      swap1\n      pop\n        /* \"#utility.yul\":1440:1505   */\n      tag_570\n        /* \"#utility.yul\":1502:1503   */\n      0x00\n        /* \"#utility.yul\":1491:1500   */\n      dup4\n        /* \"#utility.yul\":1487:1504   */\n      add\n        /* \"#utility.yul\":1478:1484   */\n      dup5\n        /* \"#utility.yul\":1440:1505   */\n      tag_490\n      jump\t// in\n    tag_570:\n        /* \"#utility.yul\":1302:1512   */\n      swap3\n      swap2\n      pop\n      pop\n      jump\t// out\n        /* \"#utility.yul\":1518:1644   */\n    tag_491:\n        /* \"#utility.yul\":1555:1562   */\n      0x00\n        /* \"#utility.yul\":1595:1637   */\n      0xffffffffffffffffffffffffffffffffffffffff\n        /* \"#utility.yul\":1588:1593   */\n      dup3\n        /* \"#utility.yul\":1584:1638   */\n      and\n        /* \"#utility.yul\":1573:1638   */\n      swap1\n      pop\n        /* \"#utility.yul\":1518:1644   */\n      swap2\n      swap1\n      pop\n      jump\t// out\n        /* \"#utility.yul\":1650:1746   */\n    tag_492:\n        /* \"#utility.yul\":1687:1694   */\n      0x00\n        /* \"#utility.yul\":1716:1740   */\n      tag_573\n        /* \"#utility.yul\":1734:1739   */\n      dup3\n        /* \"#utility.yul\":1716:1740   */\n      tag_491\n      jump\t// in\n    tag_573:\n        /* \"#utility.yul\":1705:1740   */\n      swap1\n      pop\n        /* \"#utility.yul\":1650:1746   */\n      swap2\n      swap1\n      pop\n      jump\t// out\n        /* \"#utility.yul\":1752:1874   */\n    tag_493:\n        /* \"#utility.yul\":1825:1849   */\n      tag_575\n        /* \"#utility.yul\":1843:1848   */\n      dup2\n        /* \"#utility.yul\":1825:1849   */\n      tag_492\n      jump\t// in\n    tag_575:\n        /* \"#utility.yul\":1818:1823   */\n      dup2\n        /* \"#utility.yul\":1815:1850   */\n      eq\n        /* \"#utility.yul\":1805:1868   */\n      tag_576\n      jumpi\n        /* \"#utility.yul\":1864:1865   */\n      0x00\n        /* \"#utility.yul\":1861:1862   */\n      dup1\n        /* \"#utility.yul\":1854:1866   */\n      revert\n        /* \"#utility.yul\":1805:1868   */\n    tag_576:\n        /* \"#utility.yul\":1752:1874   */\n      pop\n      jump\t// out\n        /* \"#utility.yul\":1880:2019   */\n    tag_494:\n        /* \"#utility.yul\":1926:1931   */\n      0x00\n        /* \"#utility.yul\":1964:1970   */\n      dup2\n        /* \"#utility.yul\":1951:1971   */\n      calldataload\n        /* \"#utility.yul\":1942:1971   */\n      swap1\n      pop\n        /* \"#utility.yul\":1980:2013   */\n      tag_578\n        /* \"#utility.yul\":2007:2012   */\n      dup2\n        /* \"#utility.yul\":1980:2013   */\n      tag_493\n      jump\t// in\n    tag_578:\n        /* \"#utility.yul\":1880:2019   */\n      swap3\n      swap2\n      pop\n      pop\n      jump\t// out\n        /* \"#utility.yul\":2025:2102   */\n    tag_495:\n        /* \"#utility.yul\":2062:2069   */\n      0x00\n        /* \"#utility.yul\":2091:2096   */\n      dup2\n        /* \"#utility.yul\":2080:2096   */\n      swap1\n      pop\n        /* \"#utility.yul\":2025:2102   */\n      swap2\n      swap1\n      pop\n      jump\t// out\n        /* \"#utility.yul\":2108:2230   */\n    tag_496:\n        /* \"#utility.yul\":2181:2205   */\n      tag_581\n        /* \"#utility.yul\":2199:2204   */\n      dup2\n        /* \"#utility.yul\":2181:2205   */\n      tag_495\n      jump\t// in\n    tag_581:\n        /* \"#utility.yul\":2174:2179   */\n      dup2\n        /* \"#utility.yul\":2171:2206   */\n      eq\n        /* \"#utility.yul\":2161:2224   */\n      tag_582\n      jumpi\n        /* \"#utility.yul\":2220:2221   */\n      0x00\n        /* \"#utility.yul\":2217:2218   */\n      dup1\n        /* \"#utility.yul\":2210:2222   */\n      revert\n        /* \"#utility.yul\":2161:2224   */\n    tag_582:\n        /* \"#utility.yul\":2108:2230   */\n      pop\n      jump\t// out\n        /* \"#utility.yul\":2236:2375   */\n    tag_497:\n        /* \"#utility.yul\":2282:2287   */\n      0x00\n        /* \"#utility.yul\":2320:2326   */\n      dup2\n        /* \"#utility.yul\":2307:2327   */\n      calldataload\n        /* \"#utility.yul\":2298:2327   */\n      swap1\n      pop\n        /* \"#utility.yul\":2336:2369   */\n      tag_584\n        /* \"#utility.yul\":2363:2368   */\n      dup2\n        /* \"#utility.yul\":2336:2369   */\n      tag_496\n      jump\t// in\n    tag_584:\n        /* \"#utility.yul\":2236:2375   */\n      swap3\n      swap2\n      pop\n      pop\n      jump\t// out\n        /* \"#utility.yul\":2381:2855   */\n    tag_57:\n        /* \"#utility.yul\":2449:2455   */\n      0x00\n        /* \"#utility.yul\":2457:2463   */\n      dup1\n        /* \"#utility.yul\":2506:2508   */\n      0x40\n        /* \"#utility.yul\":2494:2503   */\n      dup4\n        /* \"#utility.yul\":2485:2492   */\n      dup6\n        /* \"#utility.yul\":2481:2504   */\n      sub\n        /* \"#utility.yul\":2477:2509   */\n      slt\n        /* \"#utility.yul\":2474:2593   */\n      iszero\n      tag_586\n      jumpi\n        /* \"#utility.yul\":2512:2591   */\n      tag_587\n      tag_484\n      jump\t// in\n    tag_587:\n        /* \"#utility.yul\":2474:2593   */\n    tag_586:\n        /* \"#utility.yul\":2632:2633   */\n      0x00\n        /* \"#utility.yul\":2657:2710   */\n      tag_588\n        /* \"#utility.yul\":2702:2709   */\n      dup6\n        /* \"#utility.yul\":2693:2699   */\n      dup3\n        /* \"#utility.yul\":2682:2691   */\n      dup7\n        /* \"#utility.yul\":2678:2700   */\n      add\n        /* \"#utility.yul\":2657:2710   */\n      tag_494\n      jump\t// in\n    tag_588:\n        /* \"#utility.yul\":2647:2710   */\n      swap3\n      pop\n        /* \"#utility.yul\":2603:2720   */\n      pop\n        /* \"#utility.yul\":2759:2761   */\n      0x20\n        /* \"#utility.yul\":2785:2838   */\n      tag_589\n        /* \"#utility.yul\":2830:2837   */\n      dup6\n        /* \"#utility.yul\":2821:2827   */\n      dup3\n        /* \"#utility.yul\":2810:2819   */\n      dup7\n        /* \"#utility.yul\":2806:2828   */\n      add\n        /* \"#utility.yul\":2785:2838   */\n      tag_497\n      jump\t// in\n    tag_589:\n        /* \"#utility.yul\":2775:2838   */\n      swap2\n      pop\n        /* \"#utility.yul\":2730:2848   */\n      pop\n        /* \"#utility.yul\":2381:2855   */\n      swap3\n      pop\n      swap3\n      swap1\n      pop\n      jump\t// out\n        /* \"#utility.yul\":2861:2960   */\n    tag_498:\n        /* \"#utility.yul\":2913:2919   */\n      0x00\n        /* \"#utility.yul\":2947:2952   */\n      dup2\n        /* \"#utility.yul\":2941:2953   */\n      mload\n        /* \"#utility.yul\":2931:2953   */\n      swap1\n      pop\n        /* \"#utility.yul\":2861:2960   */\n      swap2\n      swap1\n      pop\n      jump\t// out\n        /* \"#utility.yul\":2966:3135   */\n    tag_499:\n        /* \"#utility.yul\":3050:3061   */\n      0x00\n        /* \"#utility.yul\":3084:3090   */\n      dup3\n        /* \"#utility.yul\":3079:3082   */\n      dup3\n        /* \"#utility.yul\":3072:3091   */\n      mstore\n        /* \"#utility.yul\":3124:3128   */\n      0x20\n        /* \"#utility.yul\":3119:3122   */\n      dup3\n        /* \"#utility.yul\":3115:3129   */\n      add\n        /* \"#utility.yul\":3100:3129   */\n      swap1\n      pop\n        /* \"#utility.yul\":2966:3135   */\n      swap3\n      swap2\n      pop\n      pop\n      jump\t// out\n        /* \"#utility.yul\":3141:3280   */\n    tag_500:\n        /* \"#utility.yul\":3230:3236   */\n      dup3\n        /* \"#utility.yul\":3225:3228   */\n      dup2\n        /* \"#utility.yul\":3220:3223   */\n      dup4\n        /* \"#utility.yul\":3214:3237   */\n      mcopy\n        /* \"#utility.yul\":3271:3272   */\n      0x00\n        /* \"#utility.yul\":3262:3268   */\n      dup4\n        /* \"#utility.yul\":3257:3260   */\n      dup4\n        /* \"#utility.yul\":3253:3269   */\n      add\n        /* \"#utility.yul\":3246:3273   */\n      mstore\n        /* \"#utility.yul\":3141:3280   */\n      pop\n      pop\n      pop\n      jump\t// out\n        /* \"#utility.yul\":3286:3388   */\n    tag_501:\n        /* \"#utility.yul\":3327:3333   */\n      0x00\n        /* \"#utility.yul\":3378:3380   */\n      0x1f\n        /* \"#utility.yul\":3374:3381   */\n      not\n        /* \"#utility.yul\":3369:3371   */\n      0x1f\n        /* \"#utility.yul\":3362:3367   */\n      dup4\n        /* \"#utility.yul\":3358:3372   */\n      add\n        /* \"#utility.yul\":3354:3382   */\n      and\n        /* \"#utility.yul\":3344:3382   */\n      swap1\n      pop\n        /* \"#utility.yul\":3286:3388   */\n      swap2\n      swap1\n      pop\n      jump\t// out\n        /* \"#utility.yul\":3394:3771   */\n    tag_502:\n        /* \"#utility.yul\":3482:3485   */\n      0x00\n        /* \"#utility.yul\":3510:3549   */\n      tag_595\n        /* \"#utility.yul\":3543:3548   */\n      dup3\n        /* \"#utility.yul\":3510:3549   */\n      tag_498\n      jump\t// in\n    tag_595:\n        /* \"#utility.yul\":3565:3636   */\n      tag_596\n        /* \"#utility.yul\":3629:3635   */\n      dup2\n        /* \"#utility.yul\":3624:3627   */\n      dup6\n        /* \"#utility.yul\":3565:3636   */\n      tag_499\n      jump\t// in\n    tag_596:\n        /* \"#utility.yul\":3558:3636   */\n      swap4\n      pop\n        /* \"#utility.yul\":3645:3710   */\n      tag_597\n        /* \"#utility.yul\":3703:3709   */\n      dup2\n        /* \"#utility.yul\":3698:3701   */\n      dup6\n        /* \"#utility.yul\":3691:3695   */\n      0x20\n        /* \"#utility.yul\":3684:3689   */\n      dup7\n        /* \"#utility.yul\":3680:3696   */\n      add\n        /* \"#utility.yul\":3645:3710   */\n      tag_500\n      jump\t// in\n    tag_597:\n        /* \"#utility.yul\":3735:3764   */\n      tag_598\n        /* \"#utility.yul\":3757:3763   */\n      dup2\n        /* \"#utility.yul\":3735:3764   */\n      tag_501\n      jump\t// in\n    tag_598:\n        /* \"#utility.yul\":3730:3733   */\n      dup5\n        /* \"#utility.yul\":3726:3765   */\n      add\n        /* \"#utility.yul\":3719:3765   */\n      swap2\n      pop\n        /* \"#utility.yul\":3486:3771   */\n      pop\n        /* \"#utility.yul\":3394:3771   */\n      swap3\n      swap2\n      pop\n      pop\n      jump\t// out\n        /* \"#utility.yul\":3777:4090   */\n    tag_63:\n        /* \"#utility.yul\":3890:3894   */\n      0x00\n        /* \"#utility.yul\":3928:3930   */\n      0x20\n        /* \"#utility.yul\":3917:3926   */\n      dup3\n        /* \"#utility.yul\":3913:3931   */\n      add\n        /* \"#utility.yul\":3905:3931   */\n      swap1\n      pop\n        /* \"#utility.yul\":3977:3986   */\n      dup2\n        /* \"#utility.yul\":3971:3975   */\n      dup2\n        /* \"#utility.yul\":3967:3987   */\n      sub\n        /* \"#utility.yul\":3963:3964   */\n      0x00\n        /* \"#utility.yul\":3952:3961   */\n      dup4\n        /* \"#utility.yul\":3948:3965   */\n      add\n        /* \"#utility.yul\":3941:3988   */\n      mstore\n        /* \"#utility.yul\":4005:4083   */\n      tag_600\n        /* \"#utility.yul\":4078:4082   */\n      dup2\n        /* \"#utility.yul\":4069:4075   */\n      dup5\n        /* \"#utility.yul\":4005:4083   */\n      tag_502\n      jump\t// in\n    tag_600:\n        /* \"#utility.yul\":3997:4083   */\n      swap1\n      pop\n        /* \"#utility.yul\":3777:4090   */\n      swap3\n      swap2\n      pop\n      pop\n      jump\t// out\n        /* \"#utility.yul\":4096:4214   */\n    tag_503:\n        /* \"#utility.yul\":4183:4207   */\n      tag_602\n        /* \"#utility.yul\":4201:4206   */\n      dup2\n        /* \"#utility.yul\":4183:4207   */\n      tag_495\n      jump\t// in\n    tag_602:\n        /* \"#utility.yul\":4178:4181   */\n      dup3\n        /* \"#utility.yul\":4171:4208   */\n      mstore\n        /* \"#utility.yul\":4096:4214   */\n      pop\n      pop\n      jump\t// out\n        /* \"#utility.yul\":4220:4442   */\n    tag_73:\n        /* \"#utility.yul\":4313:4317   */\n      0x00\n        /* \"#utility.yul\":4351:4353   */\n      0x20\n        /* \"#utility.yul\":4340:4349   */\n      dup3\n        /* \"#utility.yul\":4336:4354   */\n      add\n        /* \"#utility.yul\":4328:4354   */\n      swap1\n      pop\n        /* \"#utility.yul\":4364:4435   */\n      tag_604\n        /* \"#utility.yul\":4432:4433   */\n      0x00\n        /* \"#utility.yul\":4421:4430   */\n      dup4\n        /* \"#utility.yul\":4417:4434   */\n      add\n        /* \"#utility.yul\":4408:4414   */\n      dup5\n        /* \"#utility.yul\":4364:4435   */\n      tag_503\n      jump\t// in\n    tag_604:\n        /* \"#utility.yul\":4220:4442   */\n      swap3\n      swap2\n      pop\n      pop\n      jump\t// out\n        /* \"#utility.yul\":4448:5067   */\n    tag_77:\n        /* \"#utility.yul\":4525:4531   */\n      0x00\n        /* \"#utility.yul\":4533:4539   */\n      dup1\n        /* \"#utility.yul\":4541:4547   */\n      0x00\n        /* \"#utility.yul\":4590:4592   */\n      0x60\n        /* \"#utility.yul\":4578:4587   */\n      dup5\n        /* \"#utility.yul\":4569:4576   */\n      dup7\n        /* \"#utility.yul\":4565:4588   */\n      sub\n        /* \"#utility.yul\":4561:4593   */\n      slt\n        /* \"#utility.yul\":4558:4677   */\n      iszero\n      tag_606\n      jumpi\n        /* \"#utility.yul\":4596:4675   */\n      tag_607\n      tag_484\n      jump\t// in\n    tag_607:\n        /* \"#utility.yul\":4558:4677   */\n    tag_606:\n        /* \"#utility.yul\":4716:4717   */\n      0x00\n        /* \"#utility.yul\":4741:4794   */\n      tag_608\n        /* \"#utility.yul\":4786:4793   */\n      dup7\n        /* \"#utility.yul\":4777:4783   */\n      dup3\n        /* \"#utility.yul\":4766:4775   */\n      dup8\n        /* \"#utility.yul\":4762:4784   */\n      add\n        /* \"#utility.yul\":4741:4794   */\n      tag_494\n      jump\t// in\n    tag_608:\n        /* \"#utility.yul\":4731:4794   */\n      swap4\n      pop\n        /* \"#utility.yul\":4687:4804   */\n      pop\n        /* \"#utility.yul\":4843:4845   */\n      0x20\n        /* \"#utility.yul\":4869:4922   */\n      tag_609\n        /* \"#utility.yul\":4914:4921   */\n      dup7\n        /* \"#utility.yul\":4905:4911   */\n      dup3\n        /* \"#utility.yul\":4894:4903   */\n      dup8\n        /* \"#utility.yul\":4890:4912   */\n      add\n        /* \"#utility.yul\":4869:4922   */\n      tag_494\n      jump\t// in\n    tag_609:\n        /* \"#utility.yul\":4859:4922   */\n      swap3\n      pop\n        /* \"#utility.yul\":4814:4932   */\n      pop\n        /* \"#utility.yul\":4971:4973   */\n      0x40\n        /* \"#utility.yul\":4997:5050   */\n      tag_610\n        /* \"#utility.yul\":5042:5049   */\n      dup7\n        /* \"#utility.yul\":5033:5039   */\n      dup3\n        /* \"#utility.yul\":5022:5031   */\n      dup8\n        /* \"#utility.yul\":5018:5040   */\n      add\n        /* \"#utility.yul\":4997:5050   */\n      tag_497\n      jump\t// in\n    tag_610:\n        /* \"#utility.yul\":4987:5050   */\n      swap2\n      pop\n        /* \"#utility.yul\":4942:5060   */\n      pop\n        /* \"#utility.yul\":4448:5067   */\n      swap3\n      pop\n      swap3\n      pop\n      swap3\n      jump\t// out\n        /* \"#utility.yul\":5073:5150   */\n    tag_504:\n        /* \"#utility.yul\":5110:5117   */\n      0x00\n        /* \"#utility.yul\":5139:5144   */\n      dup2\n        /* \"#utility.yul\":5128:5144   */\n      swap1\n      pop\n        /* \"#utility.yul\":5073:5150   */\n      swap2\n      swap1\n      pop\n      jump\t// out\n        /* \"#utility.yul\":5156:5278   */\n    tag_505:\n        /* \"#utility.yul\":5229:5253   */\n      tag_613\n        /* \"#utility.yul\":5247:5252   */\n      dup2\n        /* \"#utility.yul\":5229:5253   */\n      tag_504\n      jump\t// in\n    tag_613:\n        /* \"#utility.yul\":5222:5227   */\n      dup2\n        /* \"#utility.yul\":5219:5254   */\n      eq\n        /* \"#utility.yul\":5209:5272   */\n      tag_614\n      jumpi\n        /* \"#utility.yul\":5268:5269   */\n      0x00\n        /* \"#utility.yul\":5265:5266   */\n      dup1\n        /* \"#utility.yul\":5258:5270   */\n      revert\n        /* \"#utility.yul\":5209:5272   */\n    tag_614:\n        /* \"#utility.yul\":5156:5278   */\n      pop\n      jump\t// out\n        /* \"#utility.yul\":5284:5423   */\n    tag_506:\n        /* \"#utility.yul\":5330:5335   */\n      0x00\n        /* \"#utility.yul\":5368:5374   */\n      dup2\n        /* \"#utility.yul\":5355:5375   */\n      calldataload\n        /* \"#utility.yul\":5346:5375   */\n      swap1\n      pop\n        /* \"#utility.yul\":5384:5417   */\n      tag_616\n        /* \"#utility.yul\":5411:5416   */\n      dup2\n        /* \"#utility.yul\":5384:5417   */\n      tag_505\n      jump\t// in\n    tag_616:\n        /* \"#utility.yul\":5284:5423   */\n      swap3\n      swap2\n      pop\n      pop\n      jump\t// out\n        /* \"#utility.yul\":5429:5758   */\n    tag_83:\n        /* \"#utility.yul\":5488:5494   */\n      0x00\n        /* \"#utility.yul\":5537:5539   */\n      0x20\n        /* \"#utility.yul\":5525:5534   */\n      dup3\n        /* \"#utility.yul\":5516:5523   */\n      dup5\n        /* \"#utility.yul\":5512:5535   */\n      sub\n        /* \"#utility.yul\":5508:5540   */\n      slt\n        /* \"#utility.yul\":5505:5624   */\n      iszero\n      tag_618\n      jumpi\n        /* \"#utility.yul\":5543:5622   */\n      tag_619\n      tag_484\n      jump\t// in\n    tag_619:\n        /* \"#utility.yul\":5505:5624   */\n    tag_618:\n        /* \"#utility.yul\":5663:5664   */\n      0x00\n        /* \"#utility.yul\":5688:5741   */\n      tag_620\n        /* \"#utility.yul\":5733:5740   */\n      dup5\n        /* \"#utility.yul\":5724:5730   */\n      dup3\n        /* \"#utility.yul\":5713:5722   */\n      dup6\n        /* \"#utility.yul\":5709:5731   */\n      add\n        /* \"#utility.yul\":5688:5741   */\n      tag_506\n      jump\t// in\n    tag_620:\n        /* \"#utility.yul\":5678:5741   */\n      swap2\n      pop\n        /* \"#utility.yul\":5634:5751   */\n      pop\n        /* \"#utility.yul\":5429:5758   */\n      swap3\n      swap2\n      pop\n      pop\n      jump\t// out\n        /* \"#utility.yul\":5764:5882   */\n    tag_507:\n        /* \"#utility.yul\":5851:5875   */\n      tag_622\n        /* \"#utility.yul\":5869:5874   */\n      dup2\n        /* \"#utility.yul\":5851:5875   */\n      tag_504\n      jump\t// in\n    tag_622:\n        /* \"#utility.yul\":5846:5849   */\n      dup3\n        /* \"#utility.yul\":5839:5876   */\n      mstore\n        /* \"#utility.yul\":5764:5882   */\n      pop\n      pop\n      jump\t// out\n        /* \"#utility.yul\":5888:6110   */\n    tag_86:\n        /* \"#utility.yul\":5981:5985   */\n      0x00\n        /* \"#utility.yul\":6019:6021   */\n      0x20\n        /* \"#utility.yul\":6008:6017   */\n      dup3\n        /* \"#utility.yul\":6004:6022   */\n      add\n        /* \"#utility.yul\":5996:6022   */\n      swap1\n      pop\n        /* \"#utility.yul\":6032:6103   */\n      tag_624\n        /* \"#utility.yul\":6100:6101   */\n      0x00\n        /* \"#utility.yul\":6089:6098   */\n      dup4\n        /* \"#utility.yul\":6085:6102   */\n      add\n        /* \"#utility.yul\":6076:6082   */\n      dup5\n        /* \"#utility.yul\":6032:6103   */\n      tag_507\n      jump\t// in\n    tag_624:\n        /* \"#utility.yul\":5888:6110   */\n      swap3\n      swap2\n      pop\n      pop\n      jump\t// out\n        /* \"#utility.yul\":6116:6590   */\n    tag_99:\n        /* \"#utility.yul\":6184:6190   */\n      0x00\n        /* \"#utility.yul\":6192:6198   */\n      dup1\n        /* \"#utility.yul\":6241:6243   */\n      0x40\n        /* \"#utility.yul\":6229:6238   */\n      dup4\n        /* \"#utility.yul\":6220:6227   */\n      dup6\n        /* \"#utility.yul\":6216:6239   */\n      sub\n        /* \"#utility.yul\":6212:6244   */\n      slt\n        /* \"#utility.yul\":6209:6328   */\n      iszero\n      tag_626\n      jumpi\n        /* \"#utility.yul\":6247:6326   */\n      tag_627\n      tag_484\n      jump\t// in\n    tag_627:\n        /* \"#utility.yul\":6209:6328   */\n    tag_626:\n        /* \"#utility.yul\":6367:6368   */\n      0x00\n        /* \"#utility.yul\":6392:6445   */\n      tag_628\n        /* \"#utility.yul\":6437:6444   */\n      dup6\n        /* \"#utility.yul\":6428:6434   */\n      dup3\n        /* \"#utility.yul\":6417:6426   */\n      dup7\n        /* \"#utility.yul\":6413:6435   */\n      add\n        /* \"#utility.yul\":6392:6445   */\n      tag_506\n      jump\t// in\n    tag_628:\n        /* \"#utility.yul\":6382:6445   */\n      swap3\n      pop\n        /* \"#utility.yul\":6338:6455   */\n      pop\n        /* \"#utility.yul\":6494:6496   */\n      0x20\n        /* \"#utility.yul\":6520:6573   */\n      tag_629\n        /* \"#utility.yul\":6565:6572   */\n      dup6\n        /* \"#utility.yul\":6556:6562   */\n      dup3\n        /* \"#utility.yul\":6545:6554   */\n      dup7\n        /* \"#utility.yul\":6541:6563   */\n      add\n        /* \"#utility.yul\":6520:6573   */\n      tag_494\n      jump\t// in\n    tag_629:\n        /* \"#utility.yul\":6510:6573   */\n      swap2\n      pop\n        /* \"#utility.yul\":6465:6583   */\n      pop\n        /* \"#utility.yul\":6116:6590   */\n      swap3\n      pop\n      swap3\n      swap1\n      pop\n      jump\t// out\n        /* \"#utility.yul\":6596:6682   */\n    tag_508:\n        /* \"#utility.yul\":6631:6638   */\n      0x00\n        /* \"#utility.yul\":6671:6675   */\n      0xff\n        /* \"#utility.yul\":6664:6669   */\n      dup3\n        /* \"#utility.yul\":6660:6676   */\n      and\n        /* \"#utility.yul\":6649:6676   */\n      swap1\n      pop\n        /* \"#utility.yul\":6596:6682   */\n      swap2\n      swap1\n      pop\n      jump\t// out\n        /* \"#utility.yul\":6688:6800   */\n    tag_509:\n        /* \"#utility.yul\":6771:6793   */\n      tag_632\n        /* \"#utility.yul\":6787:6792   */\n      dup2\n        /* \"#utility.yul\":6771:6793   */\n      tag_508\n      jump\t// in\n    tag_632:\n        /* \"#utility.yul\":6766:6769   */\n      dup3\n        /* \"#utility.yul\":6759:6794   */\n      mstore\n        /* \"#utility.yul\":6688:6800   */\n      pop\n      pop\n      jump\t// out\n        /* \"#utility.yul\":6806:7020   */\n    tag_105:\n        /* \"#utility.yul\":6895:6899   */\n      0x00\n        /* \"#utility.yul\":6933:6935   */\n      0x20\n        /* \"#utility.yul\":6922:6931   */\n      dup3\n        /* \"#utility.yul\":6918:6936   */\n      add\n        /* \"#utility.yul\":6910:6936   */\n      swap1\n      pop\n        /* \"#utility.yul\":6946:7013   */\n      tag_634\n        /* \"#utility.yul\":7010:7011   */\n      0x00\n        /* \"#utility.yul\":6999:7008   */\n      dup4\n        /* \"#utility.yul\":6995:7012   */\n      add\n        /* \"#utility.yul\":6986:6992   */\n      dup5\n        /* \"#utility.yul\":6946:7013   */\n      tag_509\n      jump\t// in\n    tag_634:\n        /* \"#utility.yul\":6806:7020   */\n      swap3\n      swap2\n      pop\n      pop\n      jump\t// out\n        /* \"#utility.yul\":7026:7144   */\n    tag_510:\n        /* \"#utility.yul\":7113:7137   */\n      tag_636\n        /* \"#utility.yul\":7131:7136   */\n      dup2\n        /* \"#utility.yul\":7113:7137   */\n      tag_492\n      jump\t// in\n    tag_636:\n        /* \"#utility.yul\":7108:7111   */\n      dup3\n        /* \"#utility.yul\":7101:7138   */\n      mstore\n        /* \"#utility.yul\":7026:7144   */\n      pop\n      pop\n      jump\t// out\n        /* \"#utility.yul\":7150:7372   */\n    tag_118:\n        /* \"#utility.yul\":7243:7247   */\n      0x00\n        /* \"#utility.yul\":7281:7283   */\n      0x20\n        /* \"#utility.yul\":7270:7279   */\n      dup3\n        /* \"#utility.yul\":7266:7284   */\n      add\n        /* \"#utility.yul\":7258:7284   */\n      swap1\n      pop\n        /* \"#utility.yul\":7294:7365   */\n      tag_638\n        /* \"#utility.yul\":7362:7363   */\n      0x00\n        /* \"#utility.yul\":7351:7360   */\n      dup4\n        /* \"#utility.yul\":7347:7364   */\n      add\n        /* \"#utility.yul\":7338:7344   */\n      dup5\n        /* \"#utility.yul\":7294:7365   */\n      tag_510\n      jump\t// in\n    tag_638:\n        /* \"#utility.yul\":7150:7372   */\n      swap3\n      swap2\n      pop\n      pop\n      jump\t// out\n        /* \"#utility.yul\":7378:7707   */\n    tag_126:\n        /* \"#utility.yul\":7437:7443   */\n      0x00\n        /* \"#utility.yul\":7486:7488   */\n      0x20\n        /* \"#utility.yul\":7474:7483   */\n      dup3\n        /* \"#utility.yul\":7465:7472   */\n      dup5\n        /* \"#utility.yul\":7461:7484   */\n      sub\n        /* \"#utility.yul\":7457:7489   */\n      slt\n        /* \"#utility.yul\":7454:7573   */\n      iszero\n      tag_640\n      jumpi\n        /* \"#utility.yul\":7492:7571   */\n      tag_641\n      tag_484\n      jump\t// in\n    tag_641:\n        /* \"#utility.yul\":7454:7573   */\n    tag_640:\n        /* \"#utility.yul\":7612:7613   */\n      0x00\n        /* \"#utility.yul\":7637:7690   */\n      tag_642\n        /* \"#utility.yul\":7682:7689   */\n      dup5\n        /* \"#utility.yul\":7673:7679   */\n      dup3\n        /* \"#utility.yul\":7662:7671   */\n      dup6\n        /* \"#utility.yul\":7658:7680   */\n      add\n        /* \"#utility.yul\":7637:7690   */\n      tag_494\n      jump\t// in\n    tag_642:\n        /* \"#utility.yul\":7627:7690   */\n      swap2\n      pop\n        /* \"#utility.yul\":7583:7700   */\n      pop\n        /* \"#utility.yul\":7378:7707   */\n      swap3\n      swap2\n      pop\n      pop\n      jump\t// out\n        /* \"#utility.yul\":7713:7817   */\n    tag_511:\n        /* \"#utility.yul\":7758:7765   */\n      0x00\n        /* \"#utility.yul\":7787:7811   */\n      tag_644\n        /* \"#utility.yul\":7805:7810   */\n      dup3\n        /* \"#utility.yul\":7787:7811   */\n      tag_491\n      jump\t// in\n    tag_644:\n        /* \"#utility.yul\":7776:7811   */\n      swap1\n      pop\n        /* \"#utility.yul\":7713:7817   */\n      swap2\n      swap1\n      pop\n      jump\t// out\n        /* \"#utility.yul\":7823:7965   */\n    tag_512:\n        /* \"#utility.yul\":7926:7958   */\n      tag_646\n        /* \"#utility.yul\":7952:7957   */\n      dup2\n        /* \"#utility.yul\":7926:7958   */\n      tag_511\n      jump\t// in\n    tag_646:\n        /* \"#utility.yul\":7921:7924   */\n      dup3\n        /* \"#utility.yul\":7914:7959   */\n      mstore\n        /* \"#utility.yul\":7823:7965   */\n      pop\n      pop\n      jump\t// out\n        /* \"#utility.yul\":7971:8225   */\n    tag_133:\n        /* \"#utility.yul\":8080:8084   */\n      0x00\n        /* \"#utility.yul\":8118:8120   */\n      0x20\n        /* \"#utility.yul\":8107:8116   */\n      dup3\n        /* \"#utility.yul\":8103:8121   */\n      add\n        /* \"#utility.yul\":8095:8121   */\n      swap1\n      pop\n        /* \"#utility.yul\":8131:8218   */\n      tag_648\n        /* \"#utility.yul\":8215:8216   */\n      0x00\n        /* \"#utility.yul\":8204:8213   */\n      dup4\n        /* \"#utility.yul\":8200:8217   */\n      add\n        /* \"#utility.yul\":8191:8197   */\n      dup5\n        /* \"#utility.yul\":8131:8218   */\n      tag_512\n      jump\t// in\n    tag_648:\n        /* \"#utility.yul\":7971:8225   */\n      swap3\n      swap2\n      pop\n      pop\n      jump\t// out\n        /* \"#utility.yul\":8231:8347   */\n    tag_513:\n        /* \"#utility.yul\":8301:8322   */\n      tag_650\n        /* \"#utility.yul\":8316:8321   */\n      dup2\n        /* \"#utility.yul\":8301:8322   */\n      tag_489\n      jump\t// in\n    tag_650:\n        /* \"#utility.yul\":8294:8299   */\n      dup2\n        /* \"#utility.yul\":8291:8323   */\n      eq\n        /* \"#utility.yul\":8281:8341   */\n      tag_651\n      jumpi\n        /* \"#utility.yul\":8337:8338   */\n      0x00\n        /* \"#utility.yul\":8334:8335   */\n      dup1\n        /* \"#utility.yul\":8327:8339   */\n      revert\n        /* \"#utility.yul\":8281:8341   */\n    tag_651:\n        /* \"#utility.yul\":8231:8347   */\n      pop\n      jump\t// out\n        /* \"#utility.yul\":8353:8486   */\n    tag_514:\n        /* \"#utility.yul\":8396:8401   */\n      0x00\n        /* \"#utility.yul\":8434:8440   */\n      dup2\n        /* \"#utility.yul\":8421:8441   */\n      calldataload\n        /* \"#utility.yul\":8412:8441   */\n      swap1\n      pop\n        /* \"#utility.yul\":8450:8480   */\n      tag_653\n        /* \"#utility.yul\":8474:8479   */\n      dup2\n        /* \"#utility.yul\":8450:8480   */\n      tag_513\n      jump\t// in\n    tag_653:\n        /* \"#utility.yul\":8353:8486   */\n      swap3\n      swap2\n      pop\n      pop\n      jump\t// out\n        /* \"#utility.yul\":8492:8815   */\n    tag_176:\n        /* \"#utility.yul\":8548:8554   */\n      0x00\n        /* \"#utility.yul\":8597:8599   */\n      0x20\n        /* \"#utility.yul\":8585:8594   */\n      dup3\n        /* \"#utility.yul\":8576:8583   */\n      dup5\n        /* \"#utility.yul\":8572:8595   */\n      sub\n        /* \"#utility.yul\":8568:8600   */\n      slt\n        /* \"#utility.yul\":8565:8684   */\n      iszero\n      tag_655\n      jumpi\n        /* \"#utility.yul\":8603:8682   */\n      tag_656\n      tag_484\n      jump\t// in\n    tag_656:\n        /* \"#utility.yul\":8565:8684   */\n    tag_655:\n        /* \"#utility.yul\":8723:8724   */\n      0x00\n        /* \"#utility.yul\":8748:8798   */\n      tag_657\n        /* \"#utility.yul\":8790:8797   */\n      dup5\n        /* \"#utility.yul\":8781:8787   */\n      dup3\n        /* \"#utility.yul\":8770:8779   */\n      dup6\n        /* \"#utility.yul\":8766:8788   */\n      add\n        /* \"#utility.yul\":8748:8798   */\n      tag_514\n      jump\t// in\n    tag_657:\n        /* \"#utility.yul\":8738:8798   */\n      swap2\n      pop\n        /* \"#utility.yul\":8694:8808   */\n      pop\n        /* \"#utility.yul\":8492:8815   */\n      swap3\n      swap2\n      pop\n      pop\n      jump\t// out\n        /* \"#utility.yul\":8821:9295   */\n    tag_190:\n        /* \"#utility.yul\":8889:8895   */\n      0x00\n        /* \"#utility.yul\":8897:8903   */\n      dup1\n        /* \"#utility.yul\":8946:8948   */\n      0x40\n        /* \"#utility.yul\":8934:8943   */\n      dup4\n        /* \"#utility.yul\":8925:8932   */\n      dup6\n        /* \"#utility.yul\":8921:8944   */\n      sub\n        /* \"#utility.yul\":8917:8949   */\n      slt\n        /* \"#utility.yul\":8914:9033   */\n      iszero\n      tag_659\n      jumpi\n        /* \"#utility.yul\":8952:9031   */\n      tag_660\n      tag_484\n      jump\t// in\n    tag_660:\n        /* \"#utility.yul\":8914:9033   */\n    tag_659:\n        /* \"#utility.yul\":9072:9073   */\n      0x00\n        /* \"#utility.yul\":9097:9150   */\n      tag_661\n        /* \"#utility.yul\":9142:9149   */\n      dup6\n        /* \"#utility.yul\":9133:9139   */\n      dup3\n        /* \"#utility.yul\":9122:9131   */\n      dup7\n        /* \"#utility.yul\":9118:9140   */\n      add\n        /* \"#utility.yul\":9097:9150   */\n      tag_494\n      jump\t// in\n    tag_661:\n        /* \"#utility.yul\":9087:9150   */\n      swap3\n      pop\n        /* \"#utility.yul\":9043:9160   */\n      pop\n        /* \"#utility.yul\":9199:9201   */\n      0x20\n        /* \"#utility.yul\":9225:9278   */\n      tag_662\n        /* \"#utility.yul\":9270:9277   */\n      dup6\n        /* \"#utility.yul\":9261:9267   */\n      dup3\n        /* \"#utility.yul\":9250:9259   */\n      dup7\n        /* \"#utility.yul\":9246:9268   */\n      add\n        /* \"#utility.yul\":9225:9278   */\n      tag_494\n      jump\t// in\n    tag_662:\n        /* \"#utility.yul\":9215:9278   */\n      swap2\n      pop\n        /* \"#utility.yul\":9170:9288   */\n      pop\n        /* \"#utility.yul\":8821:9295   */\n      swap3\n      pop\n      swap3\n      swap1\n      pop\n      jump\t// out\n        /* \"#utility.yul\":9301:9415   */\n    tag_515:\n        /* \"#utility.yul\":9368:9374   */\n      0x00\n        /* \"#utility.yul\":9402:9407   */\n      dup2\n        /* \"#utility.yul\":9396:9408   */\n      mload\n        /* \"#utility.yul\":9386:9408   */\n      swap1\n      pop\n        /* \"#utility.yul\":9301:9415   */\n      swap2\n      swap1\n      pop\n      jump\t// out\n        /* \"#utility.yul\":9421:9605   */\n    tag_516:\n        /* \"#utility.yul\":9520:9531   */\n      0x00\n        /* \"#utility.yul\":9554:9560   */\n      dup3\n        /* \"#utility.yul\":9549:9552   */\n      dup3\n        /* \"#utility.yul\":9542:9561   */\n      mstore\n        /* \"#utility.yul\":9594:9598   */\n      0x20\n        /* \"#utility.yul\":9589:9592   */\n      dup3\n        /* \"#utility.yul\":9585:9599   */\n      add\n        /* \"#utility.yul\":9570:9599   */\n      swap1\n      pop\n        /* \"#utility.yul\":9421:9605   */\n      swap3\n      swap2\n      pop\n      pop\n      jump\t// out\n        /* \"#utility.yul\":9611:9743   */\n    tag_517:\n        /* \"#utility.yul\":9678:9682   */\n      0x00\n        /* \"#utility.yul\":9701:9704   */\n      dup2\n        /* \"#utility.yul\":9693:9704   */\n      swap1\n      pop\n        /* \"#utility.yul\":9731:9735   */\n      0x20\n        /* \"#utility.yul\":9726:9729   */\n      dup3\n        /* \"#utility.yul\":9722:9736   */\n      add\n        /* \"#utility.yul\":9714:9736   */\n      swap1\n      pop\n        /* \"#utility.yul\":9611:9743   */\n      swap2\n      swap1\n      pop\n      jump\t// out\n        /* \"#utility.yul\":9749:9857   */\n    tag_518:\n        /* \"#utility.yul\":9826:9850   */\n      tag_667\n        /* \"#utility.yul\":9844:9849   */\n      dup2\n        /* \"#utility.yul\":9826:9850   */\n      tag_492\n      jump\t// in\n    tag_667:\n        /* \"#utility.yul\":9821:9824   */\n      dup3\n        /* \"#utility.yul\":9814:9851   */\n      mstore\n        /* \"#utility.yul\":9749:9857   */\n      pop\n      pop\n      jump\t// out\n        /* \"#utility.yul\":9863:10042   */\n    tag_519:\n        /* \"#utility.yul\":9932:9942   */\n      0x00\n        /* \"#utility.yul\":9953:9999   */\n      tag_669\n        /* \"#utility.yul\":9995:9998   */\n      dup4\n        /* \"#utility.yul\":9987:9993   */\n      dup4\n        /* \"#utility.yul\":9953:9999   */\n      tag_518\n      jump\t// in\n    tag_669:\n        /* \"#utility.yul\":10031:10035   */\n      0x20\n        /* \"#utility.yul\":10026:10029   */\n      dup4\n        /* \"#utility.yul\":10022:10036   */\n      add\n        /* \"#utility.yul\":10008:10036   */\n      swap1\n      pop\n        /* \"#utility.yul\":9863:10042   */\n      swap3\n      swap2\n      pop\n      pop\n      jump\t// out\n        /* \"#utility.yul\":10048:10161   */\n    tag_520:\n        /* \"#utility.yul\":10118:10122   */\n      0x00\n        /* \"#utility.yul\":10150:10154   */\n      0x20\n        /* \"#utility.yul\":10145:10148   */\n      dup3\n        /* \"#utility.yul\":10141:10155   */\n      add\n        /* \"#utility.yul\":10133:10155   */\n      swap1\n      pop\n        /* \"#utility.yul\":10048:10161   */\n      swap2\n      swap1\n      pop\n      jump\t// out\n        /* \"#utility.yul\":10197:10929   */\n    tag_521:\n        /* \"#utility.yul\":10316:10319   */\n      0x00\n        /* \"#utility.yul\":10345:10399   */\n      tag_672\n        /* \"#utility.yul\":10393:10398   */\n      dup3\n        /* \"#utility.yul\":10345:10399   */\n      tag_515\n      jump\t// in\n    tag_672:\n        /* \"#utility.yul\":10415:10501   */\n      tag_673\n        /* \"#utility.yul\":10494:10500   */\n      dup2\n        /* \"#utility.yul\":10489:10492   */\n      dup6\n        /* \"#utility.yul\":10415:10501   */\n      tag_516\n      jump\t// in\n    tag_673:\n        /* \"#utility.yul\":10408:10501   */\n      swap4\n      pop\n        /* \"#utility.yul\":10525:10581   */\n      tag_674\n        /* \"#utility.yul\":10575:10580   */\n      dup4\n        /* \"#utility.yul\":10525:10581   */\n      tag_517\n      jump\t// in\n    tag_674:\n        /* \"#utility.yul\":10604:10611   */\n      dup1\n        /* \"#utility.yul\":10635:10636   */\n      0x00\n        /* \"#utility.yul\":10620:10904   */\n    tag_675:\n        /* \"#utility.yul\":10645:10651   */\n      dup4\n        /* \"#utility.yul\":10642:10643   */\n      dup2\n        /* \"#utility.yul\":10639:10652   */\n      lt\n        /* \"#utility.yul\":10620:10904   */\n      iszero\n      tag_677\n      jumpi\n        /* \"#utility.yul\":10721:10727   */\n      dup2\n        /* \"#utility.yul\":10715:10728   */\n      mload\n        /* \"#utility.yul\":10748:10811   */\n      tag_678\n        /* \"#utility.yul\":10807:10810   */\n      dup9\n        /* \"#utility.yul\":10792:10805   */\n      dup3\n        /* \"#utility.yul\":10748:10811   */\n      tag_519\n      jump\t// in\n    tag_678:\n        /* \"#utility.yul\":10741:10811   */\n      swap8\n      pop\n        /* \"#utility.yul\":10834:10894   */\n      tag_679\n        /* \"#utility.yul\":10887:10893   */\n      dup4\n        /* \"#utility.yul\":10834:10894   */\n      tag_520\n      jump\t// in\n    tag_679:\n        /* \"#utility.yul\":10824:10894   */\n      swap3\n      pop\n        /* \"#utility.yul\":10680:10904   */\n      pop\n        /* \"#utility.yul\":10667:10668   */\n      0x01\n        /* \"#utility.yul\":10664:10665   */\n      dup2\n        /* \"#utility.yul\":10660:10669   */\n      add\n        /* \"#utility.yul\":10655:10669   */\n      swap1\n      pop\n        /* \"#utility.yul\":10620:10904   */\n      jump(tag_675)\n    tag_677:\n        /* \"#utility.yul\":10624:10638   */\n      pop\n        /* \"#utility.yul\":10920:10923   */\n      dup6\n        /* \"#utility.yul\":10913:10923   */\n      swap4\n      pop\n        /* \"#utility.yul\":10321:10929   */\n      pop\n      pop\n      pop\n        /* \"#utility.yul\":10197:10929   */\n      swap3\n      swap2\n      pop\n      pop\n      jump\t// out\n        /* \"#utility.yul\":10935:11308   */\n    tag_201:\n        /* \"#utility.yul\":11078:11082   */\n      0x00\n        /* \"#utility.yul\":11116:11118   */\n      0x20\n        /* \"#utility.yul\":11105:11114   */\n      dup3\n        /* \"#utility.yul\":11101:11119   */\n      add\n        /* \"#utility.yul\":11093:11119   */\n      swap1\n      pop\n        /* \"#utility.yul\":11165:11174   */\n      dup2\n        /* \"#utility.yul\":11159:11163   */\n      dup2\n        /* \"#utility.yul\":11155:11175   */\n      sub\n        /* \"#utility.yul\":11151:11152   */\n      0x00\n        /* \"#utility.yul\":11140:11149   */\n      dup4\n        /* \"#utility.yul\":11136:11153   */\n      add\n        /* \"#utility.yul\":11129:11176   */\n      mstore\n        /* \"#utility.yul\":11193:11301   */\n      tag_681\n        /* \"#utility.yul\":11296:11300   */\n      dup2\n        /* \"#utility.yul\":11287:11293   */\n      dup5\n        /* \"#utility.yul\":11193:11301   */\n      tag_521\n      jump\t// in\n    tag_681:\n        /* \"#utility.yul\":11185:11301   */\n      swap1\n      pop\n        /* \"#utility.yul\":10935:11308   */\n      swap3\n      swap2\n      pop\n      pop\n      jump\t// out\n        /* \"#utility.yul\":11314:11487   */\n    tag_522:\n        /* \"#utility.yul\":11454:11479   */\n      0x62757965722069732061207a65726f2061646472657373000000000000000000\n        /* \"#utility.yul\":11450:11451   */\n      0x00\n        /* \"#utility.yul\":11442:11448   */\n      dup3\n        /* \"#utility.yul\":11438:11452   */\n      add\n        /* \"#utility.yul\":11431:11480   */\n      mstore\n        /* \"#utility.yul\":11314:11487   */\n      pop\n      jump\t// out\n        /* \"#utility.yul\":11493:11859   */\n    tag_523:\n        /* \"#utility.yul\":11635:11638   */\n      0x00\n        /* \"#utility.yul\":11656:11723   */\n      tag_684\n        /* \"#utility.yul\":11720:11722   */\n      0x17\n        /* \"#utility.yul\":11715:11718   */\n      dup4\n        /* \"#utility.yul\":11656:11723   */\n      tag_499\n      jump\t// in\n    tag_684:\n        /* \"#utility.yul\":11649:11723   */\n      swap2\n      pop\n        /* \"#utility.yul\":11732:11825   */\n      tag_685\n        /* \"#utility.yul\":11821:11824   */\n      dup3\n        /* \"#utility.yul\":11732:11825   */\n      tag_522\n      jump\t// in\n    tag_685:\n        /* \"#utility.yul\":11850:11852   */\n      0x20\n        /* \"#utility.yul\":11845:11848   */\n      dup3\n        /* \"#utility.yul\":11841:11853   */\n      add\n        /* \"#utility.yul\":11834:11853   */\n      swap1\n      pop\n        /* \"#utility.yul\":11493:11859   */\n      swap2\n      swap1\n      pop\n      jump\t// out\n        /* \"#utility.yul\":11865:12284   */\n    tag_227:\n        /* \"#utility.yul\":12031:12035   */\n      0x00\n        /* \"#utility.yul\":12069:12071   */\n      0x20\n        /* \"#utility.yul\":12058:12067   */\n      dup3\n        /* \"#utility.yul\":12054:12072   */\n      add\n        /* \"#utility.yul\":12046:12072   */\n      swap1\n      pop\n        /* \"#utility.yul\":12118:12127   */\n      dup2\n        /* \"#utility.yul\":12112:12116   */\n      dup2\n        /* \"#utility.yul\":12108:12128   */\n      sub\n        /* \"#utility.yul\":12104:12105   */\n      0x00\n        /* \"#utility.yul\":12093:12102   */\n      dup4\n        /* \"#utility.yul\":12089:12106   */\n      add\n        /* \"#utility.yul\":12082:12129   */\n      mstore\n        /* \"#utility.yul\":12146:12277   */\n      tag_687\n        /* \"#utility.yul\":12272:12276   */\n      dup2\n        /* \"#utility.yul\":12146:12277   */\n      tag_523\n      jump\t// in\n    tag_687:\n        /* \"#utility.yul\":12138:12277   */\n      swap1\n      pop\n        /* \"#utility.yul\":11865:12284   */\n      swap2\n      swap1\n      pop\n      jump\t// out\n        /* \"#utility.yul\":12290:12454   */\n    tag_524:\n        /* \"#utility.yul\":12430:12446   */\n      0x776569416d6f756e742069732030000000000000000000000000000000000000\n        /* \"#utility.yul\":12426:12427   */\n      0x00\n        /* \"#utility.yul\":12418:12424   */\n      dup3\n        /* \"#utility.yul\":12414:12428   */\n      add\n        /* \"#utility.yul\":12407:12447   */\n      mstore\n        /* \"#utility.yul\":12290:12454   */\n      pop\n      jump\t// out\n        /* \"#utility.yul\":12460:12826   */\n    tag_525:\n        /* \"#utility.yul\":12602:12605   */\n      0x00\n        /* \"#utility.yul\":12623:12690   */\n      tag_690\n        /* \"#utility.yul\":12687:12689   */\n      0x0e\n        /* \"#utility.yul\":12682:12685   */\n      dup4\n        /* \"#utility.yul\":12623:12690   */\n      tag_499\n      jump\t// in\n    tag_690:\n        /* \"#utility.yul\":12616:12690   */\n      swap2\n      pop\n        /* \"#utility.yul\":12699:12792   */\n      tag_691\n        /* \"#utility.yul\":12788:12791   */\n      dup3\n        /* \"#utility.yul\":12699:12792   */\n      tag_524\n      jump\t// in\n    tag_691:\n        /* \"#utility.yul\":12817:12819   */\n      0x20\n        /* \"#utility.yul\":12812:12815   */\n      dup3\n        /* \"#utility.yul\":12808:12820   */\n      add\n        /* \"#utility.yul\":12801:12820   */\n      swap1\n      pop\n        /* \"#utility.yul\":12460:12826   */\n      swap2\n      swap1\n      pop\n      jump\t// out\n        /* \"#utility.yul\":12832:13251   */\n    tag_230:\n        /* \"#utility.yul\":12998:13002   */\n      0x00\n        /* \"#utility.yul\":13036:13038   */\n      0x20\n        /* \"#utility.yul\":13025:13034   */\n      dup3\n        /* \"#utility.yul\":13021:13039   */\n      add\n        /* \"#utility.yul\":13013:13039   */\n      swap1\n      pop\n        /* \"#utility.yul\":13085:13094   */\n      dup2\n        /* \"#utility.yul\":13079:13083   */\n      dup2\n        /* \"#utility.yul\":13075:13095   */\n      sub\n        /* \"#utility.yul\":13071:13072   */\n      0x00\n        /* \"#utility.yul\":13060:13069   */\n      dup4\n        /* \"#utility.yul\":13056:13073   */\n      add\n        /* \"#utility.yul\":13049:13096   */\n      mstore\n        /* \"#utility.yul\":13113:13244   */\n      tag_693\n        /* \"#utility.yul\":13239:13243   */\n      dup2\n        /* \"#utility.yul\":13113:13244   */\n      tag_525\n      jump\t// in\n    tag_693:\n        /* \"#utility.yul\":13105:13244   */\n      swap1\n      pop\n        /* \"#utility.yul\":12832:13251   */\n      swap2\n      swap1\n      pop\n      jump\t// out\n        /* \"#utility.yul\":13257:13437   */\n    tag_526:\n        /* \"#utility.yul\":13305:13382   */\n      0x4e487b7100000000000000000000000000000000000000000000000000000000\n        /* \"#utility.yul\":13302:13303   */\n      0x00\n        /* \"#utility.yul\":13295:13383   */\n      mstore\n        /* \"#utility.yul\":13402:13406   */\n      0x11\n        /* \"#utility.yul\":13399:13400   */\n      0x04\n        /* \"#utility.yul\":13392:13407   */\n      mstore\n        /* \"#utility.yul\":13426:13430   */\n      0x24\n        /* \"#utility.yul\":13423:13424   */\n      0x00\n        /* \"#utility.yul\":13416:13431   */\n      revert\n        /* \"#utility.yul\":13443:13853   */\n    tag_232:\n        /* \"#utility.yul\":13483:13490   */\n      0x00\n        /* \"#utility.yul\":13506:13526   */\n      tag_696\n        /* \"#utility.yul\":13524:13525   */\n      dup3\n        /* \"#utility.yul\":13506:13526   */\n      tag_495\n      jump\t// in\n    tag_696:\n        /* \"#utility.yul\":13501:13526   */\n      swap2\n      pop\n        /* \"#utility.yul\":13540:13560   */\n      tag_697\n        /* \"#utility.yul\":13558:13559   */\n      dup4\n        /* \"#utility.yul\":13540:13560   */\n      tag_495\n      jump\t// in\n    tag_697:\n        /* \"#utility.yul\":13535:13560   */\n      swap3\n      pop\n        /* \"#utility.yul\":13595:13596   */\n      dup3\n        /* \"#utility.yul\":13592:13593   */\n      dup3\n        /* \"#utility.yul\":13588:13597   */\n      mul\n        /* \"#utility.yul\":13617:13647   */\n      tag_698\n        /* \"#utility.yul\":13635:13646   */\n      dup2\n        /* \"#utility.yul\":13617:13647   */\n      tag_495\n      jump\t// in\n    tag_698:\n        /* \"#utility.yul\":13606:13647   */\n      swap2\n      pop\n        /* \"#utility.yul\":13796:13797   */\n      dup3\n        /* \"#utility.yul\":13787:13794   */\n      dup3\n        /* \"#utility.yul\":13783:13798   */\n      div\n        /* \"#utility.yul\":13780:13781   */\n      dup5\n        /* \"#utility.yul\":13777:13799   */\n      eq\n        /* \"#utility.yul\":13757:13758   */\n      dup4\n        /* \"#utility.yul\":13750:13759   */\n      iszero\n        /* \"#utility.yul\":13730:13813   */\n      or\n        /* \"#utility.yul\":13707:13846   */\n      tag_699\n      jumpi\n        /* \"#utility.yul\":13826:13844   */\n      tag_700\n      tag_526\n      jump\t// in\n    tag_700:\n        /* \"#utility.yul\":13707:13846   */\n    tag_699:\n        /* \"#utility.yul\":13491:13853   */\n      pop\n        /* \"#utility.yul\":13443:13853   */\n      swap3\n      swap2\n      pop\n      pop\n      jump\t// out\n        /* \"#utility.yul\":13859:14039   */\n    tag_527:\n        /* \"#utility.yul\":13907:13984   */\n      0x4e487b7100000000000000000000000000000000000000000000000000000000\n        /* \"#utility.yul\":13904:13905   */\n      0x00\n        /* \"#utility.yul\":13897:13985   */\n      mstore\n        /* \"#utility.yul\":14004:14008   */\n      0x22\n        /* \"#utility.yul\":14001:14002   */\n      0x04\n        /* \"#utility.yul\":13994:14009   */\n      mstore\n        /* \"#utility.yul\":14028:14032   */\n      0x24\n        /* \"#utility.yul\":14025:14026   */\n      0x00\n        /* \"#utility.yul\":14018:14033   */\n      revert\n        /* \"#utility.yul\":14045:14365   */\n    tag_239:\n        /* \"#utility.yul\":14089:14095   */\n      0x00\n        /* \"#utility.yul\":14126:14127   */\n      0x02\n        /* \"#utility.yul\":14120:14124   */\n      dup3\n        /* \"#utility.yul\":14116:14128   */\n      div\n        /* \"#utility.yul\":14106:14128   */\n      swap1\n      pop\n        /* \"#utility.yul\":14173:14174   */\n      0x01\n        /* \"#utility.yul\":14167:14171   */\n      dup3\n        /* \"#utility.yul\":14163:14175   */\n      and\n        /* \"#utility.yul\":14194:14212   */\n      dup1\n        /* \"#utility.yul\":14184:14265   */\n      tag_703\n      jumpi\n        /* \"#utility.yul\":14250:14254   */\n      0x7f\n        /* \"#utility.yul\":14242:14248   */\n      dup3\n        /* \"#utility.yul\":14238:14255   */\n      and\n        /* \"#utility.yul\":14228:14255   */\n      swap2\n      pop\n        /* \"#utility.yul\":14184:14265   */\n    tag_703:\n        /* \"#utility.yul\":14312:14314   */\n      0x20\n        /* \"#utility.yul\":14304:14310   */\n      dup3\n        /* \"#utility.yul\":14301:14315   */\n      lt\n        /* \"#utility.yul\":14281:14299   */\n      dup2\n        /* \"#utility.yul\":14278:14316   */\n      sub\n        /* \"#utility.yul\":14275:14359   */\n      tag_704\n      jumpi\n        /* \"#utility.yul\":14331:14349   */\n      tag_705\n      tag_527\n      jump\t// in\n    tag_705:\n        /* \"#utility.yul\":14275:14359   */\n    tag_704:\n        /* \"#utility.yul\":14096:14365   */\n      pop\n        /* \"#utility.yul\":14045:14365   */\n      swap2\n      swap1\n      pop\n      jump\t// out\n        /* \"#utility.yul\":14371:14591   */\n    tag_528:\n        /* \"#utility.yul\":14511:14545   */\n      0x45524332303a206275726e2066726f6d20746865207a65726f20616464726573\n        /* \"#utility.yul\":14507:14508   */\n      0x00\n        /* \"#utility.yul\":14499:14505   */\n      dup3\n        /* \"#utility.yul\":14495:14509   */\n      add\n        /* \"#utility.yul\":14488:14546   */\n      mstore\n        /* \"#utility.yul\":14580:14583   */\n      0x7300000000000000000000000000000000000000000000000000000000000000\n        /* \"#utility.yul\":14575:14577   */\n      0x20\n        /* \"#utility.yul\":14567:14573   */\n      dup3\n        /* \"#utility.yul\":14563:14578   */\n      add\n        /* \"#utility.yul\":14556:14584   */\n      mstore\n        /* \"#utility.yul\":14371:14591   */\n      pop\n      jump\t// out\n        /* \"#utility.yul\":14597:14963   */\n    tag_529:\n        /* \"#utility.yul\":14739:14742   */\n      0x00\n        /* \"#utility.yul\":14760:14827   */\n      tag_708\n        /* \"#utility.yul\":14824:14826   */\n      0x21\n        /* \"#utility.yul\":14819:14822   */\n      dup4\n        /* \"#utility.yul\":14760:14827   */\n      tag_499\n      jump\t// in\n    tag_708:\n        /* \"#utility.yul\":14753:14827   */\n      swap2\n      pop\n        /* \"#utility.yul\":14836:14929   */\n      tag_709\n        /* \"#utility.yul\":14925:14928   */\n      dup3\n        /* \"#utility.yul\":14836:14929   */\n      tag_528\n      jump\t// in\n    tag_709:\n        /* \"#utility.yul\":14954:14956   */\n      0x40\n        /* \"#utility.yul\":14949:14952   */\n      dup3\n        /* \"#utility.yul\":14945:14957   */\n      add\n        /* \"#utility.yul\":14938:14957   */\n      swap1\n      pop\n        /* \"#utility.yul\":14597:14963   */\n      swap2\n      swap1\n      pop\n      jump\t// out\n        /* \"#utility.yul\":14969:15388   */\n    tag_263:\n        /* \"#utility.yul\":15135:15139   */\n      0x00\n        /* \"#utility.yul\":15173:15175   */\n      0x20\n        /* \"#utility.yul\":15162:15171   */\n      dup3\n        /* \"#utility.yul\":15158:15176   */\n      add\n        /* \"#utility.yul\":15150:15176   */\n      swap1\n      pop\n        /* \"#utility.yul\":15222:15231   */\n      dup2\n        /* \"#utility.yul\":15216:15220   */\n      dup2\n        /* \"#utility.yul\":15212:15232   */\n      sub\n        /* \"#utility.yul\":15208:15209   */\n      0x00\n        /* \"#utility.yul\":15197:15206   */\n      dup4\n        /* \"#utility.yul\":15193:15210   */\n      add\n        /* \"#utility.yul\":15186:15233   */\n      mstore\n        /* \"#utility.yul\":15250:15381   */\n      tag_711\n        /* \"#utility.yul\":15376:15380   */\n      dup2\n        /* \"#utility.yul\":15250:15381   */\n      tag_529\n      jump\t// in\n    tag_711:\n        /* \"#utility.yul\":15242:15381   */\n      swap1\n      pop\n        /* \"#utility.yul\":14969:15388   */\n      swap2\n      swap1\n      pop\n      jump\t// out\n        /* \"#utility.yul\":15394:15618   */\n    tag_530:\n        /* \"#utility.yul\":15534:15568   */\n      0x4f6e6c7920746865204f776e65722063616e2063616c6c20746869732066756e\n        /* \"#utility.yul\":15530:15531   */\n      0x00\n        /* \"#utility.yul\":15522:15528   */\n      dup3\n        /* \"#utility.yul\":15518:15532   */\n      add\n        /* \"#utility.yul\":15511:15569   */\n      mstore\n        /* \"#utility.yul\":15603:15610   */\n      0x6374696f6e000000000000000000000000000000000000000000000000000000\n        /* \"#utility.yul\":15598:15600   */\n      0x20\n        /* \"#utility.yul\":15590:15596   */\n      dup3\n        /* \"#utility.yul\":15586:15601   */\n      add\n        /* \"#utility.yul\":15579:15611   */\n      mstore\n        /* \"#utility.yul\":15394:15618   */\n      pop\n      jump\t// out\n        /* \"#utility.yul\":15624:15990   */\n    tag_531:\n        /* \"#utility.yul\":15766:15769   */\n      0x00\n        /* \"#utility.yul\":15787:15854   */\n      tag_714\n        /* \"#utility.yul\":15851:15853   */\n      0x25\n        /* \"#utility.yul\":15846:15849   */\n      dup4\n        /* \"#utility.yul\":15787:15854   */\n      tag_499\n      jump\t// in\n    tag_714:\n        /* \"#utility.yul\":15780:15854   */\n      swap2\n      pop\n        /* \"#utility.yul\":15863:15956   */\n      tag_715\n        /* \"#utility.yul\":15952:15955   */\n      dup3\n        /* \"#utility.yul\":15863:15956   */\n      tag_530\n      jump\t// in\n    tag_715:\n        /* \"#utility.yul\":15981:15983   */\n      0x40\n        /* \"#utility.yul\":15976:15979   */\n      dup3\n        /* \"#utility.yul\":15972:15984   */\n      add\n        /* \"#utility.yul\":15965:15984   */\n      swap1\n      pop\n        /* \"#utility.yul\":15624:15990   */\n      swap2\n      swap1\n      pop\n      jump\t// out\n        /* \"#utility.yul\":15996:16415   */\n    tag_296:\n        /* \"#utility.yul\":16162:16166   */\n      0x00\n        /* \"#utility.yul\":16200:16202   */\n      0x20\n        /* \"#utility.yul\":16189:16198   */\n      dup3\n        /* \"#utility.yul\":16185:16203   */\n      add\n        /* \"#utility.yul\":16177:16203   */\n      swap1\n      pop\n        /* \"#utility.yul\":16249:16258   */\n      dup2\n        /* \"#utility.yul\":16243:16247   */\n      dup2\n        /* \"#utility.yul\":16239:16259   */\n      sub\n        /* \"#utility.yul\":16235:16236   */\n      0x00\n        /* \"#utility.yul\":16224:16233   */\n      dup4\n        /* \"#utility.yul\":16220:16237   */\n      add\n        /* \"#utility.yul\":16213:16260   */\n      mstore\n        /* \"#utility.yul\":16277:16408   */\n      tag_717\n        /* \"#utility.yul\":16403:16407   */\n      dup2\n        /* \"#utility.yul\":16277:16408   */\n      tag_531\n      jump\t// in\n    tag_717:\n        /* \"#utility.yul\":16269:16408   */\n      swap1\n      pop\n        /* \"#utility.yul\":15996:16415   */\n      swap2\n      swap1\n      pop\n      jump\t// out\n        /* \"#utility.yul\":16421:16588   */\n    tag_532:\n        /* \"#utility.yul\":16561:16580   */\n      0x55736572206973206e6f74204b59436564000000000000000000000000000000\n        /* \"#utility.yul\":16557:16558   */\n      0x00\n        /* \"#utility.yul\":16549:16555   */\n      dup3\n        /* \"#utility.yul\":16545:16559   */\n      add\n        /* \"#utility.yul\":16538:16581   */\n      mstore\n        /* \"#utility.yul\":16421:16588   */\n      pop\n      jump\t// out\n        /* \"#utility.yul\":16594:16960   */\n    tag_533:\n        /* \"#utility.yul\":16736:16739   */\n      0x00\n        /* \"#utility.yul\":16757:16824   */\n      tag_720\n        /* \"#utility.yul\":16821:16823   */\n      0x11\n        /* \"#utility.yul\":16816:16819   */\n      dup4\n        /* \"#utility.yul\":16757:16824   */\n      tag_499\n      jump\t// in\n    tag_720:\n        /* \"#utility.yul\":16750:16824   */\n      swap2\n      pop\n        /* \"#utility.yul\":16833:16926   */\n      tag_721\n        /* \"#utility.yul\":16922:16925   */\n      dup3\n        /* \"#utility.yul\":16833:16926   */\n      tag_532\n      jump\t// in\n    tag_721:\n        /* \"#utility.yul\":16951:16953   */\n      0x20\n        /* \"#utility.yul\":16946:16949   */\n      dup3\n        /* \"#utility.yul\":16942:16954   */\n      add\n        /* \"#utility.yul\":16935:16954   */\n      swap1\n      pop\n        /* \"#utility.yul\":16594:16960   */\n      swap2\n      swap1\n      pop\n      jump\t// out\n        /* \"#utility.yul\":16966:17385   */\n    tag_332:\n        /* \"#utility.yul\":17132:17136   */\n      0x00\n        /* \"#utility.yul\":17170:17172   */\n      0x20\n        /* \"#utility.yul\":17159:17168   */\n      dup3\n        /* \"#utility.yul\":17155:17173   */\n      add\n        /* \"#utility.yul\":17147:17173   */\n      swap1\n      pop\n        /* \"#utility.yul\":17219:17228   */\n      dup2\n        /* \"#utility.yul\":17213:17217   */\n      dup2\n        /* \"#utility.yul\":17209:17229   */\n      sub\n        /* \"#utility.yul\":17205:17206   */\n      0x00\n        /* \"#utility.yul\":17194:17203   */\n      dup4\n        /* \"#utility.yul\":17190:17207   */\n      add\n        /* \"#utility.yul\":17183:17230   */\n      mstore\n        /* \"#utility.yul\":17247:17378   */\n      tag_723\n        /* \"#utility.yul\":17373:17377   */\n      dup2\n        /* \"#utility.yul\":17247:17378   */\n      tag_533\n      jump\t// in\n    tag_723:\n        /* \"#utility.yul\":17239:17378   */\n      swap1\n      pop\n        /* \"#utility.yul\":16966:17385   */\n      swap2\n      swap1\n      pop\n      jump\t// out\n        /* \"#utility.yul\":17391:17623   */\n    tag_534:\n        /* \"#utility.yul\":17531:17565   */\n      0x55736572206f776e7320746f6b656e732c2063616e6e6f742072656d6f766520\n        /* \"#utility.yul\":17527:17528   */\n      0x00\n        /* \"#utility.yul\":17519:17525   */\n      dup3\n        /* \"#utility.yul\":17515:17529   */\n      add\n        /* \"#utility.yul\":17508:17566   */\n      mstore\n        /* \"#utility.yul\":17600:17615   */\n      0x66726f6d204b5943206c69737400000000000000000000000000000000000000\n        /* \"#utility.yul\":17595:17597   */\n      0x20\n        /* \"#utility.yul\":17587:17593   */\n      dup3\n        /* \"#utility.yul\":17583:17598   */\n      add\n        /* \"#utility.yul\":17576:17616   */\n      mstore\n        /* \"#utility.yul\":17391:17623   */\n      pop\n      jump\t// out\n        /* \"#utility.yul\":17629:17995   */\n    tag_535:\n        /* \"#utility.yul\":17771:17774   */\n      0x00\n        /* \"#utility.yul\":17792:17859   */\n      tag_726\n        /* \"#utility.yul\":17856:17858   */\n      0x2d\n        /* \"#utility.yul\":17851:17854   */\n      dup4\n        /* \"#utility.yul\":17792:17859   */\n      tag_499\n      jump\t// in\n    tag_726:\n        /* \"#utility.yul\":17785:17859   */\n      swap2\n      pop\n        /* \"#utility.yul\":17868:17961   */\n      tag_727\n        /* \"#utility.yul\":17957:17960   */\n      dup3\n        /* \"#utility.yul\":17868:17961   */\n      tag_534\n      jump\t// in\n    tag_727:\n        /* \"#utility.yul\":17986:17988   */\n      0x40\n        /* \"#utility.yul\":17981:17984   */\n      dup3\n        /* \"#utility.yul\":17977:17989   */\n      add\n        /* \"#utility.yul\":17970:17989   */\n      swap1\n      pop\n        /* \"#utility.yul\":17629:17995   */\n      swap2\n      swap1\n      pop\n      jump\t// out\n        /* \"#utility.yul\":18001:18420   */\n    tag_335:\n        /* \"#utility.yul\":18167:18171   */\n      0x00\n        /* \"#utility.yul\":18205:18207   */\n      0x20\n        /* \"#utility.yul\":18194:18203   */\n      dup3\n        /* \"#utility.yul\":18190:18208   */\n      add\n        /* \"#utility.yul\":18182:18208   */\n      swap1\n      pop\n        /* \"#utility.yul\":18254:18263   */\n      dup2\n        /* \"#utility.yul\":18248:18252   */\n      dup2\n        /* \"#utility.yul\":18244:18264   */\n      sub\n        /* \"#utility.yul\":18240:18241   */\n      0x00\n        /* \"#utility.yul\":18229:18238   */\n      dup4\n        /* \"#utility.yul\":18225:18242   */\n      add\n        /* \"#utility.yul\":18218:18265   */\n      mstore\n        /* \"#utility.yul\":18282:18413   */\n      tag_729\n        /* \"#utility.yul\":18408:18412   */\n      dup2\n        /* \"#utility.yul\":18282:18413   */\n      tag_535\n      jump\t// in\n    tag_729:\n        /* \"#utility.yul\":18274:18413   */\n      swap1\n      pop\n        /* \"#utility.yul\":18001:18420   */\n      swap2\n      swap1\n      pop\n      jump\t// out\n        /* \"#utility.yul\":18426:18606   */\n    tag_339:\n        /* \"#utility.yul\":18474:18551   */\n      0x4e487b7100000000000000000000000000000000000000000000000000000000\n        /* \"#utility.yul\":18471:18472   */\n      0x00\n        /* \"#utility.yul\":18464:18552   */\n      mstore\n        /* \"#utility.yul\":18571:18575   */\n      0x32\n        /* \"#utility.yul\":18568:18569   */\n      0x04\n        /* \"#utility.yul\":18561:18576   */\n      mstore\n        /* \"#utility.yul\":18595:18599   */\n      0x24\n        /* \"#utility.yul\":18592:18593   */\n      0x00\n        /* \"#utility.yul\":18585:18600   */\n      revert\n        /* \"#utility.yul\":18612:18788   */\n    tag_536:\n        /* \"#utility.yul\":18752:18780   */\n      0x55736572206e6f7420666f756e6420696e204b5943206c697374000000000000\n        /* \"#utility.yul\":18748:18749   */\n      0x00\n        /* \"#utility.yul\":18740:18746   */\n      dup3\n        /* \"#utility.yul\":18736:18750   */\n      add\n        /* \"#utility.yul\":18729:18781   */\n      mstore\n        /* \"#utility.yul\":18612:18788   */\n      pop\n      jump\t// out\n        /* \"#utility.yul\":18794:19160   */\n    tag_537:\n        /* \"#utility.yul\":18936:18939   */\n      0x00\n        /* \"#utility.yul\":18957:19024   */\n      tag_733\n        /* \"#utility.yul\":19021:19023   */\n      0x1a\n        /* \"#utility.yul\":19016:19019   */\n      dup4\n        /* \"#utility.yul\":18957:19024   */\n      tag_499\n      jump\t// in\n    tag_733:\n        /* \"#utility.yul\":18950:19024   */\n      swap2\n      pop\n        /* \"#utility.yul\":19033:19126   */\n      tag_734\n        /* \"#utility.yul\":19122:19125   */\n      dup3\n        /* \"#utility.yul\":19033:19126   */\n      tag_536\n      jump\t// in\n    tag_734:\n        /* \"#utility.yul\":19151:19153   */\n      0x20\n        /* \"#utility.yul\":19146:19149   */\n      dup3\n        /* \"#utility.yul\":19142:19154   */\n      add\n        /* \"#utility.yul\":19135:19154   */\n      swap1\n      pop\n        /* \"#utility.yul\":18794:19160   */\n      swap2\n      swap1\n      pop\n      jump\t// out\n        /* \"#utility.yul\":19166:19585   */\n    tag_343:\n        /* \"#utility.yul\":19332:19336   */\n      0x00\n        /* \"#utility.yul\":19370:19372   */\n      0x20\n        /* \"#utility.yul\":19359:19368   */\n      dup3\n        /* \"#utility.yul\":19355:19373   */\n      add\n        /* \"#utility.yul\":19347:19373   */\n      swap1\n      pop\n        /* \"#utility.yul\":19419:19428   */\n      dup2\n        /* \"#utility.yul\":19413:19417   */\n      dup2\n        /* \"#utility.yul\":19409:19429   */\n      sub\n        /* \"#utility.yul\":19405:19406   */\n      0x00\n        /* \"#utility.yul\":19394:19403   */\n      dup4\n        /* \"#utility.yul\":19390:19407   */\n      add\n        /* \"#utility.yul\":19383:19430   */\n      mstore\n        /* \"#utility.yul\":19447:19578   */\n      tag_736\n        /* \"#utility.yul\":19573:19577   */\n      dup2\n        /* \"#utility.yul\":19447:19578   */\n      tag_537\n      jump\t// in\n    tag_736:\n        /* \"#utility.yul\":19439:19578   */\n      swap1\n      pop\n        /* \"#utility.yul\":19166:19585   */\n      swap2\n      swap1\n      pop\n      jump\t// out\n        /* \"#utility.yul\":19591:19785   */\n    tag_345:\n        /* \"#utility.yul\":19631:19635   */\n      0x00\n        /* \"#utility.yul\":19651:19671   */\n      tag_738\n        /* \"#utility.yul\":19669:19670   */\n      dup3\n        /* \"#utility.yul\":19651:19671   */\n      tag_495\n      jump\t// in\n    tag_738:\n        /* \"#utility.yul\":19646:19671   */\n      swap2\n      pop\n        /* \"#utility.yul\":19685:19705   */\n      tag_739\n        /* \"#utility.yul\":19703:19704   */\n      dup4\n        /* \"#utility.yul\":19685:19705   */\n      tag_495\n      jump\t// in\n    tag_739:\n        /* \"#utility.yul\":19680:19705   */\n      swap3\n      pop\n        /* \"#utility.yul\":19729:19730   */\n      dup3\n        /* \"#utility.yul\":19726:19727   */\n      dup3\n        /* \"#utility.yul\":19722:19731   */\n      sub\n        /* \"#utility.yul\":19714:19731   */\n      swap1\n      pop\n        /* \"#utility.yul\":19753:19754   */\n      dup2\n        /* \"#utility.yul\":19747:19751   */\n      dup2\n        /* \"#utility.yul\":19744:19755   */\n      gt\n        /* \"#utility.yul\":19741:19778   */\n      iszero\n      tag_740\n      jumpi\n        /* \"#utility.yul\":19758:19776   */\n      tag_741\n      tag_526\n      jump\t// in\n    tag_741:\n        /* \"#utility.yul\":19741:19778   */\n    tag_740:\n        /* \"#utility.yul\":19591:19785   */\n      swap3\n      swap2\n      pop\n      pop\n      jump\t// out\n        /* \"#utility.yul\":19791:19971   */\n    tag_358:\n        /* \"#utility.yul\":19839:19916   */\n      0x4e487b7100000000000000000000000000000000000000000000000000000000\n        /* \"#utility.yul\":19836:19837   */\n      0x00\n        /* \"#utility.yul\":19829:19917   */\n      mstore\n        /* \"#utility.yul\":19936:19940   */\n      0x31\n        /* \"#utility.yul\":19933:19934   */\n      0x04\n        /* \"#utility.yul\":19926:19941   */\n      mstore\n        /* \"#utility.yul\":19960:19964   */\n      0x24\n        /* \"#utility.yul\":19957:19958   */\n      0x00\n        /* \"#utility.yul\":19950:19965   */\n      revert\n        /* \"#utility.yul\":19977:20153   */\n    tag_538:\n        /* \"#utility.yul\":20117:20145   */\n      0x496e76616c6964206e6577206f776e657220616464726573732e000000000000\n        /* \"#utility.yul\":20113:20114   */\n      0x00\n        /* \"#utility.yul\":20105:20111   */\n      dup3\n        /* \"#utility.yul\":20101:20115   */\n      add\n        /* \"#utility.yul\":20094:20146   */\n      mstore\n        /* \"#utility.yul\":19977:20153   */\n      pop\n      jump\t// out\n        /* \"#utility.yul\":20159:20525   */\n    tag_539:\n        /* \"#utility.yul\":20301:20304   */\n      0x00\n        /* \"#utility.yul\":20322:20389   */\n      tag_745\n        /* \"#utility.yul\":20386:20388   */\n      0x1a\n        /* \"#utility.yul\":20381:20384   */\n      dup4\n        /* \"#utility.yul\":20322:20389   */\n      tag_499\n      jump\t// in\n    tag_745:\n        /* \"#utility.yul\":20315:20389   */\n      swap2\n      pop\n        /* \"#utility.yul\":20398:20491   */\n      tag_746\n        /* \"#utility.yul\":20487:20490   */\n      dup3\n        /* \"#utility.yul\":20398:20491   */\n      tag_538\n      jump\t// in\n    tag_746:\n        /* \"#utility.yul\":20516:20518   */\n      0x20\n        /* \"#utility.yul\":20511:20514   */\n      dup3\n        /* \"#utility.yul\":20507:20519   */\n      add\n        /* \"#utility.yul\":20500:20519   */\n      swap1\n      pop\n        /* \"#utility.yul\":20159:20525   */\n      swap2\n      swap1\n      pop\n      jump\t// out\n        /* \"#utility.yul\":20531:20950   */\n    tag_370:\n        /* \"#utility.yul\":20697:20701   */\n      0x00\n        /* \"#utility.yul\":20735:20737   */\n      0x20\n        /* \"#utility.yul\":20724:20733   */\n      dup3\n        /* \"#utility.yul\":20720:20738   */\n      add\n        /* \"#utility.yul\":20712:20738   */\n      swap1\n      pop\n        /* \"#utility.yul\":20784:20793   */\n      dup2\n        /* \"#utility.yul\":20778:20782   */\n      dup2\n        /* \"#utility.yul\":20774:20794   */\n      sub\n        /* \"#utility.yul\":20770:20771   */\n      0x00\n        /* \"#utility.yul\":20759:20768   */\n      dup4\n        /* \"#utility.yul\":20755:20772   */\n      add\n        /* \"#utility.yul\":20748:20795   */\n      mstore\n        /* \"#utility.yul\":20812:20943   */\n      tag_748\n        /* \"#utility.yul\":20938:20942   */\n      dup2\n        /* \"#utility.yul\":20812:20943   */\n      tag_539\n      jump\t// in\n    tag_748:\n        /* \"#utility.yul\":20804:20943   */\n      swap1\n      pop\n        /* \"#utility.yul\":20531:20950   */\n      swap2\n      swap1\n      pop\n      jump\t// out\n        /* \"#utility.yul\":20956:21121   */\n    tag_540:\n        /* \"#utility.yul\":21096:21113   */\n      0x496e76616c696420616464726573730000000000000000000000000000000000\n        /* \"#utility.yul\":21092:21093   */\n      0x00\n        /* \"#utility.yul\":21084:21090   */\n      dup3\n        /* \"#utility.yul\":21080:21094   */\n      add\n        /* \"#utility.yul\":21073:21114   */\n      mstore\n        /* \"#utility.yul\":20956:21121   */\n      pop\n      jump\t// out\n        /* \"#utility.yul\":21127:21493   */\n    tag_541:\n        /* \"#utility.yul\":21269:21272   */\n      0x00\n        /* \"#utility.yul\":21290:21357   */\n      tag_751\n        /* \"#utility.yul\":21354:21356   */\n      0x0f\n        /* \"#utility.yul\":21349:21352   */\n      dup4\n        /* \"#utility.yul\":21290:21357   */\n      tag_499\n      jump\t// in\n    tag_751:\n        /* \"#utility.yul\":21283:21357   */\n      swap2\n      pop\n        /* \"#utility.yul\":21366:21459   */\n      tag_752\n        /* \"#utility.yul\":21455:21458   */\n      dup3\n        /* \"#utility.yul\":21366:21459   */\n      tag_540\n      jump\t// in\n    tag_752:\n        /* \"#utility.yul\":21484:21486   */\n      0x20\n        /* \"#utility.yul\":21479:21482   */\n      dup3\n        /* \"#utility.yul\":21475:21487   */\n      add\n        /* \"#utility.yul\":21468:21487   */\n      swap1\n      pop\n        /* \"#utility.yul\":21127:21493   */\n      swap2\n      swap1\n      pop\n      jump\t// out\n        /* \"#utility.yul\":21499:21918   */\n    tag_378:\n        /* \"#utility.yul\":21665:21669   */\n      0x00\n        /* \"#utility.yul\":21703:21705   */\n      0x20\n        /* \"#utility.yul\":21692:21701   */\n      dup3\n        /* \"#utility.yul\":21688:21706   */\n      add\n        /* \"#utility.yul\":21680:21706   */\n      swap1\n      pop\n        /* \"#utility.yul\":21752:21761   */\n      dup2\n        /* \"#utility.yul\":21746:21750   */\n      dup2\n        /* \"#utility.yul\":21742:21762   */\n      sub\n        /* \"#utility.yul\":21738:21739   */\n      0x00\n        /* \"#utility.yul\":21727:21736   */\n      dup4\n        /* \"#utility.yul\":21723:21740   */\n      add\n        /* \"#utility.yul\":21716:21763   */\n      mstore\n        /* \"#utility.yul\":21780:21911   */\n      tag_754\n        /* \"#utility.yul\":21906:21910   */\n      dup2\n        /* \"#utility.yul\":21780:21911   */\n      tag_541\n      jump\t// in\n    tag_754:\n        /* \"#utility.yul\":21772:21911   */\n      swap1\n      pop\n        /* \"#utility.yul\":21499:21918   */\n      swap2\n      swap1\n      pop\n      jump\t// out\n        /* \"#utility.yul\":21924:22095   */\n    tag_542:\n        /* \"#utility.yul\":22064:22087   */\n      0x5573657220697320616c7265616479204b594365640000000000000000000000\n        /* \"#utility.yul\":22060:22061   */\n      0x00\n        /* \"#utility.yul\":22052:22058   */\n      dup3\n        /* \"#utility.yul\":22048:22062   */\n      add\n        /* \"#utility.yul\":22041:22088   */\n      mstore\n        /* \"#utility.yul\":21924:22095   */\n      pop\n      jump\t// out\n        /* \"#utility.yul\":22101:22467   */\n    tag_543:\n        /* \"#utility.yul\":22243:22246   */\n      0x00\n        /* \"#utility.yul\":22264:22331   */\n      tag_757\n        /* \"#utility.yul\":22328:22330   */\n      0x15\n        /* \"#utility.yul\":22323:22326   */\n      dup4\n        /* \"#utility.yul\":22264:22331   */\n      tag_499\n      jump\t// in\n    tag_757:\n        /* \"#utility.yul\":22257:22331   */\n      swap2\n      pop\n        /* \"#utility.yul\":22340:22433   */\n      tag_758\n        /* \"#utility.yul\":22429:22432   */\n      dup3\n        /* \"#utility.yul\":22340:22433   */\n      tag_542\n      jump\t// in\n    tag_758:\n        /* \"#utility.yul\":22458:22460   */\n      0x20\n        /* \"#utility.yul\":22453:22456   */\n      dup3\n        /* \"#utility.yul\":22449:22461   */\n      add\n        /* \"#utility.yul\":22442:22461   */\n      swap1\n      pop\n        /* \"#utility.yul\":22101:22467   */\n      swap2\n      swap1\n      pop\n      jump\t// out\n        /* \"#utility.yul\":22473:22892   */\n    tag_381:\n        /* \"#utility.yul\":22639:22643   */\n      0x00\n        /* \"#utility.yul\":22677:22679   */\n      0x20\n        /* \"#utility.yul\":22666:22675   */\n      dup3\n        /* \"#utility.yul\":22662:22680   */\n      add\n        /* \"#utility.yul\":22654:22680   */\n      swap1\n      pop\n        /* \"#utility.yul\":22726:22735   */\n      dup2\n        /* \"#utility.yul\":22720:22724   */\n      dup2\n        /* \"#utility.yul\":22716:22736   */\n      sub\n        /* \"#utility.yul\":22712:22713   */\n      0x00\n        /* \"#utility.yul\":22701:22710   */\n      dup4\n        /* \"#utility.yul\":22697:22714   */\n      add\n        /* \"#utility.yul\":22690:22737   */\n      mstore\n        /* \"#utility.yul\":22754:22885   */\n      tag_760\n        /* \"#utility.yul\":22880:22884   */\n      dup2\n        /* \"#utility.yul\":22754:22885   */\n      tag_543\n      jump\t// in\n    tag_760:\n        /* \"#utility.yul\":22746:22885   */\n      swap1\n      pop\n        /* \"#utility.yul\":22473:22892   */\n      swap2\n      swap1\n      pop\n      jump\t// out\n        /* \"#utility.yul\":22898:23079   */\n    tag_544:\n        /* \"#utility.yul\":23038:23071   */\n      0x5265656e7472616e637947756172643a207265656e7472616e742063616c6c00\n        /* \"#utility.yul\":23034:23035   */\n      0x00\n        /* \"#utility.yul\":23026:23032   */\n      dup3\n        /* \"#utility.yul\":23022:23036   */\n      add\n        /* \"#utility.yul\":23015:23072   */\n      mstore\n        /* \"#utility.yul\":22898:23079   */\n      pop\n      jump\t// out\n        /* \"#utility.yul\":23085:23451   */\n    tag_545:\n        /* \"#utility.yul\":23227:23230   */\n      0x00\n        /* \"#utility.yul\":23248:23315   */\n      tag_763\n        /* \"#utility.yul\":23312:23314   */\n      0x1f\n        /* \"#utility.yul\":23307:23310   */\n      dup4\n        /* \"#utility.yul\":23248:23315   */\n      tag_499\n      jump\t// in\n    tag_763:\n        /* \"#utility.yul\":23241:23315   */\n      swap2\n      pop\n        /* \"#utility.yul\":23324:23417   */\n      tag_764\n        /* \"#utility.yul\":23413:23416   */\n      dup3\n        /* \"#utility.yul\":23324:23417   */\n      tag_544\n      jump\t// in\n    tag_764:\n        /* \"#utility.yul\":23442:23444   */\n      0x20\n        /* \"#utility.yul\":23437:23440   */\n      dup3\n        /* \"#utility.yul\":23433:23445   */\n      add\n        /* \"#utility.yul\":23426:23445   */\n      swap1\n      pop\n        /* \"#utility.yul\":23085:23451   */\n      swap2\n      swap1\n      pop\n      jump\t// out\n        /* \"#utility.yul\":23457:23876   */\n    tag_393:\n        /* \"#utility.yul\":23623:23627   */\n      0x00\n        /* \"#utility.yul\":23661:23663   */\n      0x20\n        /* \"#utility.yul\":23650:23659   */\n      dup3\n        /* \"#utility.yul\":23646:23664   */\n      add\n        /* \"#utility.yul\":23638:23664   */\n      swap1\n      pop\n        /* \"#utility.yul\":23710:23719   */\n      dup2\n        /* \"#utility.yul\":23704:23708   */\n      dup2\n        /* \"#utility.yul\":23700:23720   */\n      sub\n        /* \"#utility.yul\":23696:23697   */\n      0x00\n        /* \"#utility.yul\":23685:23694   */\n      dup4\n        /* \"#utility.yul\":23681:23698   */\n      add\n        /* \"#utility.yul\":23674:23721   */\n      mstore\n        /* \"#utility.yul\":23738:23869   */\n      tag_766\n        /* \"#utility.yul\":23864:23868   */\n      dup2\n        /* \"#utility.yul\":23738:23869   */\n      tag_545\n      jump\t// in\n    tag_766:\n        /* \"#utility.yul\":23730:23869   */\n      swap1\n      pop\n        /* \"#utility.yul\":23457:23876   */\n      swap2\n      swap1\n      pop\n      jump\t// out\n        /* \"#utility.yul\":23882:24182   */\n    tag_546:\n        /* \"#utility.yul\":24022:24056   */\n      0x4469766964656e6420506572696f64206973206f6e676f696e672c20616c6c20\n        /* \"#utility.yul\":24018:24019   */\n      0x00\n        /* \"#utility.yul\":24010:24016   */\n      dup3\n        /* \"#utility.yul\":24006:24020   */\n      add\n        /* \"#utility.yul\":23999:24057   */\n      mstore\n        /* \"#utility.yul\":24091:24125   */\n      0x7472616e73666572732077696c6c20726573756d652061667465722064697669\n        /* \"#utility.yul\":24086:24088   */\n      0x20\n        /* \"#utility.yul\":24078:24084   */\n      dup3\n        /* \"#utility.yul\":24074:24089   */\n      add\n        /* \"#utility.yul\":24067:24126   */\n      mstore\n        /* \"#utility.yul\":24160:24174   */\n      0x64656e6420706572696f642e0000000000000000000000000000000000000000\n        /* \"#utility.yul\":24155:24157   */\n      0x40\n        /* \"#utility.yul\":24147:24153   */\n      dup3\n        /* \"#utility.yul\":24143:24158   */\n      add\n        /* \"#utility.yul\":24136:24175   */\n      mstore\n        /* \"#utility.yul\":23882:24182   */\n      pop\n      jump\t// out\n        /* \"#utility.yul\":24188:24554   */\n    tag_547:\n        /* \"#utility.yul\":24330:24333   */\n      0x00\n        /* \"#utility.yul\":24351:24418   */\n      tag_769\n        /* \"#utility.yul\":24415:24417   */\n      0x4c\n        /* \"#utility.yul\":24410:24413   */\n      dup4\n        /* \"#utility.yul\":24351:24418   */\n      tag_499\n      jump\t// in\n    tag_769:\n        /* \"#utility.yul\":24344:24418   */\n      swap2\n      pop\n        /* \"#utility.yul\":24427:24520   */\n      tag_770\n        /* \"#utility.yul\":24516:24519   */\n      dup3\n        /* \"#utility.yul\":24427:24520   */\n      tag_546\n      jump\t// in\n    tag_770:\n        /* \"#utility.yul\":24545:24547   */\n      0x60\n        /* \"#utility.yul\":24540:24543   */\n      dup3\n        /* \"#utility.yul\":24536:24548   */\n      add\n        /* \"#utility.yul\":24529:24548   */\n      swap1\n      pop\n        /* \"#utility.yul\":24188:24554   */\n      swap2\n      swap1\n      pop\n      jump\t// out\n        /* \"#utility.yul\":24560:24979   */\n    tag_407:\n        /* \"#utility.yul\":24726:24730   */\n      0x00\n        /* \"#utility.yul\":24764:24766   */\n      0x20\n        /* \"#utility.yul\":24753:24762   */\n      dup3\n        /* \"#utility.yul\":24749:24767   */\n      add\n        /* \"#utility.yul\":24741:24767   */\n      swap1\n      pop\n        /* \"#utility.yul\":24813:24822   */\n      dup2\n        /* \"#utility.yul\":24807:24811   */\n      dup2\n        /* \"#utility.yul\":24803:24823   */\n      sub\n        /* \"#utility.yul\":24799:24800   */\n      0x00\n        /* \"#utility.yul\":24788:24797   */\n      dup4\n        /* \"#utility.yul\":24784:24801   */\n      add\n        /* \"#utility.yul\":24777:24824   */\n      mstore\n        /* \"#utility.yul\":24841:24972   */\n      tag_772\n        /* \"#utility.yul\":24967:24971   */\n      dup2\n        /* \"#utility.yul\":24841:24972   */\n      tag_547\n      jump\t// in\n    tag_772:\n        /* \"#utility.yul\":24833:24972   */\n      swap1\n      pop\n        /* \"#utility.yul\":24560:24979   */\n      swap2\n      swap1\n      pop\n      jump\t// out\n        /* \"#utility.yul\":24985:25154   */\n    tag_548:\n        /* \"#utility.yul\":25125:25146   */\n      0x53656e646572206973206e6f74204b5943656400000000000000000000000000\n        /* \"#utility.yul\":25121:25122   */\n      0x00\n        /* \"#utility.yul\":25113:25119   */\n      dup3\n        /* \"#utility.yul\":25109:25123   */\n      add\n        /* \"#utility.yul\":25102:25147   */\n      mstore\n        /* \"#utility.yul\":24985:25154   */\n      pop\n      jump\t// out\n        /* \"#utility.yul\":25160:25526   */\n    tag_549:\n        /* \"#utility.yul\":25302:25305   */\n      0x00\n        /* \"#utility.yul\":25323:25390   */\n      tag_775\n        /* \"#utility.yul\":25387:25389   */\n      0x13\n        /* \"#utility.yul\":25382:25385   */\n      dup4\n        /* \"#utility.yul\":25323:25390   */\n      tag_499\n      jump\t// in\n    tag_775:\n        /* \"#utility.yul\":25316:25390   */\n      swap2\n      pop\n        /* \"#utility.yul\":25399:25492   */\n      tag_776\n        /* \"#utility.yul\":25488:25491   */\n      dup3\n        /* \"#utility.yul\":25399:25492   */\n      tag_548\n      jump\t// in\n    tag_776:\n        /* \"#utility.yul\":25517:25519   */\n      0x20\n        /* \"#utility.yul\":25512:25515   */\n      dup3\n        /* \"#utility.yul\":25508:25520   */\n      add\n        /* \"#utility.yul\":25501:25520   */\n      swap1\n      pop\n        /* \"#utility.yul\":25160:25526   */\n      swap2\n      swap1\n      pop\n      jump\t// out\n        /* \"#utility.yul\":25532:25951   */\n    tag_410:\n        /* \"#utility.yul\":25698:25702   */\n      0x00\n        /* \"#utility.yul\":25736:25738   */\n      0x20\n        /* \"#utility.yul\":25725:25734   */\n      dup3\n        /* \"#utility.yul\":25721:25739   */\n      add\n        /* \"#utility.yul\":25713:25739   */\n      swap1\n      pop\n        /* \"#utility.yul\":25785:25794   */\n      dup2\n        /* \"#utility.yul\":25779:25783   */\n      dup2\n        /* \"#utility.yul\":25775:25795   */\n      sub\n        /* \"#utility.yul\":25771:25772   */\n      0x00\n        /* \"#utility.yul\":25760:25769   */\n      dup4\n        /* \"#utility.yul\":25756:25773   */\n      add\n        /* \"#utility.yul\":25749:25796   */\n      mstore\n        /* \"#utility.yul\":25813:25944   */\n      tag_778\n        /* \"#utility.yul\":25939:25943   */\n      dup2\n        /* \"#utility.yul\":25813:25944   */\n      tag_549\n      jump\t// in\n    tag_778:\n        /* \"#utility.yul\":25805:25944   */\n      swap1\n      pop\n        /* \"#utility.yul\":25532:25951   */\n      swap2\n      swap1\n      pop\n      jump\t// out\n        /* \"#utility.yul\":25957:26129   */\n    tag_550:\n        /* \"#utility.yul\":26097:26121   */\n      0x526563697069656e74206973206e6f74204b5943656400000000000000000000\n        /* \"#utility.yul\":26093:26094   */\n      0x00\n        /* \"#utility.yul\":26085:26091   */\n      dup3\n        /* \"#utility.yul\":26081:26095   */\n      add\n        /* \"#utility.yul\":26074:26122   */\n      mstore\n        /* \"#utility.yul\":25957:26129   */\n      pop\n      jump\t// out\n        /* \"#utility.yul\":26135:26501   */\n    tag_551:\n        /* \"#utility.yul\":26277:26280   */\n      0x00\n        /* \"#utility.yul\":26298:26365   */\n      tag_781\n        /* \"#utility.yul\":26362:26364   */\n      0x16\n        /* \"#utility.yul\":26357:26360   */\n      dup4\n        /* \"#utility.yul\":26298:26365   */\n      tag_499\n      jump\t// in\n    tag_781:\n        /* \"#utility.yul\":26291:26365   */\n      swap2\n      pop\n        /* \"#utility.yul\":26374:26467   */\n      tag_782\n        /* \"#utility.yul\":26463:26466   */\n      dup3\n        /* \"#utility.yul\":26374:26467   */\n      tag_550\n      jump\t// in\n    tag_782:\n        /* \"#utility.yul\":26492:26494   */\n      0x20\n        /* \"#utility.yul\":26487:26490   */\n      dup3\n        /* \"#utility.yul\":26483:26495   */\n      add\n        /* \"#utility.yul\":26476:26495   */\n      swap1\n      pop\n        /* \"#utility.yul\":26135:26501   */\n      swap2\n      swap1\n      pop\n      jump\t// out\n        /* \"#utility.yul\":26507:26926   */\n    tag_413:\n        /* \"#utility.yul\":26673:26677   */\n      0x00\n        /* \"#utility.yul\":26711:26713   */\n      0x20\n        /* \"#utility.yul\":26700:26709   */\n      dup3\n        /* \"#utility.yul\":26696:26714   */\n      add\n        /* \"#utility.yul\":26688:26714   */\n      swap1\n      pop\n        /* \"#utility.yul\":26760:26769   */\n      dup2\n        /* \"#utility.yul\":26754:26758   */\n      dup2\n        /* \"#utility.yul\":26750:26770   */\n      sub\n        /* \"#utility.yul\":26746:26747   */\n      0x00\n        /* \"#utility.yul\":26735:26744   */\n      dup4\n        /* \"#utility.yul\":26731:26748   */\n      add\n        /* \"#utility.yul\":26724:26771   */\n      mstore\n        /* \"#utility.yul\":26788:26919   */\n      tag_784\n        /* \"#utility.yul\":26914:26918   */\n      dup2\n        /* \"#utility.yul\":26788:26919   */\n      tag_551\n      jump\t// in\n    tag_784:\n        /* \"#utility.yul\":26780:26919   */\n      swap1\n      pop\n        /* \"#utility.yul\":26507:26926   */\n      swap2\n      swap1\n      pop\n      jump\t// out\n        /* \"#utility.yul\":26932:27264   */\n    tag_443:\n        /* \"#utility.yul\":27053:27057   */\n      0x00\n        /* \"#utility.yul\":27091:27093   */\n      0x40\n        /* \"#utility.yul\":27080:27089   */\n      dup3\n        /* \"#utility.yul\":27076:27094   */\n      add\n        /* \"#utility.yul\":27068:27094   */\n      swap1\n      pop\n        /* \"#utility.yul\":27104:27175   */\n      tag_786\n        /* \"#utility.yul\":27172:27173   */\n      0x00\n        /* \"#utility.yul\":27161:27170   */\n      dup4\n        /* \"#utility.yul\":27157:27174   */\n      add\n        /* \"#utility.yul\":27148:27154   */\n      dup6\n        /* \"#utility.yul\":27104:27175   */\n      tag_510\n      jump\t// in\n    tag_786:\n        /* \"#utility.yul\":27185:27257   */\n      tag_787\n        /* \"#utility.yul\":27253:27255   */\n      0x20\n        /* \"#utility.yul\":27242:27251   */\n      dup4\n        /* \"#utility.yul\":27238:27256   */\n      add\n        /* \"#utility.yul\":27229:27235   */\n      dup5\n        /* \"#utility.yul\":27185:27257   */\n      tag_507\n      jump\t// in\n    tag_787:\n        /* \"#utility.yul\":26932:27264   */\n      swap4\n      swap3\n      pop\n      pop\n      pop\n      jump\t// out\n        /* \"#utility.yul\":27270:27602   */\n    tag_452:\n        /* \"#utility.yul\":27391:27395   */\n      0x00\n        /* \"#utility.yul\":27429:27431   */\n      0x40\n        /* \"#utility.yul\":27418:27427   */\n      dup3\n        /* \"#utility.yul\":27414:27432   */\n      add\n        /* \"#utility.yul\":27406:27432   */\n      swap1\n      pop\n        /* \"#utility.yul\":27442:27513   */\n      tag_789\n        /* \"#utility.yul\":27510:27511   */\n      0x00\n        /* \"#utility.yul\":27499:27508   */\n      dup4\n        /* \"#utility.yul\":27495:27512   */\n      add\n        /* \"#utility.yul\":27486:27492   */\n      dup6\n        /* \"#utility.yul\":27442:27513   */\n      tag_503\n      jump\t// in\n    tag_789:\n        /* \"#utility.yul\":27523:27595   */\n      tag_790\n        /* \"#utility.yul\":27591:27593   */\n      0x20\n        /* \"#utility.yul\":27580:27589   */\n      dup4\n        /* \"#utility.yul\":27576:27594   */\n      add\n        /* \"#utility.yul\":27567:27573   */\n      dup5\n        /* \"#utility.yul\":27523:27595   */\n      tag_503\n      jump\t// in\n    tag_790:\n        /* \"#utility.yul\":27270:27602   */\n      swap4\n      swap3\n      pop\n      pop\n      pop\n      jump\t// out\n        /* \"#utility.yul\":27608:28050   */\n    tag_465:\n        /* \"#utility.yul\":27757:27761   */\n      0x00\n        /* \"#utility.yul\":27795:27797   */\n      0x60\n        /* \"#utility.yul\":27784:27793   */\n      dup3\n        /* \"#utility.yul\":27780:27798   */\n      add\n        /* \"#utility.yul\":27772:27798   */\n      swap1\n      pop\n        /* \"#utility.yul\":27808:27879   */\n      tag_792\n        /* \"#utility.yul\":27876:27877   */\n      0x00\n        /* \"#utility.yul\":27865:27874   */\n      dup4\n        /* \"#utility.yul\":27861:27878   */\n      add\n        /* \"#utility.yul\":27852:27858   */\n      dup7\n        /* \"#utility.yul\":27808:27879   */\n      tag_510\n      jump\t// in\n    tag_792:\n        /* \"#utility.yul\":27889:27961   */\n      tag_793\n        /* \"#utility.yul\":27957:27959   */\n      0x20\n        /* \"#utility.yul\":27946:27955   */\n      dup4\n        /* \"#utility.yul\":27942:27960   */\n      add\n        /* \"#utility.yul\":27933:27939   */\n      dup6\n        /* \"#utility.yul\":27889:27961   */\n      tag_503\n      jump\t// in\n    tag_793:\n        /* \"#utility.yul\":27971:28043   */\n      tag_794\n        /* \"#utility.yul\":28039:28041   */\n      0x40\n        /* \"#utility.yul\":28028:28037   */\n      dup4\n        /* \"#utility.yul\":28024:28042   */\n      add\n        /* \"#utility.yul\":28015:28021   */\n      dup5\n        /* \"#utility.yul\":27971:28043   */\n      tag_503\n      jump\t// in\n    tag_794:\n        /* \"#utility.yul\":27608:28050   */\n      swap5\n      swap4\n      pop\n      pop\n      pop\n      pop\n      jump\t// out\n        /* \"#utility.yul\":28056:28247   */\n    tag_476:\n        /* \"#utility.yul\":28096:28099   */\n      0x00\n        /* \"#utility.yul\":28115:28135   */\n      tag_796\n        /* \"#utility.yul\":28133:28134   */\n      dup3\n        /* \"#utility.yul\":28115:28135   */\n      tag_495\n      jump\t// in\n    tag_796:\n        /* \"#utility.yul\":28110:28135   */\n      swap2\n      pop\n        /* \"#utility.yul\":28149:28169   */\n      tag_797\n        /* \"#utility.yul\":28167:28168   */\n      dup4\n        /* \"#utility.yul\":28149:28169   */\n      tag_495\n      jump\t// in\n    tag_797:\n        /* \"#utility.yul\":28144:28169   */\n      swap3\n      pop\n        /* \"#utility.yul\":28192:28193   */\n      dup3\n        /* \"#utility.yul\":28189:28190   */\n      dup3\n        /* \"#utility.yul\":28185:28194   */\n      add\n        /* \"#utility.yul\":28178:28194   */\n      swap1\n      pop\n        /* \"#utility.yul\":28213:28216   */\n      dup1\n        /* \"#utility.yul\":28210:28211   */\n      dup3\n        /* \"#utility.yul\":28207:28217   */\n      gt\n        /* \"#utility.yul\":28204:28240   */\n      iszero\n      tag_798\n      jumpi\n        /* \"#utility.yul\":28220:28238   */\n      tag_799\n      tag_526\n      jump\t// in\n    tag_799:\n        /* \"#utility.yul\":28204:28240   */\n    tag_798:\n        /* \"#utility.yul\":28056:28247   */\n      swap3\n      swap2\n      pop\n      pop\n      jump\t// out\n\n    auxdata: 0xa2646970667358221220f62b535c09414dc1ba0c918005917eb08c19d29319220f7ce4414627587dd4a364736f6c634300081a0033\n}\n",
				"bytecode": {
					"linkReferences": {},
					"object": "60a060405234801561000f575f80fd5b506040516141f83803806141f88339818101604052810190610031919061068b565b82868681600390816100439190610950565b5080600490816100539190610950565b5050505f810361009a575f6040517f392e1e270000000000000000000000000000000000000000000000000000000081526004016100919190610a58565b60405180910390fd5b80608081815250505060016006819055505f73ffffffffffffffffffffffffffffffffffffffff168173ffffffffffffffffffffffffffffffffffffffff1603610119576040517f08c379a000000000000000000000000000000000000000000000000000000000815260040161011090610acb565b60405180910390fd5b8360075f6101000a81548160ff021916908360ff1602179055508160088190555080600a5f6101000a81548173ffffffffffffffffffffffffffffffffffffffff021916908373ffffffffffffffffffffffffffffffffffffffff1602179055503360095f6101000a81548173ffffffffffffffffffffffffffffffffffffffff021916908373ffffffffffffffffffffffffffffffffffffffff1602179055506101cc5f801b3361029e60201b60201c565b506101fd7f9f2df0fed2c77648de5860a4cc508cd0818c85b8b8a1ab4ceeef8d981c8956a63361029e60201b60201c565b5061022e7fdb11624602202c396fa347735a55e345a3aeb3e60f8885e1a71f1bf8d5886db73361029e60201b60201c565b506102617f9f2df0fed2c77648de5860a4cc508cd0818c85b8b8a1ab4ceeef8d981c8956a65f801b61039460201b60201c565b6102937fdb11624602202c396fa347735a55e345a3aeb3e60f8885e1a71f1bf8d5886db75f801b61039460201b60201c565b505050505050610ae9565b5f6102af83836103f360201b60201c565b61038a57600160055f8581526020019081526020015f205f015f8473ffffffffffffffffffffffffffffffffffffffff1673ffffffffffffffffffffffffffffffffffffffff1681526020019081526020015f205f6101000a81548160ff02191690831515021790555061032761045760201b60201c565b73ffffffffffffffffffffffffffffffffffffffff168273ffffffffffffffffffffffffffffffffffffffff16847f2f8788117e7eff1d82e926ec794901d17c78024a50270940304540a733656f0d60405160405180910390a46001905061038e565b5f90505b92915050565b5f6103a48361045e60201b60201c565b90508160055f8581526020019081526020015f20600101819055508181847fbd79b86ffe0ab8e8776151514217cd7cacd52c909f66475c3af44e129f0b00ff60405160405180910390a4505050565b5f60055f8481526020019081526020015f205f015f8373ffffffffffffffffffffffffffffffffffffffff1673ffffffffffffffffffffffffffffffffffffffff1681526020019081526020015f205f9054906101000a900460ff16905092915050565b5f33905090565b5f60055f8381526020019081526020015f20600101549050919050565b5f604051905090565b5f80fd5b5f80fd5b5f80fd5b5f80fd5b5f601f19601f8301169050919050565b7f4e487b71000000000000000000000000000000000000000000000000000000005f52604160045260245ffd5b6104da82610494565b810181811067ffffffffffffffff821117156104f9576104f86104a4565b5b80604052505050565b5f61050b61047b565b905061051782826104d1565b919050565b5f67ffffffffffffffff821115610536576105356104a4565b5b61053f82610494565b9050602081019050919050565b8281835e5f83830152505050565b5f61056c6105678461051c565b610502565b90508281526020810184848401111561058857610587610490565b5b61059384828561054c565b509392505050565b5f82601f8301126105af576105ae61048c565b5b81516105bf84826020860161055a565b91505092915050565b5f60ff82169050919050565b6105dd816105c8565b81146105e7575f80fd5b50565b5f815190506105f8816105d4565b92915050565b5f819050919050565b610610816105fe565b811461061a575f80fd5b50565b5f8151905061062b81610607565b92915050565b5f73ffffffffffffffffffffffffffffffffffffffff82169050919050565b5f61065a82610631565b9050919050565b61066a81610650565b8114610674575f80fd5b50565b5f8151905061068581610661565b92915050565b5f805f805f8060c087890312156106a5576106a4610484565b5b5f87015167ffffffffffffffff8111156106c2576106c1610488565b5b6106ce89828a0161059b565b965050602087015167ffffffffffffffff8111156106ef576106ee610488565b5b6106fb89828a0161059b565b955050604061070c89828a016105ea565b945050606061071d89828a0161061d565b935050608061072e89828a0161061d565b92505060a061073f89828a01610677565b9150509295509295509295565b5f81519050919050565b7f4e487b71000000000000000000000000000000000000000000000000000000005f52602260045260245ffd5b5f600282049050600182168061079a57607f821691505b6020821081036107ad576107ac610756565b5b50919050565b5f819050815f5260205f209050919050565b5f6020601f8301049050919050565b5f82821b905092915050565b5f6008830261080f7fffffffffffffffffffffffffffffffffffffffffffffffffffffffffffffffff826107d4565b61081986836107d4565b95508019841693508086168417925050509392505050565b5f819050919050565b5f61085461084f61084a846105fe565b610831565b6105fe565b9050919050565b5f819050919050565b61086d8361083a565b6108816108798261085b565b8484546107e0565b825550505050565b5f90565b610895610889565b6108a0818484610864565b505050565b5b818110156108c3576108b85f8261088d565b6001810190506108a6565b5050565b601f821115610908576108d9816107b3565b6108e2846107c5565b810160208510156108f1578190505b6109056108fd856107c5565b8301826108a5565b50505b505050565b5f82821c905092915050565b5f6109285f198460080261090d565b1980831691505092915050565b5f6109408383610919565b9150826002028217905092915050565b6109598261074c565b67ffffffffffffffff811115610972576109716104a4565b5b61097c8254610783565b6109878282856108c7565b5f60209050601f8311600181146109b8575f84156109a6578287015190505b6109b08582610935565b865550610a17565b601f1984166109c6866107b3565b5f5b828110156109ed578489015182556001820191506020850194506020810190506109c8565b86831015610a0a5784890151610a06601f891682610919565b8355505b6001600288020188555050505b505050505050565b5f819050919050565b5f610a42610a3d610a3884610a1f565b610831565b6105fe565b9050919050565b610a5281610a28565b82525050565b5f602082019050610a6b5f830184610a49565b92915050565b5f82825260208201905092915050565b7f496e76616c69642062656e6566696369617279206164647265737300000000005f82015250565b5f610ab5601b83610a71565b9150610ac082610a81565b602082019050919050565b5f6020820190508181035f830152610ae281610aa9565b9050919050565b6080516136f7610b015f395f610c6101526136f75ff3fe608060405260043610610207575f3560e01c806391d1485411610117578063d5dd4c021161009f578063ed831fa41161006e578063ed831fa4146107b6578063f2f2a8ef146107de578063f2fde38b14610808578063f9c8dec314610830578063fb4900fc1461085a5761020e565b8063d5dd4c02146106ec578063d8326a1814610714578063d9d616551461073e578063dd62ed3e1461077a5761020e565b8063a9059cbb116100e6578063a9059cbb146105fa578063a9eb3f9914610636578063b4c7f1ed1461065e578063d53913931461069a578063d547741f146106c45761020e565b806391d148541461054257806395d89b411461057e578063983b2d56146105a8578063a217fddf146105d05761020e565b80632c4e722e1161019a57806336568abe1161016957806336568abe14610460578063565a2e2c14610488578063629044d2146104b257806370a08231146104dc5780638da5cb5b146105185761020e565b80632c4e722e146103ba5780632f2ff15d146103e4578063313ce5671461040c578063355274ea146104365761020e565b806318160ddd116101d657806318160ddd146102dc57806323b872dd14610306578063248a9ca314610342578063263719c11461037e5761020e565b806301ffc9a71461021257806305ab421d1461024e57806306fdde0314610276578063095ea7b3146102a05761020e565b3661020e57005b5f80fd5b34801561021d575f80fd5b5061023860048036038101906102339190612926565b610882565b604051610245919061296b565b60405180910390f35b348015610259575f80fd5b50610274600480360381019061026f9190612a11565b6108fb565b005b348015610281575f80fd5b5061028a610a06565b6040516102979190612abf565b60405180910390f35b3480156102ab575f80fd5b506102c660048036038101906102c19190612a11565b610a96565b6040516102d3919061296b565b60405180910390f35b3480156102e7575f80fd5b506102f0610ab8565b6040516102fd9190612aee565b60405180910390f35b348015610311575f80fd5b5061032c60048036038101906103279190612b07565b610ac1565b604051610339919061296b565b60405180910390f35b34801561034d575f80fd5b5061036860048036038101906103639190612b8a565b610aef565b6040516103759190612bc4565b60405180910390f35b348015610389575f80fd5b506103a4600480360381019061039f9190612a11565b610b0c565b6040516103b1919061296b565b60405180910390f35b3480156103c5575f80fd5b506103ce610c1e565b6040516103db9190612aee565b60405180910390f35b3480156103ef575f80fd5b5061040a60048036038101906104059190612bdd565b610c27565b005b348015610417575f80fd5b50610420610c49565b60405161042d9190612c36565b60405180910390f35b348015610441575f80fd5b5061044a610c5e565b6040516104579190612aee565b60405180910390f35b34801561046b575f80fd5b5061048660048036038101906104819190612bdd565b610c85565b005b348015610493575f80fd5b5061049c610d00565b6040516104a99190612c5e565b60405180910390f35b3480156104bd575f80fd5b506104c6610d28565b6040516104d39190612aee565b60405180910390f35b3480156104e7575f80fd5b5061050260048036038101906104fd9190612c77565b610d34565b60405161050f9190612aee565b60405180910390f35b348015610523575f80fd5b5061052c610d79565b6040516105399190612cc2565b60405180910390f35b34801561054d575f80fd5b5061056860048036038101906105639190612bdd565b610da1565b604051610575919061296b565b60405180910390f35b348015610589575f80fd5b50610592610e05565b60405161059f9190612abf565b60405180910390f35b3480156105b3575f80fd5b506105ce60048036038101906105c99190612c77565b610e95565b005b3480156105db575f80fd5b506105e4610f62565b6040516105f19190612bc4565b60405180910390f35b348015610605575f80fd5b50610620600480360381019061061b9190612a11565b610f68565b60405161062d919061296b565b60405180910390f35b348015610641575f80fd5b5061065c60048036038101906106579190612c77565b610f94565b005b348015610669575f80fd5b50610684600480360381019061067f9190612c77565b611017565b604051610691919061296b565b60405180910390f35b3480156106a5575f80fd5b506106ae611069565b6040516106bb9190612bc4565b60405180910390f35b3480156106cf575f80fd5b506106ea60048036038101906106e59190612bdd565b61108d565b005b3480156106f7575f80fd5b50610712600480360381019061070d9190612d05565b6110af565b005b34801561071f575f80fd5b50610728611107565b604051610735919061296b565b60405180910390f35b348015610749575f80fd5b50610764600480360381019061075f9190612c77565b61111d565b604051610771919061296b565b60405180910390f35b348015610785575f80fd5b506107a0600480360381019061079b9190612d30565b61116f565b6040516107ad9190612aee565b60405180910390f35b3480156107c1575f80fd5b506107dc60048036038101906107d79190612c77565b6111f1565b005b3480156107e9575f80fd5b506107f261177c565b6040516107ff9190612e25565b60405180910390f35b348015610813575f80fd5b5061082e60048036038101906108299190612c77565b611807565b005b34801561083b575f80fd5b50610844611947565b6040516108519190612bc4565b60405180910390f35b348015610865575f80fd5b50610880600480360381019061087b9190612c77565b61196b565b005b5f7f7965db0b000000000000000000000000000000000000000000000000000000007bffffffffffffffffffffffffffffffffffffffffffffffffffffffff1916827bffffffffffffffffffffffffffffffffffffffffffffffffffffffff191614806108f457506108f382611c40565b5b9050919050565b7f9f2df0fed2c77648de5860a4cc508cd0818c85b8b8a1ab4ceeef8d981c8956a661092581611ca9565b61092d611cbd565b5f73ffffffffffffffffffffffffffffffffffffffff168373ffffffffffffffffffffffffffffffffffffffff160361099b576040517f08c379a000000000000000000000000000000000000000000000000000000000815260040161099290612e8f565b60405180910390fd5b5f82116109dd576040517f08c379a00000000000000000000000000000000000000000000000000000000081526004016109d490612ef7565b60405180910390fd5b5f600854836109ec9190612f42565b90506109f88482611d0c565b50610a01611d8b565b505050565b606060038054610a1590612fb0565b80601f0160208091040260200160405190810160405280929190818152602001828054610a4190612fb0565b8015610a8c5780601f10610a6357610100808354040283529160200191610a8c565b820191905f5260205f20905b815481529060010190602001808311610a6f57829003601f168201915b5050505050905090565b5f80610aa0611d95565b9050610aad818585611d9c565b600191505092915050565b5f600254905090565b5f610acc8484611dae565b5f610ad8858585611f14565b9050610ae48585611f42565b809150509392505050565b5f60055f8381526020019081526020015f20600101549050919050565b5f7f9f2df0fed2c77648de5860a4cc508cd0818c85b8b8a1ab4ceeef8d981c8956a6610b3781611ca9565b5f73ffffffffffffffffffffffffffffffffffffffff168473ffffffffffffffffffffffffffffffffffffffff1603610ba5576040517f08c379a0000000000000000000000000000000000000000000000000000000008152600401610b9c90613050565b60405180910390fd5b610baf8484611ff9565b5f610bb985610d34565b03610c13575f600e5f8673ffffffffffffffffffffffffffffffffffffffff1673ffffffffffffffffffffffffffffffffffffffff1681526020019081526020015f205f6101000a81548160ff0219169083151502179055505b600191505092915050565b5f600854905090565b610c3082610aef565b610c3981611ca9565b610c438383612078565b50505050565b5f60075f9054906101000a900460ff16905090565b5f7f0000000000000000000000000000000000000000000000000000000000000000905090565b610c8d611d95565b73ffffffffffffffffffffffffffffffffffffffff168173ffffffffffffffffffffffffffffffffffffffff1614610cf1576040517f6697b23200000000000000000000000000000000000000000000000000000000815260040160405180910390fd5b610cfb8282612162565b505050565b5f600a5f9054906101000a900473ffffffffffffffffffffffffffffffffffffffff16905090565b5f600b80549050905090565b5f805f8373ffffffffffffffffffffffffffffffffffffffff1673ffffffffffffffffffffffffffffffffffffffff1681526020019081526020015f20549050919050565b5f60095f9054906101000a900473ffffffffffffffffffffffffffffffffffffffff16905090565b5f60055f8481526020019081526020015f205f015f8373ffffffffffffffffffffffffffffffffffffffff1673ffffffffffffffffffffffffffffffffffffffff1681526020019081526020015f205f9054906101000a900460ff16905092915050565b606060048054610e1490612fb0565b80601f0160208091040260200160405190810160405280929190818152602001828054610e4090612fb0565b8015610e8b5780601f10610e6257610100808354040283529160200191610e8b565b820191905f5260205f20905b815481529060010190602001808311610e6e57829003601f168201915b5050505050905090565b60095f9054906101000a900473ffffffffffffffffffffffffffffffffffffffff1673ffffffffffffffffffffffffffffffffffffffff163373ffffffffffffffffffffffffffffffffffffffff1614610f24576040517f08c379a0000000000000000000000000000000000000000000000000000000008152600401610f1b906130de565b60405180910390fd5b610f2c611cbd565b610f567f9f2df0fed2c77648de5860a4cc508cd0818c85b8b8a1ab4ceeef8d981c8956a682612078565b50610f5f611d8b565b50565b5f801b81565b5f610f733384611dae565b5f610f7e848461224c565b9050610f8a3385611f42565b8091505092915050565b7f9f2df0fed2c77648de5860a4cc508cd0818c85b8b8a1ab4ceeef8d981c8956a6610fbe81611ca9565b6001600e5f8473ffffffffffffffffffffffffffffffffffffffff1673ffffffffffffffffffffffffffffffffffffffff1681526020019081526020015f205f6101000a81548160ff0219169083151502179055505050565b5f600c5f8373ffffffffffffffffffffffffffffffffffffffff1673ffffffffffffffffffffffffffffffffffffffff1681526020019081526020015f205f9054906101000a900460ff169050919050565b7f9f2df0fed2c77648de5860a4cc508cd0818c85b8b8a1ab4ceeef8d981c8956a681565b61109682610aef565b61109f81611ca9565b6110a98383612162565b50505050565b7f9f2df0fed2c77648de5860a4cc508cd0818c85b8b8a1ab4ceeef8d981c8956a66110d981611ca9565b6110e1611cbd565b81600a60146101000a81548160ff021916908315150217905550611103611d8b565b5050565b5f600a60149054906101000a900460ff16905090565b5f600e5f8373ffffffffffffffffffffffffffffffffffffffff1673ffffffffffffffffffffffffffffffffffffffff1681526020019081526020015f205f9054906101000a900460ff169050919050565b5f60015f8473ffffffffffffffffffffffffffffffffffffffff1673ffffffffffffffffffffffffffffffffffffffff1681526020019081526020015f205f8373ffffffffffffffffffffffffffffffffffffffff1673ffffffffffffffffffffffffffffffffffffffff1681526020019081526020015f2054905092915050565b7fdb11624602202c396fa347735a55e345a3aeb3e60f8885e1a71f1bf8d5886db761121b81611ca9565b611223611cbd565b600c5f8373ffffffffffffffffffffffffffffffffffffffff1673ffffffffffffffffffffffffffffffffffffffff1681526020019081526020015f205f9054906101000a900460ff166112ac576040517f08c379a00000000000000000000000000000000000000000000000000000000081526004016112a390613146565b60405180910390fd5b600e5f8373ffffffffffffffffffffffffffffffffffffffff1673ffffffffffffffffffffffffffffffffffffffff1681526020019081526020015f205f9054906101000a900460ff1615611336576040517f08c379a000000000000000000000000000000000000000000000000000000000815260040161132d906131d4565b60405180910390fd5b5f600b80549050600d5f8573ffffffffffffffffffffffffffffffffffffffff1673ffffffffffffffffffffffffffffffffffffffff1681526020019081526020015f2054101561142b578273ffffffffffffffffffffffffffffffffffffffff16600b600d5f8673ffffffffffffffffffffffffffffffffffffffff1673ffffffffffffffffffffffffffffffffffffffff1681526020019081526020015f2054815481106113e9576113e86131f2565b5b905f5260205f20015f9054906101000a900473ffffffffffffffffffffffffffffffffffffffff1673ffffffffffffffffffffffffffffffffffffffff161490505b8061146b576040517f08c379a000000000000000000000000000000000000000000000000000000000815260040161146290613269565b60405180910390fd5b5f6001600b8054905061147e9190613287565b905080600d5f8673ffffffffffffffffffffffffffffffffffffffff1673ffffffffffffffffffffffffffffffffffffffff1681526020019081526020015f20541461165157600b81815481106114d8576114d76131f2565b5b905f5260205f20015f9054906101000a900473ffffffffffffffffffffffffffffffffffffffff16600b600d5f8773ffffffffffffffffffffffffffffffffffffffff1673ffffffffffffffffffffffffffffffffffffffff1681526020019081526020015f205481548110611551576115506131f2565b5b905f5260205f20015f6101000a81548173ffffffffffffffffffffffffffffffffffffffff021916908373ffffffffffffffffffffffffffffffffffffffff160217905550600d5f8573ffffffffffffffffffffffffffffffffffffffff1673ffffffffffffffffffffffffffffffffffffffff1681526020019081526020015f2054600d5f600b84815481106115eb576115ea6131f2565b5b905f5260205f20015f9054906101000a900473ffffffffffffffffffffffffffffffffffffffff1673ffffffffffffffffffffffffffffffffffffffff1673ffffffffffffffffffffffffffffffffffffffff1681526020019081526020015f20819055505b600b805480611663576116626132ba565b5b600190038181905f5260205f20015f6101000a81549073ffffffffffffffffffffffffffffffffffffffff021916905590555f600c5f8673ffffffffffffffffffffffffffffffffffffffff1673ffffffffffffffffffffffffffffffffffffffff1681526020019081526020015f205f6101000a81548160ff0219169083151502179055505f600d5f8673ffffffffffffffffffffffffffffffffffffffff1673ffffffffffffffffffffffffffffffffffffffff1681526020019081526020015f20819055508373ffffffffffffffffffffffffffffffffffffffff167f8ce60ec723c7fcc3c3f6b1ffaa7b814b03df348c312bb6e4192941716256566460405160405180910390a25050611778611d8b565b5050565b6060600b8054806020026020016040519081016040528092919081815260200182805480156117fd57602002820191905f5260205f20905b815f9054906101000a900473ffffffffffffffffffffffffffffffffffffffff1673ffffffffffffffffffffffffffffffffffffffff16815260200190600101908083116117b4575b5050505050905090565b60095f9054906101000a900473ffffffffffffffffffffffffffffffffffffffff1673ffffffffffffffffffffffffffffffffffffffff163373ffffffffffffffffffffffffffffffffffffffff1614611896576040517f08c379a000000000000000000000000000000000000000000000000000000000815260040161188d906130de565b60405180910390fd5b5f73ffffffffffffffffffffffffffffffffffffffff168173ffffffffffffffffffffffffffffffffffffffff1603611904576040517f08c379a00000000000000000000000000000000000000000000000000000000081526004016118fb90613331565b60405180910390fd5b8060095f6101000a81548173ffffffffffffffffffffffffffffffffffffffff021916908373ffffffffffffffffffffffffffffffffffffffff16021790555050565b7fdb11624602202c396fa347735a55e345a3aeb3e60f8885e1a71f1bf8d5886db781565b7fdb11624602202c396fa347735a55e345a3aeb3e60f8885e1a71f1bf8d5886db761199581611ca9565b61199d611cbd565b5f73ffffffffffffffffffffffffffffffffffffffff168273ffffffffffffffffffffffffffffffffffffffff1603611a0b576040517f08c379a0000000000000000000000000000000000000000000000000000000008152600401611a0290613399565b60405180910390fd5b600c5f8373ffffffffffffffffffffffffffffffffffffffff1673ffffffffffffffffffffffffffffffffffffffff1681526020019081526020015f205f9054906101000a900460ff1615611a95576040517f08c379a0000000000000000000000000000000000000000000000000000000008152600401611a8c90613401565b60405180910390fd5b6001600c5f8473ffffffffffffffffffffffffffffffffffffffff1673ffffffffffffffffffffffffffffffffffffffff1681526020019081526020015f205f6101000a81548160ff021916908315150217905550600b82908060018154018082558091505060019003905f5260205f20015f9091909190916101000a81548173ffffffffffffffffffffffffffffffffffffffff021916908373ffffffffffffffffffffffffffffffffffffffff1602179055506001600b80549050611b5c9190613287565b600d5f8473ffffffffffffffffffffffffffffffffffffffff1673ffffffffffffffffffffffffffffffffffffffff1681526020019081526020015f20819055505f600e5f8473ffffffffffffffffffffffffffffffffffffffff1673ffffffffffffffffffffffffffffffffffffffff1681526020019081526020015f205f6101000a81548160ff0219169083151502179055508173ffffffffffffffffffffffffffffffffffffffff167fe82acf77c2686315e6aeaa43ccec710936b819cb5d01a31fadb2bf2a928c934260405160405180910390a2611c3c611d8b565b5050565b5f7f01ffc9a7000000000000000000000000000000000000000000000000000000007bffffffffffffffffffffffffffffffffffffffffffffffffffffffff1916827bffffffffffffffffffffffffffffffffffffffffffffffffffffffff1916149050919050565b611cba81611cb5611d95565b61226e565b50565b600260065403611d02576040517f08c379a0000000000000000000000000000000000000000000000000000000008152600401611cf990613469565b60405180910390fd5b6002600681905550565b5f73ffffffffffffffffffffffffffffffffffffffff168273ffffffffffffffffffffffffffffffffffffffff1603611d7c575f6040517fec442f05000000000000000000000000000000000000000000000000000000008152600401611d739190612c5e565b60405180910390fd5b611d875f83836122bf565b5050565b6001600681905550565b5f33905090565b611da98383836001612362565b505050565b600a60149054906101000a900460ff1615611dfe576040517f08c379a0000000000000000000000000000000000000000000000000000000008152600401611df59061351d565b60405180910390fd5b600c5f8373ffffffffffffffffffffffffffffffffffffffff1673ffffffffffffffffffffffffffffffffffffffff1681526020019081526020015f205f9054906101000a900460ff16611e87576040517f08c379a0000000000000000000000000000000000000000000000000000000008152600401611e7e90613585565b60405180910390fd5b600c5f8273ffffffffffffffffffffffffffffffffffffffff1673ffffffffffffffffffffffffffffffffffffffff1681526020019081526020015f205f9054906101000a900460ff16611f10576040517f08c379a0000000000000000000000000000000000000000000000000000000008152600401611f07906135ed565b60405180910390fd5b5050565b5f80611f1e611d95565b9050611f2b858285612531565b611f368585856125c4565b60019150509392505050565b6001600e5f8373ffffffffffffffffffffffffffffffffffffffff1673ffffffffffffffffffffffffffffffffffffffff1681526020019081526020015f205f6101000a81548160ff0219169083151502179055505f611fa183610d34565b11600e5f8473ffffffffffffffffffffffffffffffffffffffff1673ffffffffffffffffffffffffffffffffffffffff1681526020019081526020015f205f6101000a81548160ff0219169083151502179055505050565b5f73ffffffffffffffffffffffffffffffffffffffff168273ffffffffffffffffffffffffffffffffffffffff1603612069575f6040517f96c6fd1e0000000000000000000000000000000000000000000000000000000081526004016120609190612c5e565b60405180910390fd5b612074825f836122bf565b5050565b5f6120838383610da1565b61215857600160055f8581526020019081526020015f205f015f8473ffffffffffffffffffffffffffffffffffffffff1673ffffffffffffffffffffffffffffffffffffffff1681526020019081526020015f205f6101000a81548160ff0219169083151502179055506120f5611d95565b73ffffffffffffffffffffffffffffffffffffffff168273ffffffffffffffffffffffffffffffffffffffff16847f2f8788117e7eff1d82e926ec794901d17c78024a50270940304540a733656f0d60405160405180910390a46001905061215c565b5f90505b92915050565b5f61216d8383610da1565b15612242575f60055f8581526020019081526020015f205f015f8473ffffffffffffffffffffffffffffffffffffffff1673ffffffffffffffffffffffffffffffffffffffff1681526020019081526020015f205f6101000a81548160ff0219169083151502179055506121df611d95565b73ffffffffffffffffffffffffffffffffffffffff168273ffffffffffffffffffffffffffffffffffffffff16847ff6391f5c32d9c69d2a47ea670b442974b53935d1edc7fd64eb21e047a839171b60405160405180910390a460019050612246565b5f90505b92915050565b5f80612256611d95565b90506122638185856125c4565b600191505092915050565b6122788282610da1565b6122bb5780826040517fe2517d3f0000000000000000000000000000000000000000000000000000000081526004016122b292919061360b565b60405180910390fd5b5050565b6122ca8383836126b4565b5f73ffffffffffffffffffffffffffffffffffffffff168373ffffffffffffffffffffffffffffffffffffffff160361235d575f612306610c5e565b90505f612311610ab8565b90508181111561235a5780826040517f9e79f854000000000000000000000000000000000000000000000000000000008152600401612351929190613632565b60405180910390fd5b50505b505050565b5f73ffffffffffffffffffffffffffffffffffffffff168473ffffffffffffffffffffffffffffffffffffffff16036123d2575f6040517fe602df050000000000000000000000000000000000000000000000000000000081526004016123c99190612c5e565b60405180910390fd5b5f73ffffffffffffffffffffffffffffffffffffffff168373ffffffffffffffffffffffffffffffffffffffff1603612442575f6040517f94280d620000000000000000000000000000000000000000000000000000000081526004016124399190612c5e565b60405180910390fd5b8160015f8673ffffffffffffffffffffffffffffffffffffffff1673ffffffffffffffffffffffffffffffffffffffff1681526020019081526020015f205f8573ffffffffffffffffffffffffffffffffffffffff1673ffffffffffffffffffffffffffffffffffffffff1681526020019081526020015f2081905550801561252b578273ffffffffffffffffffffffffffffffffffffffff168473ffffffffffffffffffffffffffffffffffffffff167f8c5be1e5ebec7d5bd14f71427d1e84f3dd0314c0f7b2291e5b200ac8c7c3b925846040516125229190612aee565b60405180910390a35b50505050565b5f61253c848461116f565b90507fffffffffffffffffffffffffffffffffffffffffffffffffffffffffffffffff8110156125be57818110156125af578281836040517ffb8f41b20000000000000000000000000000000000000000000000000000000081526004016125a693929190613659565b60405180910390fd5b6125bd84848484035f612362565b5b50505050565b5f73ffffffffffffffffffffffffffffffffffffffff168373ffffffffffffffffffffffffffffffffffffffff1603612634575f6040517f96c6fd1e00000000000000000000000000000000000000000000000000000000815260040161262b9190612c5e565b60405180910390fd5b5f73ffffffffffffffffffffffffffffffffffffffff168273ffffffffffffffffffffffffffffffffffffffff16036126a4575f6040517fec442f0500000000000000000000000000000000000000000000000000000000815260040161269b9190612c5e565b60405180910390fd5b6126af8383836122bf565b505050565b5f73ffffffffffffffffffffffffffffffffffffffff168373ffffffffffffffffffffffffffffffffffffffff1603612704578060025f8282546126f8919061368e565b925050819055506127d2565b5f805f8573ffffffffffffffffffffffffffffffffffffffff1673ffffffffffffffffffffffffffffffffffffffff1681526020019081526020015f205490508181101561278d578381836040517fe450d38c00000000000000000000000000000000000000000000000000000000815260040161278493929190613659565b60405180910390fd5b8181035f808673ffffffffffffffffffffffffffffffffffffffff1673ffffffffffffffffffffffffffffffffffffffff1681526020019081526020015f2081905550505b5f73ffffffffffffffffffffffffffffffffffffffff168273ffffffffffffffffffffffffffffffffffffffff1603612819578060025f8282540392505081905550612863565b805f808473ffffffffffffffffffffffffffffffffffffffff1673ffffffffffffffffffffffffffffffffffffffff1681526020019081526020015f205f82825401925050819055505b8173ffffffffffffffffffffffffffffffffffffffff168373ffffffffffffffffffffffffffffffffffffffff167fddf252ad1be2c89b69c2b068fc378daa952ba7f163c4a11628f55a4df523b3ef836040516128c09190612aee565b60405180910390a3505050565b5f80fd5b5f7fffffffff0000000000000000000000000000000000000000000000000000000082169050919050565b612905816128d1565b811461290f575f80fd5b50565b5f81359050612920816128fc565b92915050565b5f6020828403121561293b5761293a6128cd565b5b5f61294884828501612912565b91505092915050565b5f8115159050919050565b61296581612951565b82525050565b5f60208201905061297e5f83018461295c565b92915050565b5f73ffffffffffffffffffffffffffffffffffffffff82169050919050565b5f6129ad82612984565b9050919050565b6129bd816129a3565b81146129c7575f80fd5b50565b5f813590506129d8816129b4565b92915050565b5f819050919050565b6129f0816129de565b81146129fa575f80fd5b50565b5f81359050612a0b816129e7565b92915050565b5f8060408385031215612a2757612a266128cd565b5b5f612a34858286016129ca565b9250506020612a45858286016129fd565b9150509250929050565b5f81519050919050565b5f82825260208201905092915050565b8281835e5f83830152505050565b5f601f19601f8301169050919050565b5f612a9182612a4f565b612a9b8185612a59565b9350612aab818560208601612a69565b612ab481612a77565b840191505092915050565b5f6020820190508181035f830152612ad78184612a87565b905092915050565b612ae8816129de565b82525050565b5f602082019050612b015f830184612adf565b92915050565b5f805f60608486031215612b1e57612b1d6128cd565b5b5f612b2b868287016129ca565b9350506020612b3c868287016129ca565b9250506040612b4d868287016129fd565b9150509250925092565b5f819050919050565b612b6981612b57565b8114612b73575f80fd5b50565b5f81359050612b8481612b60565b92915050565b5f60208284031215612b9f57612b9e6128cd565b5b5f612bac84828501612b76565b91505092915050565b612bbe81612b57565b82525050565b5f602082019050612bd75f830184612bb5565b92915050565b5f8060408385031215612bf357612bf26128cd565b5b5f612c0085828601612b76565b9250506020612c11858286016129ca565b9150509250929050565b5f60ff82169050919050565b612c3081612c1b565b82525050565b5f602082019050612c495f830184612c27565b92915050565b612c58816129a3565b82525050565b5f602082019050612c715f830184612c4f565b92915050565b5f60208284031215612c8c57612c8b6128cd565b5b5f612c99848285016129ca565b91505092915050565b5f612cac82612984565b9050919050565b612cbc81612ca2565b82525050565b5f602082019050612cd55f830184612cb3565b92915050565b612ce481612951565b8114612cee575f80fd5b50565b5f81359050612cff81612cdb565b92915050565b5f60208284031215612d1a57612d196128cd565b5b5f612d2784828501612cf1565b91505092915050565b5f8060408385031215612d4657612d456128cd565b5b5f612d53858286016129ca565b9250506020612d64858286016129ca565b9150509250929050565b5f81519050919050565b5f82825260208201905092915050565b5f819050602082019050919050565b612da0816129a3565b82525050565b5f612db18383612d97565b60208301905092915050565b5f602082019050919050565b5f612dd382612d6e565b612ddd8185612d78565b9350612de883612d88565b805f5b83811015612e18578151612dff8882612da6565b9750612e0a83612dbd565b925050600181019050612deb565b5085935050505092915050565b5f6020820190508181035f830152612e3d8184612dc9565b905092915050565b7f62757965722069732061207a65726f20616464726573730000000000000000005f82015250565b5f612e79601783612a59565b9150612e8482612e45565b602082019050919050565b5f6020820190508181035f830152612ea681612e6d565b9050919050565b7f776569416d6f756e7420697320300000000000000000000000000000000000005f82015250565b5f612ee1600e83612a59565b9150612eec82612ead565b602082019050919050565b5f6020820190508181035f830152612f0e81612ed5565b9050919050565b7f4e487b71000000000000000000000000000000000000000000000000000000005f52601160045260245ffd5b5f612f4c826129de565b9150612f57836129de565b9250828202612f65816129de565b91508282048414831517612f7c57612f7b612f15565b5b5092915050565b7f4e487b71000000000000000000000000000000000000000000000000000000005f52602260045260245ffd5b5f6002820490506001821680612fc757607f821691505b602082108103612fda57612fd9612f83565b5b50919050565b7f45524332303a206275726e2066726f6d20746865207a65726f206164647265735f8201527f7300000000000000000000000000000000000000000000000000000000000000602082015250565b5f61303a602183612a59565b915061304582612fe0565b604082019050919050565b5f6020820190508181035f8301526130678161302e565b9050919050565b7f4f6e6c7920746865204f776e65722063616e2063616c6c20746869732066756e5f8201527f6374696f6e000000000000000000000000000000000000000000000000000000602082015250565b5f6130c8602583612a59565b91506130d38261306e565b604082019050919050565b5f6020820190508181035f8301526130f5816130bc565b9050919050565b7f55736572206973206e6f74204b594365640000000000000000000000000000005f82015250565b5f613130601183612a59565b915061313b826130fc565b602082019050919050565b5f6020820190508181035f83015261315d81613124565b9050919050565b7f55736572206f776e7320746f6b656e732c2063616e6e6f742072656d6f7665205f8201527f66726f6d204b5943206c69737400000000000000000000000000000000000000602082015250565b5f6131be602d83612a59565b91506131c982613164565b604082019050919050565b5f6020820190508181035f8301526131eb816131b2565b9050919050565b7f4e487b71000000000000000000000000000000000000000000000000000000005f52603260045260245ffd5b7f55736572206e6f7420666f756e6420696e204b5943206c6973740000000000005f82015250565b5f613253601a83612a59565b915061325e8261321f565b602082019050919050565b5f6020820190508181035f83015261328081613247565b9050919050565b5f613291826129de565b915061329c836129de565b92508282039050818111156132b4576132b3612f15565b5b92915050565b7f4e487b71000000000000000000000000000000000000000000000000000000005f52603160045260245ffd5b7f496e76616c6964206e6577206f776e657220616464726573732e0000000000005f82015250565b5f61331b601a83612a59565b9150613326826132e7565b602082019050919050565b5f6020820190508181035f8301526133488161330f565b9050919050565b7f496e76616c6964206164647265737300000000000000000000000000000000005f82015250565b5f613383600f83612a59565b915061338e8261334f565b602082019050919050565b5f6020820190508181035f8301526133b081613377565b9050919050565b7f5573657220697320616c7265616479204b5943656400000000000000000000005f82015250565b5f6133eb601583612a59565b91506133f6826133b7565b602082019050919050565b5f6020820190508181035f830152613418816133df565b9050919050565b7f5265656e7472616e637947756172643a207265656e7472616e742063616c6c005f82015250565b5f613453601f83612a59565b915061345e8261341f565b602082019050919050565b5f6020820190508181035f83015261348081613447565b9050919050565b7f4469766964656e6420506572696f64206973206f6e676f696e672c20616c6c205f8201527f7472616e73666572732077696c6c20726573756d65206166746572206469766960208201527f64656e6420706572696f642e0000000000000000000000000000000000000000604082015250565b5f613507604c83612a59565b915061351282613487565b606082019050919050565b5f6020820190508181035f830152613534816134fb565b9050919050565b7f53656e646572206973206e6f74204b59436564000000000000000000000000005f82015250565b5f61356f601383612a59565b915061357a8261353b565b602082019050919050565b5f6020820190508181035f83015261359c81613563565b9050919050565b7f526563697069656e74206973206e6f74204b59436564000000000000000000005f82015250565b5f6135d7601683612a59565b91506135e2826135a3565b602082019050919050565b5f6020820190508181035f830152613604816135cb565b9050919050565b5f60408201905061361e5f830185612c4f565b61362b6020830184612bb5565b9392505050565b5f6040820190506136455f830185612adf565b6136526020830184612adf565b9392505050565b5f60608201905061366c5f830186612c4f565b6136796020830185612adf565b6136866040830184612adf565b949350505050565b5f613698826129de565b91506136a3836129de565b92508282019050808211156136bb576136ba612f15565b5b9291505056fea2646970667358221220f62b535c09414dc1ba0c918005917eb08c19d29319220f7ce4414627587dd4a364736f6c634300081a0033",
					"opcodes": "PUSH1 0xA0 PUSH1 0x40 MSTORE CALLVALUE DUP1 ISZERO PUSH2 0xF JUMPI PUSH0 DUP1 REVERT JUMPDEST POP PUSH1 0x40 MLOAD PUSH2 0x41F8 CODESIZE SUB DUP1 PUSH2 0x41F8 DUP4 CODECOPY DUP2 DUP2 ADD PUSH1 0x40 MSTORE DUP2 ADD SWAP1 PUSH2 0x31 SWAP2 SWAP1 PUSH2 0x68B JUMP JUMPDEST DUP3 DUP7 DUP7 DUP2 PUSH1 0x3 SWAP1 DUP2 PUSH2 0x43 SWAP2 SWAP1 PUSH2 0x950 JUMP JUMPDEST POP DUP1 PUSH1 0x4 SWAP1 DUP2 PUSH2 0x53 SWAP2 SWAP1 PUSH2 0x950 JUMP JUMPDEST POP POP POP PUSH0 DUP2 SUB PUSH2 0x9A JUMPI PUSH0 PUSH1 0x40 MLOAD PUSH32 0x392E1E2700000000000000000000000000000000000000000000000000000000 DUP2 MSTORE PUSH1 0x4 ADD PUSH2 0x91 SWAP2 SWAP1 PUSH2 0xA58 JUMP JUMPDEST PUSH1 0x40 MLOAD DUP1 SWAP2 SUB SWAP1 REVERT JUMPDEST DUP1 PUSH1 0x80 DUP2 DUP2 MSTORE POP POP POP PUSH1 0x1 PUSH1 0x6 DUP2 SWAP1 SSTORE POP PUSH0 PUSH20 0xFFFFFFFFFFFFFFFFFFFFFFFFFFFFFFFFFFFFFFFF AND DUP2 PUSH20 0xFFFFFFFFFFFFFFFFFFFFFFFFFFFFFFFFFFFFFFFF AND SUB PUSH2 0x119 JUMPI PUSH1 0x40 MLOAD PUSH32 0x8C379A000000000000000000000000000000000000000000000000000000000 DUP2 MSTORE PUSH1 0x4 ADD PUSH2 0x110 SWAP1 PUSH2 0xACB JUMP JUMPDEST PUSH1 0x40 MLOAD DUP1 SWAP2 SUB SWAP1 REVERT JUMPDEST DUP4 PUSH1 0x7 PUSH0 PUSH2 0x100 EXP DUP2 SLOAD DUP2 PUSH1 0xFF MUL NOT AND SWAP1 DUP4 PUSH1 0xFF AND MUL OR SWAP1 SSTORE POP DUP2 PUSH1 0x8 DUP2 SWAP1 SSTORE POP DUP1 PUSH1 0xA PUSH0 PUSH2 0x100 EXP DUP2 SLOAD DUP2 PUSH20 0xFFFFFFFFFFFFFFFFFFFFFFFFFFFFFFFFFFFFFFFF MUL NOT AND SWAP1 DUP4 PUSH20 0xFFFFFFFFFFFFFFFFFFFFFFFFFFFFFFFFFFFFFFFF AND MUL OR SWAP1 SSTORE POP CALLER PUSH1 0x9 PUSH0 PUSH2 0x100 EXP DUP2 SLOAD DUP2 PUSH20 0xFFFFFFFFFFFFFFFFFFFFFFFFFFFFFFFFFFFFFFFF MUL NOT AND SWAP1 DUP4 PUSH20 0xFFFFFFFFFFFFFFFFFFFFFFFFFFFFFFFFFFFFFFFF AND MUL OR SWAP1 SSTORE POP PUSH2 0x1CC PUSH0 DUP1 SHL CALLER PUSH2 0x29E PUSH1 0x20 SHL PUSH1 0x20 SHR JUMP JUMPDEST POP PUSH2 0x1FD PUSH32 0x9F2DF0FED2C77648DE5860A4CC508CD0818C85B8B8A1AB4CEEEF8D981C8956A6 CALLER PUSH2 0x29E PUSH1 0x20 SHL PUSH1 0x20 SHR JUMP JUMPDEST POP PUSH2 0x22E PUSH32 0xDB11624602202C396FA347735A55E345A3AEB3E60F8885E1A71F1BF8D5886DB7 CALLER PUSH2 0x29E PUSH1 0x20 SHL PUSH1 0x20 SHR JUMP JUMPDEST POP PUSH2 0x261 PUSH32 0x9F2DF0FED2C77648DE5860A4CC508CD0818C85B8B8A1AB4CEEEF8D981C8956A6 PUSH0 DUP1 SHL PUSH2 0x394 PUSH1 0x20 SHL PUSH1 0x20 SHR JUMP JUMPDEST PUSH2 0x293 PUSH32 0xDB11624602202C396FA347735A55E345A3AEB3E60F8885E1A71F1BF8D5886DB7 PUSH0 DUP1 SHL PUSH2 0x394 PUSH1 0x20 SHL PUSH1 0x20 SHR JUMP JUMPDEST POP POP POP POP POP POP PUSH2 0xAE9 JUMP JUMPDEST PUSH0 PUSH2 0x2AF DUP4 DUP4 PUSH2 0x3F3 PUSH1 0x20 SHL PUSH1 0x20 SHR JUMP JUMPDEST PUSH2 0x38A JUMPI PUSH1 0x1 PUSH1 0x5 PUSH0 DUP6 DUP2 MSTORE PUSH1 0x20 ADD SWAP1 DUP2 MSTORE PUSH1 0x20 ADD PUSH0 KECCAK256 PUSH0 ADD PUSH0 DUP5 PUSH20 0xFFFFFFFFFFFFFFFFFFFFFFFFFFFFFFFFFFFFFFFF AND PUSH20 0xFFFFFFFFFFFFFFFFFFFFFFFFFFFFFFFFFFFFFFFF AND DUP2 MSTORE PUSH1 0x20 ADD SWAP1 DUP2 MSTORE PUSH1 0x20 ADD PUSH0 KECCAK256 PUSH0 PUSH2 0x100 EXP DUP2 SLOAD DUP2 PUSH1 0xFF MUL NOT AND SWAP1 DUP4 ISZERO ISZERO MUL OR SWAP1 SSTORE POP PUSH2 0x327 PUSH2 0x457 PUSH1 0x20 SHL PUSH1 0x20 SHR JUMP JUMPDEST PUSH20 0xFFFFFFFFFFFFFFFFFFFFFFFFFFFFFFFFFFFFFFFF AND DUP3 PUSH20 0xFFFFFFFFFFFFFFFFFFFFFFFFFFFFFFFFFFFFFFFF AND DUP5 PUSH32 0x2F8788117E7EFF1D82E926EC794901D17C78024A50270940304540A733656F0D PUSH1 0x40 MLOAD PUSH1 0x40 MLOAD DUP1 SWAP2 SUB SWAP1 LOG4 PUSH1 0x1 SWAP1 POP PUSH2 0x38E JUMP JUMPDEST PUSH0 SWAP1 POP JUMPDEST SWAP3 SWAP2 POP POP JUMP JUMPDEST PUSH0 PUSH2 0x3A4 DUP4 PUSH2 0x45E PUSH1 0x20 SHL PUSH1 0x20 SHR JUMP JUMPDEST SWAP1 POP DUP2 PUSH1 0x5 PUSH0 DUP6 DUP2 MSTORE PUSH1 0x20 ADD SWAP1 DUP2 MSTORE PUSH1 0x20 ADD PUSH0 KECCAK256 PUSH1 0x1 ADD DUP2 SWAP1 SSTORE POP DUP2 DUP2 DUP5 PUSH32 0xBD79B86FFE0AB8E8776151514217CD7CACD52C909F66475C3AF44E129F0B00FF PUSH1 0x40 MLOAD PUSH1 0x40 MLOAD DUP1 SWAP2 SUB SWAP1 LOG4 POP POP POP JUMP JUMPDEST PUSH0 PUSH1 0x5 PUSH0 DUP5 DUP2 MSTORE PUSH1 0x20 ADD SWAP1 DUP2 MSTORE PUSH1 0x20 ADD PUSH0 KECCAK256 PUSH0 ADD PUSH0 DUP4 PUSH20 0xFFFFFFFFFFFFFFFFFFFFFFFFFFFFFFFFFFFFFFFF AND PUSH20 0xFFFFFFFFFFFFFFFFFFFFFFFFFFFFFFFFFFFFFFFF AND DUP2 MSTORE PUSH1 0x20 ADD SWAP1 DUP2 MSTORE PUSH1 0x20 ADD PUSH0 KECCAK256 PUSH0 SWAP1 SLOAD SWAP1 PUSH2 0x100 EXP SWAP1 DIV PUSH1 0xFF AND SWAP1 POP SWAP3 SWAP2 POP POP JUMP JUMPDEST PUSH0 CALLER SWAP1 POP SWAP1 JUMP JUMPDEST PUSH0 PUSH1 0x5 PUSH0 DUP4 DUP2 MSTORE PUSH1 0x20 ADD SWAP1 DUP2 MSTORE PUSH1 0x20 ADD PUSH0 KECCAK256 PUSH1 0x1 ADD SLOAD SWAP1 POP SWAP2 SWAP1 POP JUMP JUMPDEST PUSH0 PUSH1 0x40 MLOAD SWAP1 POP SWAP1 JUMP JUMPDEST PUSH0 DUP1 REVERT JUMPDEST PUSH0 DUP1 REVERT JUMPDEST PUSH0 DUP1 REVERT JUMPDEST PUSH0 DUP1 REVERT JUMPDEST PUSH0 PUSH1 0x1F NOT PUSH1 0x1F DUP4 ADD AND SWAP1 POP SWAP2 SWAP1 POP JUMP JUMPDEST PUSH32 0x4E487B7100000000000000000000000000000000000000000000000000000000 PUSH0 MSTORE PUSH1 0x41 PUSH1 0x4 MSTORE PUSH1 0x24 PUSH0 REVERT JUMPDEST PUSH2 0x4DA DUP3 PUSH2 0x494 JUMP JUMPDEST DUP2 ADD DUP2 DUP2 LT PUSH8 0xFFFFFFFFFFFFFFFF DUP3 GT OR ISZERO PUSH2 0x4F9 JUMPI PUSH2 0x4F8 PUSH2 0x4A4 JUMP JUMPDEST JUMPDEST DUP1 PUSH1 0x40 MSTORE POP POP POP JUMP JUMPDEST PUSH0 PUSH2 0x50B PUSH2 0x47B JUMP JUMPDEST SWAP1 POP PUSH2 0x517 DUP3 DUP3 PUSH2 0x4D1 JUMP JUMPDEST SWAP2 SWAP1 POP JUMP JUMPDEST PUSH0 PUSH8 0xFFFFFFFFFFFFFFFF DUP3 GT ISZERO PUSH2 0x536 JUMPI PUSH2 0x535 PUSH2 0x4A4 JUMP JUMPDEST JUMPDEST PUSH2 0x53F DUP3 PUSH2 0x494 JUMP JUMPDEST SWAP1 POP PUSH1 0x20 DUP2 ADD SWAP1 POP SWAP2 SWAP1 POP JUMP JUMPDEST DUP3 DUP2 DUP4 MCOPY PUSH0 DUP4 DUP4 ADD MSTORE POP POP POP JUMP JUMPDEST PUSH0 PUSH2 0x56C PUSH2 0x567 DUP5 PUSH2 0x51C JUMP JUMPDEST PUSH2 0x502 JUMP JUMPDEST SWAP1 POP DUP3 DUP2 MSTORE PUSH1 0x20 DUP2 ADD DUP5 DUP5 DUP5 ADD GT ISZERO PUSH2 0x588 JUMPI PUSH2 0x587 PUSH2 0x490 JUMP JUMPDEST JUMPDEST PUSH2 0x593 DUP5 DUP3 DUP6 PUSH2 0x54C JUMP JUMPDEST POP SWAP4 SWAP3 POP POP POP JUMP JUMPDEST PUSH0 DUP3 PUSH1 0x1F DUP4 ADD SLT PUSH2 0x5AF JUMPI PUSH2 0x5AE PUSH2 0x48C JUMP JUMPDEST JUMPDEST DUP2 MLOAD PUSH2 0x5BF DUP5 DUP3 PUSH1 0x20 DUP7 ADD PUSH2 0x55A JUMP JUMPDEST SWAP2 POP POP SWAP3 SWAP2 POP POP JUMP JUMPDEST PUSH0 PUSH1 0xFF DUP3 AND SWAP1 POP SWAP2 SWAP1 POP JUMP JUMPDEST PUSH2 0x5DD DUP2 PUSH2 0x5C8 JUMP JUMPDEST DUP2 EQ PUSH2 0x5E7 JUMPI PUSH0 DUP1 REVERT JUMPDEST POP JUMP JUMPDEST PUSH0 DUP2 MLOAD SWAP1 POP PUSH2 0x5F8 DUP2 PUSH2 0x5D4 JUMP JUMPDEST SWAP3 SWAP2 POP POP JUMP JUMPDEST PUSH0 DUP2 SWAP1 POP SWAP2 SWAP1 POP JUMP JUMPDEST PUSH2 0x610 DUP2 PUSH2 0x5FE JUMP JUMPDEST DUP2 EQ PUSH2 0x61A JUMPI PUSH0 DUP1 REVERT JUMPDEST POP JUMP JUMPDEST PUSH0 DUP2 MLOAD SWAP1 POP PUSH2 0x62B DUP2 PUSH2 0x607 JUMP JUMPDEST SWAP3 SWAP2 POP POP JUMP JUMPDEST PUSH0 PUSH20 0xFFFFFFFFFFFFFFFFFFFFFFFFFFFFFFFFFFFFFFFF DUP3 AND SWAP1 POP SWAP2 SWAP1 POP JUMP JUMPDEST PUSH0 PUSH2 0x65A DUP3 PUSH2 0x631 JUMP JUMPDEST SWAP1 POP SWAP2 SWAP1 POP JUMP JUMPDEST PUSH2 0x66A DUP2 PUSH2 0x650 JUMP JUMPDEST DUP2 EQ PUSH2 0x674 JUMPI PUSH0 DUP1 REVERT JUMPDEST POP JUMP JUMPDEST PUSH0 DUP2 MLOAD SWAP1 POP PUSH2 0x685 DUP2 PUSH2 0x661 JUMP JUMPDEST SWAP3 SWAP2 POP POP JUMP JUMPDEST PUSH0 DUP1 PUSH0 DUP1 PUSH0 DUP1 PUSH1 0xC0 DUP8 DUP10 SUB SLT ISZERO PUSH2 0x6A5 JUMPI PUSH2 0x6A4 PUSH2 0x484 JUMP JUMPDEST JUMPDEST PUSH0 DUP8 ADD MLOAD PUSH8 0xFFFFFFFFFFFFFFFF DUP2 GT ISZERO PUSH2 0x6C2 JUMPI PUSH2 0x6C1 PUSH2 0x488 JUMP JUMPDEST JUMPDEST PUSH2 0x6CE DUP10 DUP3 DUP11 ADD PUSH2 0x59B JUMP JUMPDEST SWAP7 POP POP PUSH1 0x20 DUP8 ADD MLOAD PUSH8 0xFFFFFFFFFFFFFFFF DUP2 GT ISZERO PUSH2 0x6EF JUMPI PUSH2 0x6EE PUSH2 0x488 JUMP JUMPDEST JUMPDEST PUSH2 0x6FB DUP10 DUP3 DUP11 ADD PUSH2 0x59B JUMP JUMPDEST SWAP6 POP POP PUSH1 0x40 PUSH2 0x70C DUP10 DUP3 DUP11 ADD PUSH2 0x5EA JUMP JUMPDEST SWAP5 POP POP PUSH1 0x60 PUSH2 0x71D DUP10 DUP3 DUP11 ADD PUSH2 0x61D JUMP JUMPDEST SWAP4 POP POP PUSH1 0x80 PUSH2 0x72E DUP10 DUP3 DUP11 ADD PUSH2 0x61D JUMP JUMPDEST SWAP3 POP POP PUSH1 0xA0 PUSH2 0x73F DUP10 DUP3 DUP11 ADD PUSH2 0x677 JUMP JUMPDEST SWAP2 POP POP SWAP3 SWAP6 POP SWAP3 SWAP6 POP SWAP3 SWAP6 JUMP JUMPDEST PUSH0 DUP2 MLOAD SWAP1 POP SWAP2 SWAP1 POP JUMP JUMPDEST PUSH32 0x4E487B7100000000000000000000000000000000000000000000000000000000 PUSH0 MSTORE PUSH1 0x22 PUSH1 0x4 MSTORE PUSH1 0x24 PUSH0 REVERT JUMPDEST PUSH0 PUSH1 0x2 DUP3 DIV SWAP1 POP PUSH1 0x1 DUP3 AND DUP1 PUSH2 0x79A JUMPI PUSH1 0x7F DUP3 AND SWAP2 POP JUMPDEST PUSH1 0x20 DUP3 LT DUP2 SUB PUSH2 0x7AD JUMPI PUSH2 0x7AC PUSH2 0x756 JUMP JUMPDEST JUMPDEST POP SWAP2 SWAP1 POP JUMP JUMPDEST PUSH0 DUP2 SWAP1 POP DUP2 PUSH0 MSTORE PUSH1 0x20 PUSH0 KECCAK256 SWAP1 POP SWAP2 SWAP1 POP JUMP JUMPDEST PUSH0 PUSH1 0x20 PUSH1 0x1F DUP4 ADD DIV SWAP1 POP SWAP2 SWAP1 POP JUMP JUMPDEST PUSH0 DUP3 DUP3 SHL SWAP1 POP SWAP3 SWAP2 POP POP JUMP JUMPDEST PUSH0 PUSH1 0x8 DUP4 MUL PUSH2 0x80F PUSH32 0xFFFFFFFFFFFFFFFFFFFFFFFFFFFFFFFFFFFFFFFFFFFFFFFFFFFFFFFFFFFFFFFF DUP3 PUSH2 0x7D4 JUMP JUMPDEST PUSH2 0x819 DUP7 DUP4 PUSH2 0x7D4 JUMP JUMPDEST SWAP6 POP DUP1 NOT DUP5 AND SWAP4 POP DUP1 DUP7 AND DUP5 OR SWAP3 POP POP POP SWAP4 SWAP3 POP POP POP JUMP JUMPDEST PUSH0 DUP2 SWAP1 POP SWAP2 SWAP1 POP JUMP JUMPDEST PUSH0 PUSH2 0x854 PUSH2 0x84F PUSH2 0x84A DUP5 PUSH2 0x5FE JUMP JUMPDEST PUSH2 0x831 JUMP JUMPDEST PUSH2 0x5FE JUMP JUMPDEST SWAP1 POP SWAP2 SWAP1 POP JUMP JUMPDEST PUSH0 DUP2 SWAP1 POP SWAP2 SWAP1 POP JUMP JUMPDEST PUSH2 0x86D DUP4 PUSH2 0x83A JUMP JUMPDEST PUSH2 0x881 PUSH2 0x879 DUP3 PUSH2 0x85B JUMP JUMPDEST DUP5 DUP5 SLOAD PUSH2 0x7E0 JUMP JUMPDEST DUP3 SSTORE POP POP POP POP JUMP JUMPDEST PUSH0 SWAP1 JUMP JUMPDEST PUSH2 0x895 PUSH2 0x889 JUMP JUMPDEST PUSH2 0x8A0 DUP2 DUP5 DUP5 PUSH2 0x864 JUMP JUMPDEST POP POP POP JUMP JUMPDEST JUMPDEST DUP2 DUP2 LT ISZERO PUSH2 0x8C3 JUMPI PUSH2 0x8B8 PUSH0 DUP3 PUSH2 0x88D JUMP JUMPDEST PUSH1 0x1 DUP2 ADD SWAP1 POP PUSH2 0x8A6 JUMP JUMPDEST POP POP JUMP JUMPDEST PUSH1 0x1F DUP3 GT ISZERO PUSH2 0x908 JUMPI PUSH2 0x8D9 DUP2 PUSH2 0x7B3 JUMP JUMPDEST PUSH2 0x8E2 DUP5 PUSH2 0x7C5 JUMP JUMPDEST DUP2 ADD PUSH1 0x20 DUP6 LT ISZERO PUSH2 0x8F1 JUMPI DUP2 SWAP1 POP JUMPDEST PUSH2 0x905 PUSH2 0x8FD DUP6 PUSH2 0x7C5 JUMP JUMPDEST DUP4 ADD DUP3 PUSH2 0x8A5 JUMP JUMPDEST POP POP JUMPDEST POP POP POP JUMP JUMPDEST PUSH0 DUP3 DUP3 SHR SWAP1 POP SWAP3 SWAP2 POP POP JUMP JUMPDEST PUSH0 PUSH2 0x928 PUSH0 NOT DUP5 PUSH1 0x8 MUL PUSH2 0x90D JUMP JUMPDEST NOT DUP1 DUP4 AND SWAP2 POP POP SWAP3 SWAP2 POP POP JUMP JUMPDEST PUSH0 PUSH2 0x940 DUP4 DUP4 PUSH2 0x919 JUMP JUMPDEST SWAP2 POP DUP3 PUSH1 0x2 MUL DUP3 OR SWAP1 POP SWAP3 SWAP2 POP POP JUMP JUMPDEST PUSH2 0x959 DUP3 PUSH2 0x74C JUMP JUMPDEST PUSH8 0xFFFFFFFFFFFFFFFF DUP2 GT ISZERO PUSH2 0x972 JUMPI PUSH2 0x971 PUSH2 0x4A4 JUMP JUMPDEST JUMPDEST PUSH2 0x97C DUP3 SLOAD PUSH2 0x783 JUMP JUMPDEST PUSH2 0x987 DUP3 DUP3 DUP6 PUSH2 0x8C7 JUMP JUMPDEST PUSH0 PUSH1 0x20 SWAP1 POP PUSH1 0x1F DUP4 GT PUSH1 0x1 DUP2 EQ PUSH2 0x9B8 JUMPI PUSH0 DUP5 ISZERO PUSH2 0x9A6 JUMPI DUP3 DUP8 ADD MLOAD SWAP1 POP JUMPDEST PUSH2 0x9B0 DUP6 DUP3 PUSH2 0x935 JUMP JUMPDEST DUP7 SSTORE POP PUSH2 0xA17 JUMP JUMPDEST PUSH1 0x1F NOT DUP5 AND PUSH2 0x9C6 DUP7 PUSH2 0x7B3 JUMP JUMPDEST PUSH0 JUMPDEST DUP3 DUP2 LT ISZERO PUSH2 0x9ED JUMPI DUP5 DUP10 ADD MLOAD DUP3 SSTORE PUSH1 0x1 DUP3 ADD SWAP2 POP PUSH1 0x20 DUP6 ADD SWAP5 POP PUSH1 0x20 DUP2 ADD SWAP1 POP PUSH2 0x9C8 JUMP JUMPDEST DUP7 DUP4 LT ISZERO PUSH2 0xA0A JUMPI DUP5 DUP10 ADD MLOAD PUSH2 0xA06 PUSH1 0x1F DUP10 AND DUP3 PUSH2 0x919 JUMP JUMPDEST DUP4 SSTORE POP JUMPDEST PUSH1 0x1 PUSH1 0x2 DUP9 MUL ADD DUP9 SSTORE POP POP POP JUMPDEST POP POP POP POP POP POP JUMP JUMPDEST PUSH0 DUP2 SWAP1 POP SWAP2 SWAP1 POP JUMP JUMPDEST PUSH0 PUSH2 0xA42 PUSH2 0xA3D PUSH2 0xA38 DUP5 PUSH2 0xA1F JUMP JUMPDEST PUSH2 0x831 JUMP JUMPDEST PUSH2 0x5FE JUMP JUMPDEST SWAP1 POP SWAP2 SWAP1 POP JUMP JUMPDEST PUSH2 0xA52 DUP2 PUSH2 0xA28 JUMP JUMPDEST DUP3 MSTORE POP POP JUMP JUMPDEST PUSH0 PUSH1 0x20 DUP3 ADD SWAP1 POP PUSH2 0xA6B PUSH0 DUP4 ADD DUP5 PUSH2 0xA49 JUMP JUMPDEST SWAP3 SWAP2 POP POP JUMP JUMPDEST PUSH0 DUP3 DUP3 MSTORE PUSH1 0x20 DUP3 ADD SWAP1 POP SWAP3 SWAP2 POP POP JUMP JUMPDEST PUSH32 0x496E76616C69642062656E656669636961727920616464726573730000000000 PUSH0 DUP3 ADD MSTORE POP JUMP JUMPDEST PUSH0 PUSH2 0xAB5 PUSH1 0x1B DUP4 PUSH2 0xA71 JUMP JUMPDEST SWAP2 POP PUSH2 0xAC0 DUP3 PUSH2 0xA81 JUMP JUMPDEST PUSH1 0x20 DUP3 ADD SWAP1 POP SWAP2 SWAP1 POP JUMP JUMPDEST PUSH0 PUSH1 0x20 DUP3 ADD SWAP1 POP DUP2 DUP2 SUB PUSH0 DUP4 ADD MSTORE PUSH2 0xAE2 DUP2 PUSH2 0xAA9 JUMP JUMPDEST SWAP1 POP SWAP2 SWAP1 POP JUMP JUMPDEST PUSH1 0x80 MLOAD PUSH2 0x36F7 PUSH2 0xB01 PUSH0 CODECOPY PUSH0 PUSH2 0xC61 ADD MSTORE PUSH2 0x36F7 PUSH0 RETURN INVALID PUSH1 0x80 PUSH1 0x40 MSTORE PUSH1 0x4 CALLDATASIZE LT PUSH2 0x207 JUMPI PUSH0 CALLDATALOAD PUSH1 0xE0 SHR DUP1 PUSH4 0x91D14854 GT PUSH2 0x117 JUMPI DUP1 PUSH4 0xD5DD4C02 GT PUSH2 0x9F JUMPI DUP1 PUSH4 0xED831FA4 GT PUSH2 0x6E JUMPI DUP1 PUSH4 0xED831FA4 EQ PUSH2 0x7B6 JUMPI DUP1 PUSH4 0xF2F2A8EF EQ PUSH2 0x7DE JUMPI DUP1 PUSH4 0xF2FDE38B EQ PUSH2 0x808 JUMPI DUP1 PUSH4 0xF9C8DEC3 EQ PUSH2 0x830 JUMPI DUP1 PUSH4 0xFB4900FC EQ PUSH2 0x85A JUMPI PUSH2 0x20E JUMP JUMPDEST DUP1 PUSH4 0xD5DD4C02 EQ PUSH2 0x6EC JUMPI DUP1 PUSH4 0xD8326A18 EQ PUSH2 0x714 JUMPI DUP1 PUSH4 0xD9D61655 EQ PUSH2 0x73E JUMPI DUP1 PUSH4 0xDD62ED3E EQ PUSH2 0x77A JUMPI PUSH2 0x20E JUMP JUMPDEST DUP1 PUSH4 0xA9059CBB GT PUSH2 0xE6 JUMPI DUP1 PUSH4 0xA9059CBB EQ PUSH2 0x5FA JUMPI DUP1 PUSH4 0xA9EB3F99 EQ PUSH2 0x636 JUMPI DUP1 PUSH4 0xB4C7F1ED EQ PUSH2 0x65E JUMPI DUP1 PUSH4 0xD5391393 EQ PUSH2 0x69A JUMPI DUP1 PUSH4 0xD547741F EQ PUSH2 0x6C4 JUMPI PUSH2 0x20E JUMP JUMPDEST DUP1 PUSH4 0x91D14854 EQ PUSH2 0x542 JUMPI DUP1 PUSH4 0x95D89B41 EQ PUSH2 0x57E JUMPI DUP1 PUSH4 0x983B2D56 EQ PUSH2 0x5A8 JUMPI DUP1 PUSH4 0xA217FDDF EQ PUSH2 0x5D0 JUMPI PUSH2 0x20E JUMP JUMPDEST DUP1 PUSH4 0x2C4E722E GT PUSH2 0x19A JUMPI DUP1 PUSH4 0x36568ABE GT PUSH2 0x169 JUMPI DUP1 PUSH4 0x36568ABE EQ PUSH2 0x460 JUMPI DUP1 PUSH4 0x565A2E2C EQ PUSH2 0x488 JUMPI DUP1 PUSH4 0x629044D2 EQ PUSH2 0x4B2 JUMPI DUP1 PUSH4 0x70A08231 EQ PUSH2 0x4DC JUMPI DUP1 PUSH4 0x8DA5CB5B EQ PUSH2 0x518 JUMPI PUSH2 0x20E JUMP JUMPDEST DUP1 PUSH4 0x2C4E722E EQ PUSH2 0x3BA JUMPI DUP1 PUSH4 0x2F2FF15D EQ PUSH2 0x3E4 JUMPI DUP1 PUSH4 0x313CE567 EQ PUSH2 0x40C JUMPI DUP1 PUSH4 0x355274EA EQ PUSH2 0x436 JUMPI PUSH2 0x20E JUMP JUMPDEST DUP1 PUSH4 0x18160DDD GT PUSH2 0x1D6 JUMPI DUP1 PUSH4 0x18160DDD EQ PUSH2 0x2DC JUMPI DUP1 PUSH4 0x23B872DD EQ PUSH2 0x306 JUMPI DUP1 PUSH4 0x248A9CA3 EQ PUSH2 0x342 JUMPI DUP1 PUSH4 0x263719C1 EQ PUSH2 0x37E JUMPI PUSH2 0x20E JUMP JUMPDEST DUP1 PUSH4 0x1FFC9A7 EQ PUSH2 0x212 JUMPI DUP1 PUSH4 0x5AB421D EQ PUSH2 0x24E JUMPI DUP1 PUSH4 0x6FDDE03 EQ PUSH2 0x276 JUMPI DUP1 PUSH4 0x95EA7B3 EQ PUSH2 0x2A0 JUMPI PUSH2 0x20E JUMP JUMPDEST CALLDATASIZE PUSH2 0x20E JUMPI STOP JUMPDEST PUSH0 DUP1 REVERT JUMPDEST CALLVALUE DUP1 ISZERO PUSH2 0x21D JUMPI PUSH0 DUP1 REVERT JUMPDEST POP PUSH2 0x238 PUSH1 0x4 DUP1 CALLDATASIZE SUB DUP2 ADD SWAP1 PUSH2 0x233 SWAP2 SWAP1 PUSH2 0x2926 JUMP JUMPDEST PUSH2 0x882 JUMP JUMPDEST PUSH1 0x40 MLOAD PUSH2 0x245 SWAP2 SWAP1 PUSH2 0x296B JUMP JUMPDEST PUSH1 0x40 MLOAD DUP1 SWAP2 SUB SWAP1 RETURN JUMPDEST CALLVALUE DUP1 ISZERO PUSH2 0x259 JUMPI PUSH0 DUP1 REVERT JUMPDEST POP PUSH2 0x274 PUSH1 0x4 DUP1 CALLDATASIZE SUB DUP2 ADD SWAP1 PUSH2 0x26F SWAP2 SWAP1 PUSH2 0x2A11 JUMP JUMPDEST PUSH2 0x8FB JUMP JUMPDEST STOP JUMPDEST CALLVALUE DUP1 ISZERO PUSH2 0x281 JUMPI PUSH0 DUP1 REVERT JUMPDEST POP PUSH2 0x28A PUSH2 0xA06 JUMP JUMPDEST PUSH1 0x40 MLOAD PUSH2 0x297 SWAP2 SWAP1 PUSH2 0x2ABF JUMP JUMPDEST PUSH1 0x40 MLOAD DUP1 SWAP2 SUB SWAP1 RETURN JUMPDEST CALLVALUE DUP1 ISZERO PUSH2 0x2AB JUMPI PUSH0 DUP1 REVERT JUMPDEST POP PUSH2 0x2C6 PUSH1 0x4 DUP1 CALLDATASIZE SUB DUP2 ADD SWAP1 PUSH2 0x2C1 SWAP2 SWAP1 PUSH2 0x2A11 JUMP JUMPDEST PUSH2 0xA96 JUMP JUMPDEST PUSH1 0x40 MLOAD PUSH2 0x2D3 SWAP2 SWAP1 PUSH2 0x296B JUMP JUMPDEST PUSH1 0x40 MLOAD DUP1 SWAP2 SUB SWAP1 RETURN JUMPDEST CALLVALUE DUP1 ISZERO PUSH2 0x2E7 JUMPI PUSH0 DUP1 REVERT JUMPDEST POP PUSH2 0x2F0 PUSH2 0xAB8 JUMP JUMPDEST PUSH1 0x40 MLOAD PUSH2 0x2FD SWAP2 SWAP1 PUSH2 0x2AEE JUMP JUMPDEST PUSH1 0x40 MLOAD DUP1 SWAP2 SUB SWAP1 RETURN JUMPDEST CALLVALUE DUP1 ISZERO PUSH2 0x311 JUMPI PUSH0 DUP1 REVERT JUMPDEST POP PUSH2 0x32C PUSH1 0x4 DUP1 CALLDATASIZE SUB DUP2 ADD SWAP1 PUSH2 0x327 SWAP2 SWAP1 PUSH2 0x2B07 JUMP JUMPDEST PUSH2 0xAC1 JUMP JUMPDEST PUSH1 0x40 MLOAD PUSH2 0x339 SWAP2 SWAP1 PUSH2 0x296B JUMP JUMPDEST PUSH1 0x40 MLOAD DUP1 SWAP2 SUB SWAP1 RETURN JUMPDEST CALLVALUE DUP1 ISZERO PUSH2 0x34D JUMPI PUSH0 DUP1 REVERT JUMPDEST POP PUSH2 0x368 PUSH1 0x4 DUP1 CALLDATASIZE SUB DUP2 ADD SWAP1 PUSH2 0x363 SWAP2 SWAP1 PUSH2 0x2B8A JUMP JUMPDEST PUSH2 0xAEF JUMP JUMPDEST PUSH1 0x40 MLOAD PUSH2 0x375 SWAP2 SWAP1 PUSH2 0x2BC4 JUMP JUMPDEST PUSH1 0x40 MLOAD DUP1 SWAP2 SUB SWAP1 RETURN JUMPDEST CALLVALUE DUP1 ISZERO PUSH2 0x389 JUMPI PUSH0 DUP1 REVERT JUMPDEST POP PUSH2 0x3A4 PUSH1 0x4 DUP1 CALLDATASIZE SUB DUP2 ADD SWAP1 PUSH2 0x39F SWAP2 SWAP1 PUSH2 0x2A11 JUMP JUMPDEST PUSH2 0xB0C JUMP JUMPDEST PUSH1 0x40 MLOAD PUSH2 0x3B1 SWAP2 SWAP1 PUSH2 0x296B JUMP JUMPDEST PUSH1 0x40 MLOAD DUP1 SWAP2 SUB SWAP1 RETURN JUMPDEST CALLVALUE DUP1 ISZERO PUSH2 0x3C5 JUMPI PUSH0 DUP1 REVERT JUMPDEST POP PUSH2 0x3CE PUSH2 0xC1E JUMP JUMPDEST PUSH1 0x40 MLOAD PUSH2 0x3DB SWAP2 SWAP1 PUSH2 0x2AEE JUMP JUMPDEST PUSH1 0x40 MLOAD DUP1 SWAP2 SUB SWAP1 RETURN JUMPDEST CALLVALUE DUP1 ISZERO PUSH2 0x3EF JUMPI PUSH0 DUP1 REVERT JUMPDEST POP PUSH2 0x40A PUSH1 0x4 DUP1 CALLDATASIZE SUB DUP2 ADD SWAP1 PUSH2 0x405 SWAP2 SWAP1 PUSH2 0x2BDD JUMP JUMPDEST PUSH2 0xC27 JUMP JUMPDEST STOP JUMPDEST CALLVALUE DUP1 ISZERO PUSH2 0x417 JUMPI PUSH0 DUP1 REVERT JUMPDEST POP PUSH2 0x420 PUSH2 0xC49 JUMP JUMPDEST PUSH1 0x40 MLOAD PUSH2 0x42D SWAP2 SWAP1 PUSH2 0x2C36 JUMP JUMPDEST PUSH1 0x40 MLOAD DUP1 SWAP2 SUB SWAP1 RETURN JUMPDEST CALLVALUE DUP1 ISZERO PUSH2 0x441 JUMPI PUSH0 DUP1 REVERT JUMPDEST POP PUSH2 0x44A PUSH2 0xC5E JUMP JUMPDEST PUSH1 0x40 MLOAD PUSH2 0x457 SWAP2 SWAP1 PUSH2 0x2AEE JUMP JUMPDEST PUSH1 0x40 MLOAD DUP1 SWAP2 SUB SWAP1 RETURN JUMPDEST CALLVALUE DUP1 ISZERO PUSH2 0x46B JUMPI PUSH0 DUP1 REVERT JUMPDEST POP PUSH2 0x486 PUSH1 0x4 DUP1 CALLDATASIZE SUB DUP2 ADD SWAP1 PUSH2 0x481 SWAP2 SWAP1 PUSH2 0x2BDD JUMP JUMPDEST PUSH2 0xC85 JUMP JUMPDEST STOP JUMPDEST CALLVALUE DUP1 ISZERO PUSH2 0x493 JUMPI PUSH0 DUP1 REVERT JUMPDEST POP PUSH2 0x49C PUSH2 0xD00 JUMP JUMPDEST PUSH1 0x40 MLOAD PUSH2 0x4A9 SWAP2 SWAP1 PUSH2 0x2C5E JUMP JUMPDEST PUSH1 0x40 MLOAD DUP1 SWAP2 SUB SWAP1 RETURN JUMPDEST CALLVALUE DUP1 ISZERO PUSH2 0x4BD JUMPI PUSH0 DUP1 REVERT JUMPDEST POP PUSH2 0x4C6 PUSH2 0xD28 JUMP JUMPDEST PUSH1 0x40 MLOAD PUSH2 0x4D3 SWAP2 SWAP1 PUSH2 0x2AEE JUMP JUMPDEST PUSH1 0x40 MLOAD DUP1 SWAP2 SUB SWAP1 RETURN JUMPDEST CALLVALUE DUP1 ISZERO PUSH2 0x4E7 JUMPI PUSH0 DUP1 REVERT JUMPDEST POP PUSH2 0x502 PUSH1 0x4 DUP1 CALLDATASIZE SUB DUP2 ADD SWAP1 PUSH2 0x4FD SWAP2 SWAP1 PUSH2 0x2C77 JUMP JUMPDEST PUSH2 0xD34 JUMP JUMPDEST PUSH1 0x40 MLOAD PUSH2 0x50F SWAP2 SWAP1 PUSH2 0x2AEE JUMP JUMPDEST PUSH1 0x40 MLOAD DUP1 SWAP2 SUB SWAP1 RETURN JUMPDEST CALLVALUE DUP1 ISZERO PUSH2 0x523 JUMPI PUSH0 DUP1 REVERT JUMPDEST POP PUSH2 0x52C PUSH2 0xD79 JUMP JUMPDEST PUSH1 0x40 MLOAD PUSH2 0x539 SWAP2 SWAP1 PUSH2 0x2CC2 JUMP JUMPDEST PUSH1 0x40 MLOAD DUP1 SWAP2 SUB SWAP1 RETURN JUMPDEST CALLVALUE DUP1 ISZERO PUSH2 0x54D JUMPI PUSH0 DUP1 REVERT JUMPDEST POP PUSH2 0x568 PUSH1 0x4 DUP1 CALLDATASIZE SUB DUP2 ADD SWAP1 PUSH2 0x563 SWAP2 SWAP1 PUSH2 0x2BDD JUMP JUMPDEST PUSH2 0xDA1 JUMP JUMPDEST PUSH1 0x40 MLOAD PUSH2 0x575 SWAP2 SWAP1 PUSH2 0x296B JUMP JUMPDEST PUSH1 0x40 MLOAD DUP1 SWAP2 SUB SWAP1 RETURN JUMPDEST CALLVALUE DUP1 ISZERO PUSH2 0x589 JUMPI PUSH0 DUP1 REVERT JUMPDEST POP PUSH2 0x592 PUSH2 0xE05 JUMP JUMPDEST PUSH1 0x40 MLOAD PUSH2 0x59F SWAP2 SWAP1 PUSH2 0x2ABF JUMP JUMPDEST PUSH1 0x40 MLOAD DUP1 SWAP2 SUB SWAP1 RETURN JUMPDEST CALLVALUE DUP1 ISZERO PUSH2 0x5B3 JUMPI PUSH0 DUP1 REVERT JUMPDEST POP PUSH2 0x5CE PUSH1 0x4 DUP1 CALLDATASIZE SUB DUP2 ADD SWAP1 PUSH2 0x5C9 SWAP2 SWAP1 PUSH2 0x2C77 JUMP JUMPDEST PUSH2 0xE95 JUMP JUMPDEST STOP JUMPDEST CALLVALUE DUP1 ISZERO PUSH2 0x5DB JUMPI PUSH0 DUP1 REVERT JUMPDEST POP PUSH2 0x5E4 PUSH2 0xF62 JUMP JUMPDEST PUSH1 0x40 MLOAD PUSH2 0x5F1 SWAP2 SWAP1 PUSH2 0x2BC4 JUMP JUMPDEST PUSH1 0x40 MLOAD DUP1 SWAP2 SUB SWAP1 RETURN JUMPDEST CALLVALUE DUP1 ISZERO PUSH2 0x605 JUMPI PUSH0 DUP1 REVERT JUMPDEST POP PUSH2 0x620 PUSH1 0x4 DUP1 CALLDATASIZE SUB DUP2 ADD SWAP1 PUSH2 0x61B SWAP2 SWAP1 PUSH2 0x2A11 JUMP JUMPDEST PUSH2 0xF68 JUMP JUMPDEST PUSH1 0x40 MLOAD PUSH2 0x62D SWAP2 SWAP1 PUSH2 0x296B JUMP JUMPDEST PUSH1 0x40 MLOAD DUP1 SWAP2 SUB SWAP1 RETURN JUMPDEST CALLVALUE DUP1 ISZERO PUSH2 0x641 JUMPI PUSH0 DUP1 REVERT JUMPDEST POP PUSH2 0x65C PUSH1 0x4 DUP1 CALLDATASIZE SUB DUP2 ADD SWAP1 PUSH2 0x657 SWAP2 SWAP1 PUSH2 0x2C77 JUMP JUMPDEST PUSH2 0xF94 JUMP JUMPDEST STOP JUMPDEST CALLVALUE DUP1 ISZERO PUSH2 0x669 JUMPI PUSH0 DUP1 REVERT JUMPDEST POP PUSH2 0x684 PUSH1 0x4 DUP1 CALLDATASIZE SUB DUP2 ADD SWAP1 PUSH2 0x67F SWAP2 SWAP1 PUSH2 0x2C77 JUMP JUMPDEST PUSH2 0x1017 JUMP JUMPDEST PUSH1 0x40 MLOAD PUSH2 0x691 SWAP2 SWAP1 PUSH2 0x296B JUMP JUMPDEST PUSH1 0x40 MLOAD DUP1 SWAP2 SUB SWAP1 RETURN JUMPDEST CALLVALUE DUP1 ISZERO PUSH2 0x6A5 JUMPI PUSH0 DUP1 REVERT JUMPDEST POP PUSH2 0x6AE PUSH2 0x1069 JUMP JUMPDEST PUSH1 0x40 MLOAD PUSH2 0x6BB SWAP2 SWAP1 PUSH2 0x2BC4 JUMP JUMPDEST PUSH1 0x40 MLOAD DUP1 SWAP2 SUB SWAP1 RETURN JUMPDEST CALLVALUE DUP1 ISZERO PUSH2 0x6CF JUMPI PUSH0 DUP1 REVERT JUMPDEST POP PUSH2 0x6EA PUSH1 0x4 DUP1 CALLDATASIZE SUB DUP2 ADD SWAP1 PUSH2 0x6E5 SWAP2 SWAP1 PUSH2 0x2BDD JUMP JUMPDEST PUSH2 0x108D JUMP JUMPDEST STOP JUMPDEST CALLVALUE DUP1 ISZERO PUSH2 0x6F7 JUMPI PUSH0 DUP1 REVERT JUMPDEST POP PUSH2 0x712 PUSH1 0x4 DUP1 CALLDATASIZE SUB DUP2 ADD SWAP1 PUSH2 0x70D SWAP2 SWAP1 PUSH2 0x2D05 JUMP JUMPDEST PUSH2 0x10AF JUMP JUMPDEST STOP JUMPDEST CALLVALUE DUP1 ISZERO PUSH2 0x71F JUMPI PUSH0 DUP1 REVERT JUMPDEST POP PUSH2 0x728 PUSH2 0x1107 JUMP JUMPDEST PUSH1 0x40 MLOAD PUSH2 0x735 SWAP2 SWAP1 PUSH2 0x296B JUMP JUMPDEST PUSH1 0x40 MLOAD DUP1 SWAP2 SUB SWAP1 RETURN JUMPDEST CALLVALUE DUP1 ISZERO PUSH2 0x749 JUMPI PUSH0 DUP1 REVERT JUMPDEST POP PUSH2 0x764 PUSH1 0x4 DUP1 CALLDATASIZE SUB DUP2 ADD SWAP1 PUSH2 0x75F SWAP2 SWAP1 PUSH2 0x2C77 JUMP JUMPDEST PUSH2 0x111D JUMP JUMPDEST PUSH1 0x40 MLOAD PUSH2 0x771 SWAP2 SWAP1 PUSH2 0x296B JUMP JUMPDEST PUSH1 0x40 MLOAD DUP1 SWAP2 SUB SWAP1 RETURN JUMPDEST CALLVALUE DUP1 ISZERO PUSH2 0x785 JUMPI PUSH0 DUP1 REVERT JUMPDEST POP PUSH2 0x7A0 PUSH1 0x4 DUP1 CALLDATASIZE SUB DUP2 ADD SWAP1 PUSH2 0x79B SWAP2 SWAP1 PUSH2 0x2D30 JUMP JUMPDEST PUSH2 0x116F JUMP JUMPDEST PUSH1 0x40 MLOAD PUSH2 0x7AD SWAP2 SWAP1 PUSH2 0x2AEE JUMP JUMPDEST PUSH1 0x40 MLOAD DUP1 SWAP2 SUB SWAP1 RETURN JUMPDEST CALLVALUE DUP1 ISZERO PUSH2 0x7C1 JUMPI PUSH0 DUP1 REVERT JUMPDEST POP PUSH2 0x7DC PUSH1 0x4 DUP1 CALLDATASIZE SUB DUP2 ADD SWAP1 PUSH2 0x7D7 SWAP2 SWAP1 PUSH2 0x2C77 JUMP JUMPDEST PUSH2 0x11F1 JUMP JUMPDEST STOP JUMPDEST CALLVALUE DUP1 ISZERO PUSH2 0x7E9 JUMPI PUSH0 DUP1 REVERT JUMPDEST POP PUSH2 0x7F2 PUSH2 0x177C JUMP JUMPDEST PUSH1 0x40 MLOAD PUSH2 0x7FF SWAP2 SWAP1 PUSH2 0x2E25 JUMP JUMPDEST PUSH1 0x40 MLOAD DUP1 SWAP2 SUB SWAP1 RETURN JUMPDEST CALLVALUE DUP1 ISZERO PUSH2 0x813 JUMPI PUSH0 DUP1 REVERT JUMPDEST POP PUSH2 0x82E PUSH1 0x4 DUP1 CALLDATASIZE SUB DUP2 ADD SWAP1 PUSH2 0x829 SWAP2 SWAP1 PUSH2 0x2C77 JUMP JUMPDEST PUSH2 0x1807 JUMP JUMPDEST STOP JUMPDEST CALLVALUE DUP1 ISZERO PUSH2 0x83B JUMPI PUSH0 DUP1 REVERT JUMPDEST POP PUSH2 0x844 PUSH2 0x1947 JUMP JUMPDEST PUSH1 0x40 MLOAD PUSH2 0x851 SWAP2 SWAP1 PUSH2 0x2BC4 JUMP JUMPDEST PUSH1 0x40 MLOAD DUP1 SWAP2 SUB SWAP1 RETURN JUMPDEST CALLVALUE DUP1 ISZERO PUSH2 0x865 JUMPI PUSH0 DUP1 REVERT JUMPDEST POP PUSH2 0x880 PUSH1 0x4 DUP1 CALLDATASIZE SUB DUP2 ADD SWAP1 PUSH2 0x87B SWAP2 SWAP1 PUSH2 0x2C77 JUMP JUMPDEST PUSH2 0x196B JUMP JUMPDEST STOP JUMPDEST PUSH0 PUSH32 0x7965DB0B00000000000000000000000000000000000000000000000000000000 PUSH28 0xFFFFFFFFFFFFFFFFFFFFFFFFFFFFFFFFFFFFFFFFFFFFFFFFFFFFFFFF NOT AND DUP3 PUSH28 0xFFFFFFFFFFFFFFFFFFFFFFFFFFFFFFFFFFFFFFFFFFFFFFFFFFFFFFFF NOT AND EQ DUP1 PUSH2 0x8F4 JUMPI POP PUSH2 0x8F3 DUP3 PUSH2 0x1C40 JUMP JUMPDEST JUMPDEST SWAP1 POP SWAP2 SWAP1 POP JUMP JUMPDEST PUSH32 0x9F2DF0FED2C77648DE5860A4CC508CD0818C85B8B8A1AB4CEEEF8D981C8956A6 PUSH2 0x925 DUP2 PUSH2 0x1CA9 JUMP JUMPDEST PUSH2 0x92D PUSH2 0x1CBD JUMP JUMPDEST PUSH0 PUSH20 0xFFFFFFFFFFFFFFFFFFFFFFFFFFFFFFFFFFFFFFFF AND DUP4 PUSH20 0xFFFFFFFFFFFFFFFFFFFFFFFFFFFFFFFFFFFFFFFF AND SUB PUSH2 0x99B JUMPI PUSH1 0x40 MLOAD PUSH32 0x8C379A000000000000000000000000000000000000000000000000000000000 DUP2 MSTORE PUSH1 0x4 ADD PUSH2 0x992 SWAP1 PUSH2 0x2E8F JUMP JUMPDEST PUSH1 0x40 MLOAD DUP1 SWAP2 SUB SWAP1 REVERT JUMPDEST PUSH0 DUP3 GT PUSH2 0x9DD JUMPI PUSH1 0x40 MLOAD PUSH32 0x8C379A000000000000000000000000000000000000000000000000000000000 DUP2 MSTORE PUSH1 0x4 ADD PUSH2 0x9D4 SWAP1 PUSH2 0x2EF7 JUMP JUMPDEST PUSH1 0x40 MLOAD DUP1 SWAP2 SUB SWAP1 REVERT JUMPDEST PUSH0 PUSH1 0x8 SLOAD DUP4 PUSH2 0x9EC SWAP2 SWAP1 PUSH2 0x2F42 JUMP JUMPDEST SWAP1 POP PUSH2 0x9F8 DUP5 DUP3 PUSH2 0x1D0C JUMP JUMPDEST POP PUSH2 0xA01 PUSH2 0x1D8B JUMP JUMPDEST POP POP POP JUMP JUMPDEST PUSH1 0x60 PUSH1 0x3 DUP1 SLOAD PUSH2 0xA15 SWAP1 PUSH2 0x2FB0 JUMP JUMPDEST DUP1 PUSH1 0x1F ADD PUSH1 0x20 DUP1 SWAP2 DIV MUL PUSH1 0x20 ADD PUSH1 0x40 MLOAD SWAP1 DUP2 ADD PUSH1 0x40 MSTORE DUP1 SWAP3 SWAP2 SWAP1 DUP2 DUP2 MSTORE PUSH1 0x20 ADD DUP3 DUP1 SLOAD PUSH2 0xA41 SWAP1 PUSH2 0x2FB0 JUMP JUMPDEST DUP1 ISZERO PUSH2 0xA8C JUMPI DUP1 PUSH1 0x1F LT PUSH2 0xA63 JUMPI PUSH2 0x100 DUP1 DUP4 SLOAD DIV MUL DUP4 MSTORE SWAP2 PUSH1 0x20 ADD SWAP2 PUSH2 0xA8C JUMP JUMPDEST DUP3 ADD SWAP2 SWAP1 PUSH0 MSTORE PUSH1 0x20 PUSH0 KECCAK256 SWAP1 JUMPDEST DUP2 SLOAD DUP2 MSTORE SWAP1 PUSH1 0x1 ADD SWAP1 PUSH1 0x20 ADD DUP1 DUP4 GT PUSH2 0xA6F JUMPI DUP3 SWAP1 SUB PUSH1 0x1F AND DUP3 ADD SWAP2 JUMPDEST POP POP POP POP POP SWAP1 POP SWAP1 JUMP JUMPDEST PUSH0 DUP1 PUSH2 0xAA0 PUSH2 0x1D95 JUMP JUMPDEST SWAP1 POP PUSH2 0xAAD DUP2 DUP6 DUP6 PUSH2 0x1D9C JUMP JUMPDEST PUSH1 0x1 SWAP2 POP POP SWAP3 SWAP2 POP POP JUMP JUMPDEST PUSH0 PUSH1 0x2 SLOAD SWAP1 POP SWAP1 JUMP JUMPDEST PUSH0 PUSH2 0xACC DUP5 DUP5 PUSH2 0x1DAE JUMP JUMPDEST PUSH0 PUSH2 0xAD8 DUP6 DUP6 DUP6 PUSH2 0x1F14 JUMP JUMPDEST SWAP1 POP PUSH2 0xAE4 DUP6 DUP6 PUSH2 0x1F42 JUMP JUMPDEST DUP1 SWAP2 POP POP SWAP4 SWAP3 POP POP POP JUMP JUMPDEST PUSH0 PUSH1 0x5 PUSH0 DUP4 DUP2 MSTORE PUSH1 0x20 ADD SWAP1 DUP2 MSTORE PUSH1 0x20 ADD PUSH0 KECCAK256 PUSH1 0x1 ADD SLOAD SWAP1 POP SWAP2 SWAP1 POP JUMP JUMPDEST PUSH0 PUSH32 0x9F2DF0FED2C77648DE5860A4CC508CD0818C85B8B8A1AB4CEEEF8D981C8956A6 PUSH2 0xB37 DUP2 PUSH2 0x1CA9 JUMP JUMPDEST PUSH0 PUSH20 0xFFFFFFFFFFFFFFFFFFFFFFFFFFFFFFFFFFFFFFFF AND DUP5 PUSH20 0xFFFFFFFFFFFFFFFFFFFFFFFFFFFFFFFFFFFFFFFF AND SUB PUSH2 0xBA5 JUMPI PUSH1 0x40 MLOAD PUSH32 0x8C379A000000000000000000000000000000000000000000000000000000000 DUP2 MSTORE PUSH1 0x4 ADD PUSH2 0xB9C SWAP1 PUSH2 0x3050 JUMP JUMPDEST PUSH1 0x40 MLOAD DUP1 SWAP2 SUB SWAP1 REVERT JUMPDEST PUSH2 0xBAF DUP5 DUP5 PUSH2 0x1FF9 JUMP JUMPDEST PUSH0 PUSH2 0xBB9 DUP6 PUSH2 0xD34 JUMP JUMPDEST SUB PUSH2 0xC13 JUMPI PUSH0 PUSH1 0xE PUSH0 DUP7 PUSH20 0xFFFFFFFFFFFFFFFFFFFFFFFFFFFFFFFFFFFFFFFF AND PUSH20 0xFFFFFFFFFFFFFFFFFFFFFFFFFFFFFFFFFFFFFFFF AND DUP2 MSTORE PUSH1 0x20 ADD SWAP1 DUP2 MSTORE PUSH1 0x20 ADD PUSH0 KECCAK256 PUSH0 PUSH2 0x100 EXP DUP2 SLOAD DUP2 PUSH1 0xFF MUL NOT AND SWAP1 DUP4 ISZERO ISZERO MUL OR SWAP1 SSTORE POP JUMPDEST PUSH1 0x1 SWAP2 POP POP SWAP3 SWAP2 POP POP JUMP JUMPDEST PUSH0 PUSH1 0x8 SLOAD SWAP1 POP SWAP1 JUMP JUMPDEST PUSH2 0xC30 DUP3 PUSH2 0xAEF JUMP JUMPDEST PUSH2 0xC39 DUP2 PUSH2 0x1CA9 JUMP JUMPDEST PUSH2 0xC43 DUP4 DUP4 PUSH2 0x2078 JUMP JUMPDEST POP POP POP POP JUMP JUMPDEST PUSH0 PUSH1 0x7 PUSH0 SWAP1 SLOAD SWAP1 PUSH2 0x100 EXP SWAP1 DIV PUSH1 0xFF AND SWAP1 POP SWAP1 JUMP JUMPDEST PUSH0 PUSH32 0x0 SWAP1 POP SWAP1 JUMP JUMPDEST PUSH2 0xC8D PUSH2 0x1D95 JUMP JUMPDEST PUSH20 0xFFFFFFFFFFFFFFFFFFFFFFFFFFFFFFFFFFFFFFFF AND DUP2 PUSH20 0xFFFFFFFFFFFFFFFFFFFFFFFFFFFFFFFFFFFFFFFF AND EQ PUSH2 0xCF1 JUMPI PUSH1 0x40 MLOAD PUSH32 0x6697B23200000000000000000000000000000000000000000000000000000000 DUP2 MSTORE PUSH1 0x4 ADD PUSH1 0x40 MLOAD DUP1 SWAP2 SUB SWAP1 REVERT JUMPDEST PUSH2 0xCFB DUP3 DUP3 PUSH2 0x2162 JUMP JUMPDEST POP POP POP JUMP JUMPDEST PUSH0 PUSH1 0xA PUSH0 SWAP1 SLOAD SWAP1 PUSH2 0x100 EXP SWAP1 DIV PUSH20 0xFFFFFFFFFFFFFFFFFFFFFFFFFFFFFFFFFFFFFFFF AND SWAP1 POP SWAP1 JUMP JUMPDEST PUSH0 PUSH1 0xB DUP1 SLOAD SWAP1 POP SWAP1 POP SWAP1 JUMP JUMPDEST PUSH0 DUP1 PUSH0 DUP4 PUSH20 0xFFFFFFFFFFFFFFFFFFFFFFFFFFFFFFFFFFFFFFFF AND PUSH20 0xFFFFFFFFFFFFFFFFFFFFFFFFFFFFFFFFFFFFFFFF AND DUP2 MSTORE PUSH1 0x20 ADD SWAP1 DUP2 MSTORE PUSH1 0x20 ADD PUSH0 KECCAK256 SLOAD SWAP1 POP SWAP2 SWAP1 POP JUMP JUMPDEST PUSH0 PUSH1 0x9 PUSH0 SWAP1 SLOAD SWAP1 PUSH2 0x100 EXP SWAP1 DIV PUSH20 0xFFFFFFFFFFFFFFFFFFFFFFFFFFFFFFFFFFFFFFFF AND SWAP1 POP SWAP1 JUMP JUMPDEST PUSH0 PUSH1 0x5 PUSH0 DUP5 DUP2 MSTORE PUSH1 0x20 ADD SWAP1 DUP2 MSTORE PUSH1 0x20 ADD PUSH0 KECCAK256 PUSH0 ADD PUSH0 DUP4 PUSH20 0xFFFFFFFFFFFFFFFFFFFFFFFFFFFFFFFFFFFFFFFF AND PUSH20 0xFFFFFFFFFFFFFFFFFFFFFFFFFFFFFFFFFFFFFFFF AND DUP2 MSTORE PUSH1 0x20 ADD SWAP1 DUP2 MSTORE PUSH1 0x20 ADD PUSH0 KECCAK256 PUSH0 SWAP1 SLOAD SWAP1 PUSH2 0x100 EXP SWAP1 DIV PUSH1 0xFF AND SWAP1 POP SWAP3 SWAP2 POP POP JUMP JUMPDEST PUSH1 0x60 PUSH1 0x4 DUP1 SLOAD PUSH2 0xE14 SWAP1 PUSH2 0x2FB0 JUMP JUMPDEST DUP1 PUSH1 0x1F ADD PUSH1 0x20 DUP1 SWAP2 DIV MUL PUSH1 0x20 ADD PUSH1 0x40 MLOAD SWAP1 DUP2 ADD PUSH1 0x40 MSTORE DUP1 SWAP3 SWAP2 SWAP1 DUP2 DUP2 MSTORE PUSH1 0x20 ADD DUP3 DUP1 SLOAD PUSH2 0xE40 SWAP1 PUSH2 0x2FB0 JUMP JUMPDEST DUP1 ISZERO PUSH2 0xE8B JUMPI DUP1 PUSH1 0x1F LT PUSH2 0xE62 JUMPI PUSH2 0x100 DUP1 DUP4 SLOAD DIV MUL DUP4 MSTORE SWAP2 PUSH1 0x20 ADD SWAP2 PUSH2 0xE8B JUMP JUMPDEST DUP3 ADD SWAP2 SWAP1 PUSH0 MSTORE PUSH1 0x20 PUSH0 KECCAK256 SWAP1 JUMPDEST DUP2 SLOAD DUP2 MSTORE SWAP1 PUSH1 0x1 ADD SWAP1 PUSH1 0x20 ADD DUP1 DUP4 GT PUSH2 0xE6E JUMPI DUP3 SWAP1 SUB PUSH1 0x1F AND DUP3 ADD SWAP2 JUMPDEST POP POP POP POP POP SWAP1 POP SWAP1 JUMP JUMPDEST PUSH1 0x9 PUSH0 SWAP1 SLOAD SWAP1 PUSH2 0x100 EXP SWAP1 DIV PUSH20 0xFFFFFFFFFFFFFFFFFFFFFFFFFFFFFFFFFFFFFFFF AND PUSH20 0xFFFFFFFFFFFFFFFFFFFFFFFFFFFFFFFFFFFFFFFF AND CALLER PUSH20 0xFFFFFFFFFFFFFFFFFFFFFFFFFFFFFFFFFFFFFFFF AND EQ PUSH2 0xF24 JUMPI PUSH1 0x40 MLOAD PUSH32 0x8C379A000000000000000000000000000000000000000000000000000000000 DUP2 MSTORE PUSH1 0x4 ADD PUSH2 0xF1B SWAP1 PUSH2 0x30DE JUMP JUMPDEST PUSH1 0x40 MLOAD DUP1 SWAP2 SUB SWAP1 REVERT JUMPDEST PUSH2 0xF2C PUSH2 0x1CBD JUMP JUMPDEST PUSH2 0xF56 PUSH32 0x9F2DF0FED2C77648DE5860A4CC508CD0818C85B8B8A1AB4CEEEF8D981C8956A6 DUP3 PUSH2 0x2078 JUMP JUMPDEST POP PUSH2 0xF5F PUSH2 0x1D8B JUMP JUMPDEST POP JUMP JUMPDEST PUSH0 DUP1 SHL DUP2 JUMP JUMPDEST PUSH0 PUSH2 0xF73 CALLER DUP5 PUSH2 0x1DAE JUMP JUMPDEST PUSH0 PUSH2 0xF7E DUP5 DUP5 PUSH2 0x224C JUMP JUMPDEST SWAP1 POP PUSH2 0xF8A CALLER DUP6 PUSH2 0x1F42 JUMP JUMPDEST DUP1 SWAP2 POP POP SWAP3 SWAP2 POP POP JUMP JUMPDEST PUSH32 0x9F2DF0FED2C77648DE5860A4CC508CD0818C85B8B8A1AB4CEEEF8D981C8956A6 PUSH2 0xFBE DUP2 PUSH2 0x1CA9 JUMP JUMPDEST PUSH1 0x1 PUSH1 0xE PUSH0 DUP5 PUSH20 0xFFFFFFFFFFFFFFFFFFFFFFFFFFFFFFFFFFFFFFFF AND PUSH20 0xFFFFFFFFFFFFFFFFFFFFFFFFFFFFFFFFFFFFFFFF AND DUP2 MSTORE PUSH1 0x20 ADD SWAP1 DUP2 MSTORE PUSH1 0x20 ADD PUSH0 KECCAK256 PUSH0 PUSH2 0x100 EXP DUP2 SLOAD DUP2 PUSH1 0xFF MUL NOT AND SWAP1 DUP4 ISZERO ISZERO MUL OR SWAP1 SSTORE POP POP POP JUMP JUMPDEST PUSH0 PUSH1 0xC PUSH0 DUP4 PUSH20 0xFFFFFFFFFFFFFFFFFFFFFFFFFFFFFFFFFFFFFFFF AND PUSH20 0xFFFFFFFFFFFFFFFFFFFFFFFFFFFFFFFFFFFFFFFF AND DUP2 MSTORE PUSH1 0x20 ADD SWAP1 DUP2 MSTORE PUSH1 0x20 ADD PUSH0 KECCAK256 PUSH0 SWAP1 SLOAD SWAP1 PUSH2 0x100 EXP SWAP1 DIV PUSH1 0xFF AND SWAP1 POP SWAP2 SWAP1 POP JUMP JUMPDEST PUSH32 0x9F2DF0FED2C77648DE5860A4CC508CD0818C85B8B8A1AB4CEEEF8D981C8956A6 DUP2 JUMP JUMPDEST PUSH2 0x1096 DUP3 PUSH2 0xAEF JUMP JUMPDEST PUSH2 0x109F DUP2 PUSH2 0x1CA9 JUMP JUMPDEST PUSH2 0x10A9 DUP4 DUP4 PUSH2 0x2162 JUMP JUMPDEST POP POP POP POP JUMP JUMPDEST PUSH32 0x9F2DF0FED2C77648DE5860A4CC508CD0818C85B8B8A1AB4CEEEF8D981C8956A6 PUSH2 0x10D9 DUP2 PUSH2 0x1CA9 JUMP JUMPDEST PUSH2 0x10E1 PUSH2 0x1CBD JUMP JUMPDEST DUP2 PUSH1 0xA PUSH1 0x14 PUSH2 0x100 EXP DUP2 SLOAD DUP2 PUSH1 0xFF MUL NOT AND SWAP1 DUP4 ISZERO ISZERO MUL OR SWAP1 SSTORE POP PUSH2 0x1103 PUSH2 0x1D8B JUMP JUMPDEST POP POP JUMP JUMPDEST PUSH0 PUSH1 0xA PUSH1 0x14 SWAP1 SLOAD SWAP1 PUSH2 0x100 EXP SWAP1 DIV PUSH1 0xFF AND SWAP1 POP SWAP1 JUMP JUMPDEST PUSH0 PUSH1 0xE PUSH0 DUP4 PUSH20 0xFFFFFFFFFFFFFFFFFFFFFFFFFFFFFFFFFFFFFFFF AND PUSH20 0xFFFFFFFFFFFFFFFFFFFFFFFFFFFFFFFFFFFFFFFF AND DUP2 MSTORE PUSH1 0x20 ADD SWAP1 DUP2 MSTORE PUSH1 0x20 ADD PUSH0 KECCAK256 PUSH0 SWAP1 SLOAD SWAP1 PUSH2 0x100 EXP SWAP1 DIV PUSH1 0xFF AND SWAP1 POP SWAP2 SWAP1 POP JUMP JUMPDEST PUSH0 PUSH1 0x1 PUSH0 DUP5 PUSH20 0xFFFFFFFFFFFFFFFFFFFFFFFFFFFFFFFFFFFFFFFF AND PUSH20 0xFFFFFFFFFFFFFFFFFFFFFFFFFFFFFFFFFFFFFFFF AND DUP2 MSTORE PUSH1 0x20 ADD SWAP1 DUP2 MSTORE PUSH1 0x20 ADD PUSH0 KECCAK256 PUSH0 DUP4 PUSH20 0xFFFFFFFFFFFFFFFFFFFFFFFFFFFFFFFFFFFFFFFF AND PUSH20 0xFFFFFFFFFFFFFFFFFFFFFFFFFFFFFFFFFFFFFFFF AND DUP2 MSTORE PUSH1 0x20 ADD SWAP1 DUP2 MSTORE PUSH1 0x20 ADD PUSH0 KECCAK256 SLOAD SWAP1 POP SWAP3 SWAP2 POP POP JUMP JUMPDEST PUSH32 0xDB11624602202C396FA347735A55E345A3AEB3E60F8885E1A71F1BF8D5886DB7 PUSH2 0x121B DUP2 PUSH2 0x1CA9 JUMP JUMPDEST PUSH2 0x1223 PUSH2 0x1CBD JUMP JUMPDEST PUSH1 0xC PUSH0 DUP4 PUSH20 0xFFFFFFFFFFFFFFFFFFFFFFFFFFFFFFFFFFFFFFFF AND PUSH20 0xFFFFFFFFFFFFFFFFFFFFFFFFFFFFFFFFFFFFFFFF AND DUP2 MSTORE PUSH1 0x20 ADD SWAP1 DUP2 MSTORE PUSH1 0x20 ADD PUSH0 KECCAK256 PUSH0 SWAP1 SLOAD SWAP1 PUSH2 0x100 EXP SWAP1 DIV PUSH1 0xFF AND PUSH2 0x12AC JUMPI PUSH1 0x40 MLOAD PUSH32 0x8C379A000000000000000000000000000000000000000000000000000000000 DUP2 MSTORE PUSH1 0x4 ADD PUSH2 0x12A3 SWAP1 PUSH2 0x3146 JUMP JUMPDEST PUSH1 0x40 MLOAD DUP1 SWAP2 SUB SWAP1 REVERT JUMPDEST PUSH1 0xE PUSH0 DUP4 PUSH20 0xFFFFFFFFFFFFFFFFFFFFFFFFFFFFFFFFFFFFFFFF AND PUSH20 0xFFFFFFFFFFFFFFFFFFFFFFFFFFFFFFFFFFFFFFFF AND DUP2 MSTORE PUSH1 0x20 ADD SWAP1 DUP2 MSTORE PUSH1 0x20 ADD PUSH0 KECCAK256 PUSH0 SWAP1 SLOAD SWAP1 PUSH2 0x100 EXP SWAP1 DIV PUSH1 0xFF AND ISZERO PUSH2 0x1336 JUMPI PUSH1 0x40 MLOAD PUSH32 0x8C379A000000000000000000000000000000000000000000000000000000000 DUP2 MSTORE PUSH1 0x4 ADD PUSH2 0x132D SWAP1 PUSH2 0x31D4 JUMP JUMPDEST PUSH1 0x40 MLOAD DUP1 SWAP2 SUB SWAP1 REVERT JUMPDEST PUSH0 PUSH1 0xB DUP1 SLOAD SWAP1 POP PUSH1 0xD PUSH0 DUP6 PUSH20 0xFFFFFFFFFFFFFFFFFFFFFFFFFFFFFFFFFFFFFFFF AND PUSH20 0xFFFFFFFFFFFFFFFFFFFFFFFFFFFFFFFFFFFFFFFF AND DUP2 MSTORE PUSH1 0x20 ADD SWAP1 DUP2 MSTORE PUSH1 0x20 ADD PUSH0 KECCAK256 SLOAD LT ISZERO PUSH2 0x142B JUMPI DUP3 PUSH20 0xFFFFFFFFFFFFFFFFFFFFFFFFFFFFFFFFFFFFFFFF AND PUSH1 0xB PUSH1 0xD PUSH0 DUP7 PUSH20 0xFFFFFFFFFFFFFFFFFFFFFFFFFFFFFFFFFFFFFFFF AND PUSH20 0xFFFFFFFFFFFFFFFFFFFFFFFFFFFFFFFFFFFFFFFF AND DUP2 MSTORE PUSH1 0x20 ADD SWAP1 DUP2 MSTORE PUSH1 0x20 ADD PUSH0 KECCAK256 SLOAD DUP2 SLOAD DUP2 LT PUSH2 0x13E9 JUMPI PUSH2 0x13E8 PUSH2 0x31F2 JUMP JUMPDEST JUMPDEST SWAP1 PUSH0 MSTORE PUSH1 0x20 PUSH0 KECCAK256 ADD PUSH0 SWAP1 SLOAD SWAP1 PUSH2 0x100 EXP SWAP1 DIV PUSH20 0xFFFFFFFFFFFFFFFFFFFFFFFFFFFFFFFFFFFFFFFF AND PUSH20 0xFFFFFFFFFFFFFFFFFFFFFFFFFFFFFFFFFFFFFFFF AND EQ SWAP1 POP JUMPDEST DUP1 PUSH2 0x146B JUMPI PUSH1 0x40 MLOAD PUSH32 0x8C379A000000000000000000000000000000000000000000000000000000000 DUP2 MSTORE PUSH1 0x4 ADD PUSH2 0x1462 SWAP1 PUSH2 0x3269 JUMP JUMPDEST PUSH1 0x40 MLOAD DUP1 SWAP2 SUB SWAP1 REVERT JUMPDEST PUSH0 PUSH1 0x1 PUSH1 0xB DUP1 SLOAD SWAP1 POP PUSH2 0x147E SWAP2 SWAP1 PUSH2 0x3287 JUMP JUMPDEST SWAP1 POP DUP1 PUSH1 0xD PUSH0 DUP7 PUSH20 0xFFFFFFFFFFFFFFFFFFFFFFFFFFFFFFFFFFFFFFFF AND PUSH20 0xFFFFFFFFFFFFFFFFFFFFFFFFFFFFFFFFFFFFFFFF AND DUP2 MSTORE PUSH1 0x20 ADD SWAP1 DUP2 MSTORE PUSH1 0x20 ADD PUSH0 KECCAK256 SLOAD EQ PUSH2 0x1651 JUMPI PUSH1 0xB DUP2 DUP2 SLOAD DUP2 LT PUSH2 0x14D8 JUMPI PUSH2 0x14D7 PUSH2 0x31F2 JUMP JUMPDEST JUMPDEST SWAP1 PUSH0 MSTORE PUSH1 0x20 PUSH0 KECCAK256 ADD PUSH0 SWAP1 SLOAD SWAP1 PUSH2 0x100 EXP SWAP1 DIV PUSH20 0xFFFFFFFFFFFFFFFFFFFFFFFFFFFFFFFFFFFFFFFF AND PUSH1 0xB PUSH1 0xD PUSH0 DUP8 PUSH20 0xFFFFFFFFFFFFFFFFFFFFFFFFFFFFFFFFFFFFFFFF AND PUSH20 0xFFFFFFFFFFFFFFFFFFFFFFFFFFFFFFFFFFFFFFFF AND DUP2 MSTORE PUSH1 0x20 ADD SWAP1 DUP2 MSTORE PUSH1 0x20 ADD PUSH0 KECCAK256 SLOAD DUP2 SLOAD DUP2 LT PUSH2 0x1551 JUMPI PUSH2 0x1550 PUSH2 0x31F2 JUMP JUMPDEST JUMPDEST SWAP1 PUSH0 MSTORE PUSH1 0x20 PUSH0 KECCAK256 ADD PUSH0 PUSH2 0x100 EXP DUP2 SLOAD DUP2 PUSH20 0xFFFFFFFFFFFFFFFFFFFFFFFFFFFFFFFFFFFFFFFF MUL NOT AND SWAP1 DUP4 PUSH20 0xFFFFFFFFFFFFFFFFFFFFFFFFFFFFFFFFFFFFFFFF AND MUL OR SWAP1 SSTORE POP PUSH1 0xD PUSH0 DUP6 PUSH20 0xFFFFFFFFFFFFFFFFFFFFFFFFFFFFFFFFFFFFFFFF AND PUSH20 0xFFFFFFFFFFFFFFFFFFFFFFFFFFFFFFFFFFFFFFFF AND DUP2 MSTORE PUSH1 0x20 ADD SWAP1 DUP2 MSTORE PUSH1 0x20 ADD PUSH0 KECCAK256 SLOAD PUSH1 0xD PUSH0 PUSH1 0xB DUP5 DUP2 SLOAD DUP2 LT PUSH2 0x15EB JUMPI PUSH2 0x15EA PUSH2 0x31F2 JUMP JUMPDEST JUMPDEST SWAP1 PUSH0 MSTORE PUSH1 0x20 PUSH0 KECCAK256 ADD PUSH0 SWAP1 SLOAD SWAP1 PUSH2 0x100 EXP SWAP1 DIV PUSH20 0xFFFFFFFFFFFFFFFFFFFFFFFFFFFFFFFFFFFFFFFF AND PUSH20 0xFFFFFFFFFFFFFFFFFFFFFFFFFFFFFFFFFFFFFFFF AND PUSH20 0xFFFFFFFFFFFFFFFFFFFFFFFFFFFFFFFFFFFFFFFF AND DUP2 MSTORE PUSH1 0x20 ADD SWAP1 DUP2 MSTORE PUSH1 0x20 ADD PUSH0 KECCAK256 DUP2 SWAP1 SSTORE POP JUMPDEST PUSH1 0xB DUP1 SLOAD DUP1 PUSH2 0x1663 JUMPI PUSH2 0x1662 PUSH2 0x32BA JUMP JUMPDEST JUMPDEST PUSH1 0x1 SWAP1 SUB DUP2 DUP2 SWAP1 PUSH0 MSTORE PUSH1 0x20 PUSH0 KECCAK256 ADD PUSH0 PUSH2 0x100 EXP DUP2 SLOAD SWAP1 PUSH20 0xFFFFFFFFFFFFFFFFFFFFFFFFFFFFFFFFFFFFFFFF MUL NOT AND SWAP1 SSTORE SWAP1 SSTORE PUSH0 PUSH1 0xC PUSH0 DUP7 PUSH20 0xFFFFFFFFFFFFFFFFFFFFFFFFFFFFFFFFFFFFFFFF AND PUSH20 0xFFFFFFFFFFFFFFFFFFFFFFFFFFFFFFFFFFFFFFFF AND DUP2 MSTORE PUSH1 0x20 ADD SWAP1 DUP2 MSTORE PUSH1 0x20 ADD PUSH0 KECCAK256 PUSH0 PUSH2 0x100 EXP DUP2 SLOAD DUP2 PUSH1 0xFF MUL NOT AND SWAP1 DUP4 ISZERO ISZERO MUL OR SWAP1 SSTORE POP PUSH0 PUSH1 0xD PUSH0 DUP7 PUSH20 0xFFFFFFFFFFFFFFFFFFFFFFFFFFFFFFFFFFFFFFFF AND PUSH20 0xFFFFFFFFFFFFFFFFFFFFFFFFFFFFFFFFFFFFFFFF AND DUP2 MSTORE PUSH1 0x20 ADD SWAP1 DUP2 MSTORE PUSH1 0x20 ADD PUSH0 KECCAK256 DUP2 SWAP1 SSTORE POP DUP4 PUSH20 0xFFFFFFFFFFFFFFFFFFFFFFFFFFFFFFFFFFFFFFFF AND PUSH32 0x8CE60EC723C7FCC3C3F6B1FFAA7B814B03DF348C312BB6E41929417162565664 PUSH1 0x40 MLOAD PUSH1 0x40 MLOAD DUP1 SWAP2 SUB SWAP1 LOG2 POP POP PUSH2 0x1778 PUSH2 0x1D8B JUMP JUMPDEST POP POP JUMP JUMPDEST PUSH1 0x60 PUSH1 0xB DUP1 SLOAD DUP1 PUSH1 0x20 MUL PUSH1 0x20 ADD PUSH1 0x40 MLOAD SWAP1 DUP2 ADD PUSH1 0x40 MSTORE DUP1 SWAP3 SWAP2 SWAP1 DUP2 DUP2 MSTORE PUSH1 0x20 ADD DUP3 DUP1 SLOAD DUP1 ISZERO PUSH2 0x17FD JUMPI PUSH1 0x20 MUL DUP3 ADD SWAP2 SWAP1 PUSH0 MSTORE PUSH1 0x20 PUSH0 KECCAK256 SWAP1 JUMPDEST DUP2 PUSH0 SWAP1 SLOAD SWAP1 PUSH2 0x100 EXP SWAP1 DIV PUSH20 0xFFFFFFFFFFFFFFFFFFFFFFFFFFFFFFFFFFFFFFFF AND PUSH20 0xFFFFFFFFFFFFFFFFFFFFFFFFFFFFFFFFFFFFFFFF AND DUP2 MSTORE PUSH1 0x20 ADD SWAP1 PUSH1 0x1 ADD SWAP1 DUP1 DUP4 GT PUSH2 0x17B4 JUMPI JUMPDEST POP POP POP POP POP SWAP1 POP SWAP1 JUMP JUMPDEST PUSH1 0x9 PUSH0 SWAP1 SLOAD SWAP1 PUSH2 0x100 EXP SWAP1 DIV PUSH20 0xFFFFFFFFFFFFFFFFFFFFFFFFFFFFFFFFFFFFFFFF AND PUSH20 0xFFFFFFFFFFFFFFFFFFFFFFFFFFFFFFFFFFFFFFFF AND CALLER PUSH20 0xFFFFFFFFFFFFFFFFFFFFFFFFFFFFFFFFFFFFFFFF AND EQ PUSH2 0x1896 JUMPI PUSH1 0x40 MLOAD PUSH32 0x8C379A000000000000000000000000000000000000000000000000000000000 DUP2 MSTORE PUSH1 0x4 ADD PUSH2 0x188D SWAP1 PUSH2 0x30DE JUMP JUMPDEST PUSH1 0x40 MLOAD DUP1 SWAP2 SUB SWAP1 REVERT JUMPDEST PUSH0 PUSH20 0xFFFFFFFFFFFFFFFFFFFFFFFFFFFFFFFFFFFFFFFF AND DUP2 PUSH20 0xFFFFFFFFFFFFFFFFFFFFFFFFFFFFFFFFFFFFFFFF AND SUB PUSH2 0x1904 JUMPI PUSH1 0x40 MLOAD PUSH32 0x8C379A000000000000000000000000000000000000000000000000000000000 DUP2 MSTORE PUSH1 0x4 ADD PUSH2 0x18FB SWAP1 PUSH2 0x3331 JUMP JUMPDEST PUSH1 0x40 MLOAD DUP1 SWAP2 SUB SWAP1 REVERT JUMPDEST DUP1 PUSH1 0x9 PUSH0 PUSH2 0x100 EXP DUP2 SLOAD DUP2 PUSH20 0xFFFFFFFFFFFFFFFFFFFFFFFFFFFFFFFFFFFFFFFF MUL NOT AND SWAP1 DUP4 PUSH20 0xFFFFFFFFFFFFFFFFFFFFFFFFFFFFFFFFFFFFFFFF AND MUL OR SWAP1 SSTORE POP POP JUMP JUMPDEST PUSH32 0xDB11624602202C396FA347735A55E345A3AEB3E60F8885E1A71F1BF8D5886DB7 DUP2 JUMP JUMPDEST PUSH32 0xDB11624602202C396FA347735A55E345A3AEB3E60F8885E1A71F1BF8D5886DB7 PUSH2 0x1995 DUP2 PUSH2 0x1CA9 JUMP JUMPDEST PUSH2 0x199D PUSH2 0x1CBD JUMP JUMPDEST PUSH0 PUSH20 0xFFFFFFFFFFFFFFFFFFFFFFFFFFFFFFFFFFFFFFFF AND DUP3 PUSH20 0xFFFFFFFFFFFFFFFFFFFFFFFFFFFFFFFFFFFFFFFF AND SUB PUSH2 0x1A0B JUMPI PUSH1 0x40 MLOAD PUSH32 0x8C379A000000000000000000000000000000000000000000000000000000000 DUP2 MSTORE PUSH1 0x4 ADD PUSH2 0x1A02 SWAP1 PUSH2 0x3399 JUMP JUMPDEST PUSH1 0x40 MLOAD DUP1 SWAP2 SUB SWAP1 REVERT JUMPDEST PUSH1 0xC PUSH0 DUP4 PUSH20 0xFFFFFFFFFFFFFFFFFFFFFFFFFFFFFFFFFFFFFFFF AND PUSH20 0xFFFFFFFFFFFFFFFFFFFFFFFFFFFFFFFFFFFFFFFF AND DUP2 MSTORE PUSH1 0x20 ADD SWAP1 DUP2 MSTORE PUSH1 0x20 ADD PUSH0 KECCAK256 PUSH0 SWAP1 SLOAD SWAP1 PUSH2 0x100 EXP SWAP1 DIV PUSH1 0xFF AND ISZERO PUSH2 0x1A95 JUMPI PUSH1 0x40 MLOAD PUSH32 0x8C379A000000000000000000000000000000000000000000000000000000000 DUP2 MSTORE PUSH1 0x4 ADD PUSH2 0x1A8C SWAP1 PUSH2 0x3401 JUMP JUMPDEST PUSH1 0x40 MLOAD DUP1 SWAP2 SUB SWAP1 REVERT JUMPDEST PUSH1 0x1 PUSH1 0xC PUSH0 DUP5 PUSH20 0xFFFFFFFFFFFFFFFFFFFFFFFFFFFFFFFFFFFFFFFF AND PUSH20 0xFFFFFFFFFFFFFFFFFFFFFFFFFFFFFFFFFFFFFFFF AND DUP2 MSTORE PUSH1 0x20 ADD SWAP1 DUP2 MSTORE PUSH1 0x20 ADD PUSH0 KECCAK256 PUSH0 PUSH2 0x100 EXP DUP2 SLOAD DUP2 PUSH1 0xFF MUL NOT AND SWAP1 DUP4 ISZERO ISZERO MUL OR SWAP1 SSTORE POP PUSH1 0xB DUP3 SWAP1 DUP1 PUSH1 0x1 DUP2 SLOAD ADD DUP1 DUP3 SSTORE DUP1 SWAP2 POP POP PUSH1 0x1 SWAP1 SUB SWAP1 PUSH0 MSTORE PUSH1 0x20 PUSH0 KECCAK256 ADD PUSH0 SWAP1 SWAP2 SWAP1 SWAP2 SWAP1 SWAP2 PUSH2 0x100 EXP DUP2 SLOAD DUP2 PUSH20 0xFFFFFFFFFFFFFFFFFFFFFFFFFFFFFFFFFFFFFFFF MUL NOT AND SWAP1 DUP4 PUSH20 0xFFFFFFFFFFFFFFFFFFFFFFFFFFFFFFFFFFFFFFFF AND MUL OR SWAP1 SSTORE POP PUSH1 0x1 PUSH1 0xB DUP1 SLOAD SWAP1 POP PUSH2 0x1B5C SWAP2 SWAP1 PUSH2 0x3287 JUMP JUMPDEST PUSH1 0xD PUSH0 DUP5 PUSH20 0xFFFFFFFFFFFFFFFFFFFFFFFFFFFFFFFFFFFFFFFF AND PUSH20 0xFFFFFFFFFFFFFFFFFFFFFFFFFFFFFFFFFFFFFFFF AND DUP2 MSTORE PUSH1 0x20 ADD SWAP1 DUP2 MSTORE PUSH1 0x20 ADD PUSH0 KECCAK256 DUP2 SWAP1 SSTORE POP PUSH0 PUSH1 0xE PUSH0 DUP5 PUSH20 0xFFFFFFFFFFFFFFFFFFFFFFFFFFFFFFFFFFFFFFFF AND PUSH20 0xFFFFFFFFFFFFFFFFFFFFFFFFFFFFFFFFFFFFFFFF AND DUP2 MSTORE PUSH1 0x20 ADD SWAP1 DUP2 MSTORE PUSH1 0x20 ADD PUSH0 KECCAK256 PUSH0 PUSH2 0x100 EXP DUP2 SLOAD DUP2 PUSH1 0xFF MUL NOT AND SWAP1 DUP4 ISZERO ISZERO MUL OR SWAP1 SSTORE POP DUP2 PUSH20 0xFFFFFFFFFFFFFFFFFFFFFFFFFFFFFFFFFFFFFFFF AND PUSH32 0xE82ACF77C2686315E6AEAA43CCEC710936B819CB5D01A31FADB2BF2A928C9342 PUSH1 0x40 MLOAD PUSH1 0x40 MLOAD DUP1 SWAP2 SUB SWAP1 LOG2 PUSH2 0x1C3C PUSH2 0x1D8B JUMP JUMPDEST POP POP JUMP JUMPDEST PUSH0 PUSH32 0x1FFC9A700000000000000000000000000000000000000000000000000000000 PUSH28 0xFFFFFFFFFFFFFFFFFFFFFFFFFFFFFFFFFFFFFFFFFFFFFFFFFFFFFFFF NOT AND DUP3 PUSH28 0xFFFFFFFFFFFFFFFFFFFFFFFFFFFFFFFFFFFFFFFFFFFFFFFFFFFFFFFF NOT AND EQ SWAP1 POP SWAP2 SWAP1 POP JUMP JUMPDEST PUSH2 0x1CBA DUP2 PUSH2 0x1CB5 PUSH2 0x1D95 JUMP JUMPDEST PUSH2 0x226E JUMP JUMPDEST POP JUMP JUMPDEST PUSH1 0x2 PUSH1 0x6 SLOAD SUB PUSH2 0x1D02 JUMPI PUSH1 0x40 MLOAD PUSH32 0x8C379A000000000000000000000000000000000000000000000000000000000 DUP2 MSTORE PUSH1 0x4 ADD PUSH2 0x1CF9 SWAP1 PUSH2 0x3469 JUMP JUMPDEST PUSH1 0x40 MLOAD DUP1 SWAP2 SUB SWAP1 REVERT JUMPDEST PUSH1 0x2 PUSH1 0x6 DUP2 SWAP1 SSTORE POP JUMP JUMPDEST PUSH0 PUSH20 0xFFFFFFFFFFFFFFFFFFFFFFFFFFFFFFFFFFFFFFFF AND DUP3 PUSH20 0xFFFFFFFFFFFFFFFFFFFFFFFFFFFFFFFFFFFFFFFF AND SUB PUSH2 0x1D7C JUMPI PUSH0 PUSH1 0x40 MLOAD PUSH32 0xEC442F0500000000000000000000000000000000000000000000000000000000 DUP2 MSTORE PUSH1 0x4 ADD PUSH2 0x1D73 SWAP2 SWAP1 PUSH2 0x2C5E JUMP JUMPDEST PUSH1 0x40 MLOAD DUP1 SWAP2 SUB SWAP1 REVERT JUMPDEST PUSH2 0x1D87 PUSH0 DUP4 DUP4 PUSH2 0x22BF JUMP JUMPDEST POP POP JUMP JUMPDEST PUSH1 0x1 PUSH1 0x6 DUP2 SWAP1 SSTORE POP JUMP JUMPDEST PUSH0 CALLER SWAP1 POP SWAP1 JUMP JUMPDEST PUSH2 0x1DA9 DUP4 DUP4 DUP4 PUSH1 0x1 PUSH2 0x2362 JUMP JUMPDEST POP POP POP JUMP JUMPDEST PUSH1 0xA PUSH1 0x14 SWAP1 SLOAD SWAP1 PUSH2 0x100 EXP SWAP1 DIV PUSH1 0xFF AND ISZERO PUSH2 0x1DFE JUMPI PUSH1 0x40 MLOAD PUSH32 0x8C379A000000000000000000000000000000000000000000000000000000000 DUP2 MSTORE PUSH1 0x4 ADD PUSH2 0x1DF5 SWAP1 PUSH2 0x351D JUMP JUMPDEST PUSH1 0x40 MLOAD DUP1 SWAP2 SUB SWAP1 REVERT JUMPDEST PUSH1 0xC PUSH0 DUP4 PUSH20 0xFFFFFFFFFFFFFFFFFFFFFFFFFFFFFFFFFFFFFFFF AND PUSH20 0xFFFFFFFFFFFFFFFFFFFFFFFFFFFFFFFFFFFFFFFF AND DUP2 MSTORE PUSH1 0x20 ADD SWAP1 DUP2 MSTORE PUSH1 0x20 ADD PUSH0 KECCAK256 PUSH0 SWAP1 SLOAD SWAP1 PUSH2 0x100 EXP SWAP1 DIV PUSH1 0xFF AND PUSH2 0x1E87 JUMPI PUSH1 0x40 MLOAD PUSH32 0x8C379A000000000000000000000000000000000000000000000000000000000 DUP2 MSTORE PUSH1 0x4 ADD PUSH2 0x1E7E SWAP1 PUSH2 0x3585 JUMP JUMPDEST PUSH1 0x40 MLOAD DUP1 SWAP2 SUB SWAP1 REVERT JUMPDEST PUSH1 0xC PUSH0 DUP3 PUSH20 0xFFFFFFFFFFFFFFFFFFFFFFFFFFFFFFFFFFFFFFFF AND PUSH20 0xFFFFFFFFFFFFFFFFFFFFFFFFFFFFFFFFFFFFFFFF AND DUP2 MSTORE PUSH1 0x20 ADD SWAP1 DUP2 MSTORE PUSH1 0x20 ADD PUSH0 KECCAK256 PUSH0 SWAP1 SLOAD SWAP1 PUSH2 0x100 EXP SWAP1 DIV PUSH1 0xFF AND PUSH2 0x1F10 JUMPI PUSH1 0x40 MLOAD PUSH32 0x8C379A000000000000000000000000000000000000000000000000000000000 DUP2 MSTORE PUSH1 0x4 ADD PUSH2 0x1F07 SWAP1 PUSH2 0x35ED JUMP JUMPDEST PUSH1 0x40 MLOAD DUP1 SWAP2 SUB SWAP1 REVERT JUMPDEST POP POP JUMP JUMPDEST PUSH0 DUP1 PUSH2 0x1F1E PUSH2 0x1D95 JUMP JUMPDEST SWAP1 POP PUSH2 0x1F2B DUP6 DUP3 DUP6 PUSH2 0x2531 JUMP JUMPDEST PUSH2 0x1F36 DUP6 DUP6 DUP6 PUSH2 0x25C4 JUMP JUMPDEST PUSH1 0x1 SWAP2 POP POP SWAP4 SWAP3 POP POP POP JUMP JUMPDEST PUSH1 0x1 PUSH1 0xE PUSH0 DUP4 PUSH20 0xFFFFFFFFFFFFFFFFFFFFFFFFFFFFFFFFFFFFFFFF AND PUSH20 0xFFFFFFFFFFFFFFFFFFFFFFFFFFFFFFFFFFFFFFFF AND DUP2 MSTORE PUSH1 0x20 ADD SWAP1 DUP2 MSTORE PUSH1 0x20 ADD PUSH0 KECCAK256 PUSH0 PUSH2 0x100 EXP DUP2 SLOAD DUP2 PUSH1 0xFF MUL NOT AND SWAP1 DUP4 ISZERO ISZERO MUL OR SWAP1 SSTORE POP PUSH0 PUSH2 0x1FA1 DUP4 PUSH2 0xD34 JUMP JUMPDEST GT PUSH1 0xE PUSH0 DUP5 PUSH20 0xFFFFFFFFFFFFFFFFFFFFFFFFFFFFFFFFFFFFFFFF AND PUSH20 0xFFFFFFFFFFFFFFFFFFFFFFFFFFFFFFFFFFFFFFFF AND DUP2 MSTORE PUSH1 0x20 ADD SWAP1 DUP2 MSTORE PUSH1 0x20 ADD PUSH0 KECCAK256 PUSH0 PUSH2 0x100 EXP DUP2 SLOAD DUP2 PUSH1 0xFF MUL NOT AND SWAP1 DUP4 ISZERO ISZERO MUL OR SWAP1 SSTORE POP POP POP JUMP JUMPDEST PUSH0 PUSH20 0xFFFFFFFFFFFFFFFFFFFFFFFFFFFFFFFFFFFFFFFF AND DUP3 PUSH20 0xFFFFFFFFFFFFFFFFFFFFFFFFFFFFFFFFFFFFFFFF AND SUB PUSH2 0x2069 JUMPI PUSH0 PUSH1 0x40 MLOAD PUSH32 0x96C6FD1E00000000000000000000000000000000000000000000000000000000 DUP2 MSTORE PUSH1 0x4 ADD PUSH2 0x2060 SWAP2 SWAP1 PUSH2 0x2C5E JUMP JUMPDEST PUSH1 0x40 MLOAD DUP1 SWAP2 SUB SWAP1 REVERT JUMPDEST PUSH2 0x2074 DUP3 PUSH0 DUP4 PUSH2 0x22BF JUMP JUMPDEST POP POP JUMP JUMPDEST PUSH0 PUSH2 0x2083 DUP4 DUP4 PUSH2 0xDA1 JUMP JUMPDEST PUSH2 0x2158 JUMPI PUSH1 0x1 PUSH1 0x5 PUSH0 DUP6 DUP2 MSTORE PUSH1 0x20 ADD SWAP1 DUP2 MSTORE PUSH1 0x20 ADD PUSH0 KECCAK256 PUSH0 ADD PUSH0 DUP5 PUSH20 0xFFFFFFFFFFFFFFFFFFFFFFFFFFFFFFFFFFFFFFFF AND PUSH20 0xFFFFFFFFFFFFFFFFFFFFFFFFFFFFFFFFFFFFFFFF AND DUP2 MSTORE PUSH1 0x20 ADD SWAP1 DUP2 MSTORE PUSH1 0x20 ADD PUSH0 KECCAK256 PUSH0 PUSH2 0x100 EXP DUP2 SLOAD DUP2 PUSH1 0xFF MUL NOT AND SWAP1 DUP4 ISZERO ISZERO MUL OR SWAP1 SSTORE POP PUSH2 0x20F5 PUSH2 0x1D95 JUMP JUMPDEST PUSH20 0xFFFFFFFFFFFFFFFFFFFFFFFFFFFFFFFFFFFFFFFF AND DUP3 PUSH20 0xFFFFFFFFFFFFFFFFFFFFFFFFFFFFFFFFFFFFFFFF AND DUP5 PUSH32 0x2F8788117E7EFF1D82E926EC794901D17C78024A50270940304540A733656F0D PUSH1 0x40 MLOAD PUSH1 0x40 MLOAD DUP1 SWAP2 SUB SWAP1 LOG4 PUSH1 0x1 SWAP1 POP PUSH2 0x215C JUMP JUMPDEST PUSH0 SWAP1 POP JUMPDEST SWAP3 SWAP2 POP POP JUMP JUMPDEST PUSH0 PUSH2 0x216D DUP4 DUP4 PUSH2 0xDA1 JUMP JUMPDEST ISZERO PUSH2 0x2242 JUMPI PUSH0 PUSH1 0x5 PUSH0 DUP6 DUP2 MSTORE PUSH1 0x20 ADD SWAP1 DUP2 MSTORE PUSH1 0x20 ADD PUSH0 KECCAK256 PUSH0 ADD PUSH0 DUP5 PUSH20 0xFFFFFFFFFFFFFFFFFFFFFFFFFFFFFFFFFFFFFFFF AND PUSH20 0xFFFFFFFFFFFFFFFFFFFFFFFFFFFFFFFFFFFFFFFF AND DUP2 MSTORE PUSH1 0x20 ADD SWAP1 DUP2 MSTORE PUSH1 0x20 ADD PUSH0 KECCAK256 PUSH0 PUSH2 0x100 EXP DUP2 SLOAD DUP2 PUSH1 0xFF MUL NOT AND SWAP1 DUP4 ISZERO ISZERO MUL OR SWAP1 SSTORE POP PUSH2 0x21DF PUSH2 0x1D95 JUMP JUMPDEST PUSH20 0xFFFFFFFFFFFFFFFFFFFFFFFFFFFFFFFFFFFFFFFF AND DUP3 PUSH20 0xFFFFFFFFFFFFFFFFFFFFFFFFFFFFFFFFFFFFFFFF AND DUP5 PUSH32 0xF6391F5C32D9C69D2A47EA670B442974B53935D1EDC7FD64EB21E047A839171B PUSH1 0x40 MLOAD PUSH1 0x40 MLOAD DUP1 SWAP2 SUB SWAP1 LOG4 PUSH1 0x1 SWAP1 POP PUSH2 0x2246 JUMP JUMPDEST PUSH0 SWAP1 POP JUMPDEST SWAP3 SWAP2 POP POP JUMP JUMPDEST PUSH0 DUP1 PUSH2 0x2256 PUSH2 0x1D95 JUMP JUMPDEST SWAP1 POP PUSH2 0x2263 DUP2 DUP6 DUP6 PUSH2 0x25C4 JUMP JUMPDEST PUSH1 0x1 SWAP2 POP POP SWAP3 SWAP2 POP POP JUMP JUMPDEST PUSH2 0x2278 DUP3 DUP3 PUSH2 0xDA1 JUMP JUMPDEST PUSH2 0x22BB JUMPI DUP1 DUP3 PUSH1 0x40 MLOAD PUSH32 0xE2517D3F00000000000000000000000000000000000000000000000000000000 DUP2 MSTORE PUSH1 0x4 ADD PUSH2 0x22B2 SWAP3 SWAP2 SWAP1 PUSH2 0x360B JUMP JUMPDEST PUSH1 0x40 MLOAD DUP1 SWAP2 SUB SWAP1 REVERT JUMPDEST POP POP JUMP JUMPDEST PUSH2 0x22CA DUP4 DUP4 DUP4 PUSH2 0x26B4 JUMP JUMPDEST PUSH0 PUSH20 0xFFFFFFFFFFFFFFFFFFFFFFFFFFFFFFFFFFFFFFFF AND DUP4 PUSH20 0xFFFFFFFFFFFFFFFFFFFFFFFFFFFFFFFFFFFFFFFF AND SUB PUSH2 0x235D JUMPI PUSH0 PUSH2 0x2306 PUSH2 0xC5E JUMP JUMPDEST SWAP1 POP PUSH0 PUSH2 0x2311 PUSH2 0xAB8 JUMP JUMPDEST SWAP1 POP DUP2 DUP2 GT ISZERO PUSH2 0x235A JUMPI DUP1 DUP3 PUSH1 0x40 MLOAD PUSH32 0x9E79F85400000000000000000000000000000000000000000000000000000000 DUP2 MSTORE PUSH1 0x4 ADD PUSH2 0x2351 SWAP3 SWAP2 SWAP1 PUSH2 0x3632 JUMP JUMPDEST PUSH1 0x40 MLOAD DUP1 SWAP2 SUB SWAP1 REVERT JUMPDEST POP POP JUMPDEST POP POP POP JUMP JUMPDEST PUSH0 PUSH20 0xFFFFFFFFFFFFFFFFFFFFFFFFFFFFFFFFFFFFFFFF AND DUP5 PUSH20 0xFFFFFFFFFFFFFFFFFFFFFFFFFFFFFFFFFFFFFFFF AND SUB PUSH2 0x23D2 JUMPI PUSH0 PUSH1 0x40 MLOAD PUSH32 0xE602DF0500000000000000000000000000000000000000000000000000000000 DUP2 MSTORE PUSH1 0x4 ADD PUSH2 0x23C9 SWAP2 SWAP1 PUSH2 0x2C5E JUMP JUMPDEST PUSH1 0x40 MLOAD DUP1 SWAP2 SUB SWAP1 REVERT JUMPDEST PUSH0 PUSH20 0xFFFFFFFFFFFFFFFFFFFFFFFFFFFFFFFFFFFFFFFF AND DUP4 PUSH20 0xFFFFFFFFFFFFFFFFFFFFFFFFFFFFFFFFFFFFFFFF AND SUB PUSH2 0x2442 JUMPI PUSH0 PUSH1 0x40 MLOAD PUSH32 0x94280D6200000000000000000000000000000000000000000000000000000000 DUP2 MSTORE PUSH1 0x4 ADD PUSH2 0x2439 SWAP2 SWAP1 PUSH2 0x2C5E JUMP JUMPDEST PUSH1 0x40 MLOAD DUP1 SWAP2 SUB SWAP1 REVERT JUMPDEST DUP2 PUSH1 0x1 PUSH0 DUP7 PUSH20 0xFFFFFFFFFFFFFFFFFFFFFFFFFFFFFFFFFFFFFFFF AND PUSH20 0xFFFFFFFFFFFFFFFFFFFFFFFFFFFFFFFFFFFFFFFF AND DUP2 MSTORE PUSH1 0x20 ADD SWAP1 DUP2 MSTORE PUSH1 0x20 ADD PUSH0 KECCAK256 PUSH0 DUP6 PUSH20 0xFFFFFFFFFFFFFFFFFFFFFFFFFFFFFFFFFFFFFFFF AND PUSH20 0xFFFFFFFFFFFFFFFFFFFFFFFFFFFFFFFFFFFFFFFF AND DUP2 MSTORE PUSH1 0x20 ADD SWAP1 DUP2 MSTORE PUSH1 0x20 ADD PUSH0 KECCAK256 DUP2 SWAP1 SSTORE POP DUP1 ISZERO PUSH2 0x252B JUMPI DUP3 PUSH20 0xFFFFFFFFFFFFFFFFFFFFFFFFFFFFFFFFFFFFFFFF AND DUP5 PUSH20 0xFFFFFFFFFFFFFFFFFFFFFFFFFFFFFFFFFFFFFFFF AND PUSH32 0x8C5BE1E5EBEC7D5BD14F71427D1E84F3DD0314C0F7B2291E5B200AC8C7C3B925 DUP5 PUSH1 0x40 MLOAD PUSH2 0x2522 SWAP2 SWAP1 PUSH2 0x2AEE JUMP JUMPDEST PUSH1 0x40 MLOAD DUP1 SWAP2 SUB SWAP1 LOG3 JUMPDEST POP POP POP POP JUMP JUMPDEST PUSH0 PUSH2 0x253C DUP5 DUP5 PUSH2 0x116F JUMP JUMPDEST SWAP1 POP PUSH32 0xFFFFFFFFFFFFFFFFFFFFFFFFFFFFFFFFFFFFFFFFFFFFFFFFFFFFFFFFFFFFFFFF DUP2 LT ISZERO PUSH2 0x25BE JUMPI DUP2 DUP2 LT ISZERO PUSH2 0x25AF JUMPI DUP3 DUP2 DUP4 PUSH1 0x40 MLOAD PUSH32 0xFB8F41B200000000000000000000000000000000000000000000000000000000 DUP2 MSTORE PUSH1 0x4 ADD PUSH2 0x25A6 SWAP4 SWAP3 SWAP2 SWAP1 PUSH2 0x3659 JUMP JUMPDEST PUSH1 0x40 MLOAD DUP1 SWAP2 SUB SWAP1 REVERT JUMPDEST PUSH2 0x25BD DUP5 DUP5 DUP5 DUP5 SUB PUSH0 PUSH2 0x2362 JUMP JUMPDEST JUMPDEST POP POP POP POP JUMP JUMPDEST PUSH0 PUSH20 0xFFFFFFFFFFFFFFFFFFFFFFFFFFFFFFFFFFFFFFFF AND DUP4 PUSH20 0xFFFFFFFFFFFFFFFFFFFFFFFFFFFFFFFFFFFFFFFF AND SUB PUSH2 0x2634 JUMPI PUSH0 PUSH1 0x40 MLOAD PUSH32 0x96C6FD1E00000000000000000000000000000000000000000000000000000000 DUP2 MSTORE PUSH1 0x4 ADD PUSH2 0x262B SWAP2 SWAP1 PUSH2 0x2C5E JUMP JUMPDEST PUSH1 0x40 MLOAD DUP1 SWAP2 SUB SWAP1 REVERT JUMPDEST PUSH0 PUSH20 0xFFFFFFFFFFFFFFFFFFFFFFFFFFFFFFFFFFFFFFFF AND DUP3 PUSH20 0xFFFFFFFFFFFFFFFFFFFFFFFFFFFFFFFFFFFFFFFF AND SUB PUSH2 0x26A4 JUMPI PUSH0 PUSH1 0x40 MLOAD PUSH32 0xEC442F0500000000000000000000000000000000000000000000000000000000 DUP2 MSTORE PUSH1 0x4 ADD PUSH2 0x269B SWAP2 SWAP1 PUSH2 0x2C5E JUMP JUMPDEST PUSH1 0x40 MLOAD DUP1 SWAP2 SUB SWAP1 REVERT JUMPDEST PUSH2 0x26AF DUP4 DUP4 DUP4 PUSH2 0x22BF JUMP JUMPDEST POP POP POP JUMP JUMPDEST PUSH0 PUSH20 0xFFFFFFFFFFFFFFFFFFFFFFFFFFFFFFFFFFFFFFFF AND DUP4 PUSH20 0xFFFFFFFFFFFFFFFFFFFFFFFFFFFFFFFFFFFFFFFF AND SUB PUSH2 0x2704 JUMPI DUP1 PUSH1 0x2 PUSH0 DUP3 DUP3 SLOAD PUSH2 0x26F8 SWAP2 SWAP1 PUSH2 0x368E JUMP JUMPDEST SWAP3 POP POP DUP2 SWAP1 SSTORE POP PUSH2 0x27D2 JUMP JUMPDEST PUSH0 DUP1 PUSH0 DUP6 PUSH20 0xFFFFFFFFFFFFFFFFFFFFFFFFFFFFFFFFFFFFFFFF AND PUSH20 0xFFFFFFFFFFFFFFFFFFFFFFFFFFFFFFFFFFFFFFFF AND DUP2 MSTORE PUSH1 0x20 ADD SWAP1 DUP2 MSTORE PUSH1 0x20 ADD PUSH0 KECCAK256 SLOAD SWAP1 POP DUP2 DUP2 LT ISZERO PUSH2 0x278D JUMPI DUP4 DUP2 DUP4 PUSH1 0x40 MLOAD PUSH32 0xE450D38C00000000000000000000000000000000000000000000000000000000 DUP2 MSTORE PUSH1 0x4 ADD PUSH2 0x2784 SWAP4 SWAP3 SWAP2 SWAP1 PUSH2 0x3659 JUMP JUMPDEST PUSH1 0x40 MLOAD DUP1 SWAP2 SUB SWAP1 REVERT JUMPDEST DUP2 DUP2 SUB PUSH0 DUP1 DUP7 PUSH20 0xFFFFFFFFFFFFFFFFFFFFFFFFFFFFFFFFFFFFFFFF AND PUSH20 0xFFFFFFFFFFFFFFFFFFFFFFFFFFFFFFFFFFFFFFFF AND DUP2 MSTORE PUSH1 0x20 ADD SWAP1 DUP2 MSTORE PUSH1 0x20 ADD PUSH0 KECCAK256 DUP2 SWAP1 SSTORE POP POP JUMPDEST PUSH0 PUSH20 0xFFFFFFFFFFFFFFFFFFFFFFFFFFFFFFFFFFFFFFFF AND DUP3 PUSH20 0xFFFFFFFFFFFFFFFFFFFFFFFFFFFFFFFFFFFFFFFF AND SUB PUSH2 0x2819 JUMPI DUP1 PUSH1 0x2 PUSH0 DUP3 DUP3 SLOAD SUB SWAP3 POP POP DUP2 SWAP1 SSTORE POP PUSH2 0x2863 JUMP JUMPDEST DUP1 PUSH0 DUP1 DUP5 PUSH20 0xFFFFFFFFFFFFFFFFFFFFFFFFFFFFFFFFFFFFFFFF AND PUSH20 0xFFFFFFFFFFFFFFFFFFFFFFFFFFFFFFFFFFFFFFFF AND DUP2 MSTORE PUSH1 0x20 ADD SWAP1 DUP2 MSTORE PUSH1 0x20 ADD PUSH0 KECCAK256 PUSH0 DUP3 DUP3 SLOAD ADD SWAP3 POP POP DUP2 SWAP1 SSTORE POP JUMPDEST DUP2 PUSH20 0xFFFFFFFFFFFFFFFFFFFFFFFFFFFFFFFFFFFFFFFF AND DUP4 PUSH20 0xFFFFFFFFFFFFFFFFFFFFFFFFFFFFFFFFFFFFFFFF AND PUSH32 0xDDF252AD1BE2C89B69C2B068FC378DAA952BA7F163C4A11628F55A4DF523B3EF DUP4 PUSH1 0x40 MLOAD PUSH2 0x28C0 SWAP2 SWAP1 PUSH2 0x2AEE JUMP JUMPDEST PUSH1 0x40 MLOAD DUP1 SWAP2 SUB SWAP1 LOG3 POP POP POP JUMP JUMPDEST PUSH0 DUP1 REVERT JUMPDEST PUSH0 PUSH32 0xFFFFFFFF00000000000000000000000000000000000000000000000000000000 DUP3 AND SWAP1 POP SWAP2 SWAP1 POP JUMP JUMPDEST PUSH2 0x2905 DUP2 PUSH2 0x28D1 JUMP JUMPDEST DUP2 EQ PUSH2 0x290F JUMPI PUSH0 DUP1 REVERT JUMPDEST POP JUMP JUMPDEST PUSH0 DUP2 CALLDATALOAD SWAP1 POP PUSH2 0x2920 DUP2 PUSH2 0x28FC JUMP JUMPDEST SWAP3 SWAP2 POP POP JUMP JUMPDEST PUSH0 PUSH1 0x20 DUP3 DUP5 SUB SLT ISZERO PUSH2 0x293B JUMPI PUSH2 0x293A PUSH2 0x28CD JUMP JUMPDEST JUMPDEST PUSH0 PUSH2 0x2948 DUP5 DUP3 DUP6 ADD PUSH2 0x2912 JUMP JUMPDEST SWAP2 POP POP SWAP3 SWAP2 POP POP JUMP JUMPDEST PUSH0 DUP2 ISZERO ISZERO SWAP1 POP SWAP2 SWAP1 POP JUMP JUMPDEST PUSH2 0x2965 DUP2 PUSH2 0x2951 JUMP JUMPDEST DUP3 MSTORE POP POP JUMP JUMPDEST PUSH0 PUSH1 0x20 DUP3 ADD SWAP1 POP PUSH2 0x297E PUSH0 DUP4 ADD DUP5 PUSH2 0x295C JUMP JUMPDEST SWAP3 SWAP2 POP POP JUMP JUMPDEST PUSH0 PUSH20 0xFFFFFFFFFFFFFFFFFFFFFFFFFFFFFFFFFFFFFFFF DUP3 AND SWAP1 POP SWAP2 SWAP1 POP JUMP JUMPDEST PUSH0 PUSH2 0x29AD DUP3 PUSH2 0x2984 JUMP JUMPDEST SWAP1 POP SWAP2 SWAP1 POP JUMP JUMPDEST PUSH2 0x29BD DUP2 PUSH2 0x29A3 JUMP JUMPDEST DUP2 EQ PUSH2 0x29C7 JUMPI PUSH0 DUP1 REVERT JUMPDEST POP JUMP JUMPDEST PUSH0 DUP2 CALLDATALOAD SWAP1 POP PUSH2 0x29D8 DUP2 PUSH2 0x29B4 JUMP JUMPDEST SWAP3 SWAP2 POP POP JUMP JUMPDEST PUSH0 DUP2 SWAP1 POP SWAP2 SWAP1 POP JUMP JUMPDEST PUSH2 0x29F0 DUP2 PUSH2 0x29DE JUMP JUMPDEST DUP2 EQ PUSH2 0x29FA JUMPI PUSH0 DUP1 REVERT JUMPDEST POP JUMP JUMPDEST PUSH0 DUP2 CALLDATALOAD SWAP1 POP PUSH2 0x2A0B DUP2 PUSH2 0x29E7 JUMP JUMPDEST SWAP3 SWAP2 POP POP JUMP JUMPDEST PUSH0 DUP1 PUSH1 0x40 DUP4 DUP6 SUB SLT ISZERO PUSH2 0x2A27 JUMPI PUSH2 0x2A26 PUSH2 0x28CD JUMP JUMPDEST JUMPDEST PUSH0 PUSH2 0x2A34 DUP6 DUP3 DUP7 ADD PUSH2 0x29CA JUMP JUMPDEST SWAP3 POP POP PUSH1 0x20 PUSH2 0x2A45 DUP6 DUP3 DUP7 ADD PUSH2 0x29FD JUMP JUMPDEST SWAP2 POP POP SWAP3 POP SWAP3 SWAP1 POP JUMP JUMPDEST PUSH0 DUP2 MLOAD SWAP1 POP SWAP2 SWAP1 POP JUMP JUMPDEST PUSH0 DUP3 DUP3 MSTORE PUSH1 0x20 DUP3 ADD SWAP1 POP SWAP3 SWAP2 POP POP JUMP JUMPDEST DUP3 DUP2 DUP4 MCOPY PUSH0 DUP4 DUP4 ADD MSTORE POP POP POP JUMP JUMPDEST PUSH0 PUSH1 0x1F NOT PUSH1 0x1F DUP4 ADD AND SWAP1 POP SWAP2 SWAP1 POP JUMP JUMPDEST PUSH0 PUSH2 0x2A91 DUP3 PUSH2 0x2A4F JUMP JUMPDEST PUSH2 0x2A9B DUP2 DUP6 PUSH2 0x2A59 JUMP JUMPDEST SWAP4 POP PUSH2 0x2AAB DUP2 DUP6 PUSH1 0x20 DUP7 ADD PUSH2 0x2A69 JUMP JUMPDEST PUSH2 0x2AB4 DUP2 PUSH2 0x2A77 JUMP JUMPDEST DUP5 ADD SWAP2 POP POP SWAP3 SWAP2 POP POP JUMP JUMPDEST PUSH0 PUSH1 0x20 DUP3 ADD SWAP1 POP DUP2 DUP2 SUB PUSH0 DUP4 ADD MSTORE PUSH2 0x2AD7 DUP2 DUP5 PUSH2 0x2A87 JUMP JUMPDEST SWAP1 POP SWAP3 SWAP2 POP POP JUMP JUMPDEST PUSH2 0x2AE8 DUP2 PUSH2 0x29DE JUMP JUMPDEST DUP3 MSTORE POP POP JUMP JUMPDEST PUSH0 PUSH1 0x20 DUP3 ADD SWAP1 POP PUSH2 0x2B01 PUSH0 DUP4 ADD DUP5 PUSH2 0x2ADF JUMP JUMPDEST SWAP3 SWAP2 POP POP JUMP JUMPDEST PUSH0 DUP1 PUSH0 PUSH1 0x60 DUP5 DUP7 SUB SLT ISZERO PUSH2 0x2B1E JUMPI PUSH2 0x2B1D PUSH2 0x28CD JUMP JUMPDEST JUMPDEST PUSH0 PUSH2 0x2B2B DUP7 DUP3 DUP8 ADD PUSH2 0x29CA JUMP JUMPDEST SWAP4 POP POP PUSH1 0x20 PUSH2 0x2B3C DUP7 DUP3 DUP8 ADD PUSH2 0x29CA JUMP JUMPDEST SWAP3 POP POP PUSH1 0x40 PUSH2 0x2B4D DUP7 DUP3 DUP8 ADD PUSH2 0x29FD JUMP JUMPDEST SWAP2 POP POP SWAP3 POP SWAP3 POP SWAP3 JUMP JUMPDEST PUSH0 DUP2 SWAP1 POP SWAP2 SWAP1 POP JUMP JUMPDEST PUSH2 0x2B69 DUP2 PUSH2 0x2B57 JUMP JUMPDEST DUP2 EQ PUSH2 0x2B73 JUMPI PUSH0 DUP1 REVERT JUMPDEST POP JUMP JUMPDEST PUSH0 DUP2 CALLDATALOAD SWAP1 POP PUSH2 0x2B84 DUP2 PUSH2 0x2B60 JUMP JUMPDEST SWAP3 SWAP2 POP POP JUMP JUMPDEST PUSH0 PUSH1 0x20 DUP3 DUP5 SUB SLT ISZERO PUSH2 0x2B9F JUMPI PUSH2 0x2B9E PUSH2 0x28CD JUMP JUMPDEST JUMPDEST PUSH0 PUSH2 0x2BAC DUP5 DUP3 DUP6 ADD PUSH2 0x2B76 JUMP JUMPDEST SWAP2 POP POP SWAP3 SWAP2 POP POP JUMP JUMPDEST PUSH2 0x2BBE DUP2 PUSH2 0x2B57 JUMP JUMPDEST DUP3 MSTORE POP POP JUMP JUMPDEST PUSH0 PUSH1 0x20 DUP3 ADD SWAP1 POP PUSH2 0x2BD7 PUSH0 DUP4 ADD DUP5 PUSH2 0x2BB5 JUMP JUMPDEST SWAP3 SWAP2 POP POP JUMP JUMPDEST PUSH0 DUP1 PUSH1 0x40 DUP4 DUP6 SUB SLT ISZERO PUSH2 0x2BF3 JUMPI PUSH2 0x2BF2 PUSH2 0x28CD JUMP JUMPDEST JUMPDEST PUSH0 PUSH2 0x2C00 DUP6 DUP3 DUP7 ADD PUSH2 0x2B76 JUMP JUMPDEST SWAP3 POP POP PUSH1 0x20 PUSH2 0x2C11 DUP6 DUP3 DUP7 ADD PUSH2 0x29CA JUMP JUMPDEST SWAP2 POP POP SWAP3 POP SWAP3 SWAP1 POP JUMP JUMPDEST PUSH0 PUSH1 0xFF DUP3 AND SWAP1 POP SWAP2 SWAP1 POP JUMP JUMPDEST PUSH2 0x2C30 DUP2 PUSH2 0x2C1B JUMP JUMPDEST DUP3 MSTORE POP POP JUMP JUMPDEST PUSH0 PUSH1 0x20 DUP3 ADD SWAP1 POP PUSH2 0x2C49 PUSH0 DUP4 ADD DUP5 PUSH2 0x2C27 JUMP JUMPDEST SWAP3 SWAP2 POP POP JUMP JUMPDEST PUSH2 0x2C58 DUP2 PUSH2 0x29A3 JUMP JUMPDEST DUP3 MSTORE POP POP JUMP JUMPDEST PUSH0 PUSH1 0x20 DUP3 ADD SWAP1 POP PUSH2 0x2C71 PUSH0 DUP4 ADD DUP5 PUSH2 0x2C4F JUMP JUMPDEST SWAP3 SWAP2 POP POP JUMP JUMPDEST PUSH0 PUSH1 0x20 DUP3 DUP5 SUB SLT ISZERO PUSH2 0x2C8C JUMPI PUSH2 0x2C8B PUSH2 0x28CD JUMP JUMPDEST JUMPDEST PUSH0 PUSH2 0x2C99 DUP5 DUP3 DUP6 ADD PUSH2 0x29CA JUMP JUMPDEST SWAP2 POP POP SWAP3 SWAP2 POP POP JUMP JUMPDEST PUSH0 PUSH2 0x2CAC DUP3 PUSH2 0x2984 JUMP JUMPDEST SWAP1 POP SWAP2 SWAP1 POP JUMP JUMPDEST PUSH2 0x2CBC DUP2 PUSH2 0x2CA2 JUMP JUMPDEST DUP3 MSTORE POP POP JUMP JUMPDEST PUSH0 PUSH1 0x20 DUP3 ADD SWAP1 POP PUSH2 0x2CD5 PUSH0 DUP4 ADD DUP5 PUSH2 0x2CB3 JUMP JUMPDEST SWAP3 SWAP2 POP POP JUMP JUMPDEST PUSH2 0x2CE4 DUP2 PUSH2 0x2951 JUMP JUMPDEST DUP2 EQ PUSH2 0x2CEE JUMPI PUSH0 DUP1 REVERT JUMPDEST POP JUMP JUMPDEST PUSH0 DUP2 CALLDATALOAD SWAP1 POP PUSH2 0x2CFF DUP2 PUSH2 0x2CDB JUMP JUMPDEST SWAP3 SWAP2 POP POP JUMP JUMPDEST PUSH0 PUSH1 0x20 DUP3 DUP5 SUB SLT ISZERO PUSH2 0x2D1A JUMPI PUSH2 0x2D19 PUSH2 0x28CD JUMP JUMPDEST JUMPDEST PUSH0 PUSH2 0x2D27 DUP5 DUP3 DUP6 ADD PUSH2 0x2CF1 JUMP JUMPDEST SWAP2 POP POP SWAP3 SWAP2 POP POP JUMP JUMPDEST PUSH0 DUP1 PUSH1 0x40 DUP4 DUP6 SUB SLT ISZERO PUSH2 0x2D46 JUMPI PUSH2 0x2D45 PUSH2 0x28CD JUMP JUMPDEST JUMPDEST PUSH0 PUSH2 0x2D53 DUP6 DUP3 DUP7 ADD PUSH2 0x29CA JUMP JUMPDEST SWAP3 POP POP PUSH1 0x20 PUSH2 0x2D64 DUP6 DUP3 DUP7 ADD PUSH2 0x29CA JUMP JUMPDEST SWAP2 POP POP SWAP3 POP SWAP3 SWAP1 POP JUMP JUMPDEST PUSH0 DUP2 MLOAD SWAP1 POP SWAP2 SWAP1 POP JUMP JUMPDEST PUSH0 DUP3 DUP3 MSTORE PUSH1 0x20 DUP3 ADD SWAP1 POP SWAP3 SWAP2 POP POP JUMP JUMPDEST PUSH0 DUP2 SWAP1 POP PUSH1 0x20 DUP3 ADD SWAP1 POP SWAP2 SWAP1 POP JUMP JUMPDEST PUSH2 0x2DA0 DUP2 PUSH2 0x29A3 JUMP JUMPDEST DUP3 MSTORE POP POP JUMP JUMPDEST PUSH0 PUSH2 0x2DB1 DUP4 DUP4 PUSH2 0x2D97 JUMP JUMPDEST PUSH1 0x20 DUP4 ADD SWAP1 POP SWAP3 SWAP2 POP POP JUMP JUMPDEST PUSH0 PUSH1 0x20 DUP3 ADD SWAP1 POP SWAP2 SWAP1 POP JUMP JUMPDEST PUSH0 PUSH2 0x2DD3 DUP3 PUSH2 0x2D6E JUMP JUMPDEST PUSH2 0x2DDD DUP2 DUP6 PUSH2 0x2D78 JUMP JUMPDEST SWAP4 POP PUSH2 0x2DE8 DUP4 PUSH2 0x2D88 JUMP JUMPDEST DUP1 PUSH0 JUMPDEST DUP4 DUP2 LT ISZERO PUSH2 0x2E18 JUMPI DUP2 MLOAD PUSH2 0x2DFF DUP9 DUP3 PUSH2 0x2DA6 JUMP JUMPDEST SWAP8 POP PUSH2 0x2E0A DUP4 PUSH2 0x2DBD JUMP JUMPDEST SWAP3 POP POP PUSH1 0x1 DUP2 ADD SWAP1 POP PUSH2 0x2DEB JUMP JUMPDEST POP DUP6 SWAP4 POP POP POP POP SWAP3 SWAP2 POP POP JUMP JUMPDEST PUSH0 PUSH1 0x20 DUP3 ADD SWAP1 POP DUP2 DUP2 SUB PUSH0 DUP4 ADD MSTORE PUSH2 0x2E3D DUP2 DUP5 PUSH2 0x2DC9 JUMP JUMPDEST SWAP1 POP SWAP3 SWAP2 POP POP JUMP JUMPDEST PUSH32 0x62757965722069732061207A65726F2061646472657373000000000000000000 PUSH0 DUP3 ADD MSTORE POP JUMP JUMPDEST PUSH0 PUSH2 0x2E79 PUSH1 0x17 DUP4 PUSH2 0x2A59 JUMP JUMPDEST SWAP2 POP PUSH2 0x2E84 DUP3 PUSH2 0x2E45 JUMP JUMPDEST PUSH1 0x20 DUP3 ADD SWAP1 POP SWAP2 SWAP1 POP JUMP JUMPDEST PUSH0 PUSH1 0x20 DUP3 ADD SWAP1 POP DUP2 DUP2 SUB PUSH0 DUP4 ADD MSTORE PUSH2 0x2EA6 DUP2 PUSH2 0x2E6D JUMP JUMPDEST SWAP1 POP SWAP2 SWAP1 POP JUMP JUMPDEST PUSH32 0x776569416D6F756E742069732030000000000000000000000000000000000000 PUSH0 DUP3 ADD MSTORE POP JUMP JUMPDEST PUSH0 PUSH2 0x2EE1 PUSH1 0xE DUP4 PUSH2 0x2A59 JUMP JUMPDEST SWAP2 POP PUSH2 0x2EEC DUP3 PUSH2 0x2EAD JUMP JUMPDEST PUSH1 0x20 DUP3 ADD SWAP1 POP SWAP2 SWAP1 POP JUMP JUMPDEST PUSH0 PUSH1 0x20 DUP3 ADD SWAP1 POP DUP2 DUP2 SUB PUSH0 DUP4 ADD MSTORE PUSH2 0x2F0E DUP2 PUSH2 0x2ED5 JUMP JUMPDEST SWAP1 POP SWAP2 SWAP1 POP JUMP JUMPDEST PUSH32 0x4E487B7100000000000000000000000000000000000000000000000000000000 PUSH0 MSTORE PUSH1 0x11 PUSH1 0x4 MSTORE PUSH1 0x24 PUSH0 REVERT JUMPDEST PUSH0 PUSH2 0x2F4C DUP3 PUSH2 0x29DE JUMP JUMPDEST SWAP2 POP PUSH2 0x2F57 DUP4 PUSH2 0x29DE JUMP JUMPDEST SWAP3 POP DUP3 DUP3 MUL PUSH2 0x2F65 DUP2 PUSH2 0x29DE JUMP JUMPDEST SWAP2 POP DUP3 DUP3 DIV DUP5 EQ DUP4 ISZERO OR PUSH2 0x2F7C JUMPI PUSH2 0x2F7B PUSH2 0x2F15 JUMP JUMPDEST JUMPDEST POP SWAP3 SWAP2 POP POP JUMP JUMPDEST PUSH32 0x4E487B7100000000000000000000000000000000000000000000000000000000 PUSH0 MSTORE PUSH1 0x22 PUSH1 0x4 MSTORE PUSH1 0x24 PUSH0 REVERT JUMPDEST PUSH0 PUSH1 0x2 DUP3 DIV SWAP1 POP PUSH1 0x1 DUP3 AND DUP1 PUSH2 0x2FC7 JUMPI PUSH1 0x7F DUP3 AND SWAP2 POP JUMPDEST PUSH1 0x20 DUP3 LT DUP2 SUB PUSH2 0x2FDA JUMPI PUSH2 0x2FD9 PUSH2 0x2F83 JUMP JUMPDEST JUMPDEST POP SWAP2 SWAP1 POP JUMP JUMPDEST PUSH32 0x45524332303A206275726E2066726F6D20746865207A65726F20616464726573 PUSH0 DUP3 ADD MSTORE PUSH32 0x7300000000000000000000000000000000000000000000000000000000000000 PUSH1 0x20 DUP3 ADD MSTORE POP JUMP JUMPDEST PUSH0 PUSH2 0x303A PUSH1 0x21 DUP4 PUSH2 0x2A59 JUMP JUMPDEST SWAP2 POP PUSH2 0x3045 DUP3 PUSH2 0x2FE0 JUMP JUMPDEST PUSH1 0x40 DUP3 ADD SWAP1 POP SWAP2 SWAP1 POP JUMP JUMPDEST PUSH0 PUSH1 0x20 DUP3 ADD SWAP1 POP DUP2 DUP2 SUB PUSH0 DUP4 ADD MSTORE PUSH2 0x3067 DUP2 PUSH2 0x302E JUMP JUMPDEST SWAP1 POP SWAP2 SWAP1 POP JUMP JUMPDEST PUSH32 0x4F6E6C7920746865204F776E65722063616E2063616C6C20746869732066756E PUSH0 DUP3 ADD MSTORE PUSH32 0x6374696F6E000000000000000000000000000000000000000000000000000000 PUSH1 0x20 DUP3 ADD MSTORE POP JUMP JUMPDEST PUSH0 PUSH2 0x30C8 PUSH1 0x25 DUP4 PUSH2 0x2A59 JUMP JUMPDEST SWAP2 POP PUSH2 0x30D3 DUP3 PUSH2 0x306E JUMP JUMPDEST PUSH1 0x40 DUP3 ADD SWAP1 POP SWAP2 SWAP1 POP JUMP JUMPDEST PUSH0 PUSH1 0x20 DUP3 ADD SWAP1 POP DUP2 DUP2 SUB PUSH0 DUP4 ADD MSTORE PUSH2 0x30F5 DUP2 PUSH2 0x30BC JUMP JUMPDEST SWAP1 POP SWAP2 SWAP1 POP JUMP JUMPDEST PUSH32 0x55736572206973206E6F74204B59436564000000000000000000000000000000 PUSH0 DUP3 ADD MSTORE POP JUMP JUMPDEST PUSH0 PUSH2 0x3130 PUSH1 0x11 DUP4 PUSH2 0x2A59 JUMP JUMPDEST SWAP2 POP PUSH2 0x313B DUP3 PUSH2 0x30FC JUMP JUMPDEST PUSH1 0x20 DUP3 ADD SWAP1 POP SWAP2 SWAP1 POP JUMP JUMPDEST PUSH0 PUSH1 0x20 DUP3 ADD SWAP1 POP DUP2 DUP2 SUB PUSH0 DUP4 ADD MSTORE PUSH2 0x315D DUP2 PUSH2 0x3124 JUMP JUMPDEST SWAP1 POP SWAP2 SWAP1 POP JUMP JUMPDEST PUSH32 0x55736572206F776E7320746F6B656E732C2063616E6E6F742072656D6F766520 PUSH0 DUP3 ADD MSTORE PUSH32 0x66726F6D204B5943206C69737400000000000000000000000000000000000000 PUSH1 0x20 DUP3 ADD MSTORE POP JUMP JUMPDEST PUSH0 PUSH2 0x31BE PUSH1 0x2D DUP4 PUSH2 0x2A59 JUMP JUMPDEST SWAP2 POP PUSH2 0x31C9 DUP3 PUSH2 0x3164 JUMP JUMPDEST PUSH1 0x40 DUP3 ADD SWAP1 POP SWAP2 SWAP1 POP JUMP JUMPDEST PUSH0 PUSH1 0x20 DUP3 ADD SWAP1 POP DUP2 DUP2 SUB PUSH0 DUP4 ADD MSTORE PUSH2 0x31EB DUP2 PUSH2 0x31B2 JUMP JUMPDEST SWAP1 POP SWAP2 SWAP1 POP JUMP JUMPDEST PUSH32 0x4E487B7100000000000000000000000000000000000000000000000000000000 PUSH0 MSTORE PUSH1 0x32 PUSH1 0x4 MSTORE PUSH1 0x24 PUSH0 REVERT JUMPDEST PUSH32 0x55736572206E6F7420666F756E6420696E204B5943206C697374000000000000 PUSH0 DUP3 ADD MSTORE POP JUMP JUMPDEST PUSH0 PUSH2 0x3253 PUSH1 0x1A DUP4 PUSH2 0x2A59 JUMP JUMPDEST SWAP2 POP PUSH2 0x325E DUP3 PUSH2 0x321F JUMP JUMPDEST PUSH1 0x20 DUP3 ADD SWAP1 POP SWAP2 SWAP1 POP JUMP JUMPDEST PUSH0 PUSH1 0x20 DUP3 ADD SWAP1 POP DUP2 DUP2 SUB PUSH0 DUP4 ADD MSTORE PUSH2 0x3280 DUP2 PUSH2 0x3247 JUMP JUMPDEST SWAP1 POP SWAP2 SWAP1 POP JUMP JUMPDEST PUSH0 PUSH2 0x3291 DUP3 PUSH2 0x29DE JUMP JUMPDEST SWAP2 POP PUSH2 0x329C DUP4 PUSH2 0x29DE JUMP JUMPDEST SWAP3 POP DUP3 DUP3 SUB SWAP1 POP DUP2 DUP2 GT ISZERO PUSH2 0x32B4 JUMPI PUSH2 0x32B3 PUSH2 0x2F15 JUMP JUMPDEST JUMPDEST SWAP3 SWAP2 POP POP JUMP JUMPDEST PUSH32 0x4E487B7100000000000000000000000000000000000000000000000000000000 PUSH0 MSTORE PUSH1 0x31 PUSH1 0x4 MSTORE PUSH1 0x24 PUSH0 REVERT JUMPDEST PUSH32 0x496E76616C6964206E6577206F776E657220616464726573732E000000000000 PUSH0 DUP3 ADD MSTORE POP JUMP JUMPDEST PUSH0 PUSH2 0x331B PUSH1 0x1A DUP4 PUSH2 0x2A59 JUMP JUMPDEST SWAP2 POP PUSH2 0x3326 DUP3 PUSH2 0x32E7 JUMP JUMPDEST PUSH1 0x20 DUP3 ADD SWAP1 POP SWAP2 SWAP1 POP JUMP JUMPDEST PUSH0 PUSH1 0x20 DUP3 ADD SWAP1 POP DUP2 DUP2 SUB PUSH0 DUP4 ADD MSTORE PUSH2 0x3348 DUP2 PUSH2 0x330F JUMP JUMPDEST SWAP1 POP SWAP2 SWAP1 POP JUMP JUMPDEST PUSH32 0x496E76616C696420616464726573730000000000000000000000000000000000 PUSH0 DUP3 ADD MSTORE POP JUMP JUMPDEST PUSH0 PUSH2 0x3383 PUSH1 0xF DUP4 PUSH2 0x2A59 JUMP JUMPDEST SWAP2 POP PUSH2 0x338E DUP3 PUSH2 0x334F JUMP JUMPDEST PUSH1 0x20 DUP3 ADD SWAP1 POP SWAP2 SWAP1 POP JUMP JUMPDEST PUSH0 PUSH1 0x20 DUP3 ADD SWAP1 POP DUP2 DUP2 SUB PUSH0 DUP4 ADD MSTORE PUSH2 0x33B0 DUP2 PUSH2 0x3377 JUMP JUMPDEST SWAP1 POP SWAP2 SWAP1 POP JUMP JUMPDEST PUSH32 0x5573657220697320616C7265616479204B594365640000000000000000000000 PUSH0 DUP3 ADD MSTORE POP JUMP JUMPDEST PUSH0 PUSH2 0x33EB PUSH1 0x15 DUP4 PUSH2 0x2A59 JUMP JUMPDEST SWAP2 POP PUSH2 0x33F6 DUP3 PUSH2 0x33B7 JUMP JUMPDEST PUSH1 0x20 DUP3 ADD SWAP1 POP SWAP2 SWAP1 POP JUMP JUMPDEST PUSH0 PUSH1 0x20 DUP3 ADD SWAP1 POP DUP2 DUP2 SUB PUSH0 DUP4 ADD MSTORE PUSH2 0x3418 DUP2 PUSH2 0x33DF JUMP JUMPDEST SWAP1 POP SWAP2 SWAP1 POP JUMP JUMPDEST PUSH32 0x5265656E7472616E637947756172643A207265656E7472616E742063616C6C00 PUSH0 DUP3 ADD MSTORE POP JUMP JUMPDEST PUSH0 PUSH2 0x3453 PUSH1 0x1F DUP4 PUSH2 0x2A59 JUMP JUMPDEST SWAP2 POP PUSH2 0x345E DUP3 PUSH2 0x341F JUMP JUMPDEST PUSH1 0x20 DUP3 ADD SWAP1 POP SWAP2 SWAP1 POP JUMP JUMPDEST PUSH0 PUSH1 0x20 DUP3 ADD SWAP1 POP DUP2 DUP2 SUB PUSH0 DUP4 ADD MSTORE PUSH2 0x3480 DUP2 PUSH2 0x3447 JUMP JUMPDEST SWAP1 POP SWAP2 SWAP1 POP JUMP JUMPDEST PUSH32 0x4469766964656E6420506572696F64206973206F6E676F696E672C20616C6C20 PUSH0 DUP3 ADD MSTORE PUSH32 0x7472616E73666572732077696C6C20726573756D652061667465722064697669 PUSH1 0x20 DUP3 ADD MSTORE PUSH32 0x64656E6420706572696F642E0000000000000000000000000000000000000000 PUSH1 0x40 DUP3 ADD MSTORE POP JUMP JUMPDEST PUSH0 PUSH2 0x3507 PUSH1 0x4C DUP4 PUSH2 0x2A59 JUMP JUMPDEST SWAP2 POP PUSH2 0x3512 DUP3 PUSH2 0x3487 JUMP JUMPDEST PUSH1 0x60 DUP3 ADD SWAP1 POP SWAP2 SWAP1 POP JUMP JUMPDEST PUSH0 PUSH1 0x20 DUP3 ADD SWAP1 POP DUP2 DUP2 SUB PUSH0 DUP4 ADD MSTORE PUSH2 0x3534 DUP2 PUSH2 0x34FB JUMP JUMPDEST SWAP1 POP SWAP2 SWAP1 POP JUMP JUMPDEST PUSH32 0x53656E646572206973206E6F74204B5943656400000000000000000000000000 PUSH0 DUP3 ADD MSTORE POP JUMP JUMPDEST PUSH0 PUSH2 0x356F PUSH1 0x13 DUP4 PUSH2 0x2A59 JUMP JUMPDEST SWAP2 POP PUSH2 0x357A DUP3 PUSH2 0x353B JUMP JUMPDEST PUSH1 0x20 DUP3 ADD SWAP1 POP SWAP2 SWAP1 POP JUMP JUMPDEST PUSH0 PUSH1 0x20 DUP3 ADD SWAP1 POP DUP2 DUP2 SUB PUSH0 DUP4 ADD MSTORE PUSH2 0x359C DUP2 PUSH2 0x3563 JUMP JUMPDEST SWAP1 POP SWAP2 SWAP1 POP JUMP JUMPDEST PUSH32 0x526563697069656E74206973206E6F74204B5943656400000000000000000000 PUSH0 DUP3 ADD MSTORE POP JUMP JUMPDEST PUSH0 PUSH2 0x35D7 PUSH1 0x16 DUP4 PUSH2 0x2A59 JUMP JUMPDEST SWAP2 POP PUSH2 0x35E2 DUP3 PUSH2 0x35A3 JUMP JUMPDEST PUSH1 0x20 DUP3 ADD SWAP1 POP SWAP2 SWAP1 POP JUMP JUMPDEST PUSH0 PUSH1 0x20 DUP3 ADD SWAP1 POP DUP2 DUP2 SUB PUSH0 DUP4 ADD MSTORE PUSH2 0x3604 DUP2 PUSH2 0x35CB JUMP JUMPDEST SWAP1 POP SWAP2 SWAP1 POP JUMP JUMPDEST PUSH0 PUSH1 0x40 DUP3 ADD SWAP1 POP PUSH2 0x361E PUSH0 DUP4 ADD DUP6 PUSH2 0x2C4F JUMP JUMPDEST PUSH2 0x362B PUSH1 0x20 DUP4 ADD DUP5 PUSH2 0x2BB5 JUMP JUMPDEST SWAP4 SWAP3 POP POP POP JUMP JUMPDEST PUSH0 PUSH1 0x40 DUP3 ADD SWAP1 POP PUSH2 0x3645 PUSH0 DUP4 ADD DUP6 PUSH2 0x2ADF JUMP JUMPDEST PUSH2 0x3652 PUSH1 0x20 DUP4 ADD DUP5 PUSH2 0x2ADF JUMP JUMPDEST SWAP4 SWAP3 POP POP POP JUMP JUMPDEST PUSH0 PUSH1 0x60 DUP3 ADD SWAP1 POP PUSH2 0x366C PUSH0 DUP4 ADD DUP7 PUSH2 0x2C4F JUMP JUMPDEST PUSH2 0x3679 PUSH1 0x20 DUP4 ADD DUP6 PUSH2 0x2ADF JUMP JUMPDEST PUSH2 0x3686 PUSH1 0x40 DUP4 ADD DUP5 PUSH2 0x2ADF JUMP JUMPDEST SWAP5 SWAP4 POP POP POP POP JUMP JUMPDEST PUSH0 PUSH2 0x3698 DUP3 PUSH2 0x29DE JUMP JUMPDEST SWAP2 POP PUSH2 0x36A3 DUP4 PUSH2 0x29DE JUMP JUMPDEST SWAP3 POP DUP3 DUP3 ADD SWAP1 POP DUP1 DUP3 GT ISZERO PUSH2 0x36BB JUMPI PUSH2 0x36BA PUSH2 0x2F15 JUMP JUMPDEST JUMPDEST SWAP3 SWAP2 POP POP JUMP INVALID LOG2 PUSH5 0x6970667358 0x22 SLT KECCAK256 0xF6 0x2B MSTORE8 TLOAD MULMOD COINBASE 0x4D 0xC1 0xBA 0xC SWAP2 DUP1 SDIV SWAP2 PUSH31 0xB08C19D29319220F7CE4414627587DD4A364736F6C634300081A0033000000 "
				},
				"gasEstimates": {
					"creation": {
						"codeDepositCost": "2814200",
						"executionCost": "infinite",
						"totalCost": "infinite"
					},
					"external": {
						"DEFAULT_ADMIN_ROLE()": "442",
						"KYC_ROLE()": "435",
						"MINTER_ROLE()": "436",
						"addKYCUser(address)": "infinite",
						"addMinter(address)": "77929",
						"allowance(address,address)": "infinite",
						"approve(address,uint256)": "infinite",
						"balanceOf(address)": "2940",
						"burnMyBalance(address,uint256)": "infinite",
						"cap()": "infinite",
						"decimals()": "2563",
						"getBeneficiary()": "2582",
						"getDividendPaymentPeriodState()": "2591",
						"getKYCList()": "infinite",
						"getOwnedTokens(address)": "2959",
						"getRoleAdmin(bytes32)": "infinite",
						"grantRole(bytes32,address)": "infinite",
						"hasRole(bytes32,address)": "3168",
						"isKYCed(address)": "2959",
						"kycUsersListLength()": "2529",
						"name()": "infinite",
						"owner()": "2648",
						"rate()": "2478",
						"removeKYCUser(address)": "infinite",
						"renounceRole(bytes32,address)": "infinite",
						"revokeRole(bytes32,address)": "infinite",
						"sendTokens(address,uint256)": "infinite",
						"supportsInterface(bytes4)": "764",
						"symbol()": "infinite",
						"totalSupply()": "2478",
						"transfer(address,uint256)": "infinite",
						"transferFrom(address,address,uint256)": "infinite",
						"transferOwnership(address)": "27006",
						"updateDividendPeriodStatus(bool)": "56537",
						"updateOwnsToken(address)": "infinite"
					},
					"internal": {
						"_updateTokenOwnership(address,address)": "50962",
						"_validateTransfer(address,address)": "infinite"
					}
				},
				"methodIdentifiers": {
					"DEFAULT_ADMIN_ROLE()": "a217fddf",
					"KYC_ROLE()": "f9c8dec3",
					"MINTER_ROLE()": "d5391393",
					"addKYCUser(address)": "fb4900fc",
					"addMinter(address)": "983b2d56",
					"allowance(address,address)": "dd62ed3e",
					"approve(address,uint256)": "095ea7b3",
					"balanceOf(address)": "70a08231",
					"burnMyBalance(address,uint256)": "263719c1",
					"cap()": "355274ea",
					"decimals()": "313ce567",
					"getBeneficiary()": "565a2e2c",
					"getDividendPaymentPeriodState()": "d8326a18",
					"getKYCList()": "f2f2a8ef",
					"getOwnedTokens(address)": "d9d61655",
					"getRoleAdmin(bytes32)": "248a9ca3",
					"grantRole(bytes32,address)": "2f2ff15d",
					"hasRole(bytes32,address)": "91d14854",
					"isKYCed(address)": "b4c7f1ed",
					"kycUsersListLength()": "629044d2",
					"name()": "06fdde03",
					"owner()": "8da5cb5b",
					"rate()": "2c4e722e",
					"removeKYCUser(address)": "ed831fa4",
					"renounceRole(bytes32,address)": "36568abe",
					"revokeRole(bytes32,address)": "d547741f",
					"sendTokens(address,uint256)": "05ab421d",
					"supportsInterface(bytes4)": "01ffc9a7",
					"symbol()": "95d89b41",
					"totalSupply()": "18160ddd",
					"transfer(address,uint256)": "a9059cbb",
					"transferFrom(address,address,uint256)": "23b872dd",
					"transferOwnership(address)": "f2fde38b",
					"updateDividendPeriodStatus(bool)": "d5dd4c02",
					"updateOwnsToken(address)": "a9eb3f99"
				}
			},
			"storageLayout": {
				"storage": [
					{
						"astId": 603,
						"contract": "contracts/tokenContract.sol:KYCToken",
						"label": "_balances",
						"offset": 0,
						"slot": "0",
						"type": "t_mapping(t_address,t_uint256)"
					},
					{
						"astId": 609,
						"contract": "contracts/tokenContract.sol:KYCToken",
						"label": "_allowances",
						"offset": 0,
						"slot": "1",
						"type": "t_mapping(t_address,t_mapping(t_address,t_uint256))"
					},
					{
						"astId": 611,
						"contract": "contracts/tokenContract.sol:KYCToken",
						"label": "_totalSupply",
						"offset": 0,
						"slot": "2",
						"type": "t_uint256"
					},
					{
						"astId": 613,
						"contract": "contracts/tokenContract.sol:KYCToken",
						"label": "_name",
						"offset": 0,
						"slot": "3",
						"type": "t_string_storage"
					},
					{
						"astId": 615,
						"contract": "contracts/tokenContract.sol:KYCToken",
						"label": "_symbol",
						"offset": 0,
						"slot": "4",
						"type": "t_string_storage"
					},
					{
						"astId": 26,
						"contract": "contracts/tokenContract.sol:KYCToken",
						"label": "_roles",
						"offset": 0,
						"slot": "5",
						"type": "t_mapping(t_bytes32,t_struct(RoleData)21_storage)"
					},
					{
						"astId": 526,
						"contract": "contracts/tokenContract.sol:KYCToken",
						"label": "_status",
						"offset": 0,
						"slot": "6",
						"type": "t_uint256"
					},
					{
						"astId": 1389,
						"contract": "contracts/tokenContract.sol:KYCToken",
						"label": "_decimals",
						"offset": 0,
						"slot": "7",
						"type": "t_uint8"
					},
					{
						"astId": 1391,
						"contract": "contracts/tokenContract.sol:KYCToken",
						"label": "_rate",
						"offset": 0,
						"slot": "8",
						"type": "t_uint256"
					},
					{
						"astId": 1393,
						"contract": "contracts/tokenContract.sol:KYCToken",
						"label": "_owner",
						"offset": 0,
						"slot": "9",
						"type": "t_address_payable"
					},
					{
						"astId": 1395,
						"contract": "contracts/tokenContract.sol:KYCToken",
						"label": "_beneficiary",
						"offset": 0,
						"slot": "10",
						"type": "t_address"
					},
					{
						"astId": 1397,
						"contract": "contracts/tokenContract.sol:KYCToken",
						"label": "_dividendPeriod",
						"offset": 20,
						"slot": "10",
						"type": "t_bool"
					},
					{
						"astId": 1400,
						"contract": "contracts/tokenContract.sol:KYCToken",
						"label": "_kycUsers",
						"offset": 0,
						"slot": "11",
						"type": "t_array(t_address)dyn_storage"
					},
					{
						"astId": 1404,
						"contract": "contracts/tokenContract.sol:KYCToken",
						"label": "_isKYCed",
						"offset": 0,
						"slot": "12",
						"type": "t_mapping(t_address,t_bool)"
					},
					{
						"astId": 1408,
						"contract": "contracts/tokenContract.sol:KYCToken",
						"label": "_kycUserIndices",
						"offset": 0,
						"slot": "13",
						"type": "t_mapping(t_address,t_uint256)"
					},
					{
						"astId": 1412,
						"contract": "contracts/tokenContract.sol:KYCToken",
						"label": "_ownsTokens",
						"offset": 0,
						"slot": "14",
						"type": "t_mapping(t_address,t_bool)"
					}
				],
				"types": {
					"t_address": {
						"encoding": "inplace",
						"label": "address",
						"numberOfBytes": "20"
					},
					"t_address_payable": {
						"encoding": "inplace",
						"label": "address payable",
						"numberOfBytes": "20"
					},
					"t_array(t_address)dyn_storage": {
						"base": "t_address",
						"encoding": "dynamic_array",
						"label": "address[]",
						"numberOfBytes": "32"
					},
					"t_bool": {
						"encoding": "inplace",
						"label": "bool",
						"numberOfBytes": "1"
					},
					"t_bytes32": {
						"encoding": "inplace",
						"label": "bytes32",
						"numberOfBytes": "32"
					},
					"t_mapping(t_address,t_bool)": {
						"encoding": "mapping",
						"key": "t_address",
						"label": "mapping(address => bool)",
						"numberOfBytes": "32",
						"value": "t_bool"
					},
					"t_mapping(t_address,t_mapping(t_address,t_uint256))": {
						"encoding": "mapping",
						"key": "t_address",
						"label": "mapping(address => mapping(address => uint256))",
						"numberOfBytes": "32",
						"value": "t_mapping(t_address,t_uint256)"
					},
					"t_mapping(t_address,t_uint256)": {
						"encoding": "mapping",
						"key": "t_address",
						"label": "mapping(address => uint256)",
						"numberOfBytes": "32",
						"value": "t_uint256"
					},
					"t_mapping(t_bytes32,t_struct(RoleData)21_storage)": {
						"encoding": "mapping",
						"key": "t_bytes32",
						"label": "mapping(bytes32 => struct AccessControl.RoleData)",
						"numberOfBytes": "32",
						"value": "t_struct(RoleData)21_storage"
					},
					"t_string_storage": {
						"encoding": "bytes",
						"label": "string",
						"numberOfBytes": "32"
					},
					"t_struct(RoleData)21_storage": {
						"encoding": "inplace",
						"label": "struct AccessControl.RoleData",
						"members": [
							{
								"astId": 18,
								"contract": "contracts/tokenContract.sol:KYCToken",
								"label": "hasRole",
								"offset": 0,
								"slot": "0",
								"type": "t_mapping(t_address,t_bool)"
							},
							{
								"astId": 20,
								"contract": "contracts/tokenContract.sol:KYCToken",
								"label": "adminRole",
								"offset": 0,
								"slot": "1",
								"type": "t_bytes32"
							}
						],
						"numberOfBytes": "64"
					},
					"t_uint256": {
						"encoding": "inplace",
						"label": "uint256",
						"numberOfBytes": "32"
					},
					"t_uint8": {
						"encoding": "inplace",
						"label": "uint8",
						"numberOfBytes": "1"
					}
				}
			},
			"userdoc": {
				"kind": "user",
				"methods": {},
				"version": 1
			}
		}
	}
}